Archive member included to satisfy reference by file (symbol)

/usr/lib/gcc/arm-none-eabi/9.2.1/thumb/v6-m/nofp/libgcc.a(_dvmd_tls.o)
                              CMakeFiles/assign02.dir/home/cian/Desktop/pico/pico-sdk/src/rp2_common/pico_divider/divider.S.obj (__aeabi_idiv0)
/usr/lib/gcc/arm-none-eabi/9.2.1/../../../arm-none-eabi/lib/thumb/v6-m/nofp/libc.a(lib_a-atexit.o)
                              /usr/lib/gcc/arm-none-eabi/9.2.1/../../../arm-none-eabi/lib/thumb/v6-m/nofp/crt0.o (atexit)
/usr/lib/gcc/arm-none-eabi/9.2.1/../../../arm-none-eabi/lib/thumb/v6-m/nofp/libc.a(lib_a-calloc.o)
                              CMakeFiles/assign02.dir/home/cian/Desktop/pico/pico-sdk/src/rp2_common/pico_malloc/pico_malloc.c.obj (calloc)
/usr/lib/gcc/arm-none-eabi/9.2.1/../../../arm-none-eabi/lib/thumb/v6-m/nofp/libc.a(lib_a-callocr.o)
                              /usr/lib/gcc/arm-none-eabi/9.2.1/../../../arm-none-eabi/lib/thumb/v6-m/nofp/libc.a(lib_a-calloc.o) (_calloc_r)
/usr/lib/gcc/arm-none-eabi/9.2.1/../../../arm-none-eabi/lib/thumb/v6-m/nofp/libc.a(lib_a-fini.o)
                              /usr/lib/gcc/arm-none-eabi/9.2.1/../../../arm-none-eabi/lib/thumb/v6-m/nofp/crt0.o (__libc_fini_array)
/usr/lib/gcc/arm-none-eabi/9.2.1/../../../arm-none-eabi/lib/thumb/v6-m/nofp/libc.a(lib_a-impure.o)
                              /usr/lib/gcc/arm-none-eabi/9.2.1/../../../arm-none-eabi/lib/thumb/v6-m/nofp/libc.a(lib_a-calloc.o) (_impure_ptr)
/usr/lib/gcc/arm-none-eabi/9.2.1/../../../arm-none-eabi/lib/thumb/v6-m/nofp/libc.a(lib_a-init.o)
                              /usr/lib/gcc/arm-none-eabi/9.2.1/../../../arm-none-eabi/lib/thumb/v6-m/nofp/crt0.o (__libc_init_array)
/usr/lib/gcc/arm-none-eabi/9.2.1/../../../arm-none-eabi/lib/thumb/v6-m/nofp/libc.a(lib_a-malloc.o)
                              CMakeFiles/assign02.dir/home/cian/Desktop/pico/pico-sdk/src/rp2_common/pico_malloc/pico_malloc.c.obj (malloc)
/usr/lib/gcc/arm-none-eabi/9.2.1/../../../arm-none-eabi/lib/thumb/v6-m/nofp/libc.a(lib_a-mallocr.o)
                              /usr/lib/gcc/arm-none-eabi/9.2.1/../../../arm-none-eabi/lib/thumb/v6-m/nofp/libc.a(lib_a-callocr.o) (_malloc_r)
/usr/lib/gcc/arm-none-eabi/9.2.1/../../../arm-none-eabi/lib/thumb/v6-m/nofp/libc.a(lib_a-mlock.o)
                              /usr/lib/gcc/arm-none-eabi/9.2.1/../../../arm-none-eabi/lib/thumb/v6-m/nofp/libc.a(lib_a-mallocr.o) (__malloc_lock)
/usr/lib/gcc/arm-none-eabi/9.2.1/../../../arm-none-eabi/lib/thumb/v6-m/nofp/libc.a(lib_a-rand.o)
                              CMakeFiles/assign02.dir/assign02.c.obj (srand)
/usr/lib/gcc/arm-none-eabi/9.2.1/../../../arm-none-eabi/lib/thumb/v6-m/nofp/libc.a(lib_a-sbrkr.o)
                              /usr/lib/gcc/arm-none-eabi/9.2.1/../../../arm-none-eabi/lib/thumb/v6-m/nofp/libc.a(lib_a-mallocr.o) (_sbrk_r)
/usr/lib/gcc/arm-none-eabi/9.2.1/../../../arm-none-eabi/lib/thumb/v6-m/nofp/libc.a(lib_a-strlen-stub.o)
                              CMakeFiles/assign02.dir/assign02.c.obj (strlen)
/usr/lib/gcc/arm-none-eabi/9.2.1/../../../arm-none-eabi/lib/thumb/v6-m/nofp/libc.a(lib_a-__atexit.o)
                              /usr/lib/gcc/arm-none-eabi/9.2.1/../../../arm-none-eabi/lib/thumb/v6-m/nofp/libc.a(lib_a-atexit.o) (__register_exitproc)
/usr/lib/gcc/arm-none-eabi/9.2.1/../../../arm-none-eabi/lib/thumb/v6-m/nofp/libc.a(lib_a-freer.o)
                              /usr/lib/gcc/arm-none-eabi/9.2.1/../../../arm-none-eabi/lib/thumb/v6-m/nofp/libc.a(lib_a-malloc.o) (_free_r)
/usr/lib/gcc/arm-none-eabi/9.2.1/../../../arm-none-eabi/lib/thumb/v6-m/nofp/libc.a(lib_a-reent.o)
                              /usr/lib/gcc/arm-none-eabi/9.2.1/../../../arm-none-eabi/lib/thumb/v6-m/nofp/libc.a(lib_a-sbrkr.o) (errno)

Allocating common symbols
Common symbol       size              file

sf_table            0x100             CMakeFiles/assign02.dir/home/cian/Desktop/pico/pico-sdk/src/rp2_common/pico_float/float_init_rom.c.obj
errno               0x4               /usr/lib/gcc/arm-none-eabi/9.2.1/../../../arm-none-eabi/lib/thumb/v6-m/nofp/libc.a(lib_a-reent.o)
Q                   0x14              CMakeFiles/assign02.dir/assign02.c.obj
sd_table            0x100             CMakeFiles/assign02.dir/home/cian/Desktop/pico/pico-sdk/src/rp2_common/pico_double/double_init_rom.c.obj
uart_char_to_line_feed
                    0x4               CMakeFiles/assign02.dir/home/cian/Desktop/pico/pico-sdk/src/rp2_common/hardware_uart/uart.c.obj
q                   0x1e              CMakeFiles/assign02.dir/assign02.c.obj

Discarded input sections

 .text          0x0000000000000000        0x0 /usr/lib/gcc/arm-none-eabi/9.2.1/thumb/v6-m/nofp/crti.o
 .data          0x0000000000000000        0x0 /usr/lib/gcc/arm-none-eabi/9.2.1/thumb/v6-m/nofp/crti.o
 .bss           0x0000000000000000        0x0 /usr/lib/gcc/arm-none-eabi/9.2.1/thumb/v6-m/nofp/crti.o
 .data          0x0000000000000000        0x4 /usr/lib/gcc/arm-none-eabi/9.2.1/thumb/v6-m/nofp/crtbegin.o
 .fini_array    0x0000000000000000        0x4 /usr/lib/gcc/arm-none-eabi/9.2.1/thumb/v6-m/nofp/crtbegin.o
 .text          0x0000000000000000       0x74 /usr/lib/gcc/arm-none-eabi/9.2.1/../../../arm-none-eabi/lib/thumb/v6-m/nofp/crt0.o
 .data          0x0000000000000000        0x0 /usr/lib/gcc/arm-none-eabi/9.2.1/../../../arm-none-eabi/lib/thumb/v6-m/nofp/crt0.o
 .bss           0x0000000000000000        0x0 /usr/lib/gcc/arm-none-eabi/9.2.1/../../../arm-none-eabi/lib/thumb/v6-m/nofp/crt0.o
 .ARM.extab     0x0000000000000000        0x0 /usr/lib/gcc/arm-none-eabi/9.2.1/../../../arm-none-eabi/lib/thumb/v6-m/nofp/crt0.o
 .ARM.exidx     0x0000000000000000       0x10 /usr/lib/gcc/arm-none-eabi/9.2.1/../../../arm-none-eabi/lib/thumb/v6-m/nofp/crt0.o
 .debug_line    0x0000000000000000       0x8c /usr/lib/gcc/arm-none-eabi/9.2.1/../../../arm-none-eabi/lib/thumb/v6-m/nofp/crt0.o
 .debug_info    0x0000000000000000       0x26 /usr/lib/gcc/arm-none-eabi/9.2.1/../../../arm-none-eabi/lib/thumb/v6-m/nofp/crt0.o
 .debug_abbrev  0x0000000000000000       0x14 /usr/lib/gcc/arm-none-eabi/9.2.1/../../../arm-none-eabi/lib/thumb/v6-m/nofp/crt0.o
 .debug_aranges
                0x0000000000000000       0x20 /usr/lib/gcc/arm-none-eabi/9.2.1/../../../arm-none-eabi/lib/thumb/v6-m/nofp/crt0.o
 .debug_str     0x0000000000000000       0x94 /usr/lib/gcc/arm-none-eabi/9.2.1/../../../arm-none-eabi/lib/thumb/v6-m/nofp/crt0.o
 .ARM.attributes
                0x0000000000000000       0x1b /usr/lib/gcc/arm-none-eabi/9.2.1/../../../arm-none-eabi/lib/thumb/v6-m/nofp/crt0.o
Memory Configuration

Name             Origin             Length             Attributes
FLASH            0x0000000010000000 0x0000000000200000 xr
RAM              0x0000000020000000 0x0000000000040000 xrw
SCRATCH_X        0x0000000020040000 0x0000000000001000 xrw
SCRATCH_Y        0x0000000020041000 0x0000000000001000 xrw
*default*        0x0000000000000000 0xffffffffffffffff

Linker script and memory map

LOAD /usr/lib/gcc/arm-none-eabi/9.2.1/thumb/v6-m/nofp/crti.o
LOAD /usr/lib/gcc/arm-none-eabi/9.2.1/thumb/v6-m/nofp/crtbegin.o
LOAD /usr/lib/gcc/arm-none-eabi/9.2.1/../../../arm-none-eabi/lib/thumb/v6-m/nofp/crt0.o

.flash_begin    0x0000000010000000        0x0
                0x0000000010000000                __flash_binary_start = .

.boot2          0x0000000010000000      0x100
                0x0000000010000000                __boot2_start__ = .
 *(.boot2)
 .boot2         0x0000000010000000      0x100 /tmp/ccOQ1rVp.o
                0x0000000010000100                __boot2_end__ = .
                0x0000000000000001                ASSERT (((__boot2_end__ - __boot2_start__) == 0x100), ERROR: Pico second stage bootloader must be 256 bytes in size)

.text           0x0000000010000100     0x5008
                0x0000000010000100                __logical_binary_start = .
 *(.vectors)
 .vectors       0x0000000010000100       0xd4 CMakeFiles/assign02.dir/home/cian/Desktop/pico/pico-sdk/src/rp2_common/pico_standard_link/crt0.S.obj
                0x0000000010000100                __vectors
                0x0000000010000100                __VECTOR_TABLE
                0x00000000100001c0                isr_invalid
                0x00000000100001c0                __default_isrs_start
                0x00000000100001c2                isr_nmi
                0x00000000100001c4                isr_hardfault
                0x00000000100001c6                isr_svcall
                0x00000000100001c8                isr_pendsv
                0x00000000100001ca                isr_systick
                0x00000000100001cc                isr_irq30
                0x00000000100001cc                __unhandled_user_irq
                0x00000000100001cc                isr_irq13
                0x00000000100001cc                isr_irq27
                0x00000000100001cc                isr_irq31
                0x00000000100001cc                isr_irq5
                0x00000000100001cc                isr_irq11
                0x00000000100001cc                isr_irq23
                0x00000000100001cc                isr_irq18
                0x00000000100001cc                isr_irq28
                0x00000000100001cc                isr_irq19
                0x00000000100001cc                isr_irq0
                0x00000000100001cc                isr_irq6
                0x00000000100001cc                isr_irq22
                0x00000000100001cc                isr_irq17
                0x00000000100001cc                isr_irq14
                0x00000000100001cc                isr_irq2
                0x00000000100001cc                isr_irq10
                0x00000000100001cc                isr_irq8
                0x00000000100001cc                isr_irq24
                0x00000000100001cc                isr_irq1
                0x00000000100001cc                isr_irq7
                0x00000000100001cc                isr_irq21
                0x00000000100001cc                isr_irq20
                0x00000000100001cc                isr_irq15
                0x00000000100001cc                isr_irq25
                0x00000000100001cc                isr_irq4
                0x00000000100001cc                isr_irq16
                0x00000000100001cc                isr_irq29
                0x00000000100001cc                isr_irq26
                0x00000000100001cc                __default_isrs_end
                0x00000000100001cc                isr_irq3
                0x00000000100001cc                isr_irq12
                0x00000000100001cc                isr_irq9
                0x00000000100001d2                unhandled_user_irq_num_in_r0
 *(.binary_info_header)
 .binary_info_header
                0x00000000100001d4       0x14 CMakeFiles/assign02.dir/home/cian/Desktop/pico/pico-sdk/src/rp2_common/pico_standard_link/crt0.S.obj
                0x00000000100001e8                __binary_info_header_end = .
 *(.reset)
 .reset         0x00000000100001e8       0xa8 CMakeFiles/assign02.dir/home/cian/Desktop/pico/pico-sdk/src/rp2_common/pico_standard_link/crt0.S.obj
                0x00000000100001e8                _entry_point
                0x0000000010000266                __get_current_exception
 .reset         0x0000000010000290       0x30 CMakeFiles/assign02.dir/home/cian/Desktop/pico/pico-sdk/src/rp2_common/pico_standard_link/binary_info.c.obj
 *(.init)
 .init          0x00000000100002c0        0x4 /usr/lib/gcc/arm-none-eabi/9.2.1/thumb/v6-m/nofp/crti.o
                0x00000000100002c0                _init
 *(EXCLUDE_FILE(*libm.a: *libc.a:*lib_a-mem*.o *libgcc.a:) .text*)
 .text          0x00000000100002c4       0x98 /usr/lib/gcc/arm-none-eabi/9.2.1/thumb/v6-m/nofp/crtbegin.o
 .text.asm_gpio_init
                0x000000001000035c        0x8 CMakeFiles/assign02.dir/assign02.c.obj
                0x000000001000035c                asm_gpio_init
 .text.asm_gpio_set_dir
                0x0000000010000364       0x14 CMakeFiles/assign02.dir/assign02.c.obj
                0x0000000010000364                asm_gpio_set_dir
 .text.asm_gpio_get
                0x0000000010000378       0x10 CMakeFiles/assign02.dir/assign02.c.obj
                0x0000000010000378                asm_gpio_get
 .text.asm_gpio_put
                0x0000000010000388       0x14 CMakeFiles/assign02.dir/assign02.c.obj
                0x0000000010000388                asm_gpio_put
 .text.asm_gpio_set_irq
                0x000000001000039c       0x24 CMakeFiles/assign02.dir/assign02.c.obj
                0x000000001000039c                asm_gpio_set_irq
 .text.asm_time_us_32
                0x00000000100003c0        0xc CMakeFiles/assign02.dir/assign02.c.obj
                0x00000000100003c0                asm_time_us_32
 .text.get_len  0x00000000100003cc       0xa0 CMakeFiles/assign02.dir/assign02.c.obj
                0x00000000100003cc                get_len
 .text.set_lives
                0x000000001000046c       0x68 CMakeFiles/assign02.dir/assign02.c.obj
                0x000000001000046c                set_lives
 .text.set_level
                0x00000000100004d4       0x3c CMakeFiles/assign02.dir/assign02.c.obj
                0x00000000100004d4                set_level
 .text.print_q  0x0000000010000510       0x64 CMakeFiles/assign02.dir/assign02.c.obj
                0x0000000010000510                print_q
 .text.print_morse
                0x0000000010000574       0x6c CMakeFiles/assign02.dir/assign02.c.obj
                0x0000000010000574                print_morse
 .text.get_rand
                0x00000000100005e0      0x118 CMakeFiles/assign02.dir/assign02.c.obj
                0x00000000100005e0                get_rand
 .text.which_level
                0x00000000100006f8       0x44 CMakeFiles/assign02.dir/assign02.c.obj
                0x00000000100006f8                which_level
 .text.cmp_morse
                0x000000001000073c       0x44 CMakeFiles/assign02.dir/assign02.c.obj
                0x000000001000073c                cmp_morse
 .text.print_wrong
                0x0000000010000780       0x6c CMakeFiles/assign02.dir/assign02.c.obj
                0x0000000010000780                print_wrong
 .text.print_correct
                0x00000000100007ec       0x20 CMakeFiles/assign02.dir/assign02.c.obj
                0x00000000100007ec                print_correct
 .text.print_stats
                0x000000001000080c       0x80 CMakeFiles/assign02.dir/assign02.c.obj
                0x000000001000080c                print_stats
 .text.print_total_stats
                0x000000001000088c       0x70 CMakeFiles/assign02.dir/assign02.c.obj
                0x000000001000088c                print_total_stats
 .text.print_completed
                0x00000000100008fc       0x2c CMakeFiles/assign02.dir/assign02.c.obj
                0x00000000100008fc                print_completed
 .text.print_bad_input
                0x0000000010000928       0x10 CMakeFiles/assign02.dir/assign02.c.obj
                0x0000000010000928                print_bad_input
 .text.print_out_of_lives
                0x0000000010000938       0x78 CMakeFiles/assign02.dir/assign02.c.obj
                0x0000000010000938                print_out_of_lives
 .text.set_blue
                0x00000000100009b0       0x18 CMakeFiles/assign02.dir/assign02.c.obj
                0x00000000100009b0                set_blue
 .text.set_red  0x00000000100009c8       0x18 CMakeFiles/assign02.dir/assign02.c.obj
                0x00000000100009c8                set_red
 .text.set_colour
                0x00000000100009e0       0x74 CMakeFiles/assign02.dir/assign02.c.obj
                0x00000000100009e0                set_colour
 .text.print_err
                0x0000000010000a54       0x10 CMakeFiles/assign02.dir/assign02.c.obj
                0x0000000010000a54                print_err
 .text.init_rgb
                0x0000000010000a64       0xb4 CMakeFiles/assign02.dir/assign02.c.obj
                0x0000000010000a64                init_rgb
 .text.startup.main
                0x0000000010000b18       0x28 CMakeFiles/assign02.dir/assign02.c.obj
                0x0000000010000b18                main
 .text          0x0000000010000b40      0x300 CMakeFiles/assign02.dir/assign02.S.obj
                0x0000000010000b40                main_asm
 .text.gpio_set_function
                0x0000000010000e40       0x30 CMakeFiles/assign02.dir/home/cian/Desktop/pico/pico-sdk/src/rp2_common/hardware_gpio/gpio.c.obj
                0x0000000010000e40                gpio_set_function
 .text.gpio_set_irq_enabled
                0x0000000010000e70       0x54 CMakeFiles/assign02.dir/home/cian/Desktop/pico/pico-sdk/src/rp2_common/hardware_gpio/gpio.c.obj
                0x0000000010000e70                gpio_set_irq_enabled
 .text.gpio_init
                0x0000000010000ec4       0x3c CMakeFiles/assign02.dir/home/cian/Desktop/pico/pico-sdk/src/rp2_common/hardware_gpio/gpio.c.obj
                0x0000000010000ec4                gpio_init
 .text.hw_claim_lock
                0x0000000010000f00       0x18 CMakeFiles/assign02.dir/home/cian/Desktop/pico/pico-sdk/src/rp2_common/hardware_claim/claim.c.obj
                0x0000000010000f00                hw_claim_lock
 .text.hw_claim_unlock
                0x0000000010000f18       0x14 CMakeFiles/assign02.dir/home/cian/Desktop/pico/pico-sdk/src/rp2_common/hardware_claim/claim.c.obj
                0x0000000010000f18                hw_claim_unlock
 .text.hw_claim_or_assert
                0x0000000010000f2c       0x48 CMakeFiles/assign02.dir/home/cian/Desktop/pico/pico-sdk/src/rp2_common/hardware_claim/claim.c.obj
                0x0000000010000f2c                hw_claim_or_assert
 .text.running_on_fpga
                0x0000000010000f74       0x10 CMakeFiles/assign02.dir/home/cian/Desktop/pico/pico-sdk/src/rp2_common/pico_platform/platform.c.obj
                0x0000000010000f74                running_on_fpga
 .text.spin_locks_reset
                0x0000000010000f84       0x1c CMakeFiles/assign02.dir/home/cian/Desktop/pico/pico-sdk/src/rp2_common/hardware_sync/sync.c.obj
                0x0000000010000f84                spin_locks_reset
 .text.next_striped_spin_lock_num
                0x0000000010000fa0       0x18 CMakeFiles/assign02.dir/home/cian/Desktop/pico/pico-sdk/src/rp2_common/hardware_sync/sync.c.obj
                0x0000000010000fa0                next_striped_spin_lock_num
 .text.uart_init
                0x0000000010000fb8       0xe4 CMakeFiles/assign02.dir/home/cian/Desktop/pico/pico-sdk/src/rp2_common/hardware_uart/uart.c.obj
                0x0000000010000fb8                uart_init
 .text.timer_pool_entry_comparator
                0x000000001000109c       0x34 CMakeFiles/assign02.dir/home/cian/Desktop/pico/pico-sdk/src/common/pico_time/time.c.obj
                0x000000001000109c                timer_pool_entry_comparator
 .text.add_alarm_under_lock
                0x00000000100010d0      0x108 CMakeFiles/assign02.dir/home/cian/Desktop/pico/pico-sdk/src/common/pico_time/time.c.obj
 .text.alarm_pool_alarm_callback
                0x00000000100011d8      0x1c8 CMakeFiles/assign02.dir/home/cian/Desktop/pico/pico-sdk/src/common/pico_time/time.c.obj
 .text.alarm_pool_init_default
                0x00000000100013a0       0x64 CMakeFiles/assign02.dir/home/cian/Desktop/pico/pico-sdk/src/common/pico_time/time.c.obj
                0x00000000100013a0                alarm_pool_init_default
 .text.hardware_alarm_irq_handler
                0x0000000010001404       0xb8 CMakeFiles/assign02.dir/home/cian/Desktop/pico/pico-sdk/src/rp2_common/hardware_timer/timer.c.obj
 .text.hardware_alarm_claim
                0x00000000100014bc       0x18 CMakeFiles/assign02.dir/home/cian/Desktop/pico/pico-sdk/src/rp2_common/hardware_timer/timer.c.obj
                0x00000000100014bc                hardware_alarm_claim
 .text.time_us_64
                0x00000000100014d4       0x14 CMakeFiles/assign02.dir/home/cian/Desktop/pico/pico-sdk/src/rp2_common/hardware_timer/timer.c.obj
                0x00000000100014d4                time_us_64
 .text.hardware_alarm_set_callback
                0x00000000100014e8       0x8c CMakeFiles/assign02.dir/home/cian/Desktop/pico/pico-sdk/src/rp2_common/hardware_timer/timer.c.obj
                0x00000000100014e8                hardware_alarm_set_callback
 .text.hardware_alarm_set_target
                0x0000000010001574       0xe4 CMakeFiles/assign02.dir/home/cian/Desktop/pico/pico-sdk/src/rp2_common/hardware_timer/timer.c.obj
                0x0000000010001574                hardware_alarm_set_target
 .text.hardware_alarm_cancel
                0x0000000010001658       0x40 CMakeFiles/assign02.dir/home/cian/Desktop/pico/pico-sdk/src/rp2_common/hardware_timer/timer.c.obj
                0x0000000010001658                hardware_alarm_cancel
 .text.lock_init
                0x0000000010001698       0x10 CMakeFiles/assign02.dir/home/cian/Desktop/pico/pico-sdk/src/common/pico_sync/lock_core.c.obj
                0x0000000010001698                lock_init
 .text.mutex_init
                0x00000000100016a8       0x1c CMakeFiles/assign02.dir/home/cian/Desktop/pico/pico-sdk/src/common/pico_sync/mutex.c.obj
                0x00000000100016a8                mutex_init
 .text.recursive_mutex_init
                0x00000000100016c4       0x1c CMakeFiles/assign02.dir/home/cian/Desktop/pico/pico-sdk/src/common/pico_sync/mutex.c.obj
                0x00000000100016c4                recursive_mutex_init
 .text.ph_merge_nodes
                0x00000000100016e0       0x68 CMakeFiles/assign02.dir/home/cian/Desktop/pico/pico-sdk/src/common/pico_util/pheap.c.obj
 .text.ph_post_alloc_init
                0x0000000010001748       0x3c CMakeFiles/assign02.dir/home/cian/Desktop/pico/pico-sdk/src/common/pico_util/pheap.c.obj
                0x0000000010001748                ph_post_alloc_init
 .text.ph_merge_two_pass
                0x0000000010001784       0x90 CMakeFiles/assign02.dir/home/cian/Desktop/pico/pico-sdk/src/common/pico_util/pheap.c.obj
                0x0000000010001784                ph_merge_two_pass
 .text.ph_remove_any_head
                0x0000000010001814       0xf8 CMakeFiles/assign02.dir/home/cian/Desktop/pico/pico-sdk/src/common/pico_util/pheap.c.obj
 .text.ph_remove_head
                0x000000001000190c      0x13c CMakeFiles/assign02.dir/home/cian/Desktop/pico/pico-sdk/src/common/pico_util/pheap.c.obj
                0x000000001000190c                ph_remove_head
 .text.ph_remove_and_free_node
                0x0000000010001a48       0x7c CMakeFiles/assign02.dir/home/cian/Desktop/pico/pico-sdk/src/common/pico_util/pheap.c.obj
                0x0000000010001a48                ph_remove_and_free_node
 .text.runtime_init
                0x0000000010001ac4       0xf0 CMakeFiles/assign02.dir/home/cian/Desktop/pico/pico-sdk/src/rp2_common/pico_runtime/runtime.c.obj
                0x0000000010001ac4                runtime_init
 .text.exit     0x0000000010001bb4        0x4 CMakeFiles/assign02.dir/home/cian/Desktop/pico/pico-sdk/src/rp2_common/pico_runtime/runtime.c.obj
                0x0000000010001bb4                exit
 .text.panic    0x0000000010001bb8       0x30 CMakeFiles/assign02.dir/home/cian/Desktop/pico/pico-sdk/src/rp2_common/pico_runtime/runtime.c.obj
                0x0000000010001bb8                panic
 .text.hard_assertion_failure
                0x0000000010001be8        0xc CMakeFiles/assign02.dir/home/cian/Desktop/pico/pico-sdk/src/rp2_common/pico_runtime/runtime.c.obj
                0x0000000010001be8                hard_assertion_failure
 .text.clocks_init
                0x0000000010001bf4      0x2bc CMakeFiles/assign02.dir/home/cian/Desktop/pico/pico-sdk/src/rp2_common/hardware_clocks/clocks.c.obj
                0x0000000010001bf4                clocks_init
 .text.clock_get_hz
                0x0000000010001eb0        0xc CMakeFiles/assign02.dir/home/cian/Desktop/pico/pico-sdk/src/rp2_common/hardware_clocks/clocks.c.obj
                0x0000000010001eb0                clock_get_hz
 .text.irq_set_enabled
                0x0000000010001ebc       0x24 CMakeFiles/assign02.dir/home/cian/Desktop/pico/pico-sdk/src/rp2_common/hardware_irq/irq.c.obj
                0x0000000010001ebc                irq_set_enabled
 .text.irq_get_vtable_handler
                0x0000000010001ee0       0x10 CMakeFiles/assign02.dir/home/cian/Desktop/pico/pico-sdk/src/rp2_common/hardware_irq/irq.c.obj
                0x0000000010001ee0                irq_get_vtable_handler
 .text.irq_set_exclusive_handler
                0x0000000010001ef0       0x54 CMakeFiles/assign02.dir/home/cian/Desktop/pico/pico-sdk/src/rp2_common/hardware_irq/irq.c.obj
                0x0000000010001ef0                irq_set_exclusive_handler
 .text.irq_remove_handler
                0x0000000010001f44      0x1b8 CMakeFiles/assign02.dir/home/cian/Desktop/pico/pico-sdk/src/rp2_common/hardware_irq/irq.c.obj
                0x0000000010001f44                irq_remove_handler
 .text.irq_add_tail_to_free_list
                0x00000000100020fc       0xb8 CMakeFiles/assign02.dir/home/cian/Desktop/pico/pico-sdk/src/rp2_common/hardware_irq/irq.c.obj
                0x00000000100020fc                irq_add_tail_to_free_list
 .text.irq_init_priorities
                0x00000000100021b4       0x24 CMakeFiles/assign02.dir/home/cian/Desktop/pico/pico-sdk/src/rp2_common/hardware_irq/irq.c.obj
                0x00000000100021b4                irq_init_priorities
 .text.pll_init
                0x00000000100021d8       0xa4 CMakeFiles/assign02.dir/home/cian/Desktop/pico/pico-sdk/src/rp2_common/hardware_pll/pll.c.obj
                0x00000000100021d8                pll_init
 .text.watchdog_start_tick
                0x000000001000227c       0x10 CMakeFiles/assign02.dir/home/cian/Desktop/pico/pico-sdk/src/rp2_common/hardware_watchdog/watchdog.c.obj
                0x000000001000227c                watchdog_start_tick
 .text.watchdog_update
                0x000000001000228c       0x14 CMakeFiles/assign02.dir/home/cian/Desktop/pico/pico-sdk/src/rp2_common/hardware_watchdog/watchdog.c.obj
                0x000000001000228c                watchdog_update
 .text.watchdog_enable
                0x00000000100022a0       0x84 CMakeFiles/assign02.dir/home/cian/Desktop/pico/pico-sdk/src/rp2_common/hardware_watchdog/watchdog.c.obj
                0x00000000100022a0                watchdog_enable
 .text.watchdog_reboot
                0x0000000010002324       0x98 CMakeFiles/assign02.dir/home/cian/Desktop/pico/pico-sdk/src/rp2_common/hardware_watchdog/watchdog.c.obj
                0x0000000010002324                watchdog_reboot
 .text.xosc_init
                0x00000000100023bc       0x28 CMakeFiles/assign02.dir/home/cian/Desktop/pico/pico-sdk/src/rp2_common/hardware_xosc/xosc.c.obj
                0x00000000100023bc                xosc_init
 .text._out_null
                0x00000000100023e4        0x4 CMakeFiles/assign02.dir/home/cian/Desktop/pico/pico-sdk/src/rp2_common/pico_printf/printf.c.obj
 .text._out_rev
                0x00000000100023e8       0xd0 CMakeFiles/assign02.dir/home/cian/Desktop/pico/pico-sdk/src/rp2_common/pico_printf/printf.c.obj
 .text._ntoa_format
                0x00000000100024b8      0x1d0 CMakeFiles/assign02.dir/home/cian/Desktop/pico/pico-sdk/src/rp2_common/pico_printf/printf.c.obj
 .text._out_char
                0x0000000010002688       0x10 CMakeFiles/assign02.dir/home/cian/Desktop/pico/pico-sdk/src/rp2_common/pico_printf/printf.c.obj
 .text._out_fct
                0x0000000010002698       0x10 CMakeFiles/assign02.dir/home/cian/Desktop/pico/pico-sdk/src/rp2_common/pico_printf/printf.c.obj
 .text._etoa    0x00000000100026a8      0x478 CMakeFiles/assign02.dir/home/cian/Desktop/pico/pico-sdk/src/rp2_common/pico_printf/printf.c.obj
 .text._ftoa    0x0000000010002b20      0x3e0 CMakeFiles/assign02.dir/home/cian/Desktop/pico/pico-sdk/src/rp2_common/pico_printf/printf.c.obj
 .text._vsnprintf
                0x0000000010002f00      0xb08 CMakeFiles/assign02.dir/home/cian/Desktop/pico/pico-sdk/src/rp2_common/pico_printf/printf.c.obj
 .text.vfctprintf
                0x0000000010003a08       0x20 CMakeFiles/assign02.dir/home/cian/Desktop/pico/pico-sdk/src/rp2_common/pico_printf/printf.c.obj
                0x0000000010003a08                vfctprintf
 .text.weak_raw_vprintf
                0x0000000010003a28       0x30 CMakeFiles/assign02.dir/home/cian/Desktop/pico/pico-sdk/src/rp2_common/pico_printf/printf.c.obj
                0x0000000010003a28                weak_raw_vprintf
 .text          0x0000000010003a58       0x10 CMakeFiles/assign02.dir/home/cian/Desktop/pico/pico-sdk/src/rp2_common/pico_bit_ops/bit_ops_aeabi.S.obj
 .text.rom_func_lookup
                0x0000000010003a68       0x10 CMakeFiles/assign02.dir/home/cian/Desktop/pico/pico-sdk/src/rp2_common/pico_bootrom/bootrom.c.obj
                0x0000000010003a68                rom_func_lookup
 .text.rom_data_lookup
                0x0000000010003a78       0x10 CMakeFiles/assign02.dir/home/cian/Desktop/pico/pico-sdk/src/rp2_common/pico_bootrom/bootrom.c.obj
                0x0000000010003a78                rom_data_lookup
 .text.rom_funcs_lookup
                0x0000000010003a88       0x3c CMakeFiles/assign02.dir/home/cian/Desktop/pico/pico-sdk/src/rp2_common/pico_bootrom/bootrom.c.obj
                0x0000000010003a88                rom_funcs_lookup
 .text.__wrap___aeabi_idiv
                0x0000000010003ac4       0x50 CMakeFiles/assign02.dir/home/cian/Desktop/pico/pico-sdk/src/rp2_common/pico_divider/divider.S.obj
                0x0000000010003ac4                __wrap___aeabi_idivmod
                0x0000000010003ac4                divmod_s32s32
                0x0000000010003ac4                div_s32s32
                0x0000000010003ac4                __wrap___aeabi_idiv
                0x0000000010003acc                divmod_s32s32_unsafe
                0x0000000010003af8                divmod_s32s32_savestate
 .text.__wrap___aeabi_uidiv
                0x0000000010003b14       0x4c CMakeFiles/assign02.dir/home/cian/Desktop/pico/pico-sdk/src/rp2_common/pico_divider/divider.S.obj
                0x0000000010003b14                __wrap___aeabi_uidiv
                0x0000000010003b14                __wrap___aeabi_uidivmod
                0x0000000010003b14                div_u32u32
                0x0000000010003b14                divmod_u32u32
                0x0000000010003b1c                divmod_u32u32_unsafe
                0x0000000010003b44                divmod_u32u32_savestate
 .text.__wrap___aeabi_ldiv
                0x0000000010003b60      0x434 CMakeFiles/assign02.dir/home/cian/Desktop/pico/pico-sdk/src/rp2_common/pico_divider/divider.S.obj
                0x0000000010003b60                div_s64s64
                0x0000000010003b60                divmod_s64s64
                0x0000000010003b60                __wrap___aeabi_ldivmod
                0x0000000010003b98                div_u64u64
                0x0000000010003b98                divmod_u64u64
                0x0000000010003b98                __wrap___aeabi_uldivmod
                0x0000000010003ba8                divmod_u64u64_savestate
                0x0000000010003bd0                divmod_s64s64_unsafe
                0x0000000010003c58                divmod_u64u64_unsafe
 .text.__wrap___aeabi_darithmetic
                0x0000000010003f94       0x80 CMakeFiles/assign02.dir/home/cian/Desktop/pico/pico-sdk/src/rp2_common/pico_double/double_aeabi.S.obj
                0x0000000010003f94                __wrap___aeabi_drsub
                0x0000000010003f9a                __wrap___aeabi_dsub
                0x0000000010003fac                __wrap___aeabi_dadd
                0x0000000010003fbe                __wrap___aeabi_ddiv
                0x0000000010003ffa                __wrap___aeabi_dmul
 .text.__wrap___aeabi_cdcmple
                0x0000000010004014       0x6c CMakeFiles/assign02.dir/home/cian/Desktop/pico/pico-sdk/src/rp2_common/pico_double/double_aeabi.S.obj
                0x0000000010004014                __wrap___aeabi_cdrcmple
                0x0000000010004024                __wrap___aeabi_cdcmple
                0x0000000010004024                __wrap___aeabi_cdcmpeq
 .text.__wrap___aeabi_dcmplt
                0x0000000010004080        0xc CMakeFiles/assign02.dir/home/cian/Desktop/pico/pico-sdk/src/rp2_common/pico_double/double_aeabi.S.obj
                0x0000000010004080                __wrap___aeabi_dcmplt
 .text.__wrap___aeabi_dcmple
                0x000000001000408c       0x10 CMakeFiles/assign02.dir/home/cian/Desktop/pico/pico-sdk/src/rp2_common/pico_double/double_aeabi.S.obj
                0x000000001000408c                __wrap___aeabi_dcmple
 .text.__wrap___aeabi_dcmpge
                0x000000001000409c       0x10 CMakeFiles/assign02.dir/home/cian/Desktop/pico/pico-sdk/src/rp2_common/pico_double/double_aeabi.S.obj
                0x000000001000409c                __wrap___aeabi_dcmpge
 .text.__wrap___aeabi_dcmpgt
                0x00000000100040ac        0xa CMakeFiles/assign02.dir/home/cian/Desktop/pico/pico-sdk/src/rp2_common/pico_double/double_aeabi.S.obj
                0x00000000100040ac                __wrap___aeabi_dcmpgt
 .text.__wrap___aeabi_dcmpun
                0x00000000100040b6       0x1c CMakeFiles/assign02.dir/home/cian/Desktop/pico/pico-sdk/src/rp2_common/pico_double/double_aeabi.S.obj
                0x00000000100040b6                __wrap___aeabi_dcmpun
 *fill*         0x00000000100040d2        0x2 
 .text.__wrap___aeabi_i2d
                0x00000000100040d4       0x38 CMakeFiles/assign02.dir/home/cian/Desktop/pico/pico-sdk/src/rp2_common/pico_double/double_aeabi.S.obj
                0x00000000100040d4                __wrap___aeabi_ui2d
                0x00000000100040dc                __wrap___aeabi_i2d
 .text.__wrap___aeabi_d2iz
                0x000000001000410c       0x48 CMakeFiles/assign02.dir/home/cian/Desktop/pico/pico-sdk/src/rp2_common/pico_double/double_aeabi.S.obj
                0x000000001000410c                __wrap___aeabi_d2iz
                0x000000001000410c                double2int_z
 .text.__wrap___aeabi_d2uiz
                0x0000000010004154       0x18 CMakeFiles/assign02.dir/home/cian/Desktop/pico/pico-sdk/src/rp2_common/pico_double/double_aeabi.S.obj
                0x0000000010004154                double2uint
                0x0000000010004154                __wrap___aeabi_d2uiz
 .text.__aeabi_double_init
                0x000000001000416c       0xc0 CMakeFiles/assign02.dir/home/cian/Desktop/pico/pico-sdk/src/rp2_common/pico_double/double_init_rom.c.obj
                0x000000001000416c                __aeabi_double_init
 .text.double_table_shim_on_use_helper
                0x000000001000422c       0x2c CMakeFiles/assign02.dir/home/cian/Desktop/pico/pico-sdk/src/rp2_common/pico_double/double_v1_rom_shim.S.obj
                0x000000001000422c                double_table_shim_on_use_helper
 .text.__wrap___aeabi_dsub
                0x0000000010004258       0x10 CMakeFiles/assign02.dir/home/cian/Desktop/pico/pico-sdk/src/rp2_common/pico_double/double_v1_rom_shim.S.obj
                0x0000000010004258                drsub_shim
                0x000000001000425e                dsub_shim
 .text.dadd_shim
                0x0000000010004268      0x15c CMakeFiles/assign02.dir/home/cian/Desktop/pico/pico-sdk/src/rp2_common/pico_double/double_v1_rom_shim.S.obj
                0x0000000010004268                dadd_shim
 .text.dmul_shim
                0x00000000100043c4      0x15c CMakeFiles/assign02.dir/home/cian/Desktop/pico/pico-sdk/src/rp2_common/pico_double/double_v1_rom_shim.S.obj
                0x00000000100043c4                dmul_shim
 .text.ddiv_shim
                0x0000000010004520      0x1b0 CMakeFiles/assign02.dir/home/cian/Desktop/pico/pico-sdk/src/rp2_common/pico_double/double_v1_rom_shim.S.obj
                0x0000000010004520                ddiv_shim
 .text.double2uint_shim
                0x00000000100046d0        0xe CMakeFiles/assign02.dir/home/cian/Desktop/pico/pico-sdk/src/rp2_common/pico_double/double_v1_rom_shim.S.obj
                0x00000000100046d0                double2uint_shim
                0x00000000100046d2                double2ufix_shim
 *fill*         0x00000000100046de        0x2 
 .text.double2uint64_shim
                0x00000000100046e0       0x70 CMakeFiles/assign02.dir/home/cian/Desktop/pico/pico-sdk/src/rp2_common/pico_double/double_v1_rom_shim.S.obj
                0x00000000100046e0                double2uint64_shim
                0x00000000100046e2                double2ufix64_shim
                0x0000000010004702                d2fix_a
 .text.dunpacks
                0x0000000010004750       0x3c CMakeFiles/assign02.dir/home/cian/Desktop/pico/pico-sdk/src/rp2_common/pico_double/double_v1_rom_shim.S.obj
                0x0000000010004750                dunpacks
 .text.__aeabi_lmul
                0x000000001000478c       0x32 CMakeFiles/assign02.dir/home/cian/Desktop/pico/pico-sdk/src/rp2_common/pico_int64_ops/pico_int64_ops_aeabi.S.obj
                0x000000001000478c                __wrap___aeabi_lmul
 *fill*         0x00000000100047be        0x2 
 .text.__wrap___aeabi_farithmetic
                0x00000000100047c0       0x48 CMakeFiles/assign02.dir/home/cian/Desktop/pico/pico-sdk/src/rp2_common/pico_float/float_aeabi.S.obj
                0x00000000100047c0                __wrap___aeabi_frsub
                0x00000000100047c6                __wrap___aeabi_fsub
                0x00000000100047cc                __wrap___aeabi_fadd
                0x00000000100047d2                __wrap___aeabi_fdiv
                0x00000000100047fa                __wrap___aeabi_fmul
 .text.__wrap___aeabi_ui2f
                0x0000000010004808        0xa CMakeFiles/assign02.dir/home/cian/Desktop/pico/pico-sdk/src/rp2_common/pico_float/float_aeabi.S.obj
                0x0000000010004808                __wrap___aeabi_ui2f
 *fill*         0x0000000010004812        0x2 
 .text.__wrap___aeabi_i2f
                0x0000000010004814       0x44 CMakeFiles/assign02.dir/home/cian/Desktop/pico/pico-sdk/src/rp2_common/pico_float/float_aeabi.S.obj
                0x0000000010004814                __wrap___aeabi_i2f
 .text.__wrap___aeabi_f2uiz
                0x0000000010004858        0xc CMakeFiles/assign02.dir/home/cian/Desktop/pico/pico-sdk/src/rp2_common/pico_float/float_aeabi.S.obj
                0x0000000010004858                __wrap___aeabi_f2uiz
 .text.__aeabi_float_init
                0x0000000010004864       0x64 CMakeFiles/assign02.dir/home/cian/Desktop/pico/pico-sdk/src/rp2_common/pico_float/float_init_rom.c.obj
                0x0000000010004864                __aeabi_float_init
 .text.float_table_shim_on_use_helper
                0x00000000100048c8       0x2c CMakeFiles/assign02.dir/home/cian/Desktop/pico/pico-sdk/src/rp2_common/pico_float/float_v1_rom_shim.S.obj
                0x00000000100048c8                float_table_shim_on_use_helper
 .text          0x00000000100048f4       0x10 CMakeFiles/assign02.dir/home/cian/Desktop/pico/pico-sdk/src/rp2_common/pico_mem_ops/mem_ops_aeabi.S.obj
                0x00000000100048f4                __aeabi_mem_init
 .text.memset   0x0000000010004904        0xc CMakeFiles/assign02.dir/home/cian/Desktop/pico/pico-sdk/src/rp2_common/pico_mem_ops/mem_ops_aeabi.S.obj
                0x0000000010004904                __wrap_memset
 .text.memcpy   0x0000000010004910        0xc CMakeFiles/assign02.dir/home/cian/Desktop/pico/pico-sdk/src/rp2_common/pico_mem_ops/mem_ops_aeabi.S.obj
                0x0000000010004910                __wrap___aeabi_memcpy
                0x0000000010004910                __wrap_memcpy
 .text.stdio_out_chars_no_crlf
                0x000000001000491c       0x10 CMakeFiles/assign02.dir/home/cian/Desktop/pico/pico-sdk/src/rp2_common/pico_stdio/stdio.c.obj
 .text.stdio_out_chars_crlf
                0x000000001000492c       0x94 CMakeFiles/assign02.dir/home/cian/Desktop/pico/pico-sdk/src/rp2_common/pico_stdio/stdio.c.obj
 .text.stdio_buffered_printer
                0x00000000100049c0       0x64 CMakeFiles/assign02.dir/home/cian/Desktop/pico/pico-sdk/src/rp2_common/pico_stdio/stdio.c.obj
 .text.stdio_put_string
                0x0000000010004a24      0x100 CMakeFiles/assign02.dir/home/cian/Desktop/pico/pico-sdk/src/rp2_common/pico_stdio/stdio.c.obj
 .text.__wrap_putchar
                0x0000000010004b24       0xa4 CMakeFiles/assign02.dir/home/cian/Desktop/pico/pico-sdk/src/rp2_common/pico_stdio/stdio.c.obj
                0x0000000010004b24                __wrap_putchar
 .text.__wrap_puts
                0x0000000010004bc8       0x3c CMakeFiles/assign02.dir/home/cian/Desktop/pico/pico-sdk/src/rp2_common/pico_stdio/stdio.c.obj
                0x0000000010004bc8                __wrap_puts
 .text.stdio_set_driver_enabled
                0x0000000010004c04       0x3c CMakeFiles/assign02.dir/home/cian/Desktop/pico/pico-sdk/src/rp2_common/pico_stdio/stdio.c.obj
                0x0000000010004c04                stdio_set_driver_enabled
 .text.__wrap_vprintf
                0x0000000010004c40       0xd8 CMakeFiles/assign02.dir/home/cian/Desktop/pico/pico-sdk/src/rp2_common/pico_stdio/stdio.c.obj
                0x0000000010004c40                __wrap_vprintf
 .text.__wrap_printf
                0x0000000010004d18       0x18 CMakeFiles/assign02.dir/home/cian/Desktop/pico/pico-sdk/src/rp2_common/pico_stdio/stdio.c.obj
                0x0000000010004d18                __wrap_printf
 .text.stdio_init_all
                0x0000000010004d30        0x8 CMakeFiles/assign02.dir/home/cian/Desktop/pico/pico-sdk/src/rp2_common/pico_stdio/stdio.c.obj
                0x0000000010004d30                stdio_init_all
 .text.stdio_uart_out_chars
                0x0000000010004d38       0x4c CMakeFiles/assign02.dir/home/cian/Desktop/pico/pico-sdk/src/rp2_common/pico_stdio_uart/stdio_uart.c.obj
 .text.stdio_uart_in_chars
                0x0000000010004d84       0x38 CMakeFiles/assign02.dir/home/cian/Desktop/pico/pico-sdk/src/rp2_common/pico_stdio_uart/stdio_uart.c.obj
                0x0000000010004d84                stdio_uart_in_chars
 .text.stdio_uart_init
                0x0000000010004dbc       0x48 CMakeFiles/assign02.dir/home/cian/Desktop/pico/pico-sdk/src/rp2_common/pico_stdio_uart/stdio_uart.c.obj
                0x0000000010004dbc                stdio_uart_init
 .text.pio_add_program
                0x0000000010004e04       0xe4 CMakeFiles/assign02.dir/home/cian/Desktop/pico/pico-sdk/src/rp2_common/hardware_pio/pio.c.obj
                0x0000000010004e04                pio_add_program
 .text.pio_sm_set_consecutive_pindirs
                0x0000000010004ee8       0x88 CMakeFiles/assign02.dir/home/cian/Desktop/pico/pico-sdk/src/rp2_common/hardware_pio/pio.c.obj
                0x0000000010004ee8                pio_sm_set_consecutive_pindirs
 .text.pio_sm_init
                0x0000000010004f70       0x90 CMakeFiles/assign02.dir/home/cian/Desktop/pico/pico-sdk/src/rp2_common/hardware_pio/pio.c.obj
                0x0000000010004f70                pio_sm_init
 .text          0x0000000010005000       0x48 /usr/lib/gcc/arm-none-eabi/9.2.1/../../../arm-none-eabi/lib/thumb/v6-m/nofp/libc.a(lib_a-rand.o)
                0x0000000010005000                srand
                0x0000000010005014                rand
 .text          0x0000000010005048       0x68 /usr/lib/gcc/arm-none-eabi/9.2.1/../../../arm-none-eabi/lib/thumb/v6-m/nofp/libc.a(lib_a-strlen-stub.o)
                0x0000000010005048                strlen
 *(.fini)
 .fini          0x00000000100050b0        0x4 /usr/lib/gcc/arm-none-eabi/9.2.1/thumb/v6-m/nofp/crti.o
                0x00000000100050b0                _fini
 *fill*         0x00000000100050b4        0x4 
 .fini.__stub   0x00000000100050b8       0x50 linker stubs
 *crtbegin.o(.ctors)
 *crtbegin?.o(.ctors)
 *(EXCLUDE_FILE(*crtend.o *crtend?.o) .ctors)
 *(SORT_BY_NAME(.ctors.*))
 *(.ctors)
 *crtbegin.o(.dtors)
 *crtbegin?.o(.dtors)
 *(EXCLUDE_FILE(*crtend.o *crtend?.o) .dtors)
 *(SORT_BY_NAME(.dtors.*))
 *(.dtors)
 *(.eh_frame*)
 .eh_frame      0x0000000010005108        0x0 /usr/lib/gcc/arm-none-eabi/9.2.1/thumb/v6-m/nofp/crtbegin.o
                0x0000000010005108                . = ALIGN (0x4)

.glue_7         0x0000000010005108        0x0
 .glue_7        0x0000000010005108        0x0 linker stubs

.glue_7t        0x0000000010005108        0x0
 .glue_7t       0x0000000010005108        0x0 linker stubs

.vfp11_veneer   0x0000000010005108        0x0
 .vfp11_veneer  0x0000000010005108        0x0 linker stubs

.v4_bx          0x0000000010005108        0x0
 .v4_bx         0x0000000010005108        0x0 linker stubs

.iplt           0x0000000010005108        0x0
 .iplt          0x0000000010005108        0x0 /usr/lib/gcc/arm-none-eabi/9.2.1/thumb/v6-m/nofp/crtbegin.o

.rodata         0x0000000010005108      0x7cc
 *(EXCLUDE_FILE(*libm.a: *libc.a:*lib_a-mem*.o *libgcc.a:) .rodata*)
 .rodata.set_level.str1.4
                0x0000000010005108        0xd CMakeFiles/assign02.dir/assign02.c.obj
 *fill*         0x0000000010005115        0x3 
 .rodata.print_q.str1.4
                0x0000000010005118       0x2d CMakeFiles/assign02.dir/assign02.c.obj
                                         0x32 (size before relaxing)
 *fill*         0x0000000010005145        0x3 
 .rodata.print_morse.str1.4
                0x0000000010005148       0x1f CMakeFiles/assign02.dir/assign02.c.obj
 *fill*         0x0000000010005167        0x1 
 .rodata.print_wrong.str1.4
                0x0000000010005168       0x32 CMakeFiles/assign02.dir/assign02.c.obj
 *fill*         0x000000001000519a        0x2 
 .rodata.print_correct.str1.4
                0x000000001000519c        0xa CMakeFiles/assign02.dir/assign02.c.obj
 *fill*         0x00000000100051a6        0x2 
 .rodata.print_stats.str1.4
                0x00000000100051a8      0x102 CMakeFiles/assign02.dir/assign02.c.obj
 *fill*         0x00000000100052aa        0x2 
 .rodata.print_total_stats.str1.4
                0x00000000100052ac       0xae CMakeFiles/assign02.dir/assign02.c.obj
 *fill*         0x000000001000535a        0x2 
 .rodata.print_completed.str1.4
                0x000000001000535c       0x9f CMakeFiles/assign02.dir/assign02.c.obj
 *fill*         0x00000000100053fb        0x1 
 .rodata.print_bad_input.str1.4
                0x00000000100053fc       0x23 CMakeFiles/assign02.dir/assign02.c.obj
 *fill*         0x000000001000541f        0x1 
 .rodata.print_out_of_lives.str1.4
                0x0000000010005420       0x68 CMakeFiles/assign02.dir/assign02.c.obj
 .rodata.print_err.str1.4
                0x0000000010005488       0x15 CMakeFiles/assign02.dir/assign02.c.obj
 *fill*         0x000000001000549d        0x3 
 .rodata.str1.4
                0x00000000100054a0       0xdd CMakeFiles/assign02.dir/assign02.c.obj
                                         0xe5 (size before relaxing)
 *fill*         0x000000001000557d        0x3 
 .rodata.ws2812_program
                0x0000000010005580        0x6 CMakeFiles/assign02.dir/assign02.c.obj
 *fill*         0x0000000010005586        0x2 
 .rodata.ws2812_program_instructions
                0x0000000010005588        0x8 CMakeFiles/assign02.dir/assign02.c.obj
 .rodata.hardware_alarm_claim.str1.4
                0x0000000010005590       0x22 CMakeFiles/assign02.dir/home/cian/Desktop/pico/pico-sdk/src/rp2_common/hardware_timer/timer.c.obj
 *fill*         0x00000000100055b2        0x2 
 .rodata.panic.str1.4
                0x00000000100055b4       0x10 CMakeFiles/assign02.dir/home/cian/Desktop/pico/pico-sdk/src/rp2_common/pico_runtime/runtime.c.obj
                                         0x12 (size before relaxing)
 .rodata.hard_assertion_failure.str1.4
                0x00000000100055c4        0xc CMakeFiles/assign02.dir/home/cian/Desktop/pico/pico-sdk/src/rp2_common/pico_runtime/runtime.c.obj
 .rodata._ftoa.str1.4
                0x00000000100055d0       0x15 CMakeFiles/assign02.dir/home/cian/Desktop/pico/pico-sdk/src/rp2_common/pico_printf/printf.c.obj
 *fill*         0x00000000100055e5        0x3 
 .rodata._vsnprintf
                0x00000000100055e8      0x1e0 CMakeFiles/assign02.dir/home/cian/Desktop/pico/pico-sdk/src/rp2_common/pico_printf/printf.c.obj
 .rodata.pow10.5435
                0x00000000100057c8       0x50 CMakeFiles/assign02.dir/home/cian/Desktop/pico/pico-sdk/src/rp2_common/pico_printf/printf.c.obj
 .rodata.str1.4
                0x0000000010005818       0x40 CMakeFiles/assign02.dir/home/cian/Desktop/pico/pico-sdk/src/rp2_common/pico_standard_link/binary_info.c.obj
 .rodata.__bi_44
                0x0000000010005858        0xc CMakeFiles/assign02.dir/home/cian/Desktop/pico/pico-sdk/src/rp2_common/pico_standard_link/binary_info.c.obj
 .rodata.__bi_75
                0x0000000010005864        0xc CMakeFiles/assign02.dir/home/cian/Desktop/pico/pico-sdk/src/rp2_common/pico_standard_link/binary_info.c.obj
 .rodata.__bi_81
                0x0000000010005870        0xc CMakeFiles/assign02.dir/home/cian/Desktop/pico/pico-sdk/src/rp2_common/pico_standard_link/binary_info.c.obj
 .rodata.crlf_str.6051
                0x000000001000587c        0x2 CMakeFiles/assign02.dir/home/cian/Desktop/pico/pico-sdk/src/rp2_common/pico_stdio/stdio.c.obj
 *fill*         0x000000001000587e        0x2 
 .rodata.str1.4
                0x0000000010005880       0x2c CMakeFiles/assign02.dir/home/cian/Desktop/pico/pico-sdk/src/rp2_common/pico_stdio_uart/stdio_uart.c.obj
 .rodata.__bi_28.4750
                0x00000000100058ac        0xc CMakeFiles/assign02.dir/home/cian/Desktop/pico/pico-sdk/src/rp2_common/pico_stdio_uart/stdio_uart.c.obj
 .rodata.__bi_29.4754
                0x00000000100058b8        0x8 CMakeFiles/assign02.dir/home/cian/Desktop/pico/pico-sdk/src/rp2_common/pico_stdio_uart/stdio_uart.c.obj
 .rodata.pio_add_program.str1.4
                0x00000000100058c0       0x11 CMakeFiles/assign02.dir/home/cian/Desktop/pico/pico-sdk/src/rp2_common/hardware_pio/pio.c.obj
                0x00000000100058d4                . = ALIGN (0x4)
 *fill*         0x00000000100058d1        0x3 
 *(SORT_BY_ALIGNMENT(SORT_BY_NAME(.flashdata*)))
                0x00000000100058d4                . = ALIGN (0x4)

.rel.dyn        0x00000000100058d4        0x0
 .rel.iplt      0x00000000100058d4        0x0 /usr/lib/gcc/arm-none-eabi/9.2.1/thumb/v6-m/nofp/crtbegin.o

.ARM.extab
 *(.ARM.extab* .gnu.linkonce.armextab.*)
                0x00000000100058d4                __exidx_start = .

.ARM.exidx
 *(.ARM.exidx* .gnu.linkonce.armexidx.*)
                0x00000000100058d4                __exidx_end = .
                0x00000000100058d4                . = ALIGN (0x4)
                0x00000000100058d4                __binary_info_start = .

.binary_info    0x00000000100058d4       0x24
 *(.binary_info.keep.*)
 .binary_info.keep.__bi_ptr22
                0x00000000100058d4        0x4 CMakeFiles/assign02.dir/home/cian/Desktop/pico/pico-sdk/src/rp2_common/pico_standard_link/binary_info.c.obj
 .binary_info.keep.__bi_ptr30
                0x00000000100058d8        0x4 CMakeFiles/assign02.dir/home/cian/Desktop/pico/pico-sdk/src/rp2_common/pico_standard_link/binary_info.c.obj
 .binary_info.keep.__bi_ptr38
                0x00000000100058dc        0x4 CMakeFiles/assign02.dir/home/cian/Desktop/pico/pico-sdk/src/rp2_common/pico_standard_link/binary_info.c.obj
 .binary_info.keep.__bi_ptr44
                0x00000000100058e0        0x4 CMakeFiles/assign02.dir/home/cian/Desktop/pico/pico-sdk/src/rp2_common/pico_standard_link/binary_info.c.obj
 .binary_info.keep.__bi_ptr50
                0x00000000100058e4        0x4 CMakeFiles/assign02.dir/home/cian/Desktop/pico/pico-sdk/src/rp2_common/pico_standard_link/binary_info.c.obj
 .binary_info.keep.__bi_ptr75
                0x00000000100058e8        0x4 CMakeFiles/assign02.dir/home/cian/Desktop/pico/pico-sdk/src/rp2_common/pico_standard_link/binary_info.c.obj
 .binary_info.keep.__bi_ptr81
                0x00000000100058ec        0x4 CMakeFiles/assign02.dir/home/cian/Desktop/pico/pico-sdk/src/rp2_common/pico_standard_link/binary_info.c.obj
 *(.binary_info.*)
 .binary_info.__bi_ptr28
                0x00000000100058f0        0x4 CMakeFiles/assign02.dir/home/cian/Desktop/pico/pico-sdk/src/rp2_common/pico_stdio_uart/stdio_uart.c.obj
 .binary_info.__bi_ptr29
                0x00000000100058f4        0x4 CMakeFiles/assign02.dir/home/cian/Desktop/pico/pico-sdk/src/rp2_common/pico_stdio_uart/stdio_uart.c.obj
                0x00000000100058f8                __binary_info_end = .
                0x00000000100058f8                . = ALIGN (0x4)
                0x00000000100058f8                __etext = .

.ram_vector_table
                0x0000000020000000       0xc0
 *(.ram_vector_table)
 .ram_vector_table
                0x0000000020000000       0xc0 CMakeFiles/assign02.dir/home/cian/Desktop/pico/pico-sdk/src/rp2_common/pico_runtime/runtime.c.obj
                0x0000000020000000                ram_vector_table

.data           0x00000000200000c0      0x7a4 load address 0x00000000100058f8
                0x00000000200000c0                __data_start__ = .
 *(vtable)
 *(.time_critical*)
 .time_critical.mutex_enter_blocking
                0x00000000200000c0       0x48 CMakeFiles/assign02.dir/home/cian/Desktop/pico/pico-sdk/src/common/pico_sync/mutex.c.obj
                0x00000000200000c0                mutex_enter_blocking
 .time_critical.mutex_try_enter
                0x0000000020000108       0x48 CMakeFiles/assign02.dir/home/cian/Desktop/pico/pico-sdk/src/common/pico_sync/mutex.c.obj
                0x0000000020000108                mutex_try_enter
 .time_critical.mutex_exit
                0x0000000020000150       0x28 CMakeFiles/assign02.dir/home/cian/Desktop/pico/pico-sdk/src/common/pico_sync/mutex.c.obj
                0x0000000020000150                mutex_exit
 *(.text*)
 .text          0x0000000020000178        0x4 /usr/lib/gcc/arm-none-eabi/9.2.1/thumb/v6-m/nofp/libgcc.a(_dvmd_tls.o)
                0x0000000020000178                __aeabi_ldiv0
                0x0000000020000178                __aeabi_idiv0
                0x000000002000017c                . = ALIGN (0x4)
 *(.rodata*)
                0x000000002000017c                . = ALIGN (0x4)
 *(.data*)
 .data.characters
                0x000000002000017c       0x24 CMakeFiles/assign02.dir/assign02.c.obj
                0x000000002000017c                characters
 .data.inc      0x00000000200001a0        0x4 CMakeFiles/assign02.dir/assign02.c.obj
                0x00000000200001a0                inc
 .data.lives    0x00000000200001a4        0x4 CMakeFiles/assign02.dir/assign02.c.obj
                0x00000000200001a4                lives
 .data.morse_table
                0x00000000200001a8       0x90 CMakeFiles/assign02.dir/assign02.c.obj
                0x00000000200001a8                morse_table
 *fill*         0x0000000020000238        0x8 
 .data          0x0000000020000240      0x122 CMakeFiles/assign02.dir/assign02.S.obj
 .data.striped_spin_lock_num
                0x0000000020000362        0x1 CMakeFiles/assign02.dir/home/cian/Desktop/pico/pico-sdk/src/rp2_common/hardware_sync/sync.c.obj
 *fill*         0x0000000020000363        0x1 
 .data.default_alarm_pool
                0x0000000020000364       0x18 CMakeFiles/assign02.dir/home/cian/Desktop/pico/pico-sdk/src/common/pico_time/time.c.obj
 .data.default_alarm_pool_heap
                0x000000002000037c       0x10 CMakeFiles/assign02.dir/home/cian/Desktop/pico/pico-sdk/src/common/pico_time/time.c.obj
 .data          0x000000002000038c       0x48 CMakeFiles/assign02.dir/home/cian/Desktop/pico/pico-sdk/src/rp2_common/hardware_irq/irq_handler_chain.S.obj
                0x000000002000038c                irq_handler_chain_slots
                0x00000000200003bc                irq_handler_chain_first_slot
                0x00000000200003c6                irq_handler_chain_remove_tail
 *fill*         0x00000000200003d4        0xc 
 .data.aeabi_bits_funcs
                0x00000000200003e0       0x10 CMakeFiles/assign02.dir/home/cian/Desktop/pico/pico-sdk/src/rp2_common/pico_bit_ops/bit_ops_aeabi.S.obj
                0x00000000200003e0                aeabi_bits_funcs
                0x00000000200003f0                aeabi_bits_funcs_end
 .data.aeabi_mem_funcs
                0x00000000200003f0       0x10 CMakeFiles/assign02.dir/home/cian/Desktop/pico/pico-sdk/src/rp2_common/pico_mem_ops/mem_ops_aeabi.S.obj
                0x00000000200003f0                aeabi_mem_funcs
                0x0000000020000400                aeabi_mem_funcs_end
 .data.stdio_uart
                0x0000000020000400       0x14 CMakeFiles/assign02.dir/home/cian/Desktop/pico/pico-sdk/src/rp2_common/pico_stdio_uart/stdio_uart.c.obj
                0x0000000020000400                stdio_uart
 *fill*         0x0000000020000414        0x4 
 .data          0x0000000020000418      0x430 /usr/lib/gcc/arm-none-eabi/9.2.1/../../../arm-none-eabi/lib/thumb/v6-m/nofp/libc.a(lib_a-impure.o)
                0x0000000020000418                _impure_ptr
                0x0000000020000848                . = ALIGN (0x4)
 *(.after_data.*)
                0x0000000020000848                . = ALIGN (0x4)
                0x0000000020000848                PROVIDE (__mutex_array_start = .)
 *(SORT_BY_NAME(.mutex_array.*))
 *(.mutex_array)
 .mutex_array   0x0000000020000848        0x8 CMakeFiles/assign02.dir/home/cian/Desktop/pico/pico-sdk/src/rp2_common/pico_stdio/stdio.c.obj
                0x0000000020000850                PROVIDE (__mutex_array_end = .)
                0x0000000020000850                . = ALIGN (0x4)
                0x0000000020000850                PROVIDE (__preinit_array_start = .)
 *(SORT_BY_NAME(.preinit_array.*))
 .preinit_array.00001
                0x0000000020000850        0x4 CMakeFiles/assign02.dir/home/cian/Desktop/pico/pico-sdk/src/rp2_common/pico_mem_ops/mem_ops_aeabi.S.obj
 .preinit_array.00010
                0x0000000020000854        0x4 CMakeFiles/assign02.dir/home/cian/Desktop/pico/pico-sdk/src/rp2_common/pico_bit_ops/bit_ops_aeabi.S.obj
 .preinit_array.00020
                0x0000000020000858        0x4 CMakeFiles/assign02.dir/home/cian/Desktop/pico/pico-sdk/src/rp2_common/pico_double/double_aeabi.S.obj
 .preinit_array.00020
                0x000000002000085c        0x4 CMakeFiles/assign02.dir/home/cian/Desktop/pico/pico-sdk/src/rp2_common/pico_float/float_aeabi.S.obj
 *(.preinit_array)
                0x0000000020000860                PROVIDE (__preinit_array_end = .)
                0x0000000020000860                . = ALIGN (0x4)
                0x0000000020000860                PROVIDE (__init_array_start = .)
 *(SORT_BY_NAME(.init_array.*))
 *(.init_array)
 .init_array    0x0000000020000860        0x4 /usr/lib/gcc/arm-none-eabi/9.2.1/thumb/v6-m/nofp/crtbegin.o
                0x0000000020000864                PROVIDE (__init_array_end = .)
                0x0000000020000864                . = ALIGN (0x4)
                0x0000000020000864                PROVIDE (__fini_array_start = .)
 *(SORT_BY_NAME(.fini_array.*))
 *(.fini_array)
                0x0000000020000864                PROVIDE (__fini_array_end = .)
 *(.jcr)
                0x0000000020000864                . = ALIGN (0x4)
                0x0000000020000864                __data_end__ = .

.tm_clone_table
                0x0000000020000864        0x0 load address 0x000000001000609c
 .tm_clone_table
                0x0000000020000864        0x0 /usr/lib/gcc/arm-none-eabi/9.2.1/thumb/v6-m/nofp/crtbegin.o
 .tm_clone_table
                0x0000000020000864        0x0 /usr/lib/gcc/arm-none-eabi/9.2.1/thumb/v6-m/nofp/crtend.o

.igot.plt       0x0000000020000864        0x0 load address 0x000000001000609c
 .igot.plt      0x0000000020000864        0x0 /usr/lib/gcc/arm-none-eabi/9.2.1/thumb/v6-m/nofp/crtbegin.o

.uninitialized_data
                0x0000000020000864        0x0 load address 0x000000001000609c
                0x0000000020000864                . = ALIGN (0x4)
 *(.uninitialized_data*)

.scratch_x      0x0000000020040000        0x0 load address 0x000000001000609c
                0x0000000020040000                __scratch_x_start__ = .
 *(.scratch_x.*)
                0x0000000020040000                . = ALIGN (0x4)
                0x0000000020040000                __scratch_x_end__ = .
                0x000000001000609c                __scratch_x_source__ = LOADADDR (.scratch_x)

.scratch_y      0x0000000020041000        0x0 load address 0x000000001000609c
                0x0000000020041000                __scratch_y_start__ = .
 *(.scratch_y.*)
                0x0000000020041000                . = ALIGN (0x4)
                0x0000000020041000                __scratch_y_end__ = .
                0x000000001000609c                __scratch_y_source__ = LOADADDR (.scratch_y)

.bss            0x0000000020000868      0x424
                0x0000000020000868                . = ALIGN (0x4)
                0x0000000020000868                __bss_start__ = .
 *(SORT_BY_ALIGNMENT(SORT_BY_NAME(.bss*)))
 .bss.default_alarm_pool_entries
                0x0000000020000868      0x100 CMakeFiles/assign02.dir/home/cian/Desktop/pico/pico-sdk/src/common/pico_time/time.c.obj
 .bss           0x0000000020000968       0x1c /usr/lib/gcc/arm-none-eabi/9.2.1/thumb/v6-m/nofp/crtbegin.o
 .bss._used_instruction_space
                0x0000000020000984        0x8 CMakeFiles/assign02.dir/home/cian/Desktop/pico/pico-sdk/src/rp2_common/hardware_pio/pio.c.obj
 .bss.alarm_callbacks
                0x000000002000098c       0x10 CMakeFiles/assign02.dir/home/cian/Desktop/pico/pico-sdk/src/rp2_common/hardware_timer/timer.c.obj
 .bss.configured_freq
                0x000000002000099c       0x28 CMakeFiles/assign02.dir/home/cian/Desktop/pico/pico-sdk/src/rp2_common/hardware_clocks/clocks.c.obj
 .bss.default_alarm_pool_entry_ids_high
                0x00000000200009c4       0x10 CMakeFiles/assign02.dir/home/cian/Desktop/pico/pico-sdk/src/common/pico_time/time.c.obj
 .bss.default_alarm_pool_heap_nodes
                0x00000000200009d4       0x30 CMakeFiles/assign02.dir/home/cian/Desktop/pico/pico-sdk/src/common/pico_time/time.c.obj
 .bss.drivers   0x0000000020000a04        0x4 CMakeFiles/assign02.dir/home/cian/Desktop/pico/pico-sdk/src/rp2_common/pico_stdio/stdio.c.obj
 .bss.filter    0x0000000020000a08        0x4 CMakeFiles/assign02.dir/home/cian/Desktop/pico/pico-sdk/src/rp2_common/pico_stdio/stdio.c.obj
 .bss.lazy_vsnprintf
                0x0000000020000a0c        0x4 CMakeFiles/assign02.dir/home/cian/Desktop/pico/pico-sdk/src/rp2_common/pico_printf/printf.c.obj
 .bss.level     0x0000000020000a10        0x4 CMakeFiles/assign02.dir/assign02.c.obj
                0x0000000020000a10                level
 .bss.load_value
                0x0000000020000a14        0x4 CMakeFiles/assign02.dir/home/cian/Desktop/pico/pico-sdk/src/rp2_common/hardware_watchdog/watchdog.c.obj
 .bss.morse_bin
                0x0000000020000a18        0x4 CMakeFiles/assign02.dir/assign02.c.obj
                0x0000000020000a18                morse_bin
 .bss.pools     0x0000000020000a1c       0x10 CMakeFiles/assign02.dir/home/cian/Desktop/pico/pico-sdk/src/common/pico_time/time.c.obj
 .bss.sf_clz_func
                0x0000000020000a2c        0x4 CMakeFiles/assign02.dir/home/cian/Desktop/pico/pico-sdk/src/rp2_common/pico_double/double_init_rom.c.obj
                0x0000000020000a2c                sf_clz_func
 .bss.sleep_notifier
                0x0000000020000a30        0x4 CMakeFiles/assign02.dir/home/cian/Desktop/pico/pico-sdk/src/common/pico_time/time.c.obj
 .bss.target_hi
                0x0000000020000a34       0x10 CMakeFiles/assign02.dir/home/cian/Desktop/pico/pico-sdk/src/rp2_common/hardware_timer/timer.c.obj
 .bss.uart_instance
                0x0000000020000a44        0x4 CMakeFiles/assign02.dir/home/cian/Desktop/pico/pico-sdk/src/rp2_common/pico_stdio_uart/stdio_uart.c.obj
 .bss.current_attempts
                0x0000000020000a48        0x2 CMakeFiles/assign02.dir/assign02.c.obj
                0x0000000020000a48                current_attempts
 .bss.current_correct
                0x0000000020000a4a        0x2 CMakeFiles/assign02.dir/assign02.c.obj
                0x0000000020000a4a                current_correct
 .bss.total_attempts
                0x0000000020000a4c        0x2 CMakeFiles/assign02.dir/assign02.c.obj
                0x0000000020000a4c                total_attempts
 .bss.total_correct
                0x0000000020000a4e        0x2 CMakeFiles/assign02.dir/assign02.c.obj
                0x0000000020000a4e                total_correct
 .bss.claimed   0x0000000020000a50        0x1 CMakeFiles/assign02.dir/home/cian/Desktop/pico/pico-sdk/src/rp2_common/hardware_timer/timer.c.obj
 .bss.irq_hander_chain_free_slot_head
                0x0000000020000a51        0x1 CMakeFiles/assign02.dir/home/cian/Desktop/pico/pico-sdk/src/rp2_common/hardware_irq/irq.c.obj
 .bss.timer_callbacks_pending
                0x0000000020000a52        0x1 CMakeFiles/assign02.dir/home/cian/Desktop/pico/pico-sdk/src/rp2_common/hardware_timer/timer.c.obj
 *(COMMON)
 *fill*         0x0000000020000a53        0x1 
 COMMON         0x0000000020000a54       0x32 CMakeFiles/assign02.dir/assign02.c.obj
                0x0000000020000a54                Q
                0x0000000020000a68                q
 *fill*         0x0000000020000a86        0x2 
 COMMON         0x0000000020000a88        0x4 CMakeFiles/assign02.dir/home/cian/Desktop/pico/pico-sdk/src/rp2_common/hardware_uart/uart.c.obj
                0x0000000020000a88                uart_char_to_line_feed
 COMMON         0x0000000020000a8c      0x100 CMakeFiles/assign02.dir/home/cian/Desktop/pico/pico-sdk/src/rp2_common/pico_double/double_init_rom.c.obj
                0x0000000020000a8c                sd_table
 COMMON         0x0000000020000b8c      0x100 CMakeFiles/assign02.dir/home/cian/Desktop/pico/pico-sdk/src/rp2_common/pico_float/float_init_rom.c.obj
                0x0000000020000b8c                sf_table
                0x0000000020000c8c                . = ALIGN (0x4)
                0x0000000020000c8c                __bss_end__ = .

.heap           0x0000000020000c8c      0x800
                0x0000000020000c8c                __end__ = .
                0x0000000020000c8c                end = __end__
 *(.heap*)
 .heap          0x0000000020000c8c      0x800 CMakeFiles/assign02.dir/home/cian/Desktop/pico/pico-sdk/src/rp2_common/pico_standard_link/crt0.S.obj
                0x000000002000148c                __HeapLimit = .

.stack1_dummy   0x0000000020040000        0x0
 *(.stack1*)

.stack_dummy    0x0000000020041000      0x800
 *(.stack*)
 .stack         0x0000000020041000      0x800 CMakeFiles/assign02.dir/home/cian/Desktop/pico/pico-sdk/src/rp2_common/pico_standard_link/crt0.S.obj

.flash_end      0x000000001000609c        0x0
                0x000000001000609c                __flash_binary_end = .
                0x0000000020040000                __StackLimit = (ORIGIN (RAM) + LENGTH (RAM))
                0x0000000020041000                __StackOneTop = (ORIGIN (SCRATCH_X) + LENGTH (SCRATCH_X))
                0x0000000020042000                __StackTop = (ORIGIN (SCRATCH_Y) + LENGTH (SCRATCH_Y))
                0x0000000020041000                __StackOneBottom = (__StackOneTop - SIZEOF (.stack1_dummy))
                0x0000000020041800                __StackBottom = (__StackTop - SIZEOF (.stack_dummy))
                0x0000000020042000                PROVIDE (__stack = __StackTop)
                0x0000000000000001                ASSERT ((__StackLimit >= __HeapLimit), region RAM overflowed)
                0x0000000000000001                ASSERT (((__binary_info_header_end - __logical_binary_start) <= 0x100), Binary info must be in first 256 bytes of the binary)
LOAD CMakeFiles/assign02.dir/assign02.c.obj
LOAD CMakeFiles/assign02.dir/assign02.S.obj
LOAD CMakeFiles/assign02.dir/home/cian/Desktop/pico/pico-sdk/src/rp2_common/pico_stdlib/stdlib.c.obj
LOAD CMakeFiles/assign02.dir/home/cian/Desktop/pico/pico-sdk/src/rp2_common/hardware_gpio/gpio.c.obj
LOAD CMakeFiles/assign02.dir/home/cian/Desktop/pico/pico-sdk/src/rp2_common/hardware_claim/claim.c.obj
LOAD CMakeFiles/assign02.dir/home/cian/Desktop/pico/pico-sdk/src/rp2_common/pico_platform/platform.c.obj
LOAD CMakeFiles/assign02.dir/home/cian/Desktop/pico/pico-sdk/src/rp2_common/hardware_sync/sync.c.obj
LOAD CMakeFiles/assign02.dir/home/cian/Desktop/pico/pico-sdk/src/rp2_common/hardware_uart/uart.c.obj
LOAD CMakeFiles/assign02.dir/home/cian/Desktop/pico/pico-sdk/src/rp2_common/hardware_divider/divider.S.obj
LOAD CMakeFiles/assign02.dir/home/cian/Desktop/pico/pico-sdk/src/common/pico_time/time.c.obj
LOAD CMakeFiles/assign02.dir/home/cian/Desktop/pico/pico-sdk/src/common/pico_time/timeout_helper.c.obj
LOAD CMakeFiles/assign02.dir/home/cian/Desktop/pico/pico-sdk/src/rp2_common/hardware_timer/timer.c.obj
LOAD CMakeFiles/assign02.dir/home/cian/Desktop/pico/pico-sdk/src/common/pico_sync/sem.c.obj
LOAD CMakeFiles/assign02.dir/home/cian/Desktop/pico/pico-sdk/src/common/pico_sync/lock_core.c.obj
LOAD CMakeFiles/assign02.dir/home/cian/Desktop/pico/pico-sdk/src/common/pico_sync/mutex.c.obj
LOAD CMakeFiles/assign02.dir/home/cian/Desktop/pico/pico-sdk/src/common/pico_sync/critical_section.c.obj
LOAD CMakeFiles/assign02.dir/home/cian/Desktop/pico/pico-sdk/src/common/pico_util/datetime.c.obj
LOAD CMakeFiles/assign02.dir/home/cian/Desktop/pico/pico-sdk/src/common/pico_util/pheap.c.obj
LOAD CMakeFiles/assign02.dir/home/cian/Desktop/pico/pico-sdk/src/common/pico_util/queue.c.obj
LOAD CMakeFiles/assign02.dir/home/cian/Desktop/pico/pico-sdk/src/rp2_common/pico_runtime/runtime.c.obj
LOAD CMakeFiles/assign02.dir/home/cian/Desktop/pico/pico-sdk/src/rp2_common/hardware_clocks/clocks.c.obj
LOAD CMakeFiles/assign02.dir/home/cian/Desktop/pico/pico-sdk/src/rp2_common/hardware_irq/irq.c.obj
LOAD CMakeFiles/assign02.dir/home/cian/Desktop/pico/pico-sdk/src/rp2_common/hardware_irq/irq_handler_chain.S.obj
LOAD CMakeFiles/assign02.dir/home/cian/Desktop/pico/pico-sdk/src/rp2_common/hardware_pll/pll.c.obj
LOAD CMakeFiles/assign02.dir/home/cian/Desktop/pico/pico-sdk/src/rp2_common/hardware_vreg/vreg.c.obj
LOAD CMakeFiles/assign02.dir/home/cian/Desktop/pico/pico-sdk/src/rp2_common/hardware_watchdog/watchdog.c.obj
LOAD CMakeFiles/assign02.dir/home/cian/Desktop/pico/pico-sdk/src/rp2_common/hardware_xosc/xosc.c.obj
LOAD CMakeFiles/assign02.dir/home/cian/Desktop/pico/pico-sdk/src/rp2_common/pico_printf/printf.c.obj
LOAD CMakeFiles/assign02.dir/home/cian/Desktop/pico/pico-sdk/src/rp2_common/pico_bit_ops/bit_ops_aeabi.S.obj
LOAD CMakeFiles/assign02.dir/home/cian/Desktop/pico/pico-sdk/src/rp2_common/pico_bootrom/bootrom.c.obj
LOAD CMakeFiles/assign02.dir/home/cian/Desktop/pico/pico-sdk/src/rp2_common/pico_divider/divider.S.obj
LOAD CMakeFiles/assign02.dir/home/cian/Desktop/pico/pico-sdk/src/rp2_common/pico_double/double_aeabi.S.obj
LOAD CMakeFiles/assign02.dir/home/cian/Desktop/pico/pico-sdk/src/rp2_common/pico_double/double_init_rom.c.obj
LOAD CMakeFiles/assign02.dir/home/cian/Desktop/pico/pico-sdk/src/rp2_common/pico_double/double_math.c.obj
LOAD CMakeFiles/assign02.dir/home/cian/Desktop/pico/pico-sdk/src/rp2_common/pico_double/double_v1_rom_shim.S.obj
LOAD CMakeFiles/assign02.dir/home/cian/Desktop/pico/pico-sdk/src/rp2_common/pico_int64_ops/pico_int64_ops_aeabi.S.obj
LOAD CMakeFiles/assign02.dir/home/cian/Desktop/pico/pico-sdk/src/rp2_common/pico_float/float_aeabi.S.obj
LOAD CMakeFiles/assign02.dir/home/cian/Desktop/pico/pico-sdk/src/rp2_common/pico_float/float_init_rom.c.obj
LOAD CMakeFiles/assign02.dir/home/cian/Desktop/pico/pico-sdk/src/rp2_common/pico_float/float_math.c.obj
LOAD CMakeFiles/assign02.dir/home/cian/Desktop/pico/pico-sdk/src/rp2_common/pico_float/float_v1_rom_shim.S.obj
LOAD CMakeFiles/assign02.dir/home/cian/Desktop/pico/pico-sdk/src/rp2_common/pico_malloc/pico_malloc.c.obj
LOAD CMakeFiles/assign02.dir/home/cian/Desktop/pico/pico-sdk/src/rp2_common/pico_mem_ops/mem_ops_aeabi.S.obj
LOAD CMakeFiles/assign02.dir/home/cian/Desktop/pico/pico-sdk/src/rp2_common/pico_standard_link/crt0.S.obj
LOAD CMakeFiles/assign02.dir/home/cian/Desktop/pico/pico-sdk/src/rp2_common/pico_standard_link/new_delete.cpp.obj
LOAD CMakeFiles/assign02.dir/home/cian/Desktop/pico/pico-sdk/src/rp2_common/pico_standard_link/binary_info.c.obj
LOAD CMakeFiles/assign02.dir/home/cian/Desktop/pico/pico-sdk/src/rp2_common/pico_stdio/stdio.c.obj
LOAD CMakeFiles/assign02.dir/home/cian/Desktop/pico/pico-sdk/src/rp2_common/pico_stdio_uart/stdio_uart.c.obj
LOAD CMakeFiles/assign02.dir/home/cian/Desktop/pico/pico-sdk/src/rp2_common/hardware_pio/pio.c.obj
LOAD /tmp/ccOQ1rVp.o
LOAD /usr/lib/gcc/arm-none-eabi/9.2.1/../../../arm-none-eabi/lib/thumb/v6-m/nofp/libstdc++.a
LOAD /usr/lib/gcc/arm-none-eabi/9.2.1/../../../arm-none-eabi/lib/thumb/v6-m/nofp/libm.a
START GROUP
LOAD /usr/lib/gcc/arm-none-eabi/9.2.1/thumb/v6-m/nofp/libgcc.a
LOAD /usr/lib/gcc/arm-none-eabi/9.2.1/../../../arm-none-eabi/lib/thumb/v6-m/nofp/libc.a
END GROUP
START GROUP
LOAD /usr/lib/gcc/arm-none-eabi/9.2.1/thumb/v6-m/nofp/libgcc.a
LOAD /usr/lib/gcc/arm-none-eabi/9.2.1/../../../arm-none-eabi/lib/thumb/v6-m/nofp/libc.a
LOAD /usr/lib/gcc/arm-none-eabi/9.2.1/../../../arm-none-eabi/lib/thumb/v6-m/nofp/libnosys.a
END GROUP
LOAD /usr/lib/gcc/arm-none-eabi/9.2.1/thumb/v6-m/nofp/crtend.o
LOAD /usr/lib/gcc/arm-none-eabi/9.2.1/thumb/v6-m/nofp/crtn.o
OUTPUT(assign02.elf elf32-littlearm)
LOAD linker stubs

.ARM.attributes
                0x0000000000000000       0x28
 .ARM.attributes
                0x0000000000000000       0x1e /usr/lib/gcc/arm-none-eabi/9.2.1/thumb/v6-m/nofp/crti.o
 .ARM.attributes
                0x000000000000001e       0x2c /usr/lib/gcc/arm-none-eabi/9.2.1/thumb/v6-m/nofp/crtbegin.o
 .ARM.attributes
                0x000000000000004a       0x2c CMakeFiles/assign02.dir/assign02.c.obj
 .ARM.attributes
                0x0000000000000076       0x22 CMakeFiles/assign02.dir/assign02.S.obj
 .ARM.attributes
                0x0000000000000098       0x2c CMakeFiles/assign02.dir/home/cian/Desktop/pico/pico-sdk/src/rp2_common/hardware_gpio/gpio.c.obj
 .ARM.attributes
                0x00000000000000c4       0x2c CMakeFiles/assign02.dir/home/cian/Desktop/pico/pico-sdk/src/rp2_common/hardware_claim/claim.c.obj
 .ARM.attributes
                0x00000000000000f0       0x2c CMakeFiles/assign02.dir/home/cian/Desktop/pico/pico-sdk/src/rp2_common/pico_platform/platform.c.obj
 .ARM.attributes
                0x000000000000011c       0x2c CMakeFiles/assign02.dir/home/cian/Desktop/pico/pico-sdk/src/rp2_common/hardware_sync/sync.c.obj
 .ARM.attributes
                0x0000000000000148       0x2c CMakeFiles/assign02.dir/home/cian/Desktop/pico/pico-sdk/src/rp2_common/hardware_uart/uart.c.obj
 .ARM.attributes
                0x0000000000000174       0x2c CMakeFiles/assign02.dir/home/cian/Desktop/pico/pico-sdk/src/common/pico_time/time.c.obj
 .ARM.attributes
                0x00000000000001a0       0x2c CMakeFiles/assign02.dir/home/cian/Desktop/pico/pico-sdk/src/rp2_common/hardware_timer/timer.c.obj
 .ARM.attributes
                0x00000000000001cc       0x2c CMakeFiles/assign02.dir/home/cian/Desktop/pico/pico-sdk/src/common/pico_sync/lock_core.c.obj
 .ARM.attributes
                0x00000000000001f8       0x2c CMakeFiles/assign02.dir/home/cian/Desktop/pico/pico-sdk/src/common/pico_sync/mutex.c.obj
 .ARM.attributes
                0x0000000000000224       0x2c CMakeFiles/assign02.dir/home/cian/Desktop/pico/pico-sdk/src/common/pico_util/pheap.c.obj
 .ARM.attributes
                0x0000000000000250       0x2c CMakeFiles/assign02.dir/home/cian/Desktop/pico/pico-sdk/src/rp2_common/pico_runtime/runtime.c.obj
 .ARM.attributes
                0x000000000000027c       0x2c CMakeFiles/assign02.dir/home/cian/Desktop/pico/pico-sdk/src/rp2_common/hardware_clocks/clocks.c.obj
 .ARM.attributes
                0x00000000000002a8       0x2c CMakeFiles/assign02.dir/home/cian/Desktop/pico/pico-sdk/src/rp2_common/hardware_irq/irq.c.obj
 .ARM.attributes
                0x00000000000002d4       0x22 CMakeFiles/assign02.dir/home/cian/Desktop/pico/pico-sdk/src/rp2_common/hardware_irq/irq_handler_chain.S.obj
 .ARM.attributes
                0x00000000000002f6       0x2c CMakeFiles/assign02.dir/home/cian/Desktop/pico/pico-sdk/src/rp2_common/hardware_pll/pll.c.obj
 .ARM.attributes
                0x0000000000000322       0x2c CMakeFiles/assign02.dir/home/cian/Desktop/pico/pico-sdk/src/rp2_common/hardware_watchdog/watchdog.c.obj
 .ARM.attributes
                0x000000000000034e       0x2c CMakeFiles/assign02.dir/home/cian/Desktop/pico/pico-sdk/src/rp2_common/hardware_xosc/xosc.c.obj
 .ARM.attributes
                0x000000000000037a       0x2c CMakeFiles/assign02.dir/home/cian/Desktop/pico/pico-sdk/src/rp2_common/pico_printf/printf.c.obj
 .ARM.attributes
                0x00000000000003a6       0x22 CMakeFiles/assign02.dir/home/cian/Desktop/pico/pico-sdk/src/rp2_common/pico_bit_ops/bit_ops_aeabi.S.obj
 .ARM.attributes
                0x00000000000003c8       0x2c CMakeFiles/assign02.dir/home/cian/Desktop/pico/pico-sdk/src/rp2_common/pico_bootrom/bootrom.c.obj
 .ARM.attributes
                0x00000000000003f4       0x22 CMakeFiles/assign02.dir/home/cian/Desktop/pico/pico-sdk/src/rp2_common/pico_divider/divider.S.obj
 .ARM.attributes
                0x0000000000000416       0x22 CMakeFiles/assign02.dir/home/cian/Desktop/pico/pico-sdk/src/rp2_common/pico_double/double_aeabi.S.obj
 .ARM.attributes
                0x0000000000000438       0x2c CMakeFiles/assign02.dir/home/cian/Desktop/pico/pico-sdk/src/rp2_common/pico_double/double_init_rom.c.obj
 .ARM.attributes
                0x0000000000000464       0x22 CMakeFiles/assign02.dir/home/cian/Desktop/pico/pico-sdk/src/rp2_common/pico_double/double_v1_rom_shim.S.obj
 .ARM.attributes
                0x0000000000000486       0x22 CMakeFiles/assign02.dir/home/cian/Desktop/pico/pico-sdk/src/rp2_common/pico_int64_ops/pico_int64_ops_aeabi.S.obj
 .ARM.attributes
                0x00000000000004a8       0x22 CMakeFiles/assign02.dir/home/cian/Desktop/pico/pico-sdk/src/rp2_common/pico_float/float_aeabi.S.obj
 .ARM.attributes
                0x00000000000004ca       0x2c CMakeFiles/assign02.dir/home/cian/Desktop/pico/pico-sdk/src/rp2_common/pico_float/float_init_rom.c.obj
 .ARM.attributes
                0x00000000000004f6       0x22 CMakeFiles/assign02.dir/home/cian/Desktop/pico/pico-sdk/src/rp2_common/pico_float/float_v1_rom_shim.S.obj
 .ARM.attributes
                0x0000000000000518       0x22 CMakeFiles/assign02.dir/home/cian/Desktop/pico/pico-sdk/src/rp2_common/pico_mem_ops/mem_ops_aeabi.S.obj
 .ARM.attributes
                0x000000000000053a       0x22 CMakeFiles/assign02.dir/home/cian/Desktop/pico/pico-sdk/src/rp2_common/pico_standard_link/crt0.S.obj
 .ARM.attributes
                0x000000000000055c       0x32 CMakeFiles/assign02.dir/home/cian/Desktop/pico/pico-sdk/src/rp2_common/pico_standard_link/binary_info.c.obj
 .ARM.attributes
                0x000000000000058e       0x2c CMakeFiles/assign02.dir/home/cian/Desktop/pico/pico-sdk/src/rp2_common/pico_stdio/stdio.c.obj
 .ARM.attributes
                0x00000000000005ba       0x2c CMakeFiles/assign02.dir/home/cian/Desktop/pico/pico-sdk/src/rp2_common/pico_stdio_uart/stdio_uart.c.obj
 .ARM.attributes
                0x00000000000005e6       0x2c CMakeFiles/assign02.dir/home/cian/Desktop/pico/pico-sdk/src/rp2_common/hardware_pio/pio.c.obj
 .ARM.attributes
                0x0000000000000612       0x22 /tmp/ccOQ1rVp.o
 .ARM.attributes
                0x0000000000000634       0x1e /usr/lib/gcc/arm-none-eabi/9.2.1/thumb/v6-m/nofp/libgcc.a(_dvmd_tls.o)
 .ARM.attributes
                0x0000000000000652       0x2c /usr/lib/gcc/arm-none-eabi/9.2.1/../../../arm-none-eabi/lib/thumb/v6-m/nofp/libc.a(lib_a-impure.o)
 .ARM.attributes
                0x000000000000067e       0x2c /usr/lib/gcc/arm-none-eabi/9.2.1/../../../arm-none-eabi/lib/thumb/v6-m/nofp/libc.a(lib_a-rand.o)
 .ARM.attributes
                0x00000000000006aa       0x2c /usr/lib/gcc/arm-none-eabi/9.2.1/../../../arm-none-eabi/lib/thumb/v6-m/nofp/libc.a(lib_a-strlen-stub.o)
 .ARM.attributes
                0x00000000000006d6       0x2c /usr/lib/gcc/arm-none-eabi/9.2.1/thumb/v6-m/nofp/crtend.o

.comment        0x0000000000000000       0xa7
 .comment       0x0000000000000000       0x59 /usr/lib/gcc/arm-none-eabi/9.2.1/thumb/v6-m/nofp/crtbegin.o
                                         0x5a (size before relaxing)
 .comment       0x0000000000000059       0x5a CMakeFiles/assign02.dir/assign02.c.obj
 .comment       0x0000000000000059       0x5a CMakeFiles/assign02.dir/home/cian/Desktop/pico/pico-sdk/src/rp2_common/hardware_gpio/gpio.c.obj
 .comment       0x0000000000000059       0x5a CMakeFiles/assign02.dir/home/cian/Desktop/pico/pico-sdk/src/rp2_common/hardware_claim/claim.c.obj
 .comment       0x0000000000000059       0x5a CMakeFiles/assign02.dir/home/cian/Desktop/pico/pico-sdk/src/rp2_common/pico_platform/platform.c.obj
 .comment       0x0000000000000059       0x5a CMakeFiles/assign02.dir/home/cian/Desktop/pico/pico-sdk/src/rp2_common/hardware_sync/sync.c.obj
 .comment       0x0000000000000059       0x5a CMakeFiles/assign02.dir/home/cian/Desktop/pico/pico-sdk/src/rp2_common/hardware_uart/uart.c.obj
 .comment       0x0000000000000059       0x5a CMakeFiles/assign02.dir/home/cian/Desktop/pico/pico-sdk/src/common/pico_time/time.c.obj
 .comment       0x0000000000000059       0x5a CMakeFiles/assign02.dir/home/cian/Desktop/pico/pico-sdk/src/rp2_common/hardware_timer/timer.c.obj
 .comment       0x0000000000000059       0x5a CMakeFiles/assign02.dir/home/cian/Desktop/pico/pico-sdk/src/common/pico_sync/lock_core.c.obj
 .comment       0x0000000000000059       0x5a CMakeFiles/assign02.dir/home/cian/Desktop/pico/pico-sdk/src/common/pico_sync/mutex.c.obj
 .comment       0x0000000000000059       0x5a CMakeFiles/assign02.dir/home/cian/Desktop/pico/pico-sdk/src/common/pico_util/pheap.c.obj
 .comment       0x0000000000000059       0x5a CMakeFiles/assign02.dir/home/cian/Desktop/pico/pico-sdk/src/rp2_common/pico_runtime/runtime.c.obj
 .comment       0x0000000000000059       0x5a CMakeFiles/assign02.dir/home/cian/Desktop/pico/pico-sdk/src/rp2_common/hardware_clocks/clocks.c.obj
 .comment       0x0000000000000059       0x5a CMakeFiles/assign02.dir/home/cian/Desktop/pico/pico-sdk/src/rp2_common/hardware_irq/irq.c.obj
 .comment       0x0000000000000059       0x5a CMakeFiles/assign02.dir/home/cian/Desktop/pico/pico-sdk/src/rp2_common/hardware_pll/pll.c.obj
 .comment       0x0000000000000059       0x5a CMakeFiles/assign02.dir/home/cian/Desktop/pico/pico-sdk/src/rp2_common/hardware_watchdog/watchdog.c.obj
 .comment       0x0000000000000059       0x5a CMakeFiles/assign02.dir/home/cian/Desktop/pico/pico-sdk/src/rp2_common/hardware_xosc/xosc.c.obj
 .comment       0x0000000000000059       0x5a CMakeFiles/assign02.dir/home/cian/Desktop/pico/pico-sdk/src/rp2_common/pico_printf/printf.c.obj
 .comment       0x0000000000000059       0x5a CMakeFiles/assign02.dir/home/cian/Desktop/pico/pico-sdk/src/rp2_common/pico_bootrom/bootrom.c.obj
 .comment       0x0000000000000059       0x5a CMakeFiles/assign02.dir/home/cian/Desktop/pico/pico-sdk/src/rp2_common/pico_double/double_init_rom.c.obj
 .comment       0x0000000000000059       0x5a CMakeFiles/assign02.dir/home/cian/Desktop/pico/pico-sdk/src/rp2_common/pico_float/float_init_rom.c.obj
 .comment       0x0000000000000059       0x5a CMakeFiles/assign02.dir/home/cian/Desktop/pico/pico-sdk/src/rp2_common/pico_standard_link/binary_info.c.obj
 .comment       0x0000000000000059       0x5a CMakeFiles/assign02.dir/home/cian/Desktop/pico/pico-sdk/src/rp2_common/pico_stdio/stdio.c.obj
 .comment       0x0000000000000059       0x5a CMakeFiles/assign02.dir/home/cian/Desktop/pico/pico-sdk/src/rp2_common/pico_stdio_uart/stdio_uart.c.obj
 .comment       0x0000000000000059       0x5a CMakeFiles/assign02.dir/home/cian/Desktop/pico/pico-sdk/src/rp2_common/hardware_pio/pio.c.obj
 .comment       0x0000000000000059       0x4e /usr/lib/gcc/arm-none-eabi/9.2.1/../../../arm-none-eabi/lib/thumb/v6-m/nofp/libc.a(lib_a-impure.o)
                                         0x4f (size before relaxing)
 .comment       0x00000000000000a7       0x4f /usr/lib/gcc/arm-none-eabi/9.2.1/../../../arm-none-eabi/lib/thumb/v6-m/nofp/libc.a(lib_a-rand.o)
 .comment       0x00000000000000a7       0x4f /usr/lib/gcc/arm-none-eabi/9.2.1/../../../arm-none-eabi/lib/thumb/v6-m/nofp/libc.a(lib_a-strlen-stub.o)
 .comment       0x00000000000000a7       0x5a /usr/lib/gcc/arm-none-eabi/9.2.1/thumb/v6-m/nofp/crtend.o

.debug_line     0x0000000000000000      0x485
 .debug_line    0x0000000000000000       0x60 /usr/lib/gcc/arm-none-eabi/9.2.1/thumb/v6-m/nofp/libgcc.a(_dvmd_tls.o)
 .debug_line    0x0000000000000060       0xe3 /usr/lib/gcc/arm-none-eabi/9.2.1/../../../arm-none-eabi/lib/thumb/v6-m/nofp/libc.a(lib_a-impure.o)
 .debug_line    0x0000000000000143      0x180 /usr/lib/gcc/arm-none-eabi/9.2.1/../../../arm-none-eabi/lib/thumb/v6-m/nofp/libc.a(lib_a-rand.o)
 .debug_line    0x00000000000002c3      0x1c2 /usr/lib/gcc/arm-none-eabi/9.2.1/../../../arm-none-eabi/lib/thumb/v6-m/nofp/libc.a(lib_a-strlen-stub.o)

.debug_info     0x0000000000000000     0x1c3d
 .debug_info    0x0000000000000000       0x26 /usr/lib/gcc/arm-none-eabi/9.2.1/thumb/v6-m/nofp/libgcc.a(_dvmd_tls.o)
 .debug_info    0x0000000000000026      0x92a /usr/lib/gcc/arm-none-eabi/9.2.1/../../../arm-none-eabi/lib/thumb/v6-m/nofp/libc.a(lib_a-impure.o)
 .debug_info    0x0000000000000950      0x97a /usr/lib/gcc/arm-none-eabi/9.2.1/../../../arm-none-eabi/lib/thumb/v6-m/nofp/libc.a(lib_a-rand.o)
 .debug_info    0x00000000000012ca      0x973 /usr/lib/gcc/arm-none-eabi/9.2.1/../../../arm-none-eabi/lib/thumb/v6-m/nofp/libc.a(lib_a-strlen-stub.o)

.debug_abbrev   0x0000000000000000      0x5c6
 .debug_abbrev  0x0000000000000000       0x14 /usr/lib/gcc/arm-none-eabi/9.2.1/thumb/v6-m/nofp/libgcc.a(_dvmd_tls.o)
 .debug_abbrev  0x0000000000000014      0x1b8 /usr/lib/gcc/arm-none-eabi/9.2.1/../../../arm-none-eabi/lib/thumb/v6-m/nofp/libc.a(lib_a-impure.o)
 .debug_abbrev  0x00000000000001cc      0x212 /usr/lib/gcc/arm-none-eabi/9.2.1/../../../arm-none-eabi/lib/thumb/v6-m/nofp/libc.a(lib_a-rand.o)
 .debug_abbrev  0x00000000000003de      0x1e8 /usr/lib/gcc/arm-none-eabi/9.2.1/../../../arm-none-eabi/lib/thumb/v6-m/nofp/libc.a(lib_a-strlen-stub.o)

.debug_aranges  0x0000000000000000       0x78
 .debug_aranges
                0x0000000000000000       0x20 /usr/lib/gcc/arm-none-eabi/9.2.1/thumb/v6-m/nofp/libgcc.a(_dvmd_tls.o)
 .debug_aranges
                0x0000000000000020       0x18 /usr/lib/gcc/arm-none-eabi/9.2.1/../../../arm-none-eabi/lib/thumb/v6-m/nofp/libc.a(lib_a-impure.o)
 .debug_aranges
                0x0000000000000038       0x20 /usr/lib/gcc/arm-none-eabi/9.2.1/../../../arm-none-eabi/lib/thumb/v6-m/nofp/libc.a(lib_a-rand.o)
 .debug_aranges
                0x0000000000000058       0x20 /usr/lib/gcc/arm-none-eabi/9.2.1/../../../arm-none-eabi/lib/thumb/v6-m/nofp/libc.a(lib_a-strlen-stub.o)

.debug_str      0x0000000000000000      0x73f
 .debug_str     0x0000000000000000       0xa3 /usr/lib/gcc/arm-none-eabi/9.2.1/thumb/v6-m/nofp/libgcc.a(_dvmd_tls.o)
 .debug_str     0x00000000000000a3      0x541 /usr/lib/gcc/arm-none-eabi/9.2.1/../../../arm-none-eabi/lib/thumb/v6-m/nofp/libc.a(lib_a-impure.o)
                                        0x599 (size before relaxing)
 .debug_str     0x00000000000005e4       0x9b /usr/lib/gcc/arm-none-eabi/9.2.1/../../../arm-none-eabi/lib/thumb/v6-m/nofp/libc.a(lib_a-rand.o)
                                        0x5ad (size before relaxing)
 .debug_str     0x000000000000067f       0xc0 /usr/lib/gcc/arm-none-eabi/9.2.1/../../../arm-none-eabi/lib/thumb/v6-m/nofp/libc.a(lib_a-strlen-stub.o)
                                        0x5c2 (size before relaxing)

.debug_loc      0x0000000000000000       0xf9
 .debug_loc     0x0000000000000000       0x56 /usr/lib/gcc/arm-none-eabi/9.2.1/../../../arm-none-eabi/lib/thumb/v6-m/nofp/libc.a(lib_a-rand.o)
 .debug_loc     0x0000000000000056       0xa3 /usr/lib/gcc/arm-none-eabi/9.2.1/../../../arm-none-eabi/lib/thumb/v6-m/nofp/libc.a(lib_a-strlen-stub.o)

.debug_frame    0x0000000000000000       0x60
 .debug_frame   0x0000000000000000       0x38 /usr/lib/gcc/arm-none-eabi/9.2.1/../../../arm-none-eabi/lib/thumb/v6-m/nofp/libc.a(lib_a-rand.o)
 .debug_frame   0x0000000000000038       0x28 /usr/lib/gcc/arm-none-eabi/9.2.1/../../../arm-none-eabi/lib/thumb/v6-m/nofp/libc.a(lib_a-strlen-stub.o)
