
/home/cian/Desktop/pico/group2/build/assign02/assign02.elf:     file format elf32-littlearm

Sections:
Idx Name          Size      VMA       LMA       File off  Algn
  0 .boot2        00000100  10000000  10000000  00001000  2**0
                  CONTENTS, ALLOC, LOAD, READONLY, CODE
  1 .text         00005008  10000100  10000100  00001100  2**4
                  CONTENTS, ALLOC, LOAD, READONLY, CODE
  2 .rodata       000007cc  10005108  10005108  00006108  2**3
                  CONTENTS, ALLOC, LOAD, READONLY, DATA
  3 .binary_info  00000024  100058d4  100058d4  000068d4  2**2
                  CONTENTS, ALLOC, LOAD, DATA
  4 .ram_vector_table 000000c0  20000000  20000000  00007864  2**2
                  CONTENTS
  5 .data         000007a4  200000c0  100058f8  000070c0  2**4
                  CONTENTS, ALLOC, LOAD, CODE
  6 .uninitialized_data 00000000  20000864  20000864  00007924  2**0
                  CONTENTS
  7 .scratch_x    00000000  20040000  20040000  00007924  2**0
                  CONTENTS
  8 .scratch_y    00000000  20041000  20041000  00007924  2**0
                  CONTENTS
  9 .bss          00000424  20000868  20000868  00007868  2**3
                  ALLOC
 10 .heap         00000800  20000c8c  20000c8c  00007924  2**2
                  CONTENTS, READONLY
 11 .stack_dummy  00000800  20041000  20041000  00008140  2**5
                  CONTENTS, READONLY
 12 .ARM.attributes 00000028  00000000  00000000  00008940  2**0
                  CONTENTS, READONLY
 13 .comment      000000a7  00000000  00000000  00008968  2**0
                  CONTENTS, READONLY
 14 .debug_line   00000485  00000000  00000000  00008a0f  2**0
                  CONTENTS, READONLY, DEBUGGING, OCTETS
 15 .debug_info   00001c3d  00000000  00000000  00008e94  2**0
                  CONTENTS, READONLY, DEBUGGING, OCTETS
 16 .debug_abbrev 000005c6  00000000  00000000  0000aad1  2**0
                  CONTENTS, READONLY, DEBUGGING, OCTETS
 17 .debug_aranges 00000078  00000000  00000000  0000b098  2**3
                  CONTENTS, READONLY, DEBUGGING, OCTETS
 18 .debug_str    0000073f  00000000  00000000  0000b110  2**0
                  CONTENTS, READONLY, DEBUGGING, OCTETS
 19 .debug_loc    000000f9  00000000  00000000  0000b84f  2**0
                  CONTENTS, READONLY, DEBUGGING, OCTETS
 20 .debug_frame  00000060  00000000  00000000  0000b948  2**2
                  CONTENTS, READONLY, DEBUGGING, OCTETS

/home/cian/Desktop/pico/group2/build/assign02/assign02.elf:     file format elf32-littlearm


Disassembly of section .boot2:

10000000 <__boot2_start__>:
10000000:	4b32b500 	.word	0x4b32b500
10000004:	60582021 	.word	0x60582021
10000008:	21026898 	.word	0x21026898
1000000c:	60984388 	.word	0x60984388
10000010:	611860d8 	.word	0x611860d8
10000014:	4b2e6158 	.word	0x4b2e6158
10000018:	60992100 	.word	0x60992100
1000001c:	61592102 	.word	0x61592102
10000020:	22f02101 	.word	0x22f02101
10000024:	492b5099 	.word	0x492b5099
10000028:	21016019 	.word	0x21016019
1000002c:	20356099 	.word	0x20356099
10000030:	f844f000 	.word	0xf844f000
10000034:	42902202 	.word	0x42902202
10000038:	2106d014 	.word	0x2106d014
1000003c:	f0006619 	.word	0xf0006619
10000040:	6e19f834 	.word	0x6e19f834
10000044:	66192101 	.word	0x66192101
10000048:	66182000 	.word	0x66182000
1000004c:	f000661a 	.word	0xf000661a
10000050:	6e19f82c 	.word	0x6e19f82c
10000054:	6e196e19 	.word	0x6e196e19
10000058:	f0002005 	.word	0xf0002005
1000005c:	2101f82f 	.word	0x2101f82f
10000060:	d1f94208 	.word	0xd1f94208
10000064:	60992100 	.word	0x60992100
10000068:	6019491b 	.word	0x6019491b
1000006c:	60592100 	.word	0x60592100
10000070:	481b491a 	.word	0x481b491a
10000074:	21016001 	.word	0x21016001
10000078:	21eb6099 	.word	0x21eb6099
1000007c:	21a06619 	.word	0x21a06619
10000080:	f0006619 	.word	0xf0006619
10000084:	2100f812 	.word	0x2100f812
10000088:	49166099 	.word	0x49166099
1000008c:	60014814 	.word	0x60014814
10000090:	60992101 	.word	0x60992101
10000094:	2800bc01 	.word	0x2800bc01
10000098:	4700d000 	.word	0x4700d000
1000009c:	49134812 	.word	0x49134812
100000a0:	c8036008 	.word	0xc8036008
100000a4:	8808f380 	.word	0x8808f380
100000a8:	b5034708 	.word	0xb5034708
100000ac:	20046a99 	.word	0x20046a99
100000b0:	d0fb4201 	.word	0xd0fb4201
100000b4:	42012001 	.word	0x42012001
100000b8:	bd03d1f8 	.word	0xbd03d1f8
100000bc:	6618b502 	.word	0x6618b502
100000c0:	f7ff6618 	.word	0xf7ff6618
100000c4:	6e18fff2 	.word	0x6e18fff2
100000c8:	bd026e18 	.word	0xbd026e18
100000cc:	40020000 	.word	0x40020000
100000d0:	18000000 	.word	0x18000000
100000d4:	00070000 	.word	0x00070000
100000d8:	005f0300 	.word	0x005f0300
100000dc:	00002221 	.word	0x00002221
100000e0:	180000f4 	.word	0x180000f4
100000e4:	a0002022 	.word	0xa0002022
100000e8:	10000100 	.word	0x10000100
100000ec:	e000ed08 	.word	0xe000ed08
	...
100000fc:	7a4eb274 	.word	0x7a4eb274

Disassembly of section .text:

10000100 <__VECTOR_TABLE>:
10000100:	20042000 	.word	0x20042000
10000104:	100001f7 	.word	0x100001f7
10000108:	100001c3 	.word	0x100001c3
1000010c:	100001c5 	.word	0x100001c5
10000110:	100001c1 	.word	0x100001c1
10000114:	100001c1 	.word	0x100001c1
10000118:	100001c1 	.word	0x100001c1
1000011c:	100001c1 	.word	0x100001c1
10000120:	100001c1 	.word	0x100001c1
10000124:	100001c1 	.word	0x100001c1
10000128:	100001c1 	.word	0x100001c1
1000012c:	100001c7 	.word	0x100001c7
10000130:	100001c1 	.word	0x100001c1
10000134:	100001c1 	.word	0x100001c1
10000138:	100001c9 	.word	0x100001c9
1000013c:	100001cb 	.word	0x100001cb
10000140:	100001cd 	.word	0x100001cd
10000144:	100001cd 	.word	0x100001cd
10000148:	100001cd 	.word	0x100001cd
1000014c:	100001cd 	.word	0x100001cd
10000150:	100001cd 	.word	0x100001cd
10000154:	100001cd 	.word	0x100001cd
10000158:	100001cd 	.word	0x100001cd
1000015c:	100001cd 	.word	0x100001cd
10000160:	100001cd 	.word	0x100001cd
10000164:	100001cd 	.word	0x100001cd
10000168:	100001cd 	.word	0x100001cd
1000016c:	100001cd 	.word	0x100001cd
10000170:	100001cd 	.word	0x100001cd
10000174:	100001cd 	.word	0x100001cd
10000178:	100001cd 	.word	0x100001cd
1000017c:	100001cd 	.word	0x100001cd
10000180:	100001cd 	.word	0x100001cd
10000184:	100001cd 	.word	0x100001cd
10000188:	100001cd 	.word	0x100001cd
1000018c:	100001cd 	.word	0x100001cd
10000190:	100001cd 	.word	0x100001cd
10000194:	100001cd 	.word	0x100001cd
10000198:	100001cd 	.word	0x100001cd
1000019c:	100001cd 	.word	0x100001cd
100001a0:	100001cd 	.word	0x100001cd
100001a4:	100001cd 	.word	0x100001cd
100001a8:	100001cd 	.word	0x100001cd
100001ac:	100001cd 	.word	0x100001cd
100001b0:	100001cd 	.word	0x100001cd
100001b4:	100001cd 	.word	0x100001cd
100001b8:	100001cd 	.word	0x100001cd
100001bc:	100001cd 	.word	0x100001cd

100001c0 <isr_invalid>:
100001c0:	be00      	bkpt	0x0000

100001c2 <isr_nmi>:
100001c2:	be00      	bkpt	0x0000

100001c4 <isr_hardfault>:
100001c4:	be00      	bkpt	0x0000

100001c6 <isr_svcall>:
100001c6:	be00      	bkpt	0x0000

100001c8 <isr_pendsv>:
100001c8:	be00      	bkpt	0x0000

100001ca <isr_systick>:
100001ca:	be00      	bkpt	0x0000

100001cc <__unhandled_user_irq>:
100001cc:	f000 f84b 	bl	10000266 <__get_current_exception>
100001d0:	3810      	subs	r0, #16

100001d2 <unhandled_user_irq_num_in_r0>:
100001d2:	be00      	bkpt	0x0000

100001d4 <binary_info_header>:
100001d4:	7188ebf2 	.word	0x7188ebf2
100001d8:	100058d4 	.word	0x100058d4
100001dc:	100058f8 	.word	0x100058f8
100001e0:	10000234 	.word	0x10000234
100001e4:	e71aa390 	.word	0xe71aa390

100001e8 <_entry_point>:
100001e8:	2000      	movs	r0, #0
100001ea:	4921      	ldr	r1, [pc, #132]	; (10000270 <__get_current_exception+0xa>)
100001ec:	6008      	str	r0, [r1, #0]
100001ee:	c806      	ldmia	r0!, {r1, r2}
100001f0:	f381 8808 	msr	MSP, r1
100001f4:	4710      	bx	r2

100001f6 <_reset_handler>:
100001f6:	481f      	ldr	r0, [pc, #124]	; (10000274 <__get_current_exception+0xe>)
100001f8:	6800      	ldr	r0, [r0, #0]
100001fa:	2800      	cmp	r0, #0
100001fc:	d12f      	bne.n	1000025e <hold_non_core0_in_bootrom>
100001fe:	a40d      	add	r4, pc, #52	; (adr r4, 10000234 <data_cpy_table>)
10000200:	cc0e      	ldmia	r4!, {r1, r2, r3}
10000202:	2900      	cmp	r1, #0
10000204:	d002      	beq.n	1000020c <_reset_handler+0x16>
10000206:	f000 f812 	bl	1000022e <data_cpy>
1000020a:	e7f9      	b.n	10000200 <_reset_handler+0xa>
1000020c:	491a      	ldr	r1, [pc, #104]	; (10000278 <__get_current_exception+0x12>)
1000020e:	4a1b      	ldr	r2, [pc, #108]	; (1000027c <__get_current_exception+0x16>)
10000210:	2000      	movs	r0, #0
10000212:	e000      	b.n	10000216 <bss_fill_test>

10000214 <bss_fill_loop>:
10000214:	c101      	stmia	r1!, {r0}

10000216 <bss_fill_test>:
10000216:	4291      	cmp	r1, r2
10000218:	d1fc      	bne.n	10000214 <bss_fill_loop>

1000021a <platform_entry>:
1000021a:	4919      	ldr	r1, [pc, #100]	; (10000280 <__get_current_exception+0x1a>)
1000021c:	4788      	blx	r1
1000021e:	4919      	ldr	r1, [pc, #100]	; (10000284 <__get_current_exception+0x1e>)
10000220:	4788      	blx	r1
10000222:	4919      	ldr	r1, [pc, #100]	; (10000288 <__get_current_exception+0x22>)
10000224:	4788      	blx	r1
10000226:	be00      	bkpt	0x0000
10000228:	e7fd      	b.n	10000226 <platform_entry+0xc>

1000022a <data_cpy_loop>:
1000022a:	c901      	ldmia	r1!, {r0}
1000022c:	c201      	stmia	r2!, {r0}

1000022e <data_cpy>:
1000022e:	429a      	cmp	r2, r3
10000230:	d3fb      	bcc.n	1000022a <data_cpy_loop>
10000232:	4770      	bx	lr

10000234 <data_cpy_table>:
10000234:	100058f8 	.word	0x100058f8
10000238:	200000c0 	.word	0x200000c0
1000023c:	20000864 	.word	0x20000864
10000240:	1000609c 	.word	0x1000609c
10000244:	20040000 	.word	0x20040000
10000248:	20040000 	.word	0x20040000
1000024c:	1000609c 	.word	0x1000609c
10000250:	20041000 	.word	0x20041000
10000254:	20041000 	.word	0x20041000
10000258:	00000000 	.word	0x00000000
1000025c:	4770      	bx	lr

1000025e <hold_non_core0_in_bootrom>:
1000025e:	480b      	ldr	r0, [pc, #44]	; (1000028c <__get_current_exception+0x26>)
10000260:	f003 fc02 	bl	10003a68 <rom_func_lookup>
10000264:	4700      	bx	r0

10000266 <__get_current_exception>:
10000266:	f3ef 8005 	mrs	r0, IPSR
1000026a:	b2c0      	uxtb	r0, r0
1000026c:	4770      	bx	lr
1000026e:	0000      	.short	0x0000
10000270:	e000ed08 	.word	0xe000ed08
10000274:	d0000000 	.word	0xd0000000
10000278:	20000868 	.word	0x20000868
1000027c:	20000c8c 	.word	0x20000c8c
10000280:	10001ac5 	.word	0x10001ac5
10000284:	10000b19 	.word	0x10000b19
10000288:	10001bb5 	.word	0x10001bb5
1000028c:	00005657 	.word	0x00005657

10000290 <__bi_50>:
10000290:	50520006 5360b3ab 10005830              ..RP..`S0X..

1000029c <__bi_38>:
1000029c:	50520006 02031c86 10005840              ..RP....@X..

100002a8 <__bi_30>:
100002a8:	50520006 9da22254 1000584c              ..RPT"..LX..

100002b4 <__bi_22>:
100002b4:	50520005 68f465de 1000609c              ..RP.e.h.`..

100002c0 <_init>:
100002c0:	b5f8      	push	{r3, r4, r5, r6, r7, lr}
100002c2:	46c0      	nop			; (mov r8, r8)

100002c4 <deregister_tm_clones>:
100002c4:	4804      	ldr	r0, [pc, #16]	; (100002d8 <deregister_tm_clones+0x14>)
100002c6:	4b05      	ldr	r3, [pc, #20]	; (100002dc <deregister_tm_clones+0x18>)
100002c8:	b510      	push	{r4, lr}
100002ca:	4283      	cmp	r3, r0
100002cc:	d003      	beq.n	100002d6 <deregister_tm_clones+0x12>
100002ce:	4b04      	ldr	r3, [pc, #16]	; (100002e0 <deregister_tm_clones+0x1c>)
100002d0:	2b00      	cmp	r3, #0
100002d2:	d000      	beq.n	100002d6 <deregister_tm_clones+0x12>
100002d4:	4798      	blx	r3
100002d6:	bd10      	pop	{r4, pc}
100002d8:	20000864 	.word	0x20000864
100002dc:	20000864 	.word	0x20000864
100002e0:	00000000 	.word	0x00000000

100002e4 <register_tm_clones>:
100002e4:	4806      	ldr	r0, [pc, #24]	; (10000300 <register_tm_clones+0x1c>)
100002e6:	4907      	ldr	r1, [pc, #28]	; (10000304 <register_tm_clones+0x20>)
100002e8:	1a09      	subs	r1, r1, r0
100002ea:	108b      	asrs	r3, r1, #2
100002ec:	0fc9      	lsrs	r1, r1, #31
100002ee:	18c9      	adds	r1, r1, r3
100002f0:	b510      	push	{r4, lr}
100002f2:	1049      	asrs	r1, r1, #1
100002f4:	d003      	beq.n	100002fe <register_tm_clones+0x1a>
100002f6:	4b04      	ldr	r3, [pc, #16]	; (10000308 <register_tm_clones+0x24>)
100002f8:	2b00      	cmp	r3, #0
100002fa:	d000      	beq.n	100002fe <register_tm_clones+0x1a>
100002fc:	4798      	blx	r3
100002fe:	bd10      	pop	{r4, pc}
10000300:	20000864 	.word	0x20000864
10000304:	20000864 	.word	0x20000864
10000308:	00000000 	.word	0x00000000

1000030c <__do_global_dtors_aux>:
1000030c:	b510      	push	{r4, lr}
1000030e:	4c07      	ldr	r4, [pc, #28]	; (1000032c <__do_global_dtors_aux+0x20>)
10000310:	7823      	ldrb	r3, [r4, #0]
10000312:	2b00      	cmp	r3, #0
10000314:	d109      	bne.n	1000032a <__do_global_dtors_aux+0x1e>
10000316:	f7ff ffd5 	bl	100002c4 <deregister_tm_clones>
1000031a:	4b05      	ldr	r3, [pc, #20]	; (10000330 <__do_global_dtors_aux+0x24>)
1000031c:	2b00      	cmp	r3, #0
1000031e:	d002      	beq.n	10000326 <__do_global_dtors_aux+0x1a>
10000320:	4804      	ldr	r0, [pc, #16]	; (10000334 <__do_global_dtors_aux+0x28>)
10000322:	e000      	b.n	10000326 <__do_global_dtors_aux+0x1a>
10000324:	bf00      	nop
10000326:	2301      	movs	r3, #1
10000328:	7023      	strb	r3, [r4, #0]
1000032a:	bd10      	pop	{r4, pc}
1000032c:	20000968 	.word	0x20000968
10000330:	00000000 	.word	0x00000000
10000334:	10005108 	.word	0x10005108

10000338 <frame_dummy>:
10000338:	4b05      	ldr	r3, [pc, #20]	; (10000350 <frame_dummy+0x18>)
1000033a:	b510      	push	{r4, lr}
1000033c:	2b00      	cmp	r3, #0
1000033e:	d003      	beq.n	10000348 <frame_dummy+0x10>
10000340:	4904      	ldr	r1, [pc, #16]	; (10000354 <frame_dummy+0x1c>)
10000342:	4805      	ldr	r0, [pc, #20]	; (10000358 <frame_dummy+0x20>)
10000344:	e000      	b.n	10000348 <frame_dummy+0x10>
10000346:	bf00      	nop
10000348:	f7ff ffcc 	bl	100002e4 <register_tm_clones>
1000034c:	bd10      	pop	{r4, pc}
1000034e:	46c0      	nop			; (mov r8, r8)
10000350:	00000000 	.word	0x00000000
10000354:	2000096c 	.word	0x2000096c
10000358:	10005108 	.word	0x10005108

1000035c <asm_gpio_init>:
1000035c:	b510      	push	{r4, lr}
1000035e:	f000 fdb1 	bl	10000ec4 <gpio_init>
10000362:	bd10      	pop	{r4, pc}

10000364 <asm_gpio_set_dir>:
10000364:	2301      	movs	r3, #1
10000366:	22d0      	movs	r2, #208	; 0xd0
10000368:	4083      	lsls	r3, r0
1000036a:	0612      	lsls	r2, r2, #24
1000036c:	2900      	cmp	r1, #0
1000036e:	d001      	beq.n	10000374 <asm_gpio_set_dir+0x10>
10000370:	6253      	str	r3, [r2, #36]	; 0x24
10000372:	4770      	bx	lr
10000374:	6293      	str	r3, [r2, #40]	; 0x28
10000376:	e7fc      	b.n	10000372 <asm_gpio_set_dir+0xe>

10000378 <asm_gpio_get>:
10000378:	23d0      	movs	r3, #208	; 0xd0
1000037a:	061b      	lsls	r3, r3, #24
1000037c:	685b      	ldr	r3, [r3, #4]
1000037e:	40c3      	lsrs	r3, r0
10000380:	2001      	movs	r0, #1
10000382:	4018      	ands	r0, r3
10000384:	4770      	bx	lr
10000386:	46c0      	nop			; (mov r8, r8)

10000388 <asm_gpio_put>:
10000388:	2301      	movs	r3, #1
1000038a:	22d0      	movs	r2, #208	; 0xd0
1000038c:	4083      	lsls	r3, r0
1000038e:	0612      	lsls	r2, r2, #24
10000390:	2900      	cmp	r1, #0
10000392:	d001      	beq.n	10000398 <asm_gpio_put+0x10>
10000394:	6153      	str	r3, [r2, #20]
10000396:	4770      	bx	lr
10000398:	6193      	str	r3, [r2, #24]
1000039a:	e7fc      	b.n	10000396 <asm_gpio_put+0xe>

1000039c <asm_gpio_set_irq>:
1000039c:	b510      	push	{r4, lr}
1000039e:	2800      	cmp	r0, #0
100003a0:	d002      	beq.n	100003a8 <asm_gpio_set_irq+0xc>
100003a2:	2801      	cmp	r0, #1
100003a4:	d006      	beq.n	100003b4 <asm_gpio_set_irq+0x18>
100003a6:	bd10      	pop	{r4, pc}
100003a8:	2201      	movs	r2, #1
100003aa:	2104      	movs	r1, #4
100003ac:	3015      	adds	r0, #21
100003ae:	f000 fd5f 	bl	10000e70 <gpio_set_irq_enabled>
100003b2:	e7f8      	b.n	100003a6 <asm_gpio_set_irq+0xa>
100003b4:	2201      	movs	r2, #1
100003b6:	2108      	movs	r1, #8
100003b8:	3014      	adds	r0, #20
100003ba:	f000 fd59 	bl	10000e70 <gpio_set_irq_enabled>
100003be:	e7f2      	b.n	100003a6 <asm_gpio_set_irq+0xa>

100003c0 <asm_time_us_32>:
100003c0:	4b01      	ldr	r3, [pc, #4]	; (100003c8 <asm_time_us_32+0x8>)
100003c2:	6a98      	ldr	r0, [r3, #40]	; 0x28
100003c4:	4770      	bx	lr
100003c6:	46c0      	nop			; (mov r8, r8)
100003c8:	40054000 	.word	0x40054000

100003cc <get_len>:
100003cc:	b5f8      	push	{r3, r4, r5, r6, r7, lr}
100003ce:	4b23      	ldr	r3, [pc, #140]	; (1000045c <get_len+0x90>)
100003d0:	681b      	ldr	r3, [r3, #0]
100003d2:	2b02      	cmp	r3, #2
100003d4:	dd38      	ble.n	10000448 <get_len+0x7c>
100003d6:	2000      	movs	r0, #0
100003d8:	2b04      	cmp	r3, #4
100003da:	dd00      	ble.n	100003de <get_len+0x12>
100003dc:	bdf8      	pop	{r3, r4, r5, r6, r7, pc}
100003de:	4b20      	ldr	r3, [pc, #128]	; (10000460 <get_len+0x94>)
100003e0:	681c      	ldr	r4, [r3, #0]
100003e2:	2c00      	cmp	r4, #0
100003e4:	ddfa      	ble.n	100003dc <get_len+0x10>
100003e6:	4f1f      	ldr	r7, [pc, #124]	; (10000464 <get_len+0x98>)
100003e8:	4e1f      	ldr	r6, [pc, #124]	; (10000468 <get_len+0x9c>)
100003ea:	683b      	ldr	r3, [r7, #0]
100003ec:	009b      	lsls	r3, r3, #2
100003ee:	5998      	ldr	r0, [r3, r6]
100003f0:	f004 fe2a 	bl	10005048 <strlen>
100003f4:	0005      	movs	r5, r0
100003f6:	b200      	sxth	r0, r0
100003f8:	2c01      	cmp	r4, #1
100003fa:	d0ef      	beq.n	100003dc <get_len+0x10>
100003fc:	687b      	ldr	r3, [r7, #4]
100003fe:	009b      	lsls	r3, r3, #2
10000400:	5998      	ldr	r0, [r3, r6]
10000402:	f004 fe21 	bl	10005048 <strlen>
10000406:	1940      	adds	r0, r0, r5
10000408:	b285      	uxth	r5, r0
1000040a:	b200      	sxth	r0, r0
1000040c:	2c02      	cmp	r4, #2
1000040e:	d0e5      	beq.n	100003dc <get_len+0x10>
10000410:	68bb      	ldr	r3, [r7, #8]
10000412:	009b      	lsls	r3, r3, #2
10000414:	5998      	ldr	r0, [r3, r6]
10000416:	f004 fe17 	bl	10005048 <strlen>
1000041a:	1828      	adds	r0, r5, r0
1000041c:	b285      	uxth	r5, r0
1000041e:	b200      	sxth	r0, r0
10000420:	2c03      	cmp	r4, #3
10000422:	d0db      	beq.n	100003dc <get_len+0x10>
10000424:	68fb      	ldr	r3, [r7, #12]
10000426:	009b      	lsls	r3, r3, #2
10000428:	5998      	ldr	r0, [r3, r6]
1000042a:	f004 fe0d 	bl	10005048 <strlen>
1000042e:	1828      	adds	r0, r5, r0
10000430:	b285      	uxth	r5, r0
10000432:	b200      	sxth	r0, r0
10000434:	2c04      	cmp	r4, #4
10000436:	d0d1      	beq.n	100003dc <get_len+0x10>
10000438:	693b      	ldr	r3, [r7, #16]
1000043a:	009b      	lsls	r3, r3, #2
1000043c:	5998      	ldr	r0, [r3, r6]
1000043e:	f004 fe03 	bl	10005048 <strlen>
10000442:	1828      	adds	r0, r5, r0
10000444:	b200      	sxth	r0, r0
10000446:	e7c9      	b.n	100003dc <get_len+0x10>
10000448:	4b06      	ldr	r3, [pc, #24]	; (10000464 <get_len+0x98>)
1000044a:	4a07      	ldr	r2, [pc, #28]	; (10000468 <get_len+0x9c>)
1000044c:	681b      	ldr	r3, [r3, #0]
1000044e:	009b      	lsls	r3, r3, #2
10000450:	5898      	ldr	r0, [r3, r2]
10000452:	f004 fdf9 	bl	10005048 <strlen>
10000456:	b200      	sxth	r0, r0
10000458:	e7c0      	b.n	100003dc <get_len+0x10>
1000045a:	46c0      	nop			; (mov r8, r8)
1000045c:	20000a10 	.word	0x20000a10
10000460:	200001a0 	.word	0x200001a0
10000464:	20000a54 	.word	0x20000a54
10000468:	200001a8 	.word	0x200001a8

1000046c <set_lives>:
1000046c:	4b15      	ldr	r3, [pc, #84]	; (100004c4 <set_lives+0x58>)
1000046e:	6018      	str	r0, [r3, #0]
10000470:	2802      	cmp	r0, #2
10000472:	d01e      	beq.n	100004b2 <set_lives+0x46>
10000474:	d811      	bhi.n	1000049a <set_lives+0x2e>
10000476:	2180      	movs	r1, #128	; 0x80
10000478:	4a13      	ldr	r2, [pc, #76]	; (100004c8 <set_lives+0x5c>)
1000047a:	0249      	lsls	r1, r1, #9
1000047c:	2800      	cmp	r0, #0
1000047e:	d005      	beq.n	1000048c <set_lives+0x20>
10000480:	6853      	ldr	r3, [r2, #4]
10000482:	420b      	tst	r3, r1
10000484:	d1fc      	bne.n	10000480 <set_lives+0x14>
10000486:	4b11      	ldr	r3, [pc, #68]	; (100004cc <set_lives+0x60>)
10000488:	6113      	str	r3, [r2, #16]
1000048a:	4770      	bx	lr
1000048c:	6853      	ldr	r3, [r2, #4]
1000048e:	420b      	tst	r3, r1
10000490:	d1fc      	bne.n	1000048c <set_lives+0x20>
10000492:	23f0      	movs	r3, #240	; 0xf0
10000494:	011b      	lsls	r3, r3, #4
10000496:	6113      	str	r3, [r2, #16]
10000498:	e7f7      	b.n	1000048a <set_lives+0x1e>
1000049a:	2803      	cmp	r0, #3
1000049c:	d1f5      	bne.n	1000048a <set_lives+0x1e>
1000049e:	2180      	movs	r1, #128	; 0x80
100004a0:	4a09      	ldr	r2, [pc, #36]	; (100004c8 <set_lives+0x5c>)
100004a2:	0249      	lsls	r1, r1, #9
100004a4:	6853      	ldr	r3, [r2, #4]
100004a6:	420b      	tst	r3, r1
100004a8:	d1fc      	bne.n	100004a4 <set_lives+0x38>
100004aa:	2390      	movs	r3, #144	; 0x90
100004ac:	055b      	lsls	r3, r3, #21
100004ae:	6113      	str	r3, [r2, #16]
100004b0:	e7eb      	b.n	1000048a <set_lives+0x1e>
100004b2:	2180      	movs	r1, #128	; 0x80
100004b4:	4a04      	ldr	r2, [pc, #16]	; (100004c8 <set_lives+0x5c>)
100004b6:	0249      	lsls	r1, r1, #9
100004b8:	6853      	ldr	r3, [r2, #4]
100004ba:	420b      	tst	r3, r1
100004bc:	d1fc      	bne.n	100004b8 <set_lives+0x4c>
100004be:	4b04      	ldr	r3, [pc, #16]	; (100004d0 <set_lives+0x64>)
100004c0:	6113      	str	r3, [r2, #16]
100004c2:	e7e2      	b.n	1000048a <set_lives+0x1e>
100004c4:	200001a4 	.word	0x200001a4
100004c8:	50200000 	.word	0x50200000
100004cc:	09120000 	.word	0x09120000
100004d0:	0e0e0000 	.word	0x0e0e0000

100004d4 <set_level>:
100004d4:	4b09      	ldr	r3, [pc, #36]	; (100004fc <set_level+0x28>)
100004d6:	b510      	push	{r4, lr}
100004d8:	0001      	movs	r1, r0
100004da:	0004      	movs	r4, r0
100004dc:	6018      	str	r0, [r3, #0]
100004de:	4808      	ldr	r0, [pc, #32]	; (10000500 <set_level+0x2c>)
100004e0:	f004 fc1a 	bl	10004d18 <__wrap_printf>
100004e4:	2c02      	cmp	r4, #2
100004e6:	d902      	bls.n	100004ee <set_level+0x1a>
100004e8:	2202      	movs	r2, #2
100004ea:	4b06      	ldr	r3, [pc, #24]	; (10000504 <set_level+0x30>)
100004ec:	601a      	str	r2, [r3, #0]
100004ee:	2300      	movs	r3, #0
100004f0:	4a05      	ldr	r2, [pc, #20]	; (10000508 <set_level+0x34>)
100004f2:	8013      	strh	r3, [r2, #0]
100004f4:	4a05      	ldr	r2, [pc, #20]	; (1000050c <set_level+0x38>)
100004f6:	8013      	strh	r3, [r2, #0]
100004f8:	bd10      	pop	{r4, pc}
100004fa:	46c0      	nop			; (mov r8, r8)
100004fc:	20000a10 	.word	0x20000a10
10000500:	10005108 	.word	0x10005108
10000504:	200001a0 	.word	0x200001a0
10000508:	20000a4a 	.word	0x20000a4a
1000050c:	20000a48 	.word	0x20000a48

10000510 <print_q>:
10000510:	b5f8      	push	{r3, r4, r5, r6, r7, lr}
10000512:	4b10      	ldr	r3, [pc, #64]	; (10000554 <print_q+0x44>)
10000514:	4810      	ldr	r0, [pc, #64]	; (10000558 <print_q+0x48>)
10000516:	6819      	ldr	r1, [r3, #0]
10000518:	f004 fbfe 	bl	10004d18 <__wrap_printf>
1000051c:	4d0f      	ldr	r5, [pc, #60]	; (1000055c <print_q+0x4c>)
1000051e:	4810      	ldr	r0, [pc, #64]	; (10000560 <print_q+0x50>)
10000520:	7829      	ldrb	r1, [r5, #0]
10000522:	f004 fbf9 	bl	10004d18 <__wrap_printf>
10000526:	4b0f      	ldr	r3, [pc, #60]	; (10000564 <print_q+0x54>)
10000528:	681b      	ldr	r3, [r3, #0]
1000052a:	2b02      	cmp	r3, #2
1000052c:	dd0d      	ble.n	1000054a <print_q+0x3a>
1000052e:	4e0e      	ldr	r6, [pc, #56]	; (10000568 <print_q+0x58>)
10000530:	6833      	ldr	r3, [r6, #0]
10000532:	2b01      	cmp	r3, #1
10000534:	dd09      	ble.n	1000054a <print_q+0x3a>
10000536:	2401      	movs	r4, #1
10000538:	4f0c      	ldr	r7, [pc, #48]	; (1000056c <print_q+0x5c>)
1000053a:	5d29      	ldrb	r1, [r5, r4]
1000053c:	0038      	movs	r0, r7
1000053e:	f004 fbeb 	bl	10004d18 <__wrap_printf>
10000542:	6833      	ldr	r3, [r6, #0]
10000544:	3401      	adds	r4, #1
10000546:	42a3      	cmp	r3, r4
10000548:	dcf7      	bgt.n	1000053a <print_q+0x2a>
1000054a:	4809      	ldr	r0, [pc, #36]	; (10000570 <print_q+0x60>)
1000054c:	f004 fb3c 	bl	10004bc8 <__wrap_puts>
10000550:	bdf8      	pop	{r3, r4, r5, r6, r7, pc}
10000552:	46c0      	nop			; (mov r8, r8)
10000554:	200001a4 	.word	0x200001a4
10000558:	10005118 	.word	0x10005118
1000055c:	20000a68 	.word	0x20000a68
10000560:	10005124 	.word	0x10005124
10000564:	20000a10 	.word	0x20000a10
10000568:	200001a0 	.word	0x200001a0
1000056c:	10005140 	.word	0x10005140
10000570:	10005250 	.word	0x10005250

10000574 <print_morse>:
10000574:	b5f0      	push	{r4, r5, r6, r7, lr}
10000576:	46c6      	mov	lr, r8
10000578:	4e12      	ldr	r6, [pc, #72]	; (100005c4 <print_morse+0x50>)
1000057a:	4d13      	ldr	r5, [pc, #76]	; (100005c8 <print_morse+0x54>)
1000057c:	6833      	ldr	r3, [r6, #0]
1000057e:	b500      	push	{lr}
10000580:	009b      	lsls	r3, r3, #2
10000582:	58e9      	ldr	r1, [r5, r3]
10000584:	4811      	ldr	r0, [pc, #68]	; (100005cc <print_morse+0x58>)
10000586:	f004 fbc7 	bl	10004d18 <__wrap_printf>
1000058a:	4b11      	ldr	r3, [pc, #68]	; (100005d0 <print_morse+0x5c>)
1000058c:	681b      	ldr	r3, [r3, #0]
1000058e:	2b02      	cmp	r3, #2
10000590:	dd11      	ble.n	100005b6 <print_morse+0x42>
10000592:	4f10      	ldr	r7, [pc, #64]	; (100005d4 <print_morse+0x60>)
10000594:	683b      	ldr	r3, [r7, #0]
10000596:	2b01      	cmp	r3, #1
10000598:	dd0d      	ble.n	100005b6 <print_morse+0x42>
1000059a:	4b0f      	ldr	r3, [pc, #60]	; (100005d8 <print_morse+0x64>)
1000059c:	2401      	movs	r4, #1
1000059e:	4698      	mov	r8, r3
100005a0:	00a3      	lsls	r3, r4, #2
100005a2:	58f3      	ldr	r3, [r6, r3]
100005a4:	4640      	mov	r0, r8
100005a6:	009b      	lsls	r3, r3, #2
100005a8:	58e9      	ldr	r1, [r5, r3]
100005aa:	f004 fbb5 	bl	10004d18 <__wrap_printf>
100005ae:	683b      	ldr	r3, [r7, #0]
100005b0:	3401      	adds	r4, #1
100005b2:	42a3      	cmp	r3, r4
100005b4:	dcf4      	bgt.n	100005a0 <print_morse+0x2c>
100005b6:	4809      	ldr	r0, [pc, #36]	; (100005dc <print_morse+0x68>)
100005b8:	f004 fb06 	bl	10004bc8 <__wrap_puts>
100005bc:	bc04      	pop	{r2}
100005be:	4690      	mov	r8, r2
100005c0:	bdf0      	pop	{r4, r5, r6, r7, pc}
100005c2:	46c0      	nop			; (mov r8, r8)
100005c4:	20000a54 	.word	0x20000a54
100005c8:	200001a8 	.word	0x200001a8
100005cc:	10005148 	.word	0x10005148
100005d0:	20000a10 	.word	0x20000a10
100005d4:	200001a0 	.word	0x200001a0
100005d8:	10005160 	.word	0x10005160
100005dc:	10005250 	.word	0x10005250

100005e0 <get_rand>:
100005e0:	b5f8      	push	{r3, r4, r5, r6, r7, lr}
100005e2:	46de      	mov	lr, fp
100005e4:	4645      	mov	r5, r8
100005e6:	4657      	mov	r7, sl
100005e8:	464e      	mov	r6, r9
100005ea:	b5e0      	push	{r5, r6, r7, lr}
100005ec:	f004 fd12 	bl	10005014 <rand>
100005f0:	2400      	movs	r4, #0
100005f2:	4b39      	ldr	r3, [pc, #228]	; (100006d8 <get_rand+0xf8>)
100005f4:	6a9b      	ldr	r3, [r3, #40]	; 0x28
100005f6:	4358      	muls	r0, r3
100005f8:	f004 fd02 	bl	10005000 <srand>
100005fc:	4b37      	ldr	r3, [pc, #220]	; (100006dc <get_rand+0xfc>)
100005fe:	4d38      	ldr	r5, [pc, #224]	; (100006e0 <get_rand+0x100>)
10000600:	681b      	ldr	r3, [r3, #0]
10000602:	602c      	str	r4, [r5, #0]
10000604:	2b02      	cmp	r3, #2
10000606:	dd40      	ble.n	1000068a <get_rand+0xaa>
10000608:	2b04      	cmp	r3, #4
1000060a:	dc38      	bgt.n	1000067e <get_rand+0x9e>
1000060c:	4b35      	ldr	r3, [pc, #212]	; (100006e4 <get_rand+0x104>)
1000060e:	681b      	ldr	r3, [r3, #0]
10000610:	2b00      	cmp	r3, #0
10000612:	dd34      	ble.n	1000067e <get_rand+0x9e>
10000614:	4b34      	ldr	r3, [pc, #208]	; (100006e8 <get_rand+0x108>)
10000616:	2400      	movs	r4, #0
10000618:	469a      	mov	sl, r3
1000061a:	4b34      	ldr	r3, [pc, #208]	; (100006ec <get_rand+0x10c>)
1000061c:	4e34      	ldr	r6, [pc, #208]	; (100006f0 <get_rand+0x110>)
1000061e:	4699      	mov	r9, r3
10000620:	4b34      	ldr	r3, [pc, #208]	; (100006f4 <get_rand+0x114>)
10000622:	4698      	mov	r8, r3
10000624:	f004 fcf6 	bl	10005014 <rand>
10000628:	2124      	movs	r1, #36	; 0x24
1000062a:	f003 fa4b 	bl	10003ac4 <__wrap___aeabi_idiv>
1000062e:	464b      	mov	r3, r9
10000630:	4652      	mov	r2, sl
10000632:	5c5b      	ldrb	r3, [r3, r1]
10000634:	6031      	str	r1, [r6, #0]
10000636:	5513      	strb	r3, [r2, r4]
10000638:	4643      	mov	r3, r8
1000063a:	0089      	lsls	r1, r1, #2
1000063c:	5858      	ldr	r0, [r3, r1]
1000063e:	7803      	ldrb	r3, [r0, #0]
10000640:	2b00      	cmp	r3, #0
10000642:	d043      	beq.n	100006cc <get_rand+0xec>
10000644:	2200      	movs	r2, #0
10000646:	1c41      	adds	r1, r0, #1
10000648:	3b2d      	subs	r3, #45	; 0x2d
1000064a:	001f      	movs	r7, r3
1000064c:	427b      	negs	r3, r7
1000064e:	417b      	adcs	r3, r7
10000650:	0052      	lsls	r2, r2, #1
10000652:	3101      	adds	r1, #1
10000654:	18d2      	adds	r2, r2, r3
10000656:	1e4b      	subs	r3, r1, #1
10000658:	781b      	ldrb	r3, [r3, #0]
1000065a:	b2d2      	uxtb	r2, r2
1000065c:	2b00      	cmp	r3, #0
1000065e:	d1f3      	bne.n	10000648 <get_rand+0x68>
10000660:	4693      	mov	fp, r2
10000662:	f004 fcf1 	bl	10005048 <strlen>
10000666:	682a      	ldr	r2, [r5, #0]
10000668:	3002      	adds	r0, #2
1000066a:	465b      	mov	r3, fp
1000066c:	4082      	lsls	r2, r0
1000066e:	431a      	orrs	r2, r3
10000670:	4b1c      	ldr	r3, [pc, #112]	; (100006e4 <get_rand+0x104>)
10000672:	3401      	adds	r4, #1
10000674:	681b      	ldr	r3, [r3, #0]
10000676:	602a      	str	r2, [r5, #0]
10000678:	3604      	adds	r6, #4
1000067a:	42a3      	cmp	r3, r4
1000067c:	dcd2      	bgt.n	10000624 <get_rand+0x44>
1000067e:	bc3c      	pop	{r2, r3, r4, r5}
10000680:	4690      	mov	r8, r2
10000682:	4699      	mov	r9, r3
10000684:	46a2      	mov	sl, r4
10000686:	46ab      	mov	fp, r5
10000688:	bdf8      	pop	{r3, r4, r5, r6, r7, pc}
1000068a:	f004 fcc3 	bl	10005014 <rand>
1000068e:	2124      	movs	r1, #36	; 0x24
10000690:	f003 fa18 	bl	10003ac4 <__wrap___aeabi_idiv>
10000694:	4b16      	ldr	r3, [pc, #88]	; (100006f0 <get_rand+0x110>)
10000696:	4a15      	ldr	r2, [pc, #84]	; (100006ec <get_rand+0x10c>)
10000698:	6019      	str	r1, [r3, #0]
1000069a:	5c52      	ldrb	r2, [r2, r1]
1000069c:	4b12      	ldr	r3, [pc, #72]	; (100006e8 <get_rand+0x108>)
1000069e:	0089      	lsls	r1, r1, #2
100006a0:	701a      	strb	r2, [r3, #0]
100006a2:	705c      	strb	r4, [r3, #1]
100006a4:	4b13      	ldr	r3, [pc, #76]	; (100006f4 <get_rand+0x114>)
100006a6:	58c9      	ldr	r1, [r1, r3]
100006a8:	780b      	ldrb	r3, [r1, #0]
100006aa:	2b00      	cmp	r3, #0
100006ac:	d011      	beq.n	100006d2 <get_rand+0xf2>
100006ae:	2200      	movs	r2, #0
100006b0:	3101      	adds	r1, #1
100006b2:	3b2d      	subs	r3, #45	; 0x2d
100006b4:	4258      	negs	r0, r3
100006b6:	4143      	adcs	r3, r0
100006b8:	0052      	lsls	r2, r2, #1
100006ba:	3101      	adds	r1, #1
100006bc:	18d2      	adds	r2, r2, r3
100006be:	1e4b      	subs	r3, r1, #1
100006c0:	781b      	ldrb	r3, [r3, #0]
100006c2:	b2d2      	uxtb	r2, r2
100006c4:	2b00      	cmp	r3, #0
100006c6:	d1f4      	bne.n	100006b2 <get_rand+0xd2>
100006c8:	602a      	str	r2, [r5, #0]
100006ca:	e7d8      	b.n	1000067e <get_rand+0x9e>
100006cc:	2300      	movs	r3, #0
100006ce:	469b      	mov	fp, r3
100006d0:	e7c7      	b.n	10000662 <get_rand+0x82>
100006d2:	2200      	movs	r2, #0
100006d4:	602a      	str	r2, [r5, #0]
100006d6:	e7d2      	b.n	1000067e <get_rand+0x9e>
100006d8:	40054000 	.word	0x40054000
100006dc:	20000a10 	.word	0x20000a10
100006e0:	20000a18 	.word	0x20000a18
100006e4:	200001a0 	.word	0x200001a0
100006e8:	20000a68 	.word	0x20000a68
100006ec:	2000017c 	.word	0x2000017c
100006f0:	20000a54 	.word	0x20000a54
100006f4:	200001a8 	.word	0x200001a8

100006f8 <which_level>:
100006f8:	0003      	movs	r3, r0
100006fa:	480f      	ldr	r0, [pc, #60]	; (10000738 <which_level+0x40>)
100006fc:	b082      	sub	sp, #8
100006fe:	b2c2      	uxtb	r2, r0
10000700:	a901      	add	r1, sp, #4
10000702:	9001      	str	r0, [sp, #4]
10000704:	4293      	cmp	r3, r2
10000706:	d00b      	beq.n	10000720 <which_level+0x28>
10000708:	784a      	ldrb	r2, [r1, #1]
1000070a:	4293      	cmp	r3, r2
1000070c:	d00b      	beq.n	10000726 <which_level+0x2e>
1000070e:	788a      	ldrb	r2, [r1, #2]
10000710:	4293      	cmp	r3, r2
10000712:	d00b      	beq.n	1000072c <which_level+0x34>
10000714:	78ca      	ldrb	r2, [r1, #3]
10000716:	2000      	movs	r0, #0
10000718:	429a      	cmp	r2, r3
1000071a:	d00a      	beq.n	10000732 <which_level+0x3a>
1000071c:	b002      	add	sp, #8
1000071e:	4770      	bx	lr
10000720:	2000      	movs	r0, #0
10000722:	3001      	adds	r0, #1
10000724:	e7fa      	b.n	1000071c <which_level+0x24>
10000726:	2001      	movs	r0, #1
10000728:	3001      	adds	r0, #1
1000072a:	e7f7      	b.n	1000071c <which_level+0x24>
1000072c:	2002      	movs	r0, #2
1000072e:	3001      	adds	r0, #1
10000730:	e7f4      	b.n	1000071c <which_level+0x24>
10000732:	3003      	adds	r0, #3
10000734:	3001      	adds	r0, #1
10000736:	e7f1      	b.n	1000071c <which_level+0x24>
10000738:	0103070f 	.word	0x0103070f

1000073c <cmp_morse>:
1000073c:	4a0b      	ldr	r2, [pc, #44]	; (1000076c <cmp_morse+0x30>)
1000073e:	8813      	ldrh	r3, [r2, #0]
10000740:	3301      	adds	r3, #1
10000742:	8013      	strh	r3, [r2, #0]
10000744:	4a0a      	ldr	r2, [pc, #40]	; (10000770 <cmp_morse+0x34>)
10000746:	8813      	ldrh	r3, [r2, #0]
10000748:	3301      	adds	r3, #1
1000074a:	8013      	strh	r3, [r2, #0]
1000074c:	4b09      	ldr	r3, [pc, #36]	; (10000774 <cmp_morse+0x38>)
1000074e:	681a      	ldr	r2, [r3, #0]
10000750:	2300      	movs	r3, #0
10000752:	4282      	cmp	r2, r0
10000754:	d108      	bne.n	10000768 <cmp_morse+0x2c>
10000756:	4a08      	ldr	r2, [pc, #32]	; (10000778 <cmp_morse+0x3c>)
10000758:	8813      	ldrh	r3, [r2, #0]
1000075a:	3301      	adds	r3, #1
1000075c:	8013      	strh	r3, [r2, #0]
1000075e:	4a07      	ldr	r2, [pc, #28]	; (1000077c <cmp_morse+0x40>)
10000760:	8813      	ldrh	r3, [r2, #0]
10000762:	3301      	adds	r3, #1
10000764:	8013      	strh	r3, [r2, #0]
10000766:	2301      	movs	r3, #1
10000768:	0018      	movs	r0, r3
1000076a:	4770      	bx	lr
1000076c:	20000a48 	.word	0x20000a48
10000770:	20000a4c 	.word	0x20000a4c
10000774:	20000a18 	.word	0x20000a18
10000778:	20000a4a 	.word	0x20000a4a
1000077c:	20000a4e 	.word	0x20000a4e

10000780 <print_wrong>:
10000780:	b5f0      	push	{r4, r5, r6, r7, lr}
10000782:	46c6      	mov	lr, r8
10000784:	4e12      	ldr	r6, [pc, #72]	; (100007d0 <print_wrong+0x50>)
10000786:	4d13      	ldr	r5, [pc, #76]	; (100007d4 <print_wrong+0x54>)
10000788:	6833      	ldr	r3, [r6, #0]
1000078a:	b500      	push	{lr}
1000078c:	009b      	lsls	r3, r3, #2
1000078e:	58e9      	ldr	r1, [r5, r3]
10000790:	4811      	ldr	r0, [pc, #68]	; (100007d8 <print_wrong+0x58>)
10000792:	f004 fac1 	bl	10004d18 <__wrap_printf>
10000796:	4b11      	ldr	r3, [pc, #68]	; (100007dc <print_wrong+0x5c>)
10000798:	681b      	ldr	r3, [r3, #0]
1000079a:	2b02      	cmp	r3, #2
1000079c:	dd11      	ble.n	100007c2 <print_wrong+0x42>
1000079e:	4f10      	ldr	r7, [pc, #64]	; (100007e0 <print_wrong+0x60>)
100007a0:	683b      	ldr	r3, [r7, #0]
100007a2:	2b01      	cmp	r3, #1
100007a4:	dd0d      	ble.n	100007c2 <print_wrong+0x42>
100007a6:	4b0f      	ldr	r3, [pc, #60]	; (100007e4 <print_wrong+0x64>)
100007a8:	2401      	movs	r4, #1
100007aa:	4698      	mov	r8, r3
100007ac:	00a3      	lsls	r3, r4, #2
100007ae:	58f3      	ldr	r3, [r6, r3]
100007b0:	4640      	mov	r0, r8
100007b2:	009b      	lsls	r3, r3, #2
100007b4:	58e9      	ldr	r1, [r5, r3]
100007b6:	f004 faaf 	bl	10004d18 <__wrap_printf>
100007ba:	683b      	ldr	r3, [r7, #0]
100007bc:	3401      	adds	r4, #1
100007be:	42a3      	cmp	r3, r4
100007c0:	dcf4      	bgt.n	100007ac <print_wrong+0x2c>
100007c2:	4809      	ldr	r0, [pc, #36]	; (100007e8 <print_wrong+0x68>)
100007c4:	f004 fa00 	bl	10004bc8 <__wrap_puts>
100007c8:	bc04      	pop	{r2}
100007ca:	4690      	mov	r8, r2
100007cc:	bdf0      	pop	{r4, r5, r6, r7, pc}
100007ce:	46c0      	nop			; (mov r8, r8)
100007d0:	20000a54 	.word	0x20000a54
100007d4:	200001a8 	.word	0x200001a8
100007d8:	10005168 	.word	0x10005168
100007dc:	20000a10 	.word	0x20000a10
100007e0:	200001a0 	.word	0x200001a0
100007e4:	10005194 	.word	0x10005194
100007e8:	10005250 	.word	0x10005250

100007ec <print_correct>:
100007ec:	b510      	push	{r4, lr}
100007ee:	4805      	ldr	r0, [pc, #20]	; (10000804 <print_correct+0x18>)
100007f0:	f004 f9ea 	bl	10004bc8 <__wrap_puts>
100007f4:	4a04      	ldr	r2, [pc, #16]	; (10000808 <print_correct+0x1c>)
100007f6:	6813      	ldr	r3, [r2, #0]
100007f8:	2b04      	cmp	r3, #4
100007fa:	dc01      	bgt.n	10000800 <print_correct+0x14>
100007fc:	3301      	adds	r3, #1
100007fe:	6013      	str	r3, [r2, #0]
10000800:	bd10      	pop	{r4, pc}
10000802:	46c0      	nop			; (mov r8, r8)
10000804:	1000519c 	.word	0x1000519c
10000808:	200001a0 	.word	0x200001a0

1000080c <print_stats>:
1000080c:	b570      	push	{r4, r5, r6, lr}
1000080e:	4c15      	ldr	r4, [pc, #84]	; (10000864 <print_stats+0x58>)
10000810:	0020      	movs	r0, r4
10000812:	f004 f9d9 	bl	10004bc8 <__wrap_puts>
10000816:	4b14      	ldr	r3, [pc, #80]	; (10000868 <print_stats+0x5c>)
10000818:	4814      	ldr	r0, [pc, #80]	; (1000086c <print_stats+0x60>)
1000081a:	6819      	ldr	r1, [r3, #0]
1000081c:	f004 fa7c 	bl	10004d18 <__wrap_printf>
10000820:	4d13      	ldr	r5, [pc, #76]	; (10000870 <print_stats+0x64>)
10000822:	4814      	ldr	r0, [pc, #80]	; (10000874 <print_stats+0x68>)
10000824:	2300      	movs	r3, #0
10000826:	5ee9      	ldrsh	r1, [r5, r3]
10000828:	f004 fa76 	bl	10004d18 <__wrap_printf>
1000082c:	4e12      	ldr	r6, [pc, #72]	; (10000878 <print_stats+0x6c>)
1000082e:	4813      	ldr	r0, [pc, #76]	; (1000087c <print_stats+0x70>)
10000830:	2300      	movs	r3, #0
10000832:	5ef1      	ldrsh	r1, [r6, r3]
10000834:	f004 fa70 	bl	10004d18 <__wrap_printf>
10000838:	2064      	movs	r0, #100	; 0x64
1000083a:	2200      	movs	r2, #0
1000083c:	5eb3      	ldrsh	r3, [r6, r2]
1000083e:	4358      	muls	r0, r3
10000840:	2300      	movs	r3, #0
10000842:	5ee9      	ldrsh	r1, [r5, r3]
10000844:	f003 f93e 	bl	10003ac4 <__wrap___aeabi_idiv>
10000848:	2225      	movs	r2, #37	; 0x25
1000084a:	0001      	movs	r1, r0
1000084c:	480c      	ldr	r0, [pc, #48]	; (10000880 <print_stats+0x74>)
1000084e:	f004 fa63 	bl	10004d18 <__wrap_printf>
10000852:	4b0c      	ldr	r3, [pc, #48]	; (10000884 <print_stats+0x78>)
10000854:	480c      	ldr	r0, [pc, #48]	; (10000888 <print_stats+0x7c>)
10000856:	6819      	ldr	r1, [r3, #0]
10000858:	f004 fa5e 	bl	10004d18 <__wrap_printf>
1000085c:	0020      	movs	r0, r4
1000085e:	f004 f9b3 	bl	10004bc8 <__wrap_puts>
10000862:	bd70      	pop	{r4, r5, r6, pc}
10000864:	100051a8 	.word	0x100051a8
10000868:	20000a10 	.word	0x20000a10
1000086c:	100051d0 	.word	0x100051d0
10000870:	20000a48 	.word	0x20000a48
10000874:	100051fc 	.word	0x100051fc
10000878:	20000a4a 	.word	0x20000a4a
1000087c:	10005228 	.word	0x10005228
10000880:	10005254 	.word	0x10005254
10000884:	200001a4 	.word	0x200001a4
10000888:	10005280 	.word	0x10005280

1000088c <print_total_stats>:
1000088c:	b570      	push	{r4, r5, r6, lr}
1000088e:	4c13      	ldr	r4, [pc, #76]	; (100008dc <print_total_stats+0x50>)
10000890:	0020      	movs	r0, r4
10000892:	f004 f999 	bl	10004bc8 <__wrap_puts>
10000896:	4b12      	ldr	r3, [pc, #72]	; (100008e0 <print_total_stats+0x54>)
10000898:	4812      	ldr	r0, [pc, #72]	; (100008e4 <print_total_stats+0x58>)
1000089a:	6819      	ldr	r1, [r3, #0]
1000089c:	f004 fa3c 	bl	10004d18 <__wrap_printf>
100008a0:	4d11      	ldr	r5, [pc, #68]	; (100008e8 <print_total_stats+0x5c>)
100008a2:	4812      	ldr	r0, [pc, #72]	; (100008ec <print_total_stats+0x60>)
100008a4:	2300      	movs	r3, #0
100008a6:	5ee9      	ldrsh	r1, [r5, r3]
100008a8:	f004 fa36 	bl	10004d18 <__wrap_printf>
100008ac:	4e10      	ldr	r6, [pc, #64]	; (100008f0 <print_total_stats+0x64>)
100008ae:	4811      	ldr	r0, [pc, #68]	; (100008f4 <print_total_stats+0x68>)
100008b0:	2300      	movs	r3, #0
100008b2:	5ef1      	ldrsh	r1, [r6, r3]
100008b4:	f004 fa30 	bl	10004d18 <__wrap_printf>
100008b8:	2064      	movs	r0, #100	; 0x64
100008ba:	2200      	movs	r2, #0
100008bc:	5eb3      	ldrsh	r3, [r6, r2]
100008be:	4358      	muls	r0, r3
100008c0:	2300      	movs	r3, #0
100008c2:	5ee9      	ldrsh	r1, [r5, r3]
100008c4:	f003 f8fe 	bl	10003ac4 <__wrap___aeabi_idiv>
100008c8:	2225      	movs	r2, #37	; 0x25
100008ca:	0001      	movs	r1, r0
100008cc:	480a      	ldr	r0, [pc, #40]	; (100008f8 <print_total_stats+0x6c>)
100008ce:	f004 fa23 	bl	10004d18 <__wrap_printf>
100008d2:	0020      	movs	r0, r4
100008d4:	f004 f978 	bl	10004bc8 <__wrap_puts>
100008d8:	bd70      	pop	{r4, r5, r6, pc}
100008da:	46c0      	nop			; (mov r8, r8)
100008dc:	100051a8 	.word	0x100051a8
100008e0:	20000a10 	.word	0x20000a10
100008e4:	100052ac 	.word	0x100052ac
100008e8:	20000a4c 	.word	0x20000a4c
100008ec:	100052d8 	.word	0x100052d8
100008f0:	20000a4e 	.word	0x20000a4e
100008f4:	10005304 	.word	0x10005304
100008f8:	10005330 	.word	0x10005330

100008fc <print_completed>:
100008fc:	b510      	push	{r4, lr}
100008fe:	4806      	ldr	r0, [pc, #24]	; (10000918 <print_completed+0x1c>)
10000900:	f004 f962 	bl	10004bc8 <__wrap_puts>
10000904:	4805      	ldr	r0, [pc, #20]	; (1000091c <print_completed+0x20>)
10000906:	f004 f95f 	bl	10004bc8 <__wrap_puts>
1000090a:	4805      	ldr	r0, [pc, #20]	; (10000920 <print_completed+0x24>)
1000090c:	f004 f95c 	bl	10004bc8 <__wrap_puts>
10000910:	4804      	ldr	r0, [pc, #16]	; (10000924 <print_completed+0x28>)
10000912:	f004 f959 	bl	10004bc8 <__wrap_puts>
10000916:	bd10      	pop	{r4, pc}
10000918:	1000535c 	.word	0x1000535c
1000091c:	10005384 	.word	0x10005384
10000920:	100053ac 	.word	0x100053ac
10000924:	100053d4 	.word	0x100053d4

10000928 <print_bad_input>:
10000928:	b510      	push	{r4, lr}
1000092a:	4802      	ldr	r0, [pc, #8]	; (10000934 <print_bad_input+0xc>)
1000092c:	f004 f94c 	bl	10004bc8 <__wrap_puts>
10000930:	bd10      	pop	{r4, pc}
10000932:	46c0      	nop			; (mov r8, r8)
10000934:	100053fc 	.word	0x100053fc

10000938 <print_out_of_lives>:
10000938:	b570      	push	{r4, r5, r6, lr}
1000093a:	4814      	ldr	r0, [pc, #80]	; (1000098c <print_out_of_lives+0x54>)
1000093c:	f004 f944 	bl	10004bc8 <__wrap_puts>
10000940:	4c13      	ldr	r4, [pc, #76]	; (10000990 <print_out_of_lives+0x58>)
10000942:	0020      	movs	r0, r4
10000944:	f004 f940 	bl	10004bc8 <__wrap_puts>
10000948:	4b12      	ldr	r3, [pc, #72]	; (10000994 <print_out_of_lives+0x5c>)
1000094a:	4813      	ldr	r0, [pc, #76]	; (10000998 <print_out_of_lives+0x60>)
1000094c:	6819      	ldr	r1, [r3, #0]
1000094e:	f004 f9e3 	bl	10004d18 <__wrap_printf>
10000952:	4d12      	ldr	r5, [pc, #72]	; (1000099c <print_out_of_lives+0x64>)
10000954:	4812      	ldr	r0, [pc, #72]	; (100009a0 <print_out_of_lives+0x68>)
10000956:	2300      	movs	r3, #0
10000958:	5ee9      	ldrsh	r1, [r5, r3]
1000095a:	f004 f9dd 	bl	10004d18 <__wrap_printf>
1000095e:	4e11      	ldr	r6, [pc, #68]	; (100009a4 <print_out_of_lives+0x6c>)
10000960:	4811      	ldr	r0, [pc, #68]	; (100009a8 <print_out_of_lives+0x70>)
10000962:	2300      	movs	r3, #0
10000964:	5ef1      	ldrsh	r1, [r6, r3]
10000966:	f004 f9d7 	bl	10004d18 <__wrap_printf>
1000096a:	2064      	movs	r0, #100	; 0x64
1000096c:	2200      	movs	r2, #0
1000096e:	5eb3      	ldrsh	r3, [r6, r2]
10000970:	4358      	muls	r0, r3
10000972:	2300      	movs	r3, #0
10000974:	5ee9      	ldrsh	r1, [r5, r3]
10000976:	f003 f8a5 	bl	10003ac4 <__wrap___aeabi_idiv>
1000097a:	2225      	movs	r2, #37	; 0x25
1000097c:	0001      	movs	r1, r0
1000097e:	480b      	ldr	r0, [pc, #44]	; (100009ac <print_out_of_lives+0x74>)
10000980:	f004 f9ca 	bl	10004d18 <__wrap_printf>
10000984:	0020      	movs	r0, r4
10000986:	f004 f91f 	bl	10004bc8 <__wrap_puts>
1000098a:	bd70      	pop	{r4, r5, r6, pc}
1000098c:	10005420 	.word	0x10005420
10000990:	100051a8 	.word	0x100051a8
10000994:	20000a10 	.word	0x20000a10
10000998:	100052ac 	.word	0x100052ac
1000099c:	20000a4c 	.word	0x20000a4c
100009a0:	100052d8 	.word	0x100052d8
100009a4:	20000a4e 	.word	0x20000a4e
100009a8:	10005304 	.word	0x10005304
100009ac:	10005330 	.word	0x10005330

100009b0 <set_blue>:
100009b0:	2180      	movs	r1, #128	; 0x80
100009b2:	4a04      	ldr	r2, [pc, #16]	; (100009c4 <set_blue+0x14>)
100009b4:	0249      	lsls	r1, r1, #9
100009b6:	6853      	ldr	r3, [r2, #4]
100009b8:	420b      	tst	r3, r1
100009ba:	d1fc      	bne.n	100009b6 <set_blue+0x6>
100009bc:	23f0      	movs	r3, #240	; 0xf0
100009be:	011b      	lsls	r3, r3, #4
100009c0:	6113      	str	r3, [r2, #16]
100009c2:	4770      	bx	lr
100009c4:	50200000 	.word	0x50200000

100009c8 <set_red>:
100009c8:	2180      	movs	r1, #128	; 0x80
100009ca:	4a04      	ldr	r2, [pc, #16]	; (100009dc <set_red+0x14>)
100009cc:	0249      	lsls	r1, r1, #9
100009ce:	6853      	ldr	r3, [r2, #4]
100009d0:	420b      	tst	r3, r1
100009d2:	d1fc      	bne.n	100009ce <set_red+0x6>
100009d4:	2380      	movs	r3, #128	; 0x80
100009d6:	035b      	lsls	r3, r3, #13
100009d8:	6113      	str	r3, [r2, #16]
100009da:	4770      	bx	lr
100009dc:	50200000 	.word	0x50200000

100009e0 <set_colour>:
100009e0:	4b18      	ldr	r3, [pc, #96]	; (10000a44 <set_colour+0x64>)
100009e2:	681b      	ldr	r3, [r3, #0]
100009e4:	2b02      	cmp	r3, #2
100009e6:	d023      	beq.n	10000a30 <set_colour+0x50>
100009e8:	dc0c      	bgt.n	10000a04 <set_colour+0x24>
100009ea:	2b00      	cmp	r3, #0
100009ec:	d016      	beq.n	10000a1c <set_colour+0x3c>
100009ee:	2b01      	cmp	r3, #1
100009f0:	d107      	bne.n	10000a02 <set_colour+0x22>
100009f2:	2180      	movs	r1, #128	; 0x80
100009f4:	4a14      	ldr	r2, [pc, #80]	; (10000a48 <set_colour+0x68>)
100009f6:	0249      	lsls	r1, r1, #9
100009f8:	6853      	ldr	r3, [r2, #4]
100009fa:	420b      	tst	r3, r1
100009fc:	d1fc      	bne.n	100009f8 <set_colour+0x18>
100009fe:	4b13      	ldr	r3, [pc, #76]	; (10000a4c <set_colour+0x6c>)
10000a00:	6113      	str	r3, [r2, #16]
10000a02:	4770      	bx	lr
10000a04:	2b03      	cmp	r3, #3
10000a06:	d1fc      	bne.n	10000a02 <set_colour+0x22>
10000a08:	2180      	movs	r1, #128	; 0x80
10000a0a:	4a0f      	ldr	r2, [pc, #60]	; (10000a48 <set_colour+0x68>)
10000a0c:	0249      	lsls	r1, r1, #9
10000a0e:	6853      	ldr	r3, [r2, #4]
10000a10:	420b      	tst	r3, r1
10000a12:	d1fc      	bne.n	10000a0e <set_colour+0x2e>
10000a14:	2390      	movs	r3, #144	; 0x90
10000a16:	055b      	lsls	r3, r3, #21
10000a18:	6113      	str	r3, [r2, #16]
10000a1a:	e7f2      	b.n	10000a02 <set_colour+0x22>
10000a1c:	2180      	movs	r1, #128	; 0x80
10000a1e:	4a0a      	ldr	r2, [pc, #40]	; (10000a48 <set_colour+0x68>)
10000a20:	0249      	lsls	r1, r1, #9
10000a22:	6853      	ldr	r3, [r2, #4]
10000a24:	420b      	tst	r3, r1
10000a26:	d1fc      	bne.n	10000a22 <set_colour+0x42>
10000a28:	23f0      	movs	r3, #240	; 0xf0
10000a2a:	011b      	lsls	r3, r3, #4
10000a2c:	6113      	str	r3, [r2, #16]
10000a2e:	e7e8      	b.n	10000a02 <set_colour+0x22>
10000a30:	2180      	movs	r1, #128	; 0x80
10000a32:	4a05      	ldr	r2, [pc, #20]	; (10000a48 <set_colour+0x68>)
10000a34:	0249      	lsls	r1, r1, #9
10000a36:	6853      	ldr	r3, [r2, #4]
10000a38:	420b      	tst	r3, r1
10000a3a:	d1fc      	bne.n	10000a36 <set_colour+0x56>
10000a3c:	4b04      	ldr	r3, [pc, #16]	; (10000a50 <set_colour+0x70>)
10000a3e:	6113      	str	r3, [r2, #16]
10000a40:	e7df      	b.n	10000a02 <set_colour+0x22>
10000a42:	46c0      	nop			; (mov r8, r8)
10000a44:	200001a4 	.word	0x200001a4
10000a48:	50200000 	.word	0x50200000
10000a4c:	09120000 	.word	0x09120000
10000a50:	0e0e0000 	.word	0x0e0e0000

10000a54 <print_err>:
10000a54:	b510      	push	{r4, lr}
10000a56:	4802      	ldr	r0, [pc, #8]	; (10000a60 <print_err+0xc>)
10000a58:	f004 f8b6 	bl	10004bc8 <__wrap_puts>
10000a5c:	bd10      	pop	{r4, pc}
10000a5e:	46c0      	nop			; (mov r8, r8)
10000a60:	10005488 	.word	0x10005488

10000a64 <init_rgb>:
10000a64:	b570      	push	{r4, r5, r6, lr}
10000a66:	4926      	ldr	r1, [pc, #152]	; (10000b00 <init_rgb+0x9c>)
10000a68:	b086      	sub	sp, #24
10000a6a:	4826      	ldr	r0, [pc, #152]	; (10000b04 <init_rgb+0xa0>)
10000a6c:	f004 f9ca 	bl	10004e04 <pio_add_program>
10000a70:	2106      	movs	r1, #6
10000a72:	0005      	movs	r5, r0
10000a74:	201c      	movs	r0, #28
10000a76:	f000 f9e3 	bl	10000e40 <gpio_set_function>
10000a7a:	2301      	movs	r3, #1
10000a7c:	2100      	movs	r1, #0
10000a7e:	221c      	movs	r2, #28
10000a80:	4820      	ldr	r0, [pc, #128]	; (10000b04 <init_rgb+0xa0>)
10000a82:	9300      	str	r3, [sp, #0]
10000a84:	f004 fa30 	bl	10004ee8 <pio_sm_set_consecutive_pindirs>
10000a88:	2380      	movs	r3, #128	; 0x80
10000a8a:	025b      	lsls	r3, r3, #9
10000a8c:	9302      	str	r3, [sp, #8]
10000a8e:	1ceb      	adds	r3, r5, #3
10000a90:	01ea      	lsls	r2, r5, #7
10000a92:	031b      	lsls	r3, r3, #12
10000a94:	4313      	orrs	r3, r2
10000a96:	4a1c      	ldr	r2, [pc, #112]	; (10000b08 <init_rgb+0xa4>)
10000a98:	2005      	movs	r0, #5
10000a9a:	4013      	ands	r3, r2
10000a9c:	9303      	str	r3, [sp, #12]
10000a9e:	4b1b      	ldr	r3, [pc, #108]	; (10000b0c <init_rgb+0xa8>)
10000aa0:	9305      	str	r3, [sp, #20]
10000aa2:	4b1b      	ldr	r3, [pc, #108]	; (10000b10 <init_rgb+0xac>)
10000aa4:	9304      	str	r3, [sp, #16]
10000aa6:	f001 fa03 	bl	10001eb0 <clock_get_hz>
10000aaa:	f003 fead 	bl	10004808 <__wrap___aeabi_ui2f>
10000aae:	4919      	ldr	r1, [pc, #100]	; (10000b14 <init_rgb+0xb0>)
10000ab0:	f003 fe8f 	bl	100047d2 <__wrap___aeabi_fdiv>
10000ab4:	1c06      	adds	r6, r0, #0
10000ab6:	f003 fecf 	bl	10004858 <__wrap___aeabi_f2uiz>
10000aba:	b284      	uxth	r4, r0
10000abc:	2300      	movs	r3, #0
10000abe:	2c00      	cmp	r4, #0
10000ac0:	d00e      	beq.n	10000ae0 <init_rgb+0x7c>
10000ac2:	0020      	movs	r0, r4
10000ac4:	f003 fea0 	bl	10004808 <__wrap___aeabi_ui2f>
10000ac8:	1c01      	adds	r1, r0, #0
10000aca:	1c30      	adds	r0, r6, #0
10000acc:	f003 fe7b 	bl	100047c6 <__wrap___aeabi_fsub>
10000ad0:	2187      	movs	r1, #135	; 0x87
10000ad2:	05c9      	lsls	r1, r1, #23
10000ad4:	f003 fe91 	bl	100047fa <__wrap___aeabi_fmul>
10000ad8:	f003 febe 	bl	10004858 <__wrap___aeabi_f2uiz>
10000adc:	b2c3      	uxtb	r3, r0
10000ade:	021b      	lsls	r3, r3, #8
10000ae0:	0424      	lsls	r4, r4, #16
10000ae2:	431c      	orrs	r4, r3
10000ae4:	9402      	str	r4, [sp, #8]
10000ae6:	4c07      	ldr	r4, [pc, #28]	; (10000b04 <init_rgb+0xa0>)
10000ae8:	002a      	movs	r2, r5
10000aea:	ab02      	add	r3, sp, #8
10000aec:	2100      	movs	r1, #0
10000aee:	0020      	movs	r0, r4
10000af0:	f004 fa3e 	bl	10004f70 <pio_sm_init>
10000af4:	2201      	movs	r2, #1
10000af6:	6823      	ldr	r3, [r4, #0]
10000af8:	4313      	orrs	r3, r2
10000afa:	6023      	str	r3, [r4, #0]
10000afc:	b006      	add	sp, #24
10000afe:	bd70      	pop	{r4, r5, r6, pc}
10000b00:	10005580 	.word	0x10005580
10000b04:	50200000 	.word	0x50200000
10000b08:	9fffffff 	.word	0x9fffffff
10000b0c:	20007000 	.word	0x20007000
10000b10:	40060000 	.word	0x40060000
10000b14:	4af42400 	.word	0x4af42400

10000b18 <main>:
10000b18:	b510      	push	{r4, lr}
10000b1a:	f004 f909 	bl	10004d30 <stdio_init_all>
10000b1e:	f7ff ffa1 	bl	10000a64 <init_rgb>
10000b22:	2180      	movs	r1, #128	; 0x80
10000b24:	4a05      	ldr	r2, [pc, #20]	; (10000b3c <main+0x24>)
10000b26:	0249      	lsls	r1, r1, #9
10000b28:	6853      	ldr	r3, [r2, #4]
10000b2a:	420b      	tst	r3, r1
10000b2c:	d1fc      	bne.n	10000b28 <main+0x10>
10000b2e:	23f0      	movs	r3, #240	; 0xf0
10000b30:	011b      	lsls	r3, r3, #4
10000b32:	6113      	str	r3, [r2, #16]
10000b34:	f000 f804 	bl	10000b40 <main_asm>
10000b38:	2000      	movs	r0, #0
10000b3a:	bd10      	pop	{r4, pc}
10000b3c:	50200000 	.word	0x50200000

10000b40 <main_asm>:
10000b40:	f000 f8ce 	bl	10000ce0 <init_io>
10000b44:	f000 f8dc 	bl	10000d00 <install_gpio_isr>

10000b48 <start_game>:
10000b48:	48a1      	ldr	r0, [pc, #644]	; (10000dd0 <whitespace_symbol+0x18>)
10000b4a:	f004 f8e5 	bl	10004d18 <__wrap_printf>
10000b4e:	f7ff ff2f 	bl	100009b0 <set_blue>

10000b52 <get_level>:
10000b52:	bf30      	wfi
10000b54:	bf30      	wfi
10000b56:	4b9f      	ldr	r3, [pc, #636]	; (10000dd4 <whitespace_symbol+0x1c>)
10000b58:	7819      	ldrb	r1, [r3, #0]
10000b5a:	4a9f      	ldr	r2, [pc, #636]	; (10000dd8 <whitespace_symbol+0x20>)
10000b5c:	428a      	cmp	r2, r1
10000b5e:	d1f8      	bne.n	10000b52 <get_level>
10000b60:	489e      	ldr	r0, [pc, #632]	; (10000ddc <whitespace_symbol+0x24>)
10000b62:	f004 f8d9 	bl	10004d18 <__wrap_printf>
10000b66:	499e      	ldr	r1, [pc, #632]	; (10000de0 <whitespace_symbol+0x28>)
10000b68:	6808      	ldr	r0, [r1, #0]
10000b6a:	f7ff fdc5 	bl	100006f8 <which_level>
10000b6e:	2800      	cmp	r0, #0
10000b70:	d076      	beq.n	10000c60 <bad_input>
10000b72:	499c      	ldr	r1, [pc, #624]	; (10000de4 <whitespace_symbol+0x2c>)
10000b74:	7008      	strb	r0, [r1, #0]
10000b76:	f7ff fcad 	bl	100004d4 <set_level>
10000b7a:	e7ff      	b.n	10000b7c <play>

10000b7c <play>:
10000b7c:	489a      	ldr	r0, [pc, #616]	; (10000de8 <whitespace_symbol+0x30>)
10000b7e:	499b      	ldr	r1, [pc, #620]	; (10000dec <whitespace_symbol+0x34>)
10000b80:	f001 fb8e 	bl	100022a0 <watchdog_enable>
10000b84:	489a      	ldr	r0, [pc, #616]	; (10000df0 <whitespace_symbol+0x38>)
10000b86:	4a98      	ldr	r2, [pc, #608]	; (10000de8 <whitespace_symbol+0x30>)
10000b88:	f001 fbcc 	bl	10002324 <watchdog_reboot>
10000b8c:	4899      	ldr	r0, [pc, #612]	; (10000df4 <whitespace_symbol+0x3c>)
10000b8e:	f001 fb75 	bl	1000227c <watchdog_start_tick>
10000b92:	f000 f85e 	bl	10000c52 <reset>
10000b96:	f7ff ff23 	bl	100009e0 <set_colour>
10000b9a:	f7ff fd21 	bl	100005e0 <get_rand>
10000b9e:	f7ff fcb7 	bl	10000510 <print_q>
10000ba2:	4890      	ldr	r0, [pc, #576]	; (10000de4 <whitespace_symbol+0x2c>)
10000ba4:	7801      	ldrb	r1, [r0, #0]
10000ba6:	2902      	cmp	r1, #2
10000ba8:	d003      	beq.n	10000bb2 <no_print>
10000baa:	2904      	cmp	r1, #4
10000bac:	d001      	beq.n	10000bb2 <no_print>
10000bae:	f7ff fce1 	bl	10000574 <print_morse>

10000bb2 <no_print>:
10000bb2:	f7ff fc0b 	bl	100003cc <get_len>
10000bb6:	4990      	ldr	r1, [pc, #576]	; (10000df8 <whitespace_symbol+0x40>)
10000bb8:	7008      	strb	r0, [r1, #0]
10000bba:	e004      	b.n	10000bc6 <get_keys>

10000bbc <error>:
10000bbc:	f7ff ff4a 	bl	10000a54 <print_err>
10000bc0:	f7ff ff02 	bl	100009c8 <set_red>

10000bc4 <err_loop>:
10000bc4:	e7fe      	b.n	10000bc4 <err_loop>

10000bc6 <get_keys>:
10000bc6:	bf30      	wfi
10000bc8:	bf30      	wfi
10000bca:	4b82      	ldr	r3, [pc, #520]	; (10000dd4 <whitespace_symbol+0x1c>)
10000bcc:	7819      	ldrb	r1, [r3, #0]
10000bce:	488a      	ldr	r0, [pc, #552]	; (10000df8 <whitespace_symbol+0x40>)
10000bd0:	7802      	ldrb	r2, [r0, #0]
10000bd2:	428a      	cmp	r2, r1
10000bd4:	d1f7      	bne.n	10000bc6 <get_keys>
10000bd6:	dcf1      	bgt.n	10000bbc <error>
10000bd8:	4981      	ldr	r1, [pc, #516]	; (10000de0 <whitespace_symbol+0x28>)
10000bda:	6808      	ldr	r0, [r1, #0]
10000bdc:	f7ff fdae 	bl	1000073c <cmp_morse>
10000be0:	2801      	cmp	r0, #1
10000be2:	d011      	beq.n	10000c08 <correct>
10000be4:	f7ff fdcc 	bl	10000780 <print_wrong>
10000be8:	4984      	ldr	r1, [pc, #528]	; (10000dfc <whitespace_symbol+0x44>)
10000bea:	2200      	movs	r2, #0
10000bec:	700a      	strb	r2, [r1, #0]
10000bee:	4884      	ldr	r0, [pc, #528]	; (10000e00 <whitespace_symbol+0x48>)
10000bf0:	7801      	ldrb	r1, [r0, #0]
10000bf2:	2901      	cmp	r1, #1
10000bf4:	d06c      	beq.n	10000cd0 <out_of_lives>
10000bf6:	2201      	movs	r2, #1
10000bf8:	1a89      	subs	r1, r1, r2
10000bfa:	7001      	strb	r1, [r0, #0]
10000bfc:	0008      	movs	r0, r1
10000bfe:	f7ff fc35 	bl	1000046c <set_lives>
10000c02:	f7ff feed 	bl	100009e0 <set_colour>
10000c06:	e7b9      	b.n	10000b7c <play>

10000c08 <correct>:
10000c08:	f7ff fdf0 	bl	100007ec <print_correct>
10000c0c:	4974      	ldr	r1, [pc, #464]	; (10000de0 <whitespace_symbol+0x28>)
10000c0e:	2200      	movs	r2, #0
10000c10:	600a      	str	r2, [r1, #0]
10000c12:	f000 f81e 	bl	10000c52 <reset>
10000c16:	4979      	ldr	r1, [pc, #484]	; (10000dfc <whitespace_symbol+0x44>)
10000c18:	7808      	ldrb	r0, [r1, #0]
10000c1a:	2301      	movs	r3, #1
10000c1c:	181b      	adds	r3, r3, r0
10000c1e:	700b      	strb	r3, [r1, #0]
10000c20:	4977      	ldr	r1, [pc, #476]	; (10000e00 <whitespace_symbol+0x48>)
10000c22:	7808      	ldrb	r0, [r1, #0]
10000c24:	2803      	cmp	r0, #3
10000c26:	d007      	beq.n	10000c38 <max_lives>
10000c28:	2201      	movs	r2, #1
10000c2a:	1812      	adds	r2, r2, r0
10000c2c:	700a      	strb	r2, [r1, #0]
10000c2e:	0010      	movs	r0, r2
10000c30:	f7ff fc1c 	bl	1000046c <set_lives>
10000c34:	f7ff fed4 	bl	100009e0 <set_colour>

10000c38 <max_lives>:
10000c38:	2105      	movs	r1, #5
10000c3a:	4299      	cmp	r1, r3
10000c3c:	d19e      	bne.n	10000b7c <play>
10000c3e:	4869      	ldr	r0, [pc, #420]	; (10000de4 <whitespace_symbol+0x2c>)
10000c40:	7801      	ldrb	r1, [r0, #0]
10000c42:	2904      	cmp	r1, #4
10000c44:	d03d      	beq.n	10000cc2 <completed>
10000c46:	2201      	movs	r2, #1
10000c48:	1852      	adds	r2, r2, r1
10000c4a:	7002      	strb	r2, [r0, #0]
10000c4c:	f000 f80d 	bl	10000c6a <next_level>
10000c50:	e794      	b.n	10000b7c <play>

10000c52 <reset>:
10000c52:	b500      	push	{lr}
10000c54:	2200      	movs	r2, #0
10000c56:	4962      	ldr	r1, [pc, #392]	; (10000de0 <whitespace_symbol+0x28>)
10000c58:	600a      	str	r2, [r1, #0]
10000c5a:	495e      	ldr	r1, [pc, #376]	; (10000dd4 <whitespace_symbol+0x1c>)
10000c5c:	700a      	strb	r2, [r1, #0]
10000c5e:	bd00      	pop	{pc}

10000c60 <bad_input>:
10000c60:	f7ff fff7 	bl	10000c52 <reset>
10000c64:	f7ff fe60 	bl	10000928 <print_bad_input>
10000c68:	e76e      	b.n	10000b48 <start_game>

10000c6a <next_level>:
10000c6a:	b500      	push	{lr}
10000c6c:	f001 fb0e 	bl	1000228c <watchdog_update>
10000c70:	f7ff fdcc 	bl	1000080c <print_stats>
10000c74:	f000 f80f 	bl	10000c96 <choose_option>
10000c78:	2101      	movs	r1, #1
10000c7a:	42a9      	cmp	r1, r5
10000c7c:	d006      	beq.n	10000c8c <quit>
10000c7e:	4959      	ldr	r1, [pc, #356]	; (10000de4 <whitespace_symbol+0x2c>)
10000c80:	7808      	ldrb	r0, [r1, #0]
10000c82:	f7ff fc27 	bl	100004d4 <set_level>
10000c86:	f001 fb01 	bl	1000228c <watchdog_update>
10000c8a:	bd00      	pop	{pc}

10000c8c <quit>:
10000c8c:	bc01      	pop	{r0}
10000c8e:	4858      	ldr	r0, [pc, #352]	; (10000df0 <whitespace_symbol+0x38>)
10000c90:	4a56      	ldr	r2, [pc, #344]	; (10000dec <whitespace_symbol+0x34>)
10000c92:	f001 fb47 	bl	10002324 <watchdog_reboot>

10000c96 <choose_option>:
10000c96:	b500      	push	{lr}
10000c98:	f7ff ffdb 	bl	10000c52 <reset>
10000c9c:	4859      	ldr	r0, [pc, #356]	; (10000e04 <whitespace_symbol+0x4c>)
10000c9e:	f004 f83b 	bl	10004d18 <__wrap_printf>
10000ca2:	f000 f805 	bl	10000cb0 <wfi_loop_head>
10000ca6:	f000 f803 	bl	10000cb0 <wfi_loop_head>
10000caa:	f7ff ffd2 	bl	10000c52 <reset>
10000cae:	bd00      	pop	{pc}

10000cb0 <wfi_loop_head>:
10000cb0:	b500      	push	{lr}

10000cb2 <wfi_loop>:
10000cb2:	4848      	ldr	r0, [pc, #288]	; (10000dd4 <whitespace_symbol+0x1c>)
10000cb4:	7801      	ldrb	r1, [r0, #0]
10000cb6:	2901      	cmp	r1, #1
10000cb8:	d002      	beq.n	10000cc0 <return_wfi_loop>
10000cba:	f001 fae7 	bl	1000228c <watchdog_update>
10000cbe:	e7f8      	b.n	10000cb2 <wfi_loop>

10000cc0 <return_wfi_loop>:
10000cc0:	bd00      	pop	{pc}

10000cc2 <completed>:
10000cc2:	f7ff fe1b 	bl	100008fc <print_completed>
10000cc6:	f7ff fde1 	bl	1000088c <print_total_stats>
10000cca:	f7ff fe71 	bl	100009b0 <set_blue>

10000cce <end>:
10000cce:	e7fe      	b.n	10000cce <end>

10000cd0 <out_of_lives>:
10000cd0:	f7ff fe32 	bl	10000938 <print_out_of_lives>
10000cd4:	4841      	ldr	r0, [pc, #260]	; (10000ddc <whitespace_symbol+0x24>)
10000cd6:	f004 f81f 	bl	10004d18 <__wrap_printf>
10000cda:	f7ff fe75 	bl	100009c8 <set_red>
10000cde:	e7f6      	b.n	10000cce <end>

10000ce0 <init_io>:
10000ce0:	b500      	push	{lr}
10000ce2:	2019      	movs	r0, #25
10000ce4:	f7ff fb3a 	bl	1000035c <asm_gpio_init>
10000ce8:	2019      	movs	r0, #25
10000cea:	2101      	movs	r1, #1
10000cec:	f7ff fb3a 	bl	10000364 <asm_gpio_set_dir>
10000cf0:	2015      	movs	r0, #21
10000cf2:	f7ff fb33 	bl	1000035c <asm_gpio_init>
10000cf6:	2015      	movs	r0, #21
10000cf8:	2100      	movs	r1, #0
10000cfa:	f7ff fb33 	bl	10000364 <asm_gpio_set_dir>
10000cfe:	bd00      	pop	{pc}

10000d00 <install_gpio_isr>:
10000d00:	b500      	push	{lr}
10000d02:	483b      	ldr	r0, [pc, #236]	; (10000df0 <whitespace_symbol+0x38>)
10000d04:	f7ff fb4a 	bl	1000039c <asm_gpio_set_irq>
10000d08:	4a3f      	ldr	r2, [pc, #252]	; (10000e08 <whitespace_symbol+0x50>)
10000d0a:	6811      	ldr	r1, [r2, #0]
10000d0c:	2274      	movs	r2, #116	; 0x74
10000d0e:	440a      	add	r2, r1
10000d10:	483e      	ldr	r0, [pc, #248]	; (10000e0c <whitespace_symbol+0x54>)
10000d12:	6010      	str	r0, [r2, #0]
10000d14:	4a3e      	ldr	r2, [pc, #248]	; (10000e10 <whitespace_symbol+0x58>)
10000d16:	2001      	movs	r0, #1
10000d18:	493e      	ldr	r1, [pc, #248]	; (10000e14 <whitespace_symbol+0x5c>)
10000d1a:	4088      	lsls	r0, r1
10000d1c:	6010      	str	r0, [r2, #0]
10000d1e:	4a3e      	ldr	r2, [pc, #248]	; (10000e18 <whitespace_symbol+0x60>)
10000d20:	2001      	movs	r0, #1
10000d22:	493c      	ldr	r1, [pc, #240]	; (10000e14 <whitespace_symbol+0x5c>)
10000d24:	4088      	lsls	r0, r1
10000d26:	6010      	str	r0, [r2, #0]
10000d28:	bd00      	pop	{pc}

10000d2a <gpio_isr>:
10000d2a:	b500      	push	{lr}
10000d2c:	f001 faae 	bl	1000228c <watchdog_update>
10000d30:	4d2f      	ldr	r5, [pc, #188]	; (10000df0 <whitespace_symbol+0x38>)
10000d32:	2019      	movs	r0, #25
10000d34:	f7ff fb20 	bl	10000378 <asm_gpio_get>
10000d38:	2800      	cmp	r0, #0
10000d3a:	d01e      	beq.n	10000d7a <rise_edge>
10000d3c:	4937      	ldr	r1, [pc, #220]	; (10000e1c <whitespace_symbol+0x64>)
10000d3e:	f7ff fb3f 	bl	100003c0 <asm_time_us_32>
10000d42:	6008      	str	r0, [r1, #0]
10000d44:	4936      	ldr	r1, [pc, #216]	; (10000e20 <whitespace_symbol+0x68>)
10000d46:	4a37      	ldr	r2, [pc, #220]	; (10000e24 <whitespace_symbol+0x6c>)
10000d48:	6813      	ldr	r3, [r2, #0]
10000d4a:	1ac2      	subs	r2, r0, r3
10000d4c:	428a      	cmp	r2, r1
10000d4e:	dd04      	ble.n	10000d5a <print_dot>
10000d50:	4d26      	ldr	r5, [pc, #152]	; (10000dec <whitespace_symbol+0x34>)
10000d52:	4835      	ldr	r0, [pc, #212]	; (10000e28 <whitespace_symbol+0x70>)
10000d54:	f003 ffe0 	bl	10004d18 <__wrap_printf>
10000d58:	e002      	b.n	10000d60 <done>

10000d5a <print_dot>:
10000d5a:	4834      	ldr	r0, [pc, #208]	; (10000e2c <whitespace_symbol+0x74>)
10000d5c:	f003 ffdc 	bl	10004d18 <__wrap_printf>

10000d60 <done>:
10000d60:	2101      	movs	r1, #1
10000d62:	4c1f      	ldr	r4, [pc, #124]	; (10000de0 <whitespace_symbol+0x28>)
10000d64:	6823      	ldr	r3, [r4, #0]
10000d66:	408b      	lsls	r3, r1
10000d68:	195b      	adds	r3, r3, r5
10000d6a:	6023      	str	r3, [r4, #0]
10000d6c:	4a19      	ldr	r2, [pc, #100]	; (10000dd4 <whitespace_symbol+0x1c>)
10000d6e:	7811      	ldrb	r1, [r2, #0]
10000d70:	2301      	movs	r3, #1
10000d72:	18c9      	adds	r1, r1, r3
10000d74:	7011      	strb	r1, [r2, #0]
10000d76:	2100      	movs	r1, #0
10000d78:	e012      	b.n	10000da0 <led_set_state>

10000d7a <rise_edge>:
10000d7a:	492a      	ldr	r1, [pc, #168]	; (10000e24 <whitespace_symbol+0x6c>)
10000d7c:	f7ff fb20 	bl	100003c0 <asm_time_us_32>
10000d80:	6008      	str	r0, [r1, #0]
10000d82:	4b18      	ldr	r3, [pc, #96]	; (10000de4 <whitespace_symbol+0x2c>)
10000d84:	7819      	ldrb	r1, [r3, #0]
10000d86:	2902      	cmp	r1, #2
10000d88:	dd09      	ble.n	10000d9e <backspace>
10000d8a:	4a12      	ldr	r2, [pc, #72]	; (10000dd4 <whitespace_symbol+0x1c>)
10000d8c:	7811      	ldrb	r1, [r2, #0]
10000d8e:	2900      	cmp	r1, #0
10000d90:	d005      	beq.n	10000d9e <backspace>
10000d92:	4922      	ldr	r1, [pc, #136]	; (10000e1c <whitespace_symbol+0x64>)
10000d94:	680a      	ldr	r2, [r1, #0]
10000d96:	1a80      	subs	r0, r0, r2
10000d98:	4b25      	ldr	r3, [pc, #148]	; (10000e30 <whitespace_symbol+0x78>)
10000d9a:	4283      	cmp	r3, r0
10000d9c:	dd0c      	ble.n	10000db8 <whitespace_symbol>

10000d9e <backspace>:
10000d9e:	2101      	movs	r1, #1

10000da0 <led_set_state>:
10000da0:	2019      	movs	r0, #25
10000da2:	f7ff faf1 	bl	10000388 <asm_gpio_put>
10000da6:	4823      	ldr	r0, [pc, #140]	; (10000e34 <whitespace_symbol+0x7c>)
10000da8:	2101      	movs	r1, #1
10000daa:	4a23      	ldr	r2, [pc, #140]	; (10000e38 <whitespace_symbol+0x80>)
10000dac:	4091      	lsls	r1, r2
10000dae:	6001      	str	r1, [r0, #0]
10000db0:	480e      	ldr	r0, [pc, #56]	; (10000dec <whitespace_symbol+0x34>)
10000db2:	f7ff faf3 	bl	1000039c <asm_gpio_set_irq>
10000db6:	bd00      	pop	{pc}

10000db8 <whitespace_symbol>:
10000db8:	4820      	ldr	r0, [pc, #128]	; (10000e3c <whitespace_symbol+0x84>)
10000dba:	f003 ffad 	bl	10004d18 <__wrap_printf>
10000dbe:	2002      	movs	r0, #2
10000dc0:	4907      	ldr	r1, [pc, #28]	; (10000de0 <whitespace_symbol+0x28>)
10000dc2:	680a      	ldr	r2, [r1, #0]
10000dc4:	4082      	lsls	r2, r0
10000dc6:	600a      	str	r2, [r1, #0]
10000dc8:	e7e9      	b.n	10000d9e <backspace>
10000dca:	46c0      	nop			; (mov r8, r8)
10000dcc:	46c0      	nop			; (mov r8, r8)
10000dce:	46c0      	nop			; (mov r8, r8)
10000dd0:	20000250 	.word	0x20000250
10000dd4:	20000315 	.word	0x20000315
10000dd8:	00000005 	.word	0x00000005
10000ddc:	20000350 	.word	0x20000350
10000de0:	20000310 	.word	0x20000310
10000de4:	20000316 	.word	0x20000316
10000de8:	007fffff 	.word	0x007fffff
10000dec:	00000001 	.word	0x00000001
10000df0:	00000000 	.word	0x00000000
10000df4:	0000000c 	.word	0x0000000c
10000df8:	20000314 	.word	0x20000314
10000dfc:	20000317 	.word	0x20000317
10000e00:	20000320 	.word	0x20000320
10000e04:	200002d0 	.word	0x200002d0
10000e08:	e000ed08 	.word	0xe000ed08
10000e0c:	10000d2b 	.word	0x10000d2b
10000e10:	e000e280 	.word	0xe000e280
10000e14:	0000000d 	.word	0x0000000d
10000e18:	e000e100 	.word	0xe000e100
10000e1c:	20000244 	.word	0x20000244
10000e20:	000493e0 	.word	0x000493e0
10000e24:	20000240 	.word	0x20000240
10000e28:	20000330 	.word	0x20000330
10000e2c:	20000340 	.word	0x20000340
10000e30:	000f4240 	.word	0x000f4240
10000e34:	400140f8 	.word	0x400140f8
10000e38:	00000016 	.word	0x00000016
10000e3c:	20000360 	.word	0x20000360

10000e40 <gpio_set_function>:
10000e40:	4a09      	ldr	r2, [pc, #36]	; (10000e68 <gpio_set_function+0x28>)
10000e42:	0083      	lsls	r3, r0, #2
10000e44:	4694      	mov	ip, r2
10000e46:	2240      	movs	r2, #64	; 0x40
10000e48:	4463      	add	r3, ip
10000e4a:	b510      	push	{r4, lr}
10000e4c:	681c      	ldr	r4, [r3, #0]
10000e4e:	00c0      	lsls	r0, r0, #3
10000e50:	4062      	eors	r2, r4
10000e52:	24c0      	movs	r4, #192	; 0xc0
10000e54:	4014      	ands	r4, r2
10000e56:	2280      	movs	r2, #128	; 0x80
10000e58:	0152      	lsls	r2, r2, #5
10000e5a:	4313      	orrs	r3, r2
10000e5c:	601c      	str	r4, [r3, #0]
10000e5e:	4b03      	ldr	r3, [pc, #12]	; (10000e6c <gpio_set_function+0x2c>)
10000e60:	469c      	mov	ip, r3
10000e62:	4460      	add	r0, ip
10000e64:	6041      	str	r1, [r0, #4]
10000e66:	bd10      	pop	{r4, pc}
10000e68:	4001c004 	.word	0x4001c004
10000e6c:	40014000 	.word	0x40014000

10000e70 <gpio_set_irq_enabled>:
10000e70:	23d0      	movs	r3, #208	; 0xd0
10000e72:	061b      	lsls	r3, r3, #24
10000e74:	681b      	ldr	r3, [r3, #0]
10000e76:	b530      	push	{r4, r5, lr}
10000e78:	1e5c      	subs	r4, r3, #1
10000e7a:	41a3      	sbcs	r3, r4
10000e7c:	0005      	movs	r5, r0
10000e7e:	480f      	ldr	r0, [pc, #60]	; (10000ebc <gpio_set_irq_enabled+0x4c>)
10000e80:	425c      	negs	r4, r3
10000e82:	4684      	mov	ip, r0
10000e84:	2007      	movs	r0, #7
10000e86:	2330      	movs	r3, #48	; 0x30
10000e88:	4028      	ands	r0, r5
10000e8a:	4023      	ands	r3, r4
10000e8c:	0080      	lsls	r0, r0, #2
10000e8e:	08ec      	lsrs	r4, r5, #3
10000e90:	4081      	lsls	r1, r0
10000e92:	0020      	movs	r0, r4
10000e94:	4d0a      	ldr	r5, [pc, #40]	; (10000ec0 <gpio_set_irq_enabled+0x50>)
10000e96:	303c      	adds	r0, #60	; 0x3c
10000e98:	4463      	add	r3, ip
10000e9a:	0080      	lsls	r0, r0, #2
10000e9c:	00a4      	lsls	r4, r4, #2
10000e9e:	5141      	str	r1, [r0, r5]
10000ea0:	191b      	adds	r3, r3, r4
10000ea2:	2a00      	cmp	r2, #0
10000ea4:	d004      	beq.n	10000eb0 <gpio_set_irq_enabled+0x40>
10000ea6:	2280      	movs	r2, #128	; 0x80
10000ea8:	0192      	lsls	r2, r2, #6
10000eaa:	4313      	orrs	r3, r2
10000eac:	6019      	str	r1, [r3, #0]
10000eae:	bd30      	pop	{r4, r5, pc}
10000eb0:	22c0      	movs	r2, #192	; 0xc0
10000eb2:	0192      	lsls	r2, r2, #6
10000eb4:	4313      	orrs	r3, r2
10000eb6:	6019      	str	r1, [r3, #0]
10000eb8:	e7f9      	b.n	10000eae <gpio_set_irq_enabled+0x3e>
10000eba:	46c0      	nop			; (mov r8, r8)
10000ebc:	40014100 	.word	0x40014100
10000ec0:	40014000 	.word	0x40014000

10000ec4 <gpio_init>:
10000ec4:	2301      	movs	r3, #1
10000ec6:	22d0      	movs	r2, #208	; 0xd0
10000ec8:	4083      	lsls	r3, r0
10000eca:	0612      	lsls	r2, r2, #24
10000ecc:	6293      	str	r3, [r2, #40]	; 0x28
10000ece:	6193      	str	r3, [r2, #24]
10000ed0:	4a09      	ldr	r2, [pc, #36]	; (10000ef8 <gpio_init+0x34>)
10000ed2:	0083      	lsls	r3, r0, #2
10000ed4:	4694      	mov	ip, r2
10000ed6:	2240      	movs	r2, #64	; 0x40
10000ed8:	4463      	add	r3, ip
10000eda:	6819      	ldr	r1, [r3, #0]
10000edc:	00c0      	lsls	r0, r0, #3
10000ede:	404a      	eors	r2, r1
10000ee0:	21c0      	movs	r1, #192	; 0xc0
10000ee2:	4011      	ands	r1, r2
10000ee4:	2280      	movs	r2, #128	; 0x80
10000ee6:	0152      	lsls	r2, r2, #5
10000ee8:	4313      	orrs	r3, r2
10000eea:	6019      	str	r1, [r3, #0]
10000eec:	4b03      	ldr	r3, [pc, #12]	; (10000efc <gpio_init+0x38>)
10000eee:	469c      	mov	ip, r3
10000ef0:	2305      	movs	r3, #5
10000ef2:	4460      	add	r0, ip
10000ef4:	6043      	str	r3, [r0, #4]
10000ef6:	4770      	bx	lr
10000ef8:	4001c004 	.word	0x4001c004
10000efc:	40014000 	.word	0x40014000

10000f00 <hw_claim_lock>:
10000f00:	f3ef 8010 	mrs	r0, PRIMASK
10000f04:	b672      	cpsid	i
10000f06:	4a03      	ldr	r2, [pc, #12]	; (10000f14 <hw_claim_lock+0x14>)
10000f08:	6813      	ldr	r3, [r2, #0]
10000f0a:	2b00      	cmp	r3, #0
10000f0c:	d0fc      	beq.n	10000f08 <hw_claim_lock+0x8>
10000f0e:	f3bf 8f5f 	dmb	sy
10000f12:	4770      	bx	lr
10000f14:	d000012c 	.word	0xd000012c

10000f18 <hw_claim_unlock>:
10000f18:	f3bf 8f5f 	dmb	sy
10000f1c:	2200      	movs	r2, #0
10000f1e:	4b02      	ldr	r3, [pc, #8]	; (10000f28 <hw_claim_unlock+0x10>)
10000f20:	601a      	str	r2, [r3, #0]
10000f22:	f380 8810 	msr	PRIMASK, r0
10000f26:	4770      	bx	lr
10000f28:	d000012c 	.word	0xd000012c

10000f2c <hw_claim_or_assert>:
10000f2c:	b5f8      	push	{r3, r4, r5, r6, r7, lr}
10000f2e:	f3ef 8710 	mrs	r7, PRIMASK
10000f32:	b672      	cpsid	i
10000f34:	4e0e      	ldr	r6, [pc, #56]	; (10000f70 <hw_claim_or_assert+0x44>)
10000f36:	6833      	ldr	r3, [r6, #0]
10000f38:	2b00      	cmp	r3, #0
10000f3a:	d0fc      	beq.n	10000f36 <hw_claim_or_assert+0xa>
10000f3c:	f3bf 8f5f 	dmb	sy
10000f40:	08cb      	lsrs	r3, r1, #3
10000f42:	18c4      	adds	r4, r0, r3
10000f44:	2507      	movs	r5, #7
10000f46:	46a4      	mov	ip, r4
10000f48:	5cc4      	ldrb	r4, [r0, r3]
10000f4a:	2301      	movs	r3, #1
10000f4c:	400d      	ands	r5, r1
10000f4e:	40ab      	lsls	r3, r5
10000f50:	0018      	movs	r0, r3
10000f52:	4020      	ands	r0, r4
10000f54:	4223      	tst	r3, r4
10000f56:	d108      	bne.n	10000f6a <hw_claim_or_assert+0x3e>
10000f58:	4662      	mov	r2, ip
10000f5a:	4323      	orrs	r3, r4
10000f5c:	7013      	strb	r3, [r2, #0]
10000f5e:	f3bf 8f5f 	dmb	sy
10000f62:	6030      	str	r0, [r6, #0]
10000f64:	f387 8810 	msr	PRIMASK, r7
10000f68:	bdf8      	pop	{r3, r4, r5, r6, r7, pc}
10000f6a:	0010      	movs	r0, r2
10000f6c:	f000 fe24 	bl	10001bb8 <panic>
10000f70:	d000012c 	.word	0xd000012c

10000f74 <running_on_fpga>:
10000f74:	4b02      	ldr	r3, [pc, #8]	; (10000f80 <running_on_fpga+0xc>)
10000f76:	6818      	ldr	r0, [r3, #0]
10000f78:	0780      	lsls	r0, r0, #30
10000f7a:	0fc0      	lsrs	r0, r0, #31
10000f7c:	4770      	bx	lr
10000f7e:	46c0      	nop			; (mov r8, r8)
10000f80:	4006c000 	.word	0x4006c000

10000f84 <spin_locks_reset>:
10000f84:	2100      	movs	r1, #0
10000f86:	4b04      	ldr	r3, [pc, #16]	; (10000f98 <spin_locks_reset+0x14>)
10000f88:	4a04      	ldr	r2, [pc, #16]	; (10000f9c <spin_locks_reset+0x18>)
10000f8a:	f3bf 8f5f 	dmb	sy
10000f8e:	c302      	stmia	r3!, {r1}
10000f90:	4293      	cmp	r3, r2
10000f92:	d1fa      	bne.n	10000f8a <spin_locks_reset+0x6>
10000f94:	4770      	bx	lr
10000f96:	46c0      	nop			; (mov r8, r8)
10000f98:	d0000100 	.word	0xd0000100
10000f9c:	d0000180 	.word	0xd0000180

10000fa0 <next_striped_spin_lock_num>:
10000fa0:	4a04      	ldr	r2, [pc, #16]	; (10000fb4 <next_striped_spin_lock_num+0x14>)
10000fa2:	7810      	ldrb	r0, [r2, #0]
10000fa4:	1c43      	adds	r3, r0, #1
10000fa6:	b2db      	uxtb	r3, r3
10000fa8:	2b17      	cmp	r3, #23
10000faa:	d900      	bls.n	10000fae <next_striped_spin_lock_num+0xe>
10000fac:	2310      	movs	r3, #16
10000fae:	7013      	strb	r3, [r2, #0]
10000fb0:	4770      	bx	lr
10000fb2:	46c0      	nop			; (mov r8, r8)
10000fb4:	20000362 	.word	0x20000362

10000fb8 <uart_init>:
10000fb8:	b5f8      	push	{r3, r4, r5, r6, r7, lr}
10000fba:	0004      	movs	r4, r0
10000fbc:	2006      	movs	r0, #6
10000fbe:	000d      	movs	r5, r1
10000fc0:	f000 ff76 	bl	10001eb0 <clock_get_hz>
10000fc4:	2800      	cmp	r0, #0
10000fc6:	d045      	beq.n	10001054 <uart_init+0x9c>
10000fc8:	4b2b      	ldr	r3, [pc, #172]	; (10001078 <uart_init+0xc0>)
10000fca:	492c      	ldr	r1, [pc, #176]	; (1000107c <uart_init+0xc4>)
10000fcc:	18e3      	adds	r3, r4, r3
10000fce:	425a      	negs	r2, r3
10000fd0:	4153      	adcs	r3, r2
10000fd2:	2280      	movs	r2, #128	; 0x80
10000fd4:	03d2      	lsls	r2, r2, #15
10000fd6:	4694      	mov	ip, r2
10000fd8:	425b      	negs	r3, r3
10000fda:	4013      	ands	r3, r2
10000fdc:	4a28      	ldr	r2, [pc, #160]	; (10001080 <uart_init+0xc8>)
10000fde:	4463      	add	r3, ip
10000fe0:	6013      	str	r3, [r2, #0]
10000fe2:	4a28      	ldr	r2, [pc, #160]	; (10001084 <uart_init+0xcc>)
10000fe4:	6013      	str	r3, [r2, #0]
10000fe6:	0018      	movs	r0, r3
10000fe8:	688a      	ldr	r2, [r1, #8]
10000fea:	4390      	bics	r0, r2
10000fec:	d1fb      	bne.n	10000fe6 <uart_init+0x2e>
10000fee:	4b22      	ldr	r3, [pc, #136]	; (10001078 <uart_init+0xc0>)
10000ff0:	2180      	movs	r1, #128	; 0x80
10000ff2:	18e3      	adds	r3, r4, r3
10000ff4:	425a      	negs	r2, r3
10000ff6:	4153      	adcs	r3, r2
10000ff8:	4a23      	ldr	r2, [pc, #140]	; (10001088 <uart_init+0xd0>)
10000ffa:	005b      	lsls	r3, r3, #1
10000ffc:	0049      	lsls	r1, r1, #1
10000ffe:	2006      	movs	r0, #6
10001000:	5299      	strh	r1, [r3, r2]
10001002:	f000 ff55 	bl	10001eb0 <clock_get_hz>
10001006:	0029      	movs	r1, r5
10001008:	00c0      	lsls	r0, r0, #3
1000100a:	f002 fd83 	bl	10003b14 <__wrap___aeabi_uidiv>
1000100e:	09c3      	lsrs	r3, r0, #7
10001010:	d121      	bne.n	10001056 <uart_init+0x9e>
10001012:	2740      	movs	r7, #64	; 0x40
10001014:	2201      	movs	r2, #1
10001016:	0026      	movs	r6, r4
10001018:	2580      	movs	r5, #128	; 0x80
1000101a:	6262      	str	r2, [r4, #36]	; 0x24
1000101c:	62a3      	str	r3, [r4, #40]	; 0x28
1000101e:	2300      	movs	r3, #0
10001020:	362c      	adds	r6, #44	; 0x2c
10001022:	01ad      	lsls	r5, r5, #6
10001024:	4335      	orrs	r5, r6
10001026:	602b      	str	r3, [r5, #0]
10001028:	2006      	movs	r0, #6
1000102a:	f000 ff41 	bl	10001eb0 <clock_get_hz>
1000102e:	0039      	movs	r1, r7
10001030:	0080      	lsls	r0, r0, #2
10001032:	f002 fd6f 	bl	10003b14 <__wrap___aeabi_uidiv>
10001036:	2360      	movs	r3, #96	; 0x60
10001038:	6ae2      	ldr	r2, [r4, #44]	; 0x2c
1000103a:	4053      	eors	r3, r2
1000103c:	226e      	movs	r2, #110	; 0x6e
1000103e:	401a      	ands	r2, r3
10001040:	2380      	movs	r3, #128	; 0x80
10001042:	015b      	lsls	r3, r3, #5
10001044:	4333      	orrs	r3, r6
10001046:	601a      	str	r2, [r3, #0]
10001048:	4b10      	ldr	r3, [pc, #64]	; (1000108c <uart_init+0xd4>)
1000104a:	6323      	str	r3, [r4, #48]	; 0x30
1000104c:	2310      	movs	r3, #16
1000104e:	602b      	str	r3, [r5, #0]
10001050:	3b0d      	subs	r3, #13
10001052:	64a3      	str	r3, [r4, #72]	; 0x48
10001054:	bdf8      	pop	{r3, r4, r5, r6, r7, pc}
10001056:	4a0e      	ldr	r2, [pc, #56]	; (10001090 <uart_init+0xd8>)
10001058:	4293      	cmp	r3, r2
1000105a:	d903      	bls.n	10001064 <uart_init+0xac>
1000105c:	2300      	movs	r3, #0
1000105e:	4f0d      	ldr	r7, [pc, #52]	; (10001094 <uart_init+0xdc>)
10001060:	4a0d      	ldr	r2, [pc, #52]	; (10001098 <uart_init+0xe0>)
10001062:	e7d8      	b.n	10001016 <uart_init+0x5e>
10001064:	227f      	movs	r2, #127	; 0x7f
10001066:	4010      	ands	r0, r2
10001068:	3001      	adds	r0, #1
1000106a:	0840      	lsrs	r0, r0, #1
1000106c:	019f      	lsls	r7, r3, #6
1000106e:	001a      	movs	r2, r3
10001070:	183f      	adds	r7, r7, r0
10001072:	0003      	movs	r3, r0
10001074:	e7cf      	b.n	10001016 <uart_init+0x5e>
10001076:	46c0      	nop			; (mov r8, r8)
10001078:	bffc8000 	.word	0xbffc8000
1000107c:	4000c000 	.word	0x4000c000
10001080:	4000e000 	.word	0x4000e000
10001084:	4000f000 	.word	0x4000f000
10001088:	20000a88 	.word	0x20000a88
1000108c:	00000301 	.word	0x00000301
10001090:	0000fffe 	.word	0x0000fffe
10001094:	003fffc0 	.word	0x003fffc0
10001098:	0000ffff 	.word	0x0000ffff

1000109c <timer_pool_entry_comparator>:
1000109c:	6883      	ldr	r3, [r0, #8]
1000109e:	480b      	ldr	r0, [pc, #44]	; (100010cc <timer_pool_entry_comparator+0x30>)
100010a0:	b510      	push	{r4, lr}
100010a2:	4684      	mov	ip, r0
100010a4:	4461      	add	r1, ip
100010a6:	4462      	add	r2, ip
100010a8:	0109      	lsls	r1, r1, #4
100010aa:	0112      	lsls	r2, r2, #4
100010ac:	189a      	adds	r2, r3, r2
100010ae:	1859      	adds	r1, r3, r1
100010b0:	6854      	ldr	r4, [r2, #4]
100010b2:	684b      	ldr	r3, [r1, #4]
100010b4:	2001      	movs	r0, #1
100010b6:	429c      	cmp	r4, r3
100010b8:	d801      	bhi.n	100010be <timer_pool_entry_comparator+0x22>
100010ba:	d002      	beq.n	100010c2 <timer_pool_entry_comparator+0x26>
100010bc:	2000      	movs	r0, #0
100010be:	b2c0      	uxtb	r0, r0
100010c0:	bd10      	pop	{r4, pc}
100010c2:	6812      	ldr	r2, [r2, #0]
100010c4:	680b      	ldr	r3, [r1, #0]
100010c6:	429a      	cmp	r2, r3
100010c8:	d8f9      	bhi.n	100010be <timer_pool_entry_comparator+0x22>
100010ca:	e7f7      	b.n	100010bc <timer_pool_entry_comparator+0x20>
100010cc:	0fffffff 	.word	0x0fffffff

100010d0 <add_alarm_under_lock>:
100010d0:	b5f8      	push	{r3, r4, r5, r6, r7, lr}
100010d2:	4657      	mov	r7, sl
100010d4:	4645      	mov	r5, r8
100010d6:	464e      	mov	r6, r9
100010d8:	46de      	mov	lr, fp
100010da:	b5e0      	push	{r5, r6, r7, lr}
100010dc:	4699      	mov	r9, r3
100010de:	ab0c      	add	r3, sp, #48	; 0x30
100010e0:	7819      	ldrb	r1, [r3, #0]
100010e2:	ab0d      	add	r3, sp, #52	; 0x34
100010e4:	781b      	ldrb	r3, [r3, #0]
100010e6:	0005      	movs	r5, r0
100010e8:	4690      	mov	r8, r2
100010ea:	469a      	mov	sl, r3
100010ec:	6807      	ldr	r7, [r0, #0]
100010ee:	2900      	cmp	r1, #0
100010f0:	d112      	bne.n	10001118 <add_alarm_under_lock+0x48>
100010f2:	7bbe      	ldrb	r6, [r7, #14]
100010f4:	2e00      	cmp	r6, #0
100010f6:	d045      	beq.n	10001184 <add_alarm_under_lock+0xb4>
100010f8:	0074      	lsls	r4, r6, #1
100010fa:	683b      	ldr	r3, [r7, #0]
100010fc:	19a4      	adds	r4, r4, r6
100010fe:	3c03      	subs	r4, #3
10001100:	191b      	adds	r3, r3, r4
10001102:	785a      	ldrb	r2, [r3, #1]
10001104:	0031      	movs	r1, r6
10001106:	73ba      	strb	r2, [r7, #14]
10001108:	2a00      	cmp	r2, #0
1000110a:	d100      	bne.n	1000110e <add_alarm_under_lock+0x3e>
1000110c:	73fa      	strb	r2, [r7, #15]
1000110e:	2200      	movs	r2, #0
10001110:	709a      	strb	r2, [r3, #2]
10001112:	705a      	strb	r2, [r3, #1]
10001114:	701a      	strb	r2, [r3, #0]
10001116:	e003      	b.n	10001120 <add_alarm_under_lock+0x50>
10001118:	000e      	movs	r6, r1
1000111a:	004c      	lsls	r4, r1, #1
1000111c:	1864      	adds	r4, r4, r1
1000111e:	3c03      	subs	r4, #3
10001120:	4b2c      	ldr	r3, [pc, #176]	; (100011d4 <add_alarm_under_lock+0x104>)
10001122:	2200      	movs	r2, #0
10001124:	469c      	mov	ip, r3
10001126:	68ab      	ldr	r3, [r5, #8]
10001128:	4461      	add	r1, ip
1000112a:	469c      	mov	ip, r3
1000112c:	4643      	mov	r3, r8
1000112e:	0109      	lsls	r1, r1, #4
10001130:	4461      	add	r1, ip
10001132:	600b      	str	r3, [r1, #0]
10001134:	464b      	mov	r3, r9
10001136:	604b      	str	r3, [r1, #4]
10001138:	9b0a      	ldr	r3, [sp, #40]	; 0x28
1000113a:	608b      	str	r3, [r1, #8]
1000113c:	9b0b      	ldr	r3, [sp, #44]	; 0x2c
1000113e:	60cb      	str	r3, [r1, #12]
10001140:	683b      	ldr	r3, [r7, #0]
10001142:	191b      	adds	r3, r3, r4
10001144:	709a      	strb	r2, [r3, #2]
10001146:	705a      	strb	r2, [r3, #1]
10001148:	701a      	strb	r2, [r3, #0]
1000114a:	7b7b      	ldrb	r3, [r7, #13]
1000114c:	469b      	mov	fp, r3
1000114e:	2b00      	cmp	r3, #0
10001150:	d02c      	beq.n	100011ac <add_alarm_under_lock+0xdc>
10001152:	0032      	movs	r2, r6
10001154:	4659      	mov	r1, fp
10001156:	68b8      	ldr	r0, [r7, #8]
10001158:	687b      	ldr	r3, [r7, #4]
1000115a:	4798      	blx	r3
1000115c:	683a      	ldr	r2, [r7, #0]
1000115e:	2800      	cmp	r0, #0
10001160:	d017      	beq.n	10001192 <add_alarm_under_lock+0xc2>
10001162:	465b      	mov	r3, fp
10001164:	4658      	mov	r0, fp
10001166:	005b      	lsls	r3, r3, #1
10001168:	445b      	add	r3, fp
1000116a:	1914      	adds	r4, r2, r4
1000116c:	3b03      	subs	r3, #3
1000116e:	70a0      	strb	r0, [r4, #2]
10001170:	18d1      	adds	r1, r2, r3
10001172:	5cd3      	ldrb	r3, [r2, r3]
10001174:	2b00      	cmp	r3, #0
10001176:	d000      	beq.n	1000117a <add_alarm_under_lock+0xaa>
10001178:	7063      	strb	r3, [r4, #1]
1000117a:	465b      	mov	r3, fp
1000117c:	700e      	strb	r6, [r1, #0]
1000117e:	737b      	strb	r3, [r7, #13]
10001180:	45b3      	cmp	fp, r6
10001182:	d014      	beq.n	100011ae <add_alarm_under_lock+0xde>
10001184:	0030      	movs	r0, r6
10001186:	bc3c      	pop	{r2, r3, r4, r5}
10001188:	4690      	mov	r8, r2
1000118a:	4699      	mov	r9, r3
1000118c:	46a2      	mov	sl, r4
1000118e:	46ab      	mov	fp, r5
10001190:	bdf8      	pop	{r3, r4, r5, r6, r7, pc}
10001192:	465b      	mov	r3, fp
10001194:	005b      	lsls	r3, r3, #1
10001196:	445b      	add	r3, fp
10001198:	3b03      	subs	r3, #3
1000119a:	18d3      	adds	r3, r2, r3
1000119c:	709e      	strb	r6, [r3, #2]
1000119e:	1911      	adds	r1, r2, r4
100011a0:	5d12      	ldrb	r2, [r2, r4]
100011a2:	2a00      	cmp	r2, #0
100011a4:	d000      	beq.n	100011a8 <add_alarm_under_lock+0xd8>
100011a6:	705a      	strb	r2, [r3, #1]
100011a8:	465b      	mov	r3, fp
100011aa:	700b      	strb	r3, [r1, #0]
100011ac:	737e      	strb	r6, [r7, #13]
100011ae:	4642      	mov	r2, r8
100011b0:	464b      	mov	r3, r9
100011b2:	7d28      	ldrb	r0, [r5, #20]
100011b4:	f000 f9de 	bl	10001574 <hardware_alarm_set_target>
100011b8:	1e04      	subs	r4, r0, #0
100011ba:	d006      	beq.n	100011ca <add_alarm_under_lock+0xfa>
100011bc:	4653      	mov	r3, sl
100011be:	2b00      	cmp	r3, #0
100011c0:	d103      	bne.n	100011ca <add_alarm_under_lock+0xfa>
100011c2:	0031      	movs	r1, r6
100011c4:	6828      	ldr	r0, [r5, #0]
100011c6:	f000 fc3f 	bl	10001a48 <ph_remove_and_free_node>
100011ca:	9b0e      	ldr	r3, [sp, #56]	; 0x38
100011cc:	2b00      	cmp	r3, #0
100011ce:	d0d9      	beq.n	10001184 <add_alarm_under_lock+0xb4>
100011d0:	701c      	strb	r4, [r3, #0]
100011d2:	e7d7      	b.n	10001184 <add_alarm_under_lock+0xb4>
100011d4:	0fffffff 	.word	0x0fffffff

100011d8 <alarm_pool_alarm_callback>:
100011d8:	b5f0      	push	{r4, r5, r6, r7, lr}
100011da:	46de      	mov	lr, fp
100011dc:	464e      	mov	r6, r9
100011de:	4657      	mov	r7, sl
100011e0:	4645      	mov	r5, r8
100011e2:	2300      	movs	r3, #0
100011e4:	b5e0      	push	{r5, r6, r7, lr}
100011e6:	b08d      	sub	sp, #52	; 0x34
100011e8:	930a      	str	r3, [sp, #40]	; 0x28
100011ea:	4b6b      	ldr	r3, [pc, #428]	; (10001398 <alarm_pool_alarm_callback+0x1c0>)
100011ec:	0082      	lsls	r2, r0, #2
100011ee:	58d3      	ldr	r3, [r2, r3]
100011f0:	900b      	str	r0, [sp, #44]	; 0x2c
100011f2:	4699      	mov	r9, r3
100011f4:	2300      	movs	r3, #0
100011f6:	469b      	mov	fp, r3
100011f8:	464b      	mov	r3, r9
100011fa:	9307      	str	r3, [sp, #28]
100011fc:	f000 f96a 	bl	100014d4 <time_us_64>
10001200:	9c07      	ldr	r4, [sp, #28]
10001202:	0006      	movs	r6, r0
10001204:	000f      	movs	r7, r1
10001206:	6862      	ldr	r2, [r4, #4]
10001208:	f3ef 8510 	mrs	r5, PRIMASK
1000120c:	b672      	cpsid	i
1000120e:	6813      	ldr	r3, [r2, #0]
10001210:	2b00      	cmp	r3, #0
10001212:	d0fc      	beq.n	1000120e <alarm_pool_alarm_callback+0x36>
10001214:	0022      	movs	r2, r4
10001216:	9407      	str	r4, [sp, #28]
10001218:	f3bf 8f5f 	dmb	sy
1000121c:	6824      	ldr	r4, [r4, #0]
1000121e:	7b63      	ldrb	r3, [r4, #13]
10001220:	4699      	mov	r9, r3
10001222:	2b00      	cmp	r3, #0
10001224:	d067      	beq.n	100012f6 <alarm_pool_alarm_callback+0x11e>
10001226:	6892      	ldr	r2, [r2, #8]
10001228:	4b5c      	ldr	r3, [pc, #368]	; (1000139c <alarm_pool_alarm_callback+0x1c4>)
1000122a:	4690      	mov	r8, r2
1000122c:	444b      	add	r3, r9
1000122e:	011b      	lsls	r3, r3, #4
10001230:	4498      	add	r8, r3
10001232:	4643      	mov	r3, r8
10001234:	681a      	ldr	r2, [r3, #0]
10001236:	685b      	ldr	r3, [r3, #4]
10001238:	0010      	movs	r0, r2
1000123a:	0019      	movs	r1, r3
1000123c:	1b80      	subs	r0, r0, r6
1000123e:	41b9      	sbcs	r1, r7
10001240:	2900      	cmp	r1, #0
10001242:	dd5f      	ble.n	10001304 <alarm_pool_alarm_callback+0x12c>
10001244:	980b      	ldr	r0, [sp, #44]	; 0x2c
10001246:	f000 f995 	bl	10001574 <hardware_alarm_set_target>
1000124a:	2300      	movs	r3, #0
1000124c:	2600      	movs	r6, #0
1000124e:	4698      	mov	r8, r3
10001250:	2700      	movs	r7, #0
10001252:	469a      	mov	sl, r3
10001254:	9c07      	ldr	r4, [sp, #28]
10001256:	6863      	ldr	r3, [r4, #4]
10001258:	f3bf 8f5f 	dmb	sy
1000125c:	465a      	mov	r2, fp
1000125e:	601a      	str	r2, [r3, #0]
10001260:	f385 8810 	msr	PRIMASK, r5
10001264:	4653      	mov	r3, sl
10001266:	2b00      	cmp	r3, #0
10001268:	d108      	bne.n	1000127c <alarm_pool_alarm_callback+0xa4>
1000126a:	2800      	cmp	r0, #0
1000126c:	d1c6      	bne.n	100011fc <alarm_pool_alarm_callback+0x24>
1000126e:	b00d      	add	sp, #52	; 0x34
10001270:	bc3c      	pop	{r2, r3, r4, r5}
10001272:	4690      	mov	r8, r2
10001274:	4699      	mov	r9, r3
10001276:	46a2      	mov	sl, r4
10001278:	46ab      	mov	fp, r5
1000127a:	bdf0      	pop	{r4, r5, r6, r7, pc}
1000127c:	9b0a      	ldr	r3, [sp, #40]	; 0x28
1000127e:	4641      	mov	r1, r8
10001280:	0218      	lsls	r0, r3, #8
10001282:	464b      	mov	r3, r9
10001284:	4318      	orrs	r0, r3
10001286:	47d0      	blx	sl
10001288:	9008      	str	r0, [sp, #32]
1000128a:	9109      	str	r1, [sp, #36]	; 0x24
1000128c:	6862      	ldr	r2, [r4, #4]
1000128e:	f3ef 8510 	mrs	r5, PRIMASK
10001292:	b672      	cpsid	i
10001294:	6813      	ldr	r3, [r2, #0]
10001296:	2b00      	cmp	r3, #0
10001298:	d0fc      	beq.n	10001294 <alarm_pool_alarm_callback+0xbc>
1000129a:	9407      	str	r4, [sp, #28]
1000129c:	f3bf 8f5f 	dmb	sy
100012a0:	9908      	ldr	r1, [sp, #32]
100012a2:	9a09      	ldr	r2, [sp, #36]	; 0x24
100012a4:	2a00      	cmp	r2, #0
100012a6:	db48      	blt.n	1000133a <alarm_pool_alarm_callback+0x162>
100012a8:	4311      	orrs	r1, r2
100012aa:	d003      	beq.n	100012b4 <alarm_pool_alarm_callback+0xdc>
100012ac:	9b07      	ldr	r3, [sp, #28]
100012ae:	691b      	ldr	r3, [r3, #16]
100012b0:	2b00      	cmp	r3, #0
100012b2:	d15d      	bne.n	10001370 <alarm_pool_alarm_callback+0x198>
100012b4:	9b07      	ldr	r3, [sp, #28]
100012b6:	681b      	ldr	r3, [r3, #0]
100012b8:	7bda      	ldrb	r2, [r3, #15]
100012ba:	2a00      	cmp	r2, #0
100012bc:	d007      	beq.n	100012ce <alarm_pool_alarm_callback+0xf6>
100012be:	0051      	lsls	r1, r2, #1
100012c0:	188a      	adds	r2, r1, r2
100012c2:	6819      	ldr	r1, [r3, #0]
100012c4:	468c      	mov	ip, r1
100012c6:	4649      	mov	r1, r9
100012c8:	4462      	add	r2, ip
100012ca:	3a03      	subs	r2, #3
100012cc:	7051      	strb	r1, [r2, #1]
100012ce:	464a      	mov	r2, r9
100012d0:	73da      	strb	r2, [r3, #15]
100012d2:	464b      	mov	r3, r9
100012d4:	9a07      	ldr	r2, [sp, #28]
100012d6:	3b01      	subs	r3, #1
100012d8:	68d1      	ldr	r1, [r2, #12]
100012da:	5cca      	ldrb	r2, [r1, r3]
100012dc:	3201      	adds	r2, #1
100012de:	54ca      	strb	r2, [r1, r3]
100012e0:	465b      	mov	r3, fp
100012e2:	9a07      	ldr	r2, [sp, #28]
100012e4:	6113      	str	r3, [r2, #16]
100012e6:	6853      	ldr	r3, [r2, #4]
100012e8:	f3bf 8f5f 	dmb	sy
100012ec:	465a      	mov	r2, fp
100012ee:	601a      	str	r2, [r3, #0]
100012f0:	f385 8810 	msr	PRIMASK, r5
100012f4:	e782      	b.n	100011fc <alarm_pool_alarm_callback+0x24>
100012f6:	2300      	movs	r3, #0
100012f8:	2600      	movs	r6, #0
100012fa:	4698      	mov	r8, r3
100012fc:	2700      	movs	r7, #0
100012fe:	469a      	mov	sl, r3
10001300:	2000      	movs	r0, #0
10001302:	e7a7      	b.n	10001254 <alarm_pool_alarm_callback+0x7c>
10001304:	2900      	cmp	r1, #0
10001306:	d101      	bne.n	1000130c <alarm_pool_alarm_callback+0x134>
10001308:	2800      	cmp	r0, #0
1000130a:	d19b      	bne.n	10001244 <alarm_pool_alarm_callback+0x6c>
1000130c:	2100      	movs	r1, #0
1000130e:	0020      	movs	r0, r4
10001310:	f000 fafc 	bl	1000190c <ph_remove_head>
10001314:	4643      	mov	r3, r8
10001316:	681e      	ldr	r6, [r3, #0]
10001318:	685f      	ldr	r7, [r3, #4]
1000131a:	689b      	ldr	r3, [r3, #8]
1000131c:	9a07      	ldr	r2, [sp, #28]
1000131e:	469a      	mov	sl, r3
10001320:	4643      	mov	r3, r8
10001322:	68db      	ldr	r3, [r3, #12]
10001324:	4698      	mov	r8, r3
10001326:	68d3      	ldr	r3, [r2, #12]
10001328:	444b      	add	r3, r9
1000132a:	3b01      	subs	r3, #1
1000132c:	781b      	ldrb	r3, [r3, #0]
1000132e:	930a      	str	r3, [sp, #40]	; 0x28
10001330:	021b      	lsls	r3, r3, #8
10001332:	4303      	orrs	r3, r0
10001334:	6113      	str	r3, [r2, #16]
10001336:	2000      	movs	r0, #0
10001338:	e78c      	b.n	10001254 <alarm_pool_alarm_callback+0x7c>
1000133a:	6923      	ldr	r3, [r4, #16]
1000133c:	2b00      	cmp	r3, #0
1000133e:	d0b9      	beq.n	100012b4 <alarm_pool_alarm_callback+0xdc>
10001340:	0033      	movs	r3, r6
10001342:	003c      	movs	r4, r7
10001344:	1a5b      	subs	r3, r3, r1
10001346:	4194      	sbcs	r4, r2
10001348:	001a      	movs	r2, r3
1000134a:	0023      	movs	r3, r4
1000134c:	42a7      	cmp	r7, r4
1000134e:	d819      	bhi.n	10001384 <alarm_pool_alarm_callback+0x1ac>
10001350:	429f      	cmp	r7, r3
10001352:	d01b      	beq.n	1000138c <alarm_pool_alarm_callback+0x1b4>
10001354:	4659      	mov	r1, fp
10001356:	9104      	str	r1, [sp, #16]
10001358:	2101      	movs	r1, #1
1000135a:	9103      	str	r1, [sp, #12]
1000135c:	4649      	mov	r1, r9
1000135e:	9102      	str	r1, [sp, #8]
10001360:	4641      	mov	r1, r8
10001362:	9101      	str	r1, [sp, #4]
10001364:	4651      	mov	r1, sl
10001366:	9807      	ldr	r0, [sp, #28]
10001368:	9100      	str	r1, [sp, #0]
1000136a:	f7ff feb1 	bl	100010d0 <add_alarm_under_lock>
1000136e:	e7b7      	b.n	100012e0 <alarm_pool_alarm_callback+0x108>
10001370:	f000 f8b0 	bl	100014d4 <time_us_64>
10001374:	9a08      	ldr	r2, [sp, #32]
10001376:	9b09      	ldr	r3, [sp, #36]	; 0x24
10001378:	0006      	movs	r6, r0
1000137a:	000f      	movs	r7, r1
1000137c:	1992      	adds	r2, r2, r6
1000137e:	417b      	adcs	r3, r7
10001380:	4299      	cmp	r1, r3
10001382:	d9e5      	bls.n	10001350 <alarm_pool_alarm_callback+0x178>
10001384:	2201      	movs	r2, #1
10001386:	4252      	negs	r2, r2
10001388:	17d3      	asrs	r3, r2, #31
1000138a:	e7e3      	b.n	10001354 <alarm_pool_alarm_callback+0x17c>
1000138c:	4296      	cmp	r6, r2
1000138e:	d9e1      	bls.n	10001354 <alarm_pool_alarm_callback+0x17c>
10001390:	2201      	movs	r2, #1
10001392:	4252      	negs	r2, r2
10001394:	17d3      	asrs	r3, r2, #31
10001396:	e7dd      	b.n	10001354 <alarm_pool_alarm_callback+0x17c>
10001398:	20000a1c 	.word	0x20000a1c
1000139c:	0fffffff 	.word	0x0fffffff

100013a0 <alarm_pool_init_default>:
100013a0:	b510      	push	{r4, lr}
100013a2:	4c12      	ldr	r4, [pc, #72]	; (100013ec <alarm_pool_init_default+0x4c>)
100013a4:	6863      	ldr	r3, [r4, #4]
100013a6:	2b00      	cmp	r3, #0
100013a8:	d004      	beq.n	100013b4 <alarm_pool_init_default+0x14>
100013aa:	210a      	movs	r1, #10
100013ac:	4810      	ldr	r0, [pc, #64]	; (100013f0 <alarm_pool_init_default+0x50>)
100013ae:	f000 f973 	bl	10001698 <lock_init>
100013b2:	bd10      	pop	{r4, pc}
100013b4:	0023      	movs	r3, r4
100013b6:	4a0f      	ldr	r2, [pc, #60]	; (100013f4 <alarm_pool_init_default+0x54>)
100013b8:	2110      	movs	r1, #16
100013ba:	6820      	ldr	r0, [r4, #0]
100013bc:	f000 f9c4 	bl	10001748 <ph_post_alloc_init>
100013c0:	2003      	movs	r0, #3
100013c2:	f000 f87b 	bl	100014bc <hardware_alarm_claim>
100013c6:	2003      	movs	r0, #3
100013c8:	f000 f946 	bl	10001658 <hardware_alarm_cancel>
100013cc:	2003      	movs	r0, #3
100013ce:	490a      	ldr	r1, [pc, #40]	; (100013f8 <alarm_pool_init_default+0x58>)
100013d0:	f000 f88a 	bl	100014e8 <hardware_alarm_set_callback>
100013d4:	f7ff fde4 	bl	10000fa0 <next_striped_spin_lock_num>
100013d8:	4b08      	ldr	r3, [pc, #32]	; (100013fc <alarm_pool_init_default+0x5c>)
100013da:	469c      	mov	ip, r3
100013dc:	2303      	movs	r3, #3
100013de:	4460      	add	r0, ip
100013e0:	7523      	strb	r3, [r4, #20]
100013e2:	4b07      	ldr	r3, [pc, #28]	; (10001400 <alarm_pool_init_default+0x60>)
100013e4:	0080      	lsls	r0, r0, #2
100013e6:	6060      	str	r0, [r4, #4]
100013e8:	60dc      	str	r4, [r3, #12]
100013ea:	e7de      	b.n	100013aa <alarm_pool_init_default+0xa>
100013ec:	20000364 	.word	0x20000364
100013f0:	20000a30 	.word	0x20000a30
100013f4:	1000109d 	.word	0x1000109d
100013f8:	100011d9 	.word	0x100011d9
100013fc:	34000040 	.word	0x34000040
10001400:	20000a1c 	.word	0x20000a1c

10001404 <hardware_alarm_irq_handler>:
10001404:	b5f0      	push	{r4, r5, r6, r7, lr}
10001406:	46d6      	mov	lr, sl
10001408:	464f      	mov	r7, r9
1000140a:	4646      	mov	r6, r8
1000140c:	b5c0      	push	{r6, r7, lr}
1000140e:	f3ef 8305 	mrs	r3, IPSR
10001412:	223f      	movs	r2, #63	; 0x3f
10001414:	4013      	ands	r3, r2
10001416:	0018      	movs	r0, r3
10001418:	3810      	subs	r0, #16
1000141a:	f3ef 8c10 	mrs	ip, PRIMASK
1000141e:	b672      	cpsid	i
10001420:	4d20      	ldr	r5, [pc, #128]	; (100014a4 <hardware_alarm_irq_handler+0xa0>)
10001422:	682a      	ldr	r2, [r5, #0]
10001424:	2a00      	cmp	r2, #0
10001426:	d0fc      	beq.n	10001422 <hardware_alarm_irq_handler+0x1e>
10001428:	f3bf 8f5f 	dmb	sy
1000142c:	2201      	movs	r2, #1
1000142e:	0011      	movs	r1, r2
10001430:	4081      	lsls	r1, r0
10001432:	4c1d      	ldr	r4, [pc, #116]	; (100014a8 <hardware_alarm_irq_handler+0xa4>)
10001434:	4688      	mov	r8, r1
10001436:	6361      	str	r1, [r4, #52]	; 0x34
10001438:	491c      	ldr	r1, [pc, #112]	; (100014ac <hardware_alarm_irq_handler+0xa8>)
1000143a:	0017      	movs	r7, r2
1000143c:	780e      	ldrb	r6, [r1, #0]
1000143e:	468a      	mov	sl, r1
10001440:	0031      	movs	r1, r6
10001442:	40c1      	lsrs	r1, r0
10001444:	400f      	ands	r7, r1
10001446:	420a      	tst	r2, r1
10001448:	d015      	beq.n	10001476 <hardware_alarm_irq_handler+0x72>
1000144a:	4919      	ldr	r1, [pc, #100]	; (100014b0 <hardware_alarm_irq_handler+0xac>)
1000144c:	0082      	lsls	r2, r0, #2
1000144e:	6a64      	ldr	r4, [r4, #36]	; 0x24
10001450:	5851      	ldr	r1, [r2, r1]
10001452:	428c      	cmp	r4, r1
10001454:	d319      	bcc.n	1000148a <hardware_alarm_irq_handler+0x86>
10001456:	4b17      	ldr	r3, [pc, #92]	; (100014b4 <hardware_alarm_irq_handler+0xb0>)
10001458:	58d2      	ldr	r2, [r2, r3]
1000145a:	4643      	mov	r3, r8
1000145c:	439e      	bics	r6, r3
1000145e:	4653      	mov	r3, sl
10001460:	701e      	strb	r6, [r3, #0]
10001462:	f3bf 8f5f 	dmb	sy
10001466:	2300      	movs	r3, #0
10001468:	602b      	str	r3, [r5, #0]
1000146a:	f38c 8810 	msr	PRIMASK, ip
1000146e:	2a00      	cmp	r2, #0
10001470:	d006      	beq.n	10001480 <hardware_alarm_irq_handler+0x7c>
10001472:	4790      	blx	r2
10001474:	e004      	b.n	10001480 <hardware_alarm_irq_handler+0x7c>
10001476:	f3bf 8f5f 	dmb	sy
1000147a:	602f      	str	r7, [r5, #0]
1000147c:	f38c 8810 	msr	PRIMASK, ip
10001480:	bc1c      	pop	{r2, r3, r4}
10001482:	4690      	mov	r8, r2
10001484:	4699      	mov	r9, r3
10001486:	46a2      	mov	sl, r4
10001488:	bdf0      	pop	{r4, r5, r6, r7, pc}
1000148a:	4a0b      	ldr	r2, [pc, #44]	; (100014b8 <hardware_alarm_irq_handler+0xb4>)
1000148c:	009b      	lsls	r3, r3, #2
1000148e:	4690      	mov	r8, r2
10001490:	4443      	add	r3, r8
10001492:	681a      	ldr	r2, [r3, #0]
10001494:	601a      	str	r2, [r3, #0]
10001496:	f3bf 8f5f 	dmb	sy
1000149a:	2300      	movs	r3, #0
1000149c:	602b      	str	r3, [r5, #0]
1000149e:	f38c 8810 	msr	PRIMASK, ip
100014a2:	e7ed      	b.n	10001480 <hardware_alarm_irq_handler+0x7c>
100014a4:	d0000128 	.word	0xd0000128
100014a8:	40054000 	.word	0x40054000
100014ac:	20000a52 	.word	0x20000a52
100014b0:	20000a34 	.word	0x20000a34
100014b4:	2000098c 	.word	0x2000098c
100014b8:	40053fd0 	.word	0x40053fd0

100014bc <hardware_alarm_claim>:
100014bc:	b510      	push	{r4, lr}
100014be:	0001      	movs	r1, r0
100014c0:	4a02      	ldr	r2, [pc, #8]	; (100014cc <hardware_alarm_claim+0x10>)
100014c2:	4803      	ldr	r0, [pc, #12]	; (100014d0 <hardware_alarm_claim+0x14>)
100014c4:	f7ff fd32 	bl	10000f2c <hw_claim_or_assert>
100014c8:	bd10      	pop	{r4, pc}
100014ca:	46c0      	nop			; (mov r8, r8)
100014cc:	10005590 	.word	0x10005590
100014d0:	20000a50 	.word	0x20000a50

100014d4 <time_us_64>:
100014d4:	4b03      	ldr	r3, [pc, #12]	; (100014e4 <time_us_64+0x10>)
100014d6:	6a59      	ldr	r1, [r3, #36]	; 0x24
100014d8:	000a      	movs	r2, r1
100014da:	6a98      	ldr	r0, [r3, #40]	; 0x28
100014dc:	6a59      	ldr	r1, [r3, #36]	; 0x24
100014de:	428a      	cmp	r2, r1
100014e0:	d1fa      	bne.n	100014d8 <time_us_64+0x4>
100014e2:	4770      	bx	lr
100014e4:	40054000 	.word	0x40054000

100014e8 <hardware_alarm_set_callback>:
100014e8:	b570      	push	{r4, r5, r6, lr}
100014ea:	0004      	movs	r4, r0
100014ec:	000d      	movs	r5, r1
100014ee:	f3ef 8610 	mrs	r6, PRIMASK
100014f2:	b672      	cpsid	i
100014f4:	4a1a      	ldr	r2, [pc, #104]	; (10001560 <hardware_alarm_set_callback+0x78>)
100014f6:	6813      	ldr	r3, [r2, #0]
100014f8:	2b00      	cmp	r3, #0
100014fa:	d0fc      	beq.n	100014f6 <hardware_alarm_set_callback+0xe>
100014fc:	f3bf 8f5f 	dmb	sy
10001500:	2d00      	cmp	r5, #0
10001502:	d01b      	beq.n	1000153c <hardware_alarm_set_callback+0x54>
10001504:	0020      	movs	r0, r4
10001506:	f000 fceb 	bl	10001ee0 <irq_get_vtable_handler>
1000150a:	4916      	ldr	r1, [pc, #88]	; (10001564 <hardware_alarm_set_callback+0x7c>)
1000150c:	4281      	cmp	r1, r0
1000150e:	d00a      	beq.n	10001526 <hardware_alarm_set_callback+0x3e>
10001510:	0020      	movs	r0, r4
10001512:	f000 fced 	bl	10001ef0 <irq_set_exclusive_handler>
10001516:	2101      	movs	r1, #1
10001518:	0020      	movs	r0, r4
1000151a:	f000 fccf 	bl	10001ebc <irq_set_enabled>
1000151e:	2301      	movs	r3, #1
10001520:	40a3      	lsls	r3, r4
10001522:	4a11      	ldr	r2, [pc, #68]	; (10001568 <hardware_alarm_set_callback+0x80>)
10001524:	6013      	str	r3, [r2, #0]
10001526:	4b11      	ldr	r3, [pc, #68]	; (1000156c <hardware_alarm_set_callback+0x84>)
10001528:	00a4      	lsls	r4, r4, #2
1000152a:	50e5      	str	r5, [r4, r3]
1000152c:	f3bf 8f5f 	dmb	sy
10001530:	2200      	movs	r2, #0
10001532:	4b0b      	ldr	r3, [pc, #44]	; (10001560 <hardware_alarm_set_callback+0x78>)
10001534:	601a      	str	r2, [r3, #0]
10001536:	f386 8810 	msr	PRIMASK, r6
1000153a:	bd70      	pop	{r4, r5, r6, pc}
1000153c:	4b0b      	ldr	r3, [pc, #44]	; (1000156c <hardware_alarm_set_callback+0x84>)
1000153e:	00a2      	lsls	r2, r4, #2
10001540:	50d5      	str	r5, [r2, r3]
10001542:	2201      	movs	r2, #1
10001544:	40a2      	lsls	r2, r4
10001546:	490a      	ldr	r1, [pc, #40]	; (10001570 <hardware_alarm_set_callback+0x88>)
10001548:	0020      	movs	r0, r4
1000154a:	780b      	ldrb	r3, [r1, #0]
1000154c:	4393      	bics	r3, r2
1000154e:	700b      	strb	r3, [r1, #0]
10001550:	4904      	ldr	r1, [pc, #16]	; (10001564 <hardware_alarm_set_callback+0x7c>)
10001552:	f000 fcf7 	bl	10001f44 <irq_remove_handler>
10001556:	2100      	movs	r1, #0
10001558:	0020      	movs	r0, r4
1000155a:	f000 fcaf 	bl	10001ebc <irq_set_enabled>
1000155e:	e7e5      	b.n	1000152c <hardware_alarm_set_callback+0x44>
10001560:	d0000128 	.word	0xd0000128
10001564:	10001405 	.word	0x10001405
10001568:	40056038 	.word	0x40056038
1000156c:	2000098c 	.word	0x2000098c
10001570:	20000a52 	.word	0x20000a52

10001574 <hardware_alarm_set_target>:
10001574:	b5f0      	push	{r4, r5, r6, r7, lr}
10001576:	464f      	mov	r7, r9
10001578:	46d6      	mov	lr, sl
1000157a:	4646      	mov	r6, r8
1000157c:	b5c0      	push	{r6, r7, lr}
1000157e:	0007      	movs	r7, r0
10001580:	4c30      	ldr	r4, [pc, #192]	; (10001644 <hardware_alarm_set_target+0xd0>)
10001582:	6a61      	ldr	r1, [r4, #36]	; 0x24
10001584:	000d      	movs	r5, r1
10001586:	6aa6      	ldr	r6, [r4, #40]	; 0x28
10001588:	6a61      	ldr	r1, [r4, #36]	; 0x24
1000158a:	42a9      	cmp	r1, r5
1000158c:	d1fa      	bne.n	10001584 <hardware_alarm_set_target+0x10>
1000158e:	428b      	cmp	r3, r1
10001590:	d808      	bhi.n	100015a4 <hardware_alarm_set_target+0x30>
10001592:	d005      	beq.n	100015a0 <hardware_alarm_set_target+0x2c>
10001594:	2001      	movs	r0, #1
10001596:	bc1c      	pop	{r2, r3, r4}
10001598:	4690      	mov	r8, r2
1000159a:	4699      	mov	r9, r3
1000159c:	46a2      	mov	sl, r4
1000159e:	bdf0      	pop	{r4, r5, r6, r7, pc}
100015a0:	42b2      	cmp	r2, r6
100015a2:	d9f7      	bls.n	10001594 <hardware_alarm_set_target+0x20>
100015a4:	f3ef 8910 	mrs	r9, PRIMASK
100015a8:	b672      	cpsid	i
100015aa:	4827      	ldr	r0, [pc, #156]	; (10001648 <hardware_alarm_set_target+0xd4>)
100015ac:	6801      	ldr	r1, [r0, #0]
100015ae:	2900      	cmp	r1, #0
100015b0:	d0fc      	beq.n	100015ac <hardware_alarm_set_target+0x38>
100015b2:	f3bf 8f5f 	dmb	sy
100015b6:	2501      	movs	r5, #1
100015b8:	4924      	ldr	r1, [pc, #144]	; (1000164c <hardware_alarm_set_target+0xd8>)
100015ba:	40bd      	lsls	r5, r7
100015bc:	468c      	mov	ip, r1
100015be:	7809      	ldrb	r1, [r1, #0]
100015c0:	4c20      	ldr	r4, [pc, #128]	; (10001644 <hardware_alarm_set_target+0xd0>)
100015c2:	000e      	movs	r6, r1
100015c4:	432e      	orrs	r6, r5
100015c6:	4688      	mov	r8, r1
100015c8:	b2f1      	uxtb	r1, r6
100015ca:	468a      	mov	sl, r1
100015cc:	4661      	mov	r1, ip
100015ce:	4650      	mov	r0, sl
100015d0:	7008      	strb	r0, [r1, #0]
100015d2:	1d39      	adds	r1, r7, #4
100015d4:	481e      	ldr	r0, [pc, #120]	; (10001650 <hardware_alarm_set_target+0xdc>)
100015d6:	0089      	lsls	r1, r1, #2
100015d8:	6365      	str	r5, [r4, #52]	; 0x34
100015da:	510a      	str	r2, [r1, r4]
100015dc:	00b9      	lsls	r1, r7, #2
100015de:	500b      	str	r3, [r1, r0]
100015e0:	6a21      	ldr	r1, [r4, #32]
100015e2:	2000      	movs	r0, #0
100015e4:	4229      	tst	r1, r5
100015e6:	d019      	beq.n	1000161c <hardware_alarm_set_target+0xa8>
100015e8:	6a61      	ldr	r1, [r4, #36]	; 0x24
100015ea:	0008      	movs	r0, r1
100015ec:	6aa6      	ldr	r6, [r4, #40]	; 0x28
100015ee:	6a61      	ldr	r1, [r4, #36]	; 0x24
100015f0:	4281      	cmp	r1, r0
100015f2:	d1fa      	bne.n	100015ea <hardware_alarm_set_target+0x76>
100015f4:	428b      	cmp	r3, r1
100015f6:	d819      	bhi.n	1000162c <hardware_alarm_set_target+0xb8>
100015f8:	d101      	bne.n	100015fe <hardware_alarm_set_target+0x8a>
100015fa:	42b2      	cmp	r2, r6
100015fc:	d816      	bhi.n	1000162c <hardware_alarm_set_target+0xb8>
100015fe:	45c2      	cmp	sl, r8
10001600:	d01d      	beq.n	1000163e <hardware_alarm_set_target+0xca>
10001602:	4b10      	ldr	r3, [pc, #64]	; (10001644 <hardware_alarm_set_target+0xd0>)
10001604:	201f      	movs	r0, #31
10001606:	621d      	str	r5, [r3, #32]
10001608:	635d      	str	r5, [r3, #52]	; 0x34
1000160a:	2301      	movs	r3, #1
1000160c:	4007      	ands	r7, r0
1000160e:	40bb      	lsls	r3, r7
10001610:	4a10      	ldr	r2, [pc, #64]	; (10001654 <hardware_alarm_set_target+0xe0>)
10001612:	381e      	subs	r0, #30
10001614:	6013      	str	r3, [r2, #0]
10001616:	4663      	mov	r3, ip
10001618:	4642      	mov	r2, r8
1000161a:	701a      	strb	r2, [r3, #0]
1000161c:	f3bf 8f5f 	dmb	sy
10001620:	2200      	movs	r2, #0
10001622:	4b09      	ldr	r3, [pc, #36]	; (10001648 <hardware_alarm_set_target+0xd4>)
10001624:	601a      	str	r2, [r3, #0]
10001626:	f389 8810 	msr	PRIMASK, r9
1000162a:	e7b4      	b.n	10001596 <hardware_alarm_set_target+0x22>
1000162c:	2000      	movs	r0, #0
1000162e:	f3bf 8f5f 	dmb	sy
10001632:	2200      	movs	r2, #0
10001634:	4b04      	ldr	r3, [pc, #16]	; (10001648 <hardware_alarm_set_target+0xd4>)
10001636:	601a      	str	r2, [r3, #0]
10001638:	f389 8810 	msr	PRIMASK, r9
1000163c:	e7ab      	b.n	10001596 <hardware_alarm_set_target+0x22>
1000163e:	2001      	movs	r0, #1
10001640:	e7ec      	b.n	1000161c <hardware_alarm_set_target+0xa8>
10001642:	46c0      	nop			; (mov r8, r8)
10001644:	40054000 	.word	0x40054000
10001648:	d0000128 	.word	0xd0000128
1000164c:	20000a52 	.word	0x20000a52
10001650:	20000a34 	.word	0x20000a34
10001654:	e000e280 	.word	0xe000e280

10001658 <hardware_alarm_cancel>:
10001658:	b510      	push	{r4, lr}
1000165a:	f3ef 8410 	mrs	r4, PRIMASK
1000165e:	b672      	cpsid	i
10001660:	490a      	ldr	r1, [pc, #40]	; (1000168c <hardware_alarm_cancel+0x34>)
10001662:	680b      	ldr	r3, [r1, #0]
10001664:	2b00      	cmp	r3, #0
10001666:	d0fc      	beq.n	10001662 <hardware_alarm_cancel+0xa>
10001668:	f3bf 8f5f 	dmb	sy
1000166c:	2301      	movs	r3, #1
1000166e:	4083      	lsls	r3, r0
10001670:	4a07      	ldr	r2, [pc, #28]	; (10001690 <hardware_alarm_cancel+0x38>)
10001672:	4808      	ldr	r0, [pc, #32]	; (10001694 <hardware_alarm_cancel+0x3c>)
10001674:	6213      	str	r3, [r2, #32]
10001676:	7802      	ldrb	r2, [r0, #0]
10001678:	439a      	bics	r2, r3
1000167a:	7002      	strb	r2, [r0, #0]
1000167c:	f3bf 8f5f 	dmb	sy
10001680:	2300      	movs	r3, #0
10001682:	600b      	str	r3, [r1, #0]
10001684:	f384 8810 	msr	PRIMASK, r4
10001688:	bd10      	pop	{r4, pc}
1000168a:	46c0      	nop			; (mov r8, r8)
1000168c:	d0000128 	.word	0xd0000128
10001690:	40054000 	.word	0x40054000
10001694:	20000a52 	.word	0x20000a52

10001698 <lock_init>:
10001698:	4b02      	ldr	r3, [pc, #8]	; (100016a4 <lock_init+0xc>)
1000169a:	469c      	mov	ip, r3
1000169c:	4461      	add	r1, ip
1000169e:	0089      	lsls	r1, r1, #2
100016a0:	6001      	str	r1, [r0, #0]
100016a2:	4770      	bx	lr
100016a4:	34000040 	.word	0x34000040

100016a8 <mutex_init>:
100016a8:	b510      	push	{r4, lr}
100016aa:	0004      	movs	r4, r0
100016ac:	f7ff fc78 	bl	10000fa0 <next_striped_spin_lock_num>
100016b0:	0001      	movs	r1, r0
100016b2:	0020      	movs	r0, r4
100016b4:	f7ff fff0 	bl	10001698 <lock_init>
100016b8:	23ff      	movs	r3, #255	; 0xff
100016ba:	7123      	strb	r3, [r4, #4]
100016bc:	f3bf 8f5f 	dmb	sy
100016c0:	bd10      	pop	{r4, pc}
100016c2:	46c0      	nop			; (mov r8, r8)

100016c4 <recursive_mutex_init>:
100016c4:	b510      	push	{r4, lr}
100016c6:	0004      	movs	r4, r0
100016c8:	f7ff fc6a 	bl	10000fa0 <next_striped_spin_lock_num>
100016cc:	0001      	movs	r1, r0
100016ce:	0020      	movs	r0, r4
100016d0:	f7ff ffe2 	bl	10001698 <lock_init>
100016d4:	23ff      	movs	r3, #255	; 0xff
100016d6:	80a3      	strh	r3, [r4, #4]
100016d8:	f3bf 8f5f 	dmb	sy
100016dc:	bd10      	pop	{r4, pc}
100016de:	46c0      	nop			; (mov r8, r8)

100016e0 <ph_merge_nodes>:
100016e0:	b570      	push	{r4, r5, r6, lr}
100016e2:	0005      	movs	r5, r0
100016e4:	000e      	movs	r6, r1
100016e6:	0014      	movs	r4, r2
100016e8:	2900      	cmp	r1, #0
100016ea:	d024      	beq.n	10001736 <ph_merge_nodes+0x56>
100016ec:	2a00      	cmp	r2, #0
100016ee:	d024      	beq.n	1000173a <ph_merge_nodes+0x5a>
100016f0:	6880      	ldr	r0, [r0, #8]
100016f2:	686b      	ldr	r3, [r5, #4]
100016f4:	4798      	blx	r3
100016f6:	6829      	ldr	r1, [r5, #0]
100016f8:	2800      	cmp	r0, #0
100016fa:	d00e      	beq.n	1000171a <ph_merge_nodes+0x3a>
100016fc:	0063      	lsls	r3, r4, #1
100016fe:	191b      	adds	r3, r3, r4
10001700:	0072      	lsls	r2, r6, #1
10001702:	3b03      	subs	r3, #3
10001704:	1992      	adds	r2, r2, r6
10001706:	18cb      	adds	r3, r1, r3
10001708:	3a03      	subs	r2, #3
1000170a:	709e      	strb	r6, [r3, #2]
1000170c:	1888      	adds	r0, r1, r2
1000170e:	5c8a      	ldrb	r2, [r1, r2]
10001710:	2a00      	cmp	r2, #0
10001712:	d114      	bne.n	1000173e <ph_merge_nodes+0x5e>
10001714:	7004      	strb	r4, [r0, #0]
10001716:	0030      	movs	r0, r6
10001718:	e00e      	b.n	10001738 <ph_merge_nodes+0x58>
1000171a:	0073      	lsls	r3, r6, #1
1000171c:	199b      	adds	r3, r3, r6
1000171e:	0062      	lsls	r2, r4, #1
10001720:	3b03      	subs	r3, #3
10001722:	1912      	adds	r2, r2, r4
10001724:	18cb      	adds	r3, r1, r3
10001726:	3a03      	subs	r2, #3
10001728:	709c      	strb	r4, [r3, #2]
1000172a:	1888      	adds	r0, r1, r2
1000172c:	5c8a      	ldrb	r2, [r1, r2]
1000172e:	2a00      	cmp	r2, #0
10001730:	d000      	beq.n	10001734 <ph_merge_nodes+0x54>
10001732:	705a      	strb	r2, [r3, #1]
10001734:	7006      	strb	r6, [r0, #0]
10001736:	0020      	movs	r0, r4
10001738:	bd70      	pop	{r4, r5, r6, pc}
1000173a:	0008      	movs	r0, r1
1000173c:	e7fc      	b.n	10001738 <ph_merge_nodes+0x58>
1000173e:	705a      	strb	r2, [r3, #1]
10001740:	7004      	strb	r4, [r0, #0]
10001742:	0030      	movs	r0, r6
10001744:	e7f8      	b.n	10001738 <ph_merge_nodes+0x58>
10001746:	46c0      	nop			; (mov r8, r8)

10001748 <ph_post_alloc_init>:
10001748:	b530      	push	{r4, r5, lr}
1000174a:	6083      	str	r3, [r0, #8]
1000174c:	2300      	movs	r3, #0
1000174e:	b2cc      	uxtb	r4, r1
10001750:	7343      	strb	r3, [r0, #13]
10001752:	3301      	adds	r3, #1
10001754:	7304      	strb	r4, [r0, #12]
10001756:	6042      	str	r2, [r0, #4]
10001758:	7383      	strb	r3, [r0, #14]
1000175a:	73c4      	strb	r4, [r0, #15]
1000175c:	000d      	movs	r5, r1
1000175e:	6800      	ldr	r0, [r0, #0]
10001760:	2c01      	cmp	r4, #1
10001762:	d906      	bls.n	10001772 <ph_post_alloc_init+0x2a>
10001764:	1c42      	adds	r2, r0, #1
10001766:	3301      	adds	r3, #1
10001768:	b2db      	uxtb	r3, r3
1000176a:	7013      	strb	r3, [r2, #0]
1000176c:	3203      	adds	r2, #3
1000176e:	429c      	cmp	r4, r3
10001770:	d1f9      	bne.n	10001766 <ph_post_alloc_init+0x1e>
10001772:	21ff      	movs	r1, #255	; 0xff
10001774:	4029      	ands	r1, r5
10001776:	004b      	lsls	r3, r1, #1
10001778:	1859      	adds	r1, r3, r1
1000177a:	2300      	movs	r3, #0
1000177c:	1840      	adds	r0, r0, r1
1000177e:	3803      	subs	r0, #3
10001780:	7043      	strb	r3, [r0, #1]
10001782:	bd30      	pop	{r4, r5, pc}

10001784 <ph_merge_two_pass>:
10001784:	b5f8      	push	{r3, r4, r5, r6, r7, lr}
10001786:	46ce      	mov	lr, r9
10001788:	4647      	mov	r7, r8
1000178a:	0006      	movs	r6, r0
1000178c:	000c      	movs	r4, r1
1000178e:	b580      	push	{r7, lr}
10001790:	2900      	cmp	r1, #0
10001792:	d007      	beq.n	100017a4 <ph_merge_two_pass+0x20>
10001794:	004d      	lsls	r5, r1, #1
10001796:	6803      	ldr	r3, [r0, #0]
10001798:	186d      	adds	r5, r5, r1
1000179a:	3d03      	subs	r5, #3
1000179c:	195a      	adds	r2, r3, r5
1000179e:	7857      	ldrb	r7, [r2, #1]
100017a0:	2f00      	cmp	r7, #0
100017a2:	d104      	bne.n	100017ae <ph_merge_two_pass+0x2a>
100017a4:	0020      	movs	r0, r4
100017a6:	bc0c      	pop	{r2, r3}
100017a8:	4690      	mov	r8, r2
100017aa:	4699      	mov	r9, r3
100017ac:	bdf8      	pop	{r3, r4, r5, r6, r7, pc}
100017ae:	0079      	lsls	r1, r7, #1
100017b0:	19c9      	adds	r1, r1, r7
100017b2:	3903      	subs	r1, #3
100017b4:	4688      	mov	r8, r1
100017b6:	4443      	add	r3, r8
100017b8:	7859      	ldrb	r1, [r3, #1]
100017ba:	4689      	mov	r9, r1
100017bc:	2100      	movs	r1, #0
100017be:	7059      	strb	r1, [r3, #1]
100017c0:	7051      	strb	r1, [r2, #1]
100017c2:	6873      	ldr	r3, [r6, #4]
100017c4:	003a      	movs	r2, r7
100017c6:	0021      	movs	r1, r4
100017c8:	6880      	ldr	r0, [r0, #8]
100017ca:	4798      	blx	r3
100017cc:	6833      	ldr	r3, [r6, #0]
100017ce:	2800      	cmp	r0, #0
100017d0:	d014      	beq.n	100017fc <ph_merge_two_pass+0x78>
100017d2:	4642      	mov	r2, r8
100017d4:	189a      	adds	r2, r3, r2
100017d6:	7094      	strb	r4, [r2, #2]
100017d8:	1959      	adds	r1, r3, r5
100017da:	5d5b      	ldrb	r3, [r3, r5]
100017dc:	2b00      	cmp	r3, #0
100017de:	d000      	beq.n	100017e2 <ph_merge_two_pass+0x5e>
100017e0:	7053      	strb	r3, [r2, #1]
100017e2:	700f      	strb	r7, [r1, #0]
100017e4:	0027      	movs	r7, r4
100017e6:	4649      	mov	r1, r9
100017e8:	0030      	movs	r0, r6
100017ea:	f7ff ffcb 	bl	10001784 <ph_merge_two_pass>
100017ee:	0039      	movs	r1, r7
100017f0:	0002      	movs	r2, r0
100017f2:	0030      	movs	r0, r6
100017f4:	f7ff ff74 	bl	100016e0 <ph_merge_nodes>
100017f8:	0004      	movs	r4, r0
100017fa:	e7d3      	b.n	100017a4 <ph_merge_two_pass+0x20>
100017fc:	4642      	mov	r2, r8
100017fe:	4641      	mov	r1, r8
10001800:	195d      	adds	r5, r3, r5
10001802:	70af      	strb	r7, [r5, #2]
10001804:	189a      	adds	r2, r3, r2
10001806:	5c5b      	ldrb	r3, [r3, r1]
10001808:	2b00      	cmp	r3, #0
1000180a:	d000      	beq.n	1000180e <ph_merge_two_pass+0x8a>
1000180c:	706b      	strb	r3, [r5, #1]
1000180e:	7014      	strb	r4, [r2, #0]
10001810:	e7e9      	b.n	100017e6 <ph_merge_two_pass+0x62>
10001812:	46c0      	nop			; (mov r8, r8)

10001814 <ph_remove_any_head>:
10001814:	b5f0      	push	{r4, r5, r6, r7, lr}
10001816:	4657      	mov	r7, sl
10001818:	4645      	mov	r5, r8
1000181a:	46de      	mov	lr, fp
1000181c:	464e      	mov	r6, r9
1000181e:	b5e0      	push	{r5, r6, r7, lr}
10001820:	000d      	movs	r5, r1
10001822:	006b      	lsls	r3, r5, #1
10001824:	6801      	ldr	r1, [r0, #0]
10001826:	195b      	adds	r3, r3, r5
10001828:	1edf      	subs	r7, r3, #3
1000182a:	0004      	movs	r4, r0
1000182c:	5dc8      	ldrb	r0, [r1, r7]
1000182e:	b083      	sub	sp, #12
10001830:	9201      	str	r2, [sp, #4]
10001832:	19ca      	adds	r2, r1, r7
10001834:	2800      	cmp	r0, #0
10001836:	d04c      	beq.n	100018d2 <ph_remove_any_head+0xbe>
10001838:	0043      	lsls	r3, r0, #1
1000183a:	181b      	adds	r3, r3, r0
1000183c:	3b03      	subs	r3, #3
1000183e:	18cb      	adds	r3, r1, r3
10001840:	785e      	ldrb	r6, [r3, #1]
10001842:	46b4      	mov	ip, r6
10001844:	2e00      	cmp	r6, #0
10001846:	d116      	bne.n	10001876 <ph_remove_any_head+0x62>
10001848:	9e01      	ldr	r6, [sp, #4]
1000184a:	2e00      	cmp	r6, #0
1000184c:	d03e      	beq.n	100018cc <ph_remove_any_head+0xb8>
1000184e:	7be6      	ldrb	r6, [r4, #15]
10001850:	2e00      	cmp	r6, #0
10001852:	d004      	beq.n	1000185e <ph_remove_any_head+0x4a>
10001854:	0073      	lsls	r3, r6, #1
10001856:	199b      	adds	r3, r3, r6
10001858:	18cb      	adds	r3, r1, r3
1000185a:	3b03      	subs	r3, #3
1000185c:	705d      	strb	r5, [r3, #1]
1000185e:	73e5      	strb	r5, [r4, #15]
10001860:	2800      	cmp	r0, #0
10001862:	d12f      	bne.n	100018c4 <ph_remove_any_head+0xb0>
10001864:	2300      	movs	r3, #0
10001866:	7053      	strb	r3, [r2, #1]
10001868:	b003      	add	sp, #12
1000186a:	bc3c      	pop	{r2, r3, r4, r5}
1000186c:	4690      	mov	r8, r2
1000186e:	4699      	mov	r9, r3
10001870:	46a2      	mov	sl, r4
10001872:	46ab      	mov	fp, r5
10001874:	bdf0      	pop	{r4, r5, r6, r7, pc}
10001876:	0072      	lsls	r2, r6, #1
10001878:	4462      	add	r2, ip
1000187a:	3a03      	subs	r2, #3
1000187c:	1889      	adds	r1, r1, r2
1000187e:	784a      	ldrb	r2, [r1, #1]
10001880:	4690      	mov	r8, r2
10001882:	2200      	movs	r2, #0
10001884:	704a      	strb	r2, [r1, #1]
10001886:	4691      	mov	r9, r2
10001888:	705a      	strb	r2, [r3, #1]
1000188a:	0001      	movs	r1, r0
1000188c:	0032      	movs	r2, r6
1000188e:	0020      	movs	r0, r4
10001890:	f7ff ff26 	bl	100016e0 <ph_merge_nodes>
10001894:	4643      	mov	r3, r8
10001896:	4682      	mov	sl, r0
10001898:	2b00      	cmp	r3, #0
1000189a:	d007      	beq.n	100018ac <ph_remove_any_head+0x98>
1000189c:	005b      	lsls	r3, r3, #1
1000189e:	6821      	ldr	r1, [r4, #0]
100018a0:	4443      	add	r3, r8
100018a2:	3b03      	subs	r3, #3
100018a4:	18cb      	adds	r3, r1, r3
100018a6:	785a      	ldrb	r2, [r3, #1]
100018a8:	2a00      	cmp	r2, #0
100018aa:	d116      	bne.n	100018da <ph_remove_any_head+0xc6>
100018ac:	4642      	mov	r2, r8
100018ae:	4651      	mov	r1, sl
100018b0:	0020      	movs	r0, r4
100018b2:	f7ff ff15 	bl	100016e0 <ph_merge_nodes>
100018b6:	6821      	ldr	r1, [r4, #0]
100018b8:	9b01      	ldr	r3, [sp, #4]
100018ba:	19ca      	adds	r2, r1, r7
100018bc:	2b00      	cmp	r3, #0
100018be:	d1c6      	bne.n	1000184e <ph_remove_any_head+0x3a>
100018c0:	2800      	cmp	r0, #0
100018c2:	d0cf      	beq.n	10001864 <ph_remove_any_head+0x50>
100018c4:	0043      	lsls	r3, r0, #1
100018c6:	181b      	adds	r3, r3, r0
100018c8:	3b03      	subs	r3, #3
100018ca:	18cb      	adds	r3, r1, r3
100018cc:	2100      	movs	r1, #0
100018ce:	7099      	strb	r1, [r3, #2]
100018d0:	e7c8      	b.n	10001864 <ph_remove_any_head+0x50>
100018d2:	9b01      	ldr	r3, [sp, #4]
100018d4:	2b00      	cmp	r3, #0
100018d6:	d1ba      	bne.n	1000184e <ph_remove_any_head+0x3a>
100018d8:	e7c4      	b.n	10001864 <ph_remove_any_head+0x50>
100018da:	0050      	lsls	r0, r2, #1
100018dc:	1880      	adds	r0, r0, r2
100018de:	3803      	subs	r0, #3
100018e0:	1809      	adds	r1, r1, r0
100018e2:	7848      	ldrb	r0, [r1, #1]
100018e4:	4683      	mov	fp, r0
100018e6:	4648      	mov	r0, r9
100018e8:	7048      	strb	r0, [r1, #1]
100018ea:	7058      	strb	r0, [r3, #1]
100018ec:	4641      	mov	r1, r8
100018ee:	0020      	movs	r0, r4
100018f0:	f7ff fef6 	bl	100016e0 <ph_merge_nodes>
100018f4:	4659      	mov	r1, fp
100018f6:	4680      	mov	r8, r0
100018f8:	0020      	movs	r0, r4
100018fa:	f7ff ff43 	bl	10001784 <ph_merge_two_pass>
100018fe:	4641      	mov	r1, r8
10001900:	0002      	movs	r2, r0
10001902:	0020      	movs	r0, r4
10001904:	f7ff feec 	bl	100016e0 <ph_merge_nodes>
10001908:	4680      	mov	r8, r0
1000190a:	e7cf      	b.n	100018ac <ph_remove_any_head+0x98>

1000190c <ph_remove_head>:
1000190c:	b5f0      	push	{r4, r5, r6, r7, lr}
1000190e:	464e      	mov	r6, r9
10001910:	4645      	mov	r5, r8
10001912:	46de      	mov	lr, fp
10001914:	4657      	mov	r7, sl
10001916:	b5e0      	push	{r5, r6, r7, lr}
10001918:	7b46      	ldrb	r6, [r0, #13]
1000191a:	0004      	movs	r4, r0
1000191c:	0075      	lsls	r5, r6, #1
1000191e:	6800      	ldr	r0, [r0, #0]
10001920:	19ad      	adds	r5, r5, r6
10001922:	3d03      	subs	r5, #3
10001924:	b083      	sub	sp, #12
10001926:	9101      	str	r1, [sp, #4]
10001928:	5d41      	ldrb	r1, [r0, r5]
1000192a:	1942      	adds	r2, r0, r5
1000192c:	2900      	cmp	r1, #0
1000192e:	d04e      	beq.n	100019ce <ph_remove_head+0xc2>
10001930:	004b      	lsls	r3, r1, #1
10001932:	185b      	adds	r3, r3, r1
10001934:	3b03      	subs	r3, #3
10001936:	18c3      	adds	r3, r0, r3
10001938:	785f      	ldrb	r7, [r3, #1]
1000193a:	46bc      	mov	ip, r7
1000193c:	2f00      	cmp	r7, #0
1000193e:	d118      	bne.n	10001972 <ph_remove_head+0x66>
10001940:	9d01      	ldr	r5, [sp, #4]
10001942:	2d00      	cmp	r5, #0
10001944:	d040      	beq.n	100019c8 <ph_remove_head+0xbc>
10001946:	7be5      	ldrb	r5, [r4, #15]
10001948:	2d00      	cmp	r5, #0
1000194a:	d004      	beq.n	10001956 <ph_remove_head+0x4a>
1000194c:	006b      	lsls	r3, r5, #1
1000194e:	195b      	adds	r3, r3, r5
10001950:	18c3      	adds	r3, r0, r3
10001952:	3b03      	subs	r3, #3
10001954:	705e      	strb	r6, [r3, #1]
10001956:	73e6      	strb	r6, [r4, #15]
10001958:	2900      	cmp	r1, #0
1000195a:	d131      	bne.n	100019c0 <ph_remove_head+0xb4>
1000195c:	2300      	movs	r3, #0
1000195e:	0030      	movs	r0, r6
10001960:	7053      	strb	r3, [r2, #1]
10001962:	7361      	strb	r1, [r4, #13]
10001964:	b003      	add	sp, #12
10001966:	bc3c      	pop	{r2, r3, r4, r5}
10001968:	4690      	mov	r8, r2
1000196a:	4699      	mov	r9, r3
1000196c:	46a2      	mov	sl, r4
1000196e:	46ab      	mov	fp, r5
10001970:	bdf0      	pop	{r4, r5, r6, r7, pc}
10001972:	007a      	lsls	r2, r7, #1
10001974:	4462      	add	r2, ip
10001976:	3a03      	subs	r2, #3
10001978:	1880      	adds	r0, r0, r2
1000197a:	7842      	ldrb	r2, [r0, #1]
1000197c:	4693      	mov	fp, r2
1000197e:	2200      	movs	r2, #0
10001980:	7042      	strb	r2, [r0, #1]
10001982:	4691      	mov	r9, r2
10001984:	705a      	strb	r2, [r3, #1]
10001986:	0020      	movs	r0, r4
10001988:	003a      	movs	r2, r7
1000198a:	f7ff fea9 	bl	100016e0 <ph_merge_nodes>
1000198e:	465b      	mov	r3, fp
10001990:	4680      	mov	r8, r0
10001992:	2b00      	cmp	r3, #0
10001994:	d007      	beq.n	100019a6 <ph_remove_head+0x9a>
10001996:	005b      	lsls	r3, r3, #1
10001998:	6821      	ldr	r1, [r4, #0]
1000199a:	445b      	add	r3, fp
1000199c:	3b03      	subs	r3, #3
1000199e:	18cb      	adds	r3, r1, r3
100019a0:	785a      	ldrb	r2, [r3, #1]
100019a2:	2a00      	cmp	r2, #0
100019a4:	d117      	bne.n	100019d6 <ph_remove_head+0xca>
100019a6:	465a      	mov	r2, fp
100019a8:	4641      	mov	r1, r8
100019aa:	0020      	movs	r0, r4
100019ac:	f7ff fe98 	bl	100016e0 <ph_merge_nodes>
100019b0:	9b01      	ldr	r3, [sp, #4]
100019b2:	0001      	movs	r1, r0
100019b4:	6820      	ldr	r0, [r4, #0]
100019b6:	1942      	adds	r2, r0, r5
100019b8:	2b00      	cmp	r3, #0
100019ba:	d1c4      	bne.n	10001946 <ph_remove_head+0x3a>
100019bc:	2900      	cmp	r1, #0
100019be:	d0cd      	beq.n	1000195c <ph_remove_head+0x50>
100019c0:	004b      	lsls	r3, r1, #1
100019c2:	185b      	adds	r3, r3, r1
100019c4:	3b03      	subs	r3, #3
100019c6:	18c3      	adds	r3, r0, r3
100019c8:	2000      	movs	r0, #0
100019ca:	7098      	strb	r0, [r3, #2]
100019cc:	e7c6      	b.n	1000195c <ph_remove_head+0x50>
100019ce:	9b01      	ldr	r3, [sp, #4]
100019d0:	2b00      	cmp	r3, #0
100019d2:	d1b8      	bne.n	10001946 <ph_remove_head+0x3a>
100019d4:	e7c2      	b.n	1000195c <ph_remove_head+0x50>
100019d6:	0050      	lsls	r0, r2, #1
100019d8:	1880      	adds	r0, r0, r2
100019da:	3803      	subs	r0, #3
100019dc:	1809      	adds	r1, r1, r0
100019de:	7848      	ldrb	r0, [r1, #1]
100019e0:	4682      	mov	sl, r0
100019e2:	4648      	mov	r0, r9
100019e4:	7048      	strb	r0, [r1, #1]
100019e6:	7058      	strb	r0, [r3, #1]
100019e8:	4659      	mov	r1, fp
100019ea:	0020      	movs	r0, r4
100019ec:	f7ff fe78 	bl	100016e0 <ph_merge_nodes>
100019f0:	4653      	mov	r3, sl
100019f2:	4683      	mov	fp, r0
100019f4:	2b00      	cmp	r3, #0
100019f6:	d007      	beq.n	10001a08 <ph_remove_head+0xfc>
100019f8:	005b      	lsls	r3, r3, #1
100019fa:	6821      	ldr	r1, [r4, #0]
100019fc:	4453      	add	r3, sl
100019fe:	3b03      	subs	r3, #3
10001a00:	18cb      	adds	r3, r1, r3
10001a02:	785a      	ldrb	r2, [r3, #1]
10001a04:	2a00      	cmp	r2, #0
10001a06:	d106      	bne.n	10001a16 <ph_remove_head+0x10a>
10001a08:	4659      	mov	r1, fp
10001a0a:	4652      	mov	r2, sl
10001a0c:	0020      	movs	r0, r4
10001a0e:	f7ff fe67 	bl	100016e0 <ph_merge_nodes>
10001a12:	4683      	mov	fp, r0
10001a14:	e7c7      	b.n	100019a6 <ph_remove_head+0x9a>
10001a16:	0050      	lsls	r0, r2, #1
10001a18:	1880      	adds	r0, r0, r2
10001a1a:	3803      	subs	r0, #3
10001a1c:	1809      	adds	r1, r1, r0
10001a1e:	4648      	mov	r0, r9
10001a20:	784f      	ldrb	r7, [r1, #1]
10001a22:	7048      	strb	r0, [r1, #1]
10001a24:	7058      	strb	r0, [r3, #1]
10001a26:	4651      	mov	r1, sl
10001a28:	0020      	movs	r0, r4
10001a2a:	f7ff fe59 	bl	100016e0 <ph_merge_nodes>
10001a2e:	0039      	movs	r1, r7
10001a30:	4681      	mov	r9, r0
10001a32:	0020      	movs	r0, r4
10001a34:	f7ff fea6 	bl	10001784 <ph_merge_two_pass>
10001a38:	4649      	mov	r1, r9
10001a3a:	0002      	movs	r2, r0
10001a3c:	0020      	movs	r0, r4
10001a3e:	f7ff fe4f 	bl	100016e0 <ph_merge_nodes>
10001a42:	4682      	mov	sl, r0
10001a44:	e7e0      	b.n	10001a08 <ph_remove_head+0xfc>
10001a46:	46c0      	nop			; (mov r8, r8)

10001a48 <ph_remove_and_free_node>:
10001a48:	b570      	push	{r4, r5, r6, lr}
10001a4a:	0004      	movs	r4, r0
10001a4c:	2900      	cmp	r1, #0
10001a4e:	d02c      	beq.n	10001aaa <ph_remove_and_free_node+0x62>
10001a50:	7b43      	ldrb	r3, [r0, #13]
10001a52:	428b      	cmp	r3, r1
10001a54:	d02e      	beq.n	10001ab4 <ph_remove_and_free_node+0x6c>
10001a56:	6805      	ldr	r5, [r0, #0]
10001a58:	0048      	lsls	r0, r1, #1
10001a5a:	1840      	adds	r0, r0, r1
10001a5c:	3803      	subs	r0, #3
10001a5e:	1828      	adds	r0, r5, r0
10001a60:	7882      	ldrb	r2, [r0, #2]
10001a62:	2a00      	cmp	r2, #0
10001a64:	d021      	beq.n	10001aaa <ph_remove_and_free_node+0x62>
10001a66:	0053      	lsls	r3, r2, #1
10001a68:	189b      	adds	r3, r3, r2
10001a6a:	3b03      	subs	r3, #3
10001a6c:	5cea      	ldrb	r2, [r5, r3]
10001a6e:	18ee      	adds	r6, r5, r3
10001a70:	428a      	cmp	r2, r1
10001a72:	d102      	bne.n	10001a7a <ph_remove_and_free_node+0x32>
10001a74:	e01b      	b.n	10001aae <ph_remove_and_free_node+0x66>
10001a76:	2a00      	cmp	r2, #0
10001a78:	d008      	beq.n	10001a8c <ph_remove_and_free_node+0x44>
10001a7a:	0053      	lsls	r3, r2, #1
10001a7c:	189b      	adds	r3, r3, r2
10001a7e:	3b03      	subs	r3, #3
10001a80:	18eb      	adds	r3, r5, r3
10001a82:	785a      	ldrb	r2, [r3, #1]
10001a84:	428a      	cmp	r2, r1
10001a86:	d1f6      	bne.n	10001a76 <ph_remove_and_free_node+0x2e>
10001a88:	7842      	ldrb	r2, [r0, #1]
10001a8a:	705a      	strb	r2, [r3, #1]
10001a8c:	2300      	movs	r3, #0
10001a8e:	2201      	movs	r2, #1
10001a90:	7083      	strb	r3, [r0, #2]
10001a92:	7043      	strb	r3, [r0, #1]
10001a94:	0020      	movs	r0, r4
10001a96:	f7ff febd 	bl	10001814 <ph_remove_any_head>
10001a9a:	7b61      	ldrb	r1, [r4, #13]
10001a9c:	0002      	movs	r2, r0
10001a9e:	0020      	movs	r0, r4
10001aa0:	f7ff fe1e 	bl	100016e0 <ph_merge_nodes>
10001aa4:	7360      	strb	r0, [r4, #13]
10001aa6:	2001      	movs	r0, #1
10001aa8:	e000      	b.n	10001aac <ph_remove_and_free_node+0x64>
10001aaa:	2000      	movs	r0, #0
10001aac:	bd70      	pop	{r4, r5, r6, pc}
10001aae:	7843      	ldrb	r3, [r0, #1]
10001ab0:	7033      	strb	r3, [r6, #0]
10001ab2:	e7eb      	b.n	10001a8c <ph_remove_and_free_node+0x44>
10001ab4:	2201      	movs	r2, #1
10001ab6:	0019      	movs	r1, r3
10001ab8:	f7ff feac 	bl	10001814 <ph_remove_any_head>
10001abc:	7360      	strb	r0, [r4, #13]
10001abe:	2001      	movs	r0, #1
10001ac0:	e7f4      	b.n	10001aac <ph_remove_and_free_node+0x64>
10001ac2:	46c0      	nop			; (mov r8, r8)

10001ac4 <runtime_init>:
10001ac4:	4b2c      	ldr	r3, [pc, #176]	; (10001b78 <runtime_init+0xb4>)
10001ac6:	4a2d      	ldr	r2, [pc, #180]	; (10001b7c <runtime_init+0xb8>)
10001ac8:	b570      	push	{r4, r5, r6, lr}
10001aca:	601a      	str	r2, [r3, #0]
10001acc:	4a2c      	ldr	r2, [pc, #176]	; (10001b80 <runtime_init+0xbc>)
10001ace:	4b2d      	ldr	r3, [pc, #180]	; (10001b84 <runtime_init+0xc0>)
10001ad0:	492d      	ldr	r1, [pc, #180]	; (10001b88 <runtime_init+0xc4>)
10001ad2:	601a      	str	r2, [r3, #0]
10001ad4:	0010      	movs	r0, r2
10001ad6:	688b      	ldr	r3, [r1, #8]
10001ad8:	4398      	bics	r0, r3
10001ada:	d1fb      	bne.n	10001ad4 <runtime_init+0x10>
10001adc:	4c2b      	ldr	r4, [pc, #172]	; (10001b8c <runtime_init+0xc8>)
10001ade:	4b2c      	ldr	r3, [pc, #176]	; (10001b90 <runtime_init+0xcc>)
10001ae0:	429c      	cmp	r4, r3
10001ae2:	d209      	bcs.n	10001af8 <runtime_init+0x34>
10001ae4:	3b01      	subs	r3, #1
10001ae6:	1b1d      	subs	r5, r3, r4
10001ae8:	08ad      	lsrs	r5, r5, #2
10001aea:	3501      	adds	r5, #1
10001aec:	00ad      	lsls	r5, r5, #2
10001aee:	192d      	adds	r5, r5, r4
10001af0:	cc08      	ldmia	r4!, {r3}
10001af2:	4798      	blx	r3
10001af4:	42ac      	cmp	r4, r5
10001af6:	d1fb      	bne.n	10001af0 <runtime_init+0x2c>
10001af8:	f000 f87c 	bl	10001bf4 <clocks_init>
10001afc:	4a25      	ldr	r2, [pc, #148]	; (10001b94 <runtime_init+0xd0>)
10001afe:	4b21      	ldr	r3, [pc, #132]	; (10001b84 <runtime_init+0xc0>)
10001b00:	601a      	str	r2, [r3, #0]
10001b02:	4a21      	ldr	r2, [pc, #132]	; (10001b88 <runtime_init+0xc4>)
10001b04:	6893      	ldr	r3, [r2, #8]
10001b06:	01db      	lsls	r3, r3, #7
10001b08:	3380      	adds	r3, #128	; 0x80
10001b0a:	d1fb      	bne.n	10001b04 <runtime_init+0x40>
10001b0c:	2240      	movs	r2, #64	; 0x40
10001b0e:	4b22      	ldr	r3, [pc, #136]	; (10001b98 <runtime_init+0xd4>)
10001b10:	4c22      	ldr	r4, [pc, #136]	; (10001b9c <runtime_init+0xd8>)
10001b12:	4d23      	ldr	r5, [pc, #140]	; (10001ba0 <runtime_init+0xdc>)
10001b14:	679a      	str	r2, [r3, #120]	; 0x78
10001b16:	675a      	str	r2, [r3, #116]	; 0x74
10001b18:	671a      	str	r2, [r3, #112]	; 0x70
10001b1a:	66da      	str	r2, [r3, #108]	; 0x6c
10001b1c:	42ac      	cmp	r4, r5
10001b1e:	d208      	bcs.n	10001b32 <runtime_init+0x6e>
10001b20:	6823      	ldr	r3, [r4, #0]
10001b22:	0020      	movs	r0, r4
10001b24:	2b00      	cmp	r3, #0
10001b26:	d021      	beq.n	10001b6c <runtime_init+0xa8>
10001b28:	3408      	adds	r4, #8
10001b2a:	f7ff fdcb 	bl	100016c4 <recursive_mutex_init>
10001b2e:	42ac      	cmp	r4, r5
10001b30:	d3f6      	bcc.n	10001b20 <runtime_init+0x5c>
10001b32:	4c1c      	ldr	r4, [pc, #112]	; (10001ba4 <runtime_init+0xe0>)
10001b34:	4d1c      	ldr	r5, [pc, #112]	; (10001ba8 <runtime_init+0xe4>)
10001b36:	68a1      	ldr	r1, [r4, #8]
10001b38:	22c0      	movs	r2, #192	; 0xc0
10001b3a:	0028      	movs	r0, r5
10001b3c:	f002 fee8 	bl	10004910 <__wrap___aeabi_memcpy>
10001b40:	60a5      	str	r5, [r4, #8]
10001b42:	f7ff fa1f 	bl	10000f84 <spin_locks_reset>
10001b46:	f000 fb35 	bl	100021b4 <irq_init_priorities>
10001b4a:	f7ff fc29 	bl	100013a0 <alarm_pool_init_default>
10001b4e:	4c17      	ldr	r4, [pc, #92]	; (10001bac <runtime_init+0xe8>)
10001b50:	4b17      	ldr	r3, [pc, #92]	; (10001bb0 <runtime_init+0xec>)
10001b52:	429c      	cmp	r4, r3
10001b54:	d209      	bcs.n	10001b6a <runtime_init+0xa6>
10001b56:	3b01      	subs	r3, #1
10001b58:	1b1d      	subs	r5, r3, r4
10001b5a:	08ad      	lsrs	r5, r5, #2
10001b5c:	3501      	adds	r5, #1
10001b5e:	00ad      	lsls	r5, r5, #2
10001b60:	192d      	adds	r5, r5, r4
10001b62:	cc08      	ldmia	r4!, {r3}
10001b64:	4798      	blx	r3
10001b66:	42a5      	cmp	r5, r4
10001b68:	d1fb      	bne.n	10001b62 <runtime_init+0x9e>
10001b6a:	bd70      	pop	{r4, r5, r6, pc}
10001b6c:	3408      	adds	r4, #8
10001b6e:	f7ff fd9b 	bl	100016a8 <mutex_init>
10001b72:	42ac      	cmp	r4, r5
10001b74:	d3d4      	bcc.n	10001b20 <runtime_init+0x5c>
10001b76:	e7dc      	b.n	10001b32 <runtime_init+0x6e>
10001b78:	4000e000 	.word	0x4000e000
10001b7c:	fefbcdbf 	.word	0xfefbcdbf
10001b80:	003c7ffe 	.word	0x003c7ffe
10001b84:	4000f000 	.word	0x4000f000
10001b88:	4000c000 	.word	0x4000c000
10001b8c:	20000850 	.word	0x20000850
10001b90:	20000860 	.word	0x20000860
10001b94:	01ffffff 	.word	0x01ffffff
10001b98:	4001f000 	.word	0x4001f000
10001b9c:	20000848 	.word	0x20000848
10001ba0:	20000850 	.word	0x20000850
10001ba4:	e000ed00 	.word	0xe000ed00
10001ba8:	20000000 	.word	0x20000000
10001bac:	20000860 	.word	0x20000860
10001bb0:	20000864 	.word	0x20000864

10001bb4 <exit>:
10001bb4:	be00      	bkpt	0x0000
10001bb6:	e7fd      	b.n	10001bb4 <exit>

10001bb8 <panic>:
10001bb8:	b40f      	push	{r0, r1, r2, r3}
10001bba:	b500      	push	{lr}
10001bbc:	4808      	ldr	r0, [pc, #32]	; (10001be0 <panic+0x28>)
10001bbe:	b083      	sub	sp, #12
10001bc0:	f003 f802 	bl	10004bc8 <__wrap_puts>
10001bc4:	9b04      	ldr	r3, [sp, #16]
10001bc6:	2b00      	cmp	r3, #0
10001bc8:	d007      	beq.n	10001bda <panic+0x22>
10001bca:	a905      	add	r1, sp, #20
10001bcc:	0018      	movs	r0, r3
10001bce:	9101      	str	r1, [sp, #4]
10001bd0:	f001 ff2a 	bl	10003a28 <weak_raw_vprintf>
10001bd4:	4803      	ldr	r0, [pc, #12]	; (10001be4 <panic+0x2c>)
10001bd6:	f002 fff7 	bl	10004bc8 <__wrap_puts>
10001bda:	be00      	bkpt	0x0000
10001bdc:	e7fd      	b.n	10001bda <panic+0x22>
10001bde:	46c0      	nop			; (mov r8, r8)
10001be0:	100055b4 	.word	0x100055b4
10001be4:	10005250 	.word	0x10005250

10001be8 <hard_assertion_failure>:
10001be8:	b510      	push	{r4, lr}
10001bea:	4801      	ldr	r0, [pc, #4]	; (10001bf0 <hard_assertion_failure+0x8>)
10001bec:	f7ff ffe4 	bl	10001bb8 <panic>
10001bf0:	100055c4 	.word	0x100055c4

10001bf4 <clocks_init>:
10001bf4:	b530      	push	{r4, r5, lr}
10001bf6:	200c      	movs	r0, #12
10001bf8:	b083      	sub	sp, #12
10001bfa:	f000 fb3f 	bl	1000227c <watchdog_start_tick>
10001bfe:	f7ff f9b9 	bl	10000f74 <running_on_fpga>
10001c02:	2800      	cmp	r0, #0
10001c04:	d00e      	beq.n	10001c24 <clocks_init+0x30>
10001c06:	4b94      	ldr	r3, [pc, #592]	; (10001e58 <clocks_init+0x264>)
10001c08:	4a94      	ldr	r2, [pc, #592]	; (10001e5c <clocks_init+0x268>)
10001c0a:	601a      	str	r2, [r3, #0]
10001c0c:	605a      	str	r2, [r3, #4]
10001c0e:	609a      	str	r2, [r3, #8]
10001c10:	60da      	str	r2, [r3, #12]
10001c12:	611a      	str	r2, [r3, #16]
10001c14:	615a      	str	r2, [r3, #20]
10001c16:	619a      	str	r2, [r3, #24]
10001c18:	61da      	str	r2, [r3, #28]
10001c1a:	621a      	str	r2, [r3, #32]
10001c1c:	4a90      	ldr	r2, [pc, #576]	; (10001e60 <clocks_init+0x26c>)
10001c1e:	625a      	str	r2, [r3, #36]	; 0x24
10001c20:	b003      	add	sp, #12
10001c22:	bd30      	pop	{r4, r5, pc}
10001c24:	4c8f      	ldr	r4, [pc, #572]	; (10001e64 <clocks_init+0x270>)
10001c26:	67a0      	str	r0, [r4, #120]	; 0x78
10001c28:	f000 fbc8 	bl	100023bc <xosc_init>
10001c2c:	2201      	movs	r2, #1
10001c2e:	4b8e      	ldr	r3, [pc, #568]	; (10001e68 <clocks_init+0x274>)
10001c30:	601a      	str	r2, [r3, #0]
10001c32:	6c63      	ldr	r3, [r4, #68]	; 0x44
10001c34:	2b01      	cmp	r3, #1
10001c36:	d1fc      	bne.n	10001c32 <clocks_init+0x3e>
10001c38:	2203      	movs	r2, #3
10001c3a:	4b8c      	ldr	r3, [pc, #560]	; (10001e6c <clocks_init+0x278>)
10001c3c:	601a      	str	r2, [r3, #0]
10001c3e:	4a89      	ldr	r2, [pc, #548]	; (10001e64 <clocks_init+0x270>)
10001c40:	6b93      	ldr	r3, [r2, #56]	; 0x38
10001c42:	2b01      	cmp	r3, #1
10001c44:	d1fc      	bne.n	10001c40 <clocks_init+0x4c>
10001c46:	2402      	movs	r4, #2
10001c48:	2101      	movs	r1, #1
10001c4a:	4a89      	ldr	r2, [pc, #548]	; (10001e70 <clocks_init+0x27c>)
10001c4c:	4889      	ldr	r0, [pc, #548]	; (10001e74 <clocks_init+0x280>)
10001c4e:	3305      	adds	r3, #5
10001c50:	9400      	str	r4, [sp, #0]
10001c52:	f000 fac1 	bl	100021d8 <pll_init>
10001c56:	2305      	movs	r3, #5
10001c58:	4a87      	ldr	r2, [pc, #540]	; (10001e78 <clocks_init+0x284>)
10001c5a:	2101      	movs	r1, #1
10001c5c:	4887      	ldr	r0, [pc, #540]	; (10001e7c <clocks_init+0x288>)
10001c5e:	9400      	str	r4, [sp, #0]
10001c60:	f000 faba 	bl	100021d8 <pll_init>
10001c64:	4b86      	ldr	r3, [pc, #536]	; (10001e80 <clocks_init+0x28c>)
10001c66:	685a      	ldr	r2, [r3, #4]
10001c68:	2aff      	cmp	r2, #255	; 0xff
10001c6a:	d802      	bhi.n	10001c72 <clocks_init+0x7e>
10001c6c:	2280      	movs	r2, #128	; 0x80
10001c6e:	0052      	lsls	r2, r2, #1
10001c70:	605a      	str	r2, [r3, #4]
10001c72:	2280      	movs	r2, #128	; 0x80
10001c74:	4c78      	ldr	r4, [pc, #480]	; (10001e58 <clocks_init+0x264>)
10001c76:	4b7d      	ldr	r3, [pc, #500]	; (10001e6c <clocks_init+0x278>)
10001c78:	6921      	ldr	r1, [r4, #16]
10001c7a:	0112      	lsls	r2, r2, #4
10001c7c:	4d80      	ldr	r5, [pc, #512]	; (10001e80 <clocks_init+0x28c>)
10001c7e:	601a      	str	r2, [r3, #0]
10001c80:	2900      	cmp	r1, #0
10001c82:	d005      	beq.n	10001c90 <clocks_init+0x9c>
10001c84:	6960      	ldr	r0, [r4, #20]
10001c86:	f001 ff45 	bl	10003b14 <__wrap___aeabi_uidiv>
10001c8a:	3001      	adds	r0, #1
10001c8c:	3801      	subs	r0, #1
10001c8e:	d1fd      	bne.n	10001c8c <clocks_init+0x98>
10001c90:	21e0      	movs	r1, #224	; 0xe0
10001c92:	4b7b      	ldr	r3, [pc, #492]	; (10001e80 <clocks_init+0x28c>)
10001c94:	2002      	movs	r0, #2
10001c96:	681a      	ldr	r2, [r3, #0]
10001c98:	4011      	ands	r1, r2
10001c9a:	2280      	movs	r2, #128	; 0x80
10001c9c:	0152      	lsls	r2, r2, #5
10001c9e:	432a      	orrs	r2, r5
10001ca0:	6011      	str	r1, [r2, #0]
10001ca2:	6819      	ldr	r1, [r3, #0]
10001ca4:	4048      	eors	r0, r1
10001ca6:	2103      	movs	r1, #3
10001ca8:	4001      	ands	r1, r0
10001caa:	6011      	str	r1, [r2, #0]
10001cac:	2104      	movs	r1, #4
10001cae:	689a      	ldr	r2, [r3, #8]
10001cb0:	4211      	tst	r1, r2
10001cb2:	d0fc      	beq.n	10001cae <clocks_init+0xba>
10001cb4:	2280      	movs	r2, #128	; 0x80
10001cb6:	2180      	movs	r1, #128	; 0x80
10001cb8:	0192      	lsls	r2, r2, #6
10001cba:	432a      	orrs	r2, r5
10001cbc:	0109      	lsls	r1, r1, #4
10001cbe:	6011      	str	r1, [r2, #0]
10001cc0:	2280      	movs	r2, #128	; 0x80
10001cc2:	0052      	lsls	r2, r2, #1
10001cc4:	605a      	str	r2, [r3, #4]
10001cc6:	4b6f      	ldr	r3, [pc, #444]	; (10001e84 <clocks_init+0x290>)
10001cc8:	6123      	str	r3, [r4, #16]
10001cca:	4b6f      	ldr	r3, [pc, #444]	; (10001e88 <clocks_init+0x294>)
10001ccc:	6859      	ldr	r1, [r3, #4]
10001cce:	29ff      	cmp	r1, #255	; 0xff
10001cd0:	d800      	bhi.n	10001cd4 <clocks_init+0xe0>
10001cd2:	605a      	str	r2, [r3, #4]
10001cd4:	2203      	movs	r2, #3
10001cd6:	486c      	ldr	r0, [pc, #432]	; (10001e88 <clocks_init+0x294>)
10001cd8:	4b63      	ldr	r3, [pc, #396]	; (10001e68 <clocks_init+0x274>)
10001cda:	2101      	movs	r1, #1
10001cdc:	601a      	str	r2, [r3, #0]
10001cde:	0002      	movs	r2, r0
10001ce0:	6893      	ldr	r3, [r2, #8]
10001ce2:	4219      	tst	r1, r3
10001ce4:	d0fc      	beq.n	10001ce0 <clocks_init+0xec>
10001ce6:	25e0      	movs	r5, #224	; 0xe0
10001ce8:	6813      	ldr	r3, [r2, #0]
10001cea:	401d      	ands	r5, r3
10001cec:	2380      	movs	r3, #128	; 0x80
10001cee:	015b      	lsls	r3, r3, #5
10001cf0:	4303      	orrs	r3, r0
10001cf2:	601d      	str	r5, [r3, #0]
10001cf4:	6812      	ldr	r2, [r2, #0]
10001cf6:	404a      	eors	r2, r1
10001cf8:	2103      	movs	r1, #3
10001cfa:	4011      	ands	r1, r2
10001cfc:	6019      	str	r1, [r3, #0]
10001cfe:	2102      	movs	r1, #2
10001d00:	4a61      	ldr	r2, [pc, #388]	; (10001e88 <clocks_init+0x294>)
10001d02:	6893      	ldr	r3, [r2, #8]
10001d04:	4219      	tst	r1, r3
10001d06:	d0fc      	beq.n	10001d02 <clocks_init+0x10e>
10001d08:	2380      	movs	r3, #128	; 0x80
10001d0a:	2180      	movs	r1, #128	; 0x80
10001d0c:	019b      	lsls	r3, r3, #6
10001d0e:	4303      	orrs	r3, r0
10001d10:	0109      	lsls	r1, r1, #4
10001d12:	6019      	str	r1, [r3, #0]
10001d14:	2180      	movs	r1, #128	; 0x80
10001d16:	4b5d      	ldr	r3, [pc, #372]	; (10001e8c <clocks_init+0x298>)
10001d18:	0049      	lsls	r1, r1, #1
10001d1a:	6051      	str	r1, [r2, #4]
10001d1c:	6163      	str	r3, [r4, #20]
10001d1e:	4b5c      	ldr	r3, [pc, #368]	; (10001e90 <clocks_init+0x29c>)
10001d20:	685a      	ldr	r2, [r3, #4]
10001d22:	2aff      	cmp	r2, #255	; 0xff
10001d24:	d800      	bhi.n	10001d28 <clocks_init+0x134>
10001d26:	6059      	str	r1, [r3, #4]
10001d28:	2280      	movs	r2, #128	; 0x80
10001d2a:	4b5a      	ldr	r3, [pc, #360]	; (10001e94 <clocks_init+0x2a0>)
10001d2c:	69e1      	ldr	r1, [r4, #28]
10001d2e:	0112      	lsls	r2, r2, #4
10001d30:	4d57      	ldr	r5, [pc, #348]	; (10001e90 <clocks_init+0x29c>)
10001d32:	601a      	str	r2, [r3, #0]
10001d34:	2900      	cmp	r1, #0
10001d36:	d005      	beq.n	10001d44 <clocks_init+0x150>
10001d38:	6960      	ldr	r0, [r4, #20]
10001d3a:	f001 feeb 	bl	10003b14 <__wrap___aeabi_uidiv>
10001d3e:	3001      	adds	r0, #1
10001d40:	3801      	subs	r0, #1
10001d42:	d1fd      	bne.n	10001d40 <clocks_init+0x14c>
10001d44:	22e0      	movs	r2, #224	; 0xe0
10001d46:	4952      	ldr	r1, [pc, #328]	; (10001e90 <clocks_init+0x29c>)
10001d48:	680b      	ldr	r3, [r1, #0]
10001d4a:	401a      	ands	r2, r3
10001d4c:	2380      	movs	r3, #128	; 0x80
10001d4e:	015b      	lsls	r3, r3, #5
10001d50:	432b      	orrs	r3, r5
10001d52:	601a      	str	r2, [r3, #0]
10001d54:	2380      	movs	r3, #128	; 0x80
10001d56:	2280      	movs	r2, #128	; 0x80
10001d58:	019b      	lsls	r3, r3, #6
10001d5a:	432b      	orrs	r3, r5
10001d5c:	0112      	lsls	r2, r2, #4
10001d5e:	601a      	str	r2, [r3, #0]
10001d60:	2280      	movs	r2, #128	; 0x80
10001d62:	4b3e      	ldr	r3, [pc, #248]	; (10001e5c <clocks_init+0x268>)
10001d64:	0052      	lsls	r2, r2, #1
10001d66:	604a      	str	r2, [r1, #4]
10001d68:	61e3      	str	r3, [r4, #28]
10001d6a:	4b4b      	ldr	r3, [pc, #300]	; (10001e98 <clocks_init+0x2a4>)
10001d6c:	6859      	ldr	r1, [r3, #4]
10001d6e:	29ff      	cmp	r1, #255	; 0xff
10001d70:	d800      	bhi.n	10001d74 <clocks_init+0x180>
10001d72:	605a      	str	r2, [r3, #4]
10001d74:	2280      	movs	r2, #128	; 0x80
10001d76:	4b49      	ldr	r3, [pc, #292]	; (10001e9c <clocks_init+0x2a8>)
10001d78:	6a21      	ldr	r1, [r4, #32]
10001d7a:	0112      	lsls	r2, r2, #4
10001d7c:	4d46      	ldr	r5, [pc, #280]	; (10001e98 <clocks_init+0x2a4>)
10001d7e:	601a      	str	r2, [r3, #0]
10001d80:	2900      	cmp	r1, #0
10001d82:	d005      	beq.n	10001d90 <clocks_init+0x19c>
10001d84:	6960      	ldr	r0, [r4, #20]
10001d86:	f001 fec5 	bl	10003b14 <__wrap___aeabi_uidiv>
10001d8a:	3001      	adds	r0, #1
10001d8c:	3801      	subs	r0, #1
10001d8e:	d1fd      	bne.n	10001d8c <clocks_init+0x198>
10001d90:	22e0      	movs	r2, #224	; 0xe0
10001d92:	4941      	ldr	r1, [pc, #260]	; (10001e98 <clocks_init+0x2a4>)
10001d94:	680b      	ldr	r3, [r1, #0]
10001d96:	401a      	ands	r2, r3
10001d98:	2380      	movs	r3, #128	; 0x80
10001d9a:	015b      	lsls	r3, r3, #5
10001d9c:	432b      	orrs	r3, r5
10001d9e:	601a      	str	r2, [r3, #0]
10001da0:	2380      	movs	r3, #128	; 0x80
10001da2:	2280      	movs	r2, #128	; 0x80
10001da4:	019b      	lsls	r3, r3, #6
10001da6:	432b      	orrs	r3, r5
10001da8:	0112      	lsls	r2, r2, #4
10001daa:	601a      	str	r2, [r3, #0]
10001dac:	2380      	movs	r3, #128	; 0x80
10001dae:	2280      	movs	r2, #128	; 0x80
10001db0:	005b      	lsls	r3, r3, #1
10001db2:	604b      	str	r3, [r1, #4]
10001db4:	4b29      	ldr	r3, [pc, #164]	; (10001e5c <clocks_init+0x268>)
10001db6:	02d2      	lsls	r2, r2, #11
10001db8:	6223      	str	r3, [r4, #32]
10001dba:	4b39      	ldr	r3, [pc, #228]	; (10001ea0 <clocks_init+0x2ac>)
10001dbc:	6859      	ldr	r1, [r3, #4]
10001dbe:	4291      	cmp	r1, r2
10001dc0:	d200      	bcs.n	10001dc4 <clocks_init+0x1d0>
10001dc2:	605a      	str	r2, [r3, #4]
10001dc4:	2280      	movs	r2, #128	; 0x80
10001dc6:	4b37      	ldr	r3, [pc, #220]	; (10001ea4 <clocks_init+0x2b0>)
10001dc8:	6a61      	ldr	r1, [r4, #36]	; 0x24
10001dca:	0112      	lsls	r2, r2, #4
10001dcc:	4d34      	ldr	r5, [pc, #208]	; (10001ea0 <clocks_init+0x2ac>)
10001dce:	601a      	str	r2, [r3, #0]
10001dd0:	2900      	cmp	r1, #0
10001dd2:	d005      	beq.n	10001de0 <clocks_init+0x1ec>
10001dd4:	6960      	ldr	r0, [r4, #20]
10001dd6:	f001 fe9d 	bl	10003b14 <__wrap___aeabi_uidiv>
10001dda:	3001      	adds	r0, #1
10001ddc:	3801      	subs	r0, #1
10001dde:	d1fd      	bne.n	10001ddc <clocks_init+0x1e8>
10001de0:	22e0      	movs	r2, #224	; 0xe0
10001de2:	492f      	ldr	r1, [pc, #188]	; (10001ea0 <clocks_init+0x2ac>)
10001de4:	680b      	ldr	r3, [r1, #0]
10001de6:	401a      	ands	r2, r3
10001de8:	2380      	movs	r3, #128	; 0x80
10001dea:	015b      	lsls	r3, r3, #5
10001dec:	432b      	orrs	r3, r5
10001dee:	601a      	str	r2, [r3, #0]
10001df0:	2380      	movs	r3, #128	; 0x80
10001df2:	2280      	movs	r2, #128	; 0x80
10001df4:	019b      	lsls	r3, r3, #6
10001df6:	432b      	orrs	r3, r5
10001df8:	0112      	lsls	r2, r2, #4
10001dfa:	601a      	str	r2, [r3, #0]
10001dfc:	2380      	movs	r3, #128	; 0x80
10001dfe:	02db      	lsls	r3, r3, #11
10001e00:	604b      	str	r3, [r1, #4]
10001e02:	4b17      	ldr	r3, [pc, #92]	; (10001e60 <clocks_init+0x26c>)
10001e04:	6263      	str	r3, [r4, #36]	; 0x24
10001e06:	4b28      	ldr	r3, [pc, #160]	; (10001ea8 <clocks_init+0x2b4>)
10001e08:	685a      	ldr	r2, [r3, #4]
10001e0a:	2aff      	cmp	r2, #255	; 0xff
10001e0c:	d802      	bhi.n	10001e14 <clocks_init+0x220>
10001e0e:	2280      	movs	r2, #128	; 0x80
10001e10:	0052      	lsls	r2, r2, #1
10001e12:	605a      	str	r2, [r3, #4]
10001e14:	2280      	movs	r2, #128	; 0x80
10001e16:	4b25      	ldr	r3, [pc, #148]	; (10001eac <clocks_init+0x2b8>)
10001e18:	69a1      	ldr	r1, [r4, #24]
10001e1a:	0112      	lsls	r2, r2, #4
10001e1c:	4d22      	ldr	r5, [pc, #136]	; (10001ea8 <clocks_init+0x2b4>)
10001e1e:	601a      	str	r2, [r3, #0]
10001e20:	2900      	cmp	r1, #0
10001e22:	d005      	beq.n	10001e30 <clocks_init+0x23c>
10001e24:	6960      	ldr	r0, [r4, #20]
10001e26:	f001 fe75 	bl	10003b14 <__wrap___aeabi_uidiv>
10001e2a:	3001      	adds	r0, #1
10001e2c:	3801      	subs	r0, #1
10001e2e:	d1fd      	bne.n	10001e2c <clocks_init+0x238>
10001e30:	22e0      	movs	r2, #224	; 0xe0
10001e32:	491d      	ldr	r1, [pc, #116]	; (10001ea8 <clocks_init+0x2b4>)
10001e34:	680b      	ldr	r3, [r1, #0]
10001e36:	401a      	ands	r2, r3
10001e38:	2380      	movs	r3, #128	; 0x80
10001e3a:	015b      	lsls	r3, r3, #5
10001e3c:	432b      	orrs	r3, r5
10001e3e:	601a      	str	r2, [r3, #0]
10001e40:	2380      	movs	r3, #128	; 0x80
10001e42:	2280      	movs	r2, #128	; 0x80
10001e44:	019b      	lsls	r3, r3, #6
10001e46:	432b      	orrs	r3, r5
10001e48:	0112      	lsls	r2, r2, #4
10001e4a:	601a      	str	r2, [r3, #0]
10001e4c:	2380      	movs	r3, #128	; 0x80
10001e4e:	005b      	lsls	r3, r3, #1
10001e50:	604b      	str	r3, [r1, #4]
10001e52:	4b0e      	ldr	r3, [pc, #56]	; (10001e8c <clocks_init+0x298>)
10001e54:	61a3      	str	r3, [r4, #24]
10001e56:	e6e3      	b.n	10001c20 <clocks_init+0x2c>
10001e58:	2000099c 	.word	0x2000099c
10001e5c:	02dc6c00 	.word	0x02dc6c00
10001e60:	0000b71b 	.word	0x0000b71b
10001e64:	40008000 	.word	0x40008000
10001e68:	4000b03c 	.word	0x4000b03c
10001e6c:	4000b030 	.word	0x4000b030
10001e70:	59682f00 	.word	0x59682f00
10001e74:	40028000 	.word	0x40028000
10001e78:	1c9c3800 	.word	0x1c9c3800
10001e7c:	4002c000 	.word	0x4002c000
10001e80:	40008030 	.word	0x40008030
10001e84:	00b71b00 	.word	0x00b71b00
10001e88:	4000803c 	.word	0x4000803c
10001e8c:	07735940 	.word	0x07735940
10001e90:	40008054 	.word	0x40008054
10001e94:	4000b054 	.word	0x4000b054
10001e98:	40008060 	.word	0x40008060
10001e9c:	4000b060 	.word	0x4000b060
10001ea0:	4000806c 	.word	0x4000806c
10001ea4:	4000b06c 	.word	0x4000b06c
10001ea8:	40008048 	.word	0x40008048
10001eac:	4000b048 	.word	0x4000b048

10001eb0 <clock_get_hz>:
10001eb0:	4b01      	ldr	r3, [pc, #4]	; (10001eb8 <clock_get_hz+0x8>)
10001eb2:	0080      	lsls	r0, r0, #2
10001eb4:	58c0      	ldr	r0, [r0, r3]
10001eb6:	4770      	bx	lr
10001eb8:	2000099c 	.word	0x2000099c

10001ebc <irq_set_enabled>:
10001ebc:	2301      	movs	r3, #1
10001ebe:	4083      	lsls	r3, r0
10001ec0:	2900      	cmp	r1, #0
10001ec2:	d004      	beq.n	10001ece <irq_set_enabled+0x12>
10001ec4:	4a03      	ldr	r2, [pc, #12]	; (10001ed4 <irq_set_enabled+0x18>)
10001ec6:	6013      	str	r3, [r2, #0]
10001ec8:	4a03      	ldr	r2, [pc, #12]	; (10001ed8 <irq_set_enabled+0x1c>)
10001eca:	6013      	str	r3, [r2, #0]
10001ecc:	4770      	bx	lr
10001ece:	4a03      	ldr	r2, [pc, #12]	; (10001edc <irq_set_enabled+0x20>)
10001ed0:	6013      	str	r3, [r2, #0]
10001ed2:	e7fb      	b.n	10001ecc <irq_set_enabled+0x10>
10001ed4:	e000e280 	.word	0xe000e280
10001ed8:	e000e100 	.word	0xe000e100
10001edc:	e000e180 	.word	0xe000e180

10001ee0 <irq_get_vtable_handler>:
10001ee0:	4b02      	ldr	r3, [pc, #8]	; (10001eec <irq_get_vtable_handler+0xc>)
10001ee2:	3010      	adds	r0, #16
10001ee4:	689b      	ldr	r3, [r3, #8]
10001ee6:	0080      	lsls	r0, r0, #2
10001ee8:	58c0      	ldr	r0, [r0, r3]
10001eea:	4770      	bx	lr
10001eec:	e000ed00 	.word	0xe000ed00

10001ef0 <irq_set_exclusive_handler>:
10001ef0:	b570      	push	{r4, r5, r6, lr}
10001ef2:	000d      	movs	r5, r1
10001ef4:	f3ef 8610 	mrs	r6, PRIMASK
10001ef8:	b672      	cpsid	i
10001efa:	4a0f      	ldr	r2, [pc, #60]	; (10001f38 <irq_set_exclusive_handler+0x48>)
10001efc:	6813      	ldr	r3, [r2, #0]
10001efe:	2b00      	cmp	r3, #0
10001f00:	d0fc      	beq.n	10001efc <irq_set_exclusive_handler+0xc>
10001f02:	f3bf 8f5f 	dmb	sy
10001f06:	4b0d      	ldr	r3, [pc, #52]	; (10001f3c <irq_set_exclusive_handler+0x4c>)
10001f08:	3010      	adds	r0, #16
10001f0a:	689b      	ldr	r3, [r3, #8]
10001f0c:	0084      	lsls	r4, r0, #2
10001f0e:	591b      	ldr	r3, [r3, r4]
10001f10:	4a0b      	ldr	r2, [pc, #44]	; (10001f40 <irq_set_exclusive_handler+0x50>)
10001f12:	4293      	cmp	r3, r2
10001f14:	d003      	beq.n	10001f1e <irq_set_exclusive_handler+0x2e>
10001f16:	429d      	cmp	r5, r3
10001f18:	d001      	beq.n	10001f1e <irq_set_exclusive_handler+0x2e>
10001f1a:	f7ff fe65 	bl	10001be8 <hard_assertion_failure>
10001f1e:	4b07      	ldr	r3, [pc, #28]	; (10001f3c <irq_set_exclusive_handler+0x4c>)
10001f20:	689b      	ldr	r3, [r3, #8]
10001f22:	511d      	str	r5, [r3, r4]
10001f24:	f3bf 8f5f 	dmb	sy
10001f28:	f3bf 8f5f 	dmb	sy
10001f2c:	2200      	movs	r2, #0
10001f2e:	4b02      	ldr	r3, [pc, #8]	; (10001f38 <irq_set_exclusive_handler+0x48>)
10001f30:	601a      	str	r2, [r3, #0]
10001f32:	f386 8810 	msr	PRIMASK, r6
10001f36:	bd70      	pop	{r4, r5, r6, pc}
10001f38:	d0000124 	.word	0xd0000124
10001f3c:	e000ed00 	.word	0xe000ed00
10001f40:	100001cd 	.word	0x100001cd

10001f44 <irq_remove_handler>:
10001f44:	b5f0      	push	{r4, r5, r6, r7, lr}
10001f46:	46de      	mov	lr, fp
10001f48:	4657      	mov	r7, sl
10001f4a:	464e      	mov	r6, r9
10001f4c:	4645      	mov	r5, r8
10001f4e:	b5e0      	push	{r5, r6, r7, lr}
10001f50:	000c      	movs	r4, r1
10001f52:	b083      	sub	sp, #12
10001f54:	f3ef 8a10 	mrs	sl, PRIMASK
10001f58:	b672      	cpsid	i
10001f5a:	4a5b      	ldr	r2, [pc, #364]	; (100020c8 <irq_remove_handler+0x184>)
10001f5c:	6813      	ldr	r3, [r2, #0]
10001f5e:	2b00      	cmp	r3, #0
10001f60:	d0fc      	beq.n	10001f5c <irq_remove_handler+0x18>
10001f62:	f3bf 8f5f 	dmb	sy
10001f66:	2210      	movs	r2, #16
10001f68:	4691      	mov	r9, r2
10001f6a:	4481      	add	r9, r0
10001f6c:	464a      	mov	r2, r9
10001f6e:	4b57      	ldr	r3, [pc, #348]	; (100020cc <irq_remove_handler+0x188>)
10001f70:	0096      	lsls	r6, r2, #2
10001f72:	689b      	ldr	r3, [r3, #8]
10001f74:	599d      	ldr	r5, [r3, r6]
10001f76:	4b56      	ldr	r3, [pc, #344]	; (100020d0 <irq_remove_handler+0x18c>)
10001f78:	4698      	mov	r8, r3
10001f7a:	429d      	cmp	r5, r3
10001f7c:	d005      	beq.n	10001f8a <irq_remove_handler+0x46>
10001f7e:	42a5      	cmp	r5, r4
10001f80:	d016      	beq.n	10001fb0 <irq_remove_handler+0x6c>
10001f82:	4f54      	ldr	r7, [pc, #336]	; (100020d4 <irq_remove_handler+0x190>)
10001f84:	1beb      	subs	r3, r5, r7
10001f86:	2b2f      	cmp	r3, #47	; 0x2f
10001f88:	d914      	bls.n	10001fb4 <irq_remove_handler+0x70>
10001f8a:	4b50      	ldr	r3, [pc, #320]	; (100020cc <irq_remove_handler+0x188>)
10001f8c:	689b      	ldr	r3, [r3, #8]
10001f8e:	519d      	str	r5, [r3, r6]
10001f90:	f3bf 8f5f 	dmb	sy
10001f94:	f3bf 8f5f 	dmb	sy
10001f98:	2200      	movs	r2, #0
10001f9a:	4b4b      	ldr	r3, [pc, #300]	; (100020c8 <irq_remove_handler+0x184>)
10001f9c:	601a      	str	r2, [r3, #0]
10001f9e:	f38a 8810 	msr	PRIMASK, sl
10001fa2:	b003      	add	sp, #12
10001fa4:	bc3c      	pop	{r2, r3, r4, r5}
10001fa6:	4690      	mov	r8, r2
10001fa8:	4699      	mov	r9, r3
10001faa:	46a2      	mov	sl, r4
10001fac:	46ab      	mov	fp, r5
10001fae:	bdf0      	pop	{r4, r5, r6, r7, pc}
10001fb0:	001d      	movs	r5, r3
10001fb2:	e7ea      	b.n	10001f8a <irq_remove_handler+0x46>
10001fb4:	2301      	movs	r3, #1
10001fb6:	4083      	lsls	r3, r0
10001fb8:	469b      	mov	fp, r3
10001fba:	465a      	mov	r2, fp
10001fbc:	4b46      	ldr	r3, [pc, #280]	; (100020d8 <irq_remove_handler+0x194>)
10001fbe:	681b      	ldr	r3, [r3, #0]
10001fc0:	401a      	ands	r2, r3
10001fc2:	9200      	str	r2, [sp, #0]
10001fc4:	465a      	mov	r2, fp
10001fc6:	4b45      	ldr	r3, [pc, #276]	; (100020dc <irq_remove_handler+0x198>)
10001fc8:	601a      	str	r2, [r3, #0]
10001fca:	f3bf 8f5f 	dmb	sy
10001fce:	f7fe f94a 	bl	10000266 <__get_current_exception>
10001fd2:	9001      	str	r0, [sp, #4]
10001fd4:	2800      	cmp	r0, #0
10001fd6:	d003      	beq.n	10001fe0 <irq_remove_handler+0x9c>
10001fd8:	4581      	cmp	r9, r0
10001fda:	d001      	beq.n	10001fe0 <irq_remove_handler+0x9c>
10001fdc:	f7ff fe04 	bl	10001be8 <hard_assertion_failure>
10001fe0:	2301      	movs	r3, #1
10001fe2:	002a      	movs	r2, r5
10001fe4:	439a      	bics	r2, r3
10001fe6:	0013      	movs	r3, r2
10001fe8:	493d      	ldr	r1, [pc, #244]	; (100020e0 <irq_remove_handler+0x19c>)
10001fea:	1bdb      	subs	r3, r3, r7
10001fec:	415b      	adcs	r3, r3
10001fee:	4359      	muls	r1, r3
10001ff0:	0d09      	lsrs	r1, r1, #20
10001ff2:	6893      	ldr	r3, [r2, #8]
10001ff4:	429c      	cmp	r4, r3
10001ff6:	d108      	bne.n	1000200a <irq_remove_handler+0xc6>
10001ff8:	e05b      	b.n	100020b2 <irq_remove_handler+0x16e>
10001ffa:	0043      	lsls	r3, r0, #1
10001ffc:	181b      	adds	r3, r3, r0
10001ffe:	009b      	lsls	r3, r3, #2
10002000:	18fb      	adds	r3, r7, r3
10002002:	6898      	ldr	r0, [r3, #8]
10002004:	42a0      	cmp	r0, r4
10002006:	d011      	beq.n	1000202c <irq_remove_handler+0xe8>
10002008:	001a      	movs	r2, r3
1000200a:	2006      	movs	r0, #6
1000200c:	5610      	ldrsb	r0, [r2, r0]
1000200e:	2800      	cmp	r0, #0
10002010:	daf3      	bge.n	10001ffa <irq_remove_handler+0xb6>
10002012:	9b00      	ldr	r3, [sp, #0]
10002014:	2b00      	cmp	r3, #0
10002016:	d005      	beq.n	10002024 <irq_remove_handler+0xe0>
10002018:	465a      	mov	r2, fp
1000201a:	4b32      	ldr	r3, [pc, #200]	; (100020e4 <irq_remove_handler+0x1a0>)
1000201c:	601a      	str	r2, [r3, #0]
1000201e:	4b2e      	ldr	r3, [pc, #184]	; (100020d8 <irq_remove_handler+0x194>)
10002020:	601a      	str	r2, [r3, #0]
10002022:	e7b2      	b.n	10001f8a <irq_remove_handler+0x46>
10002024:	465a      	mov	r2, fp
10002026:	4b2d      	ldr	r3, [pc, #180]	; (100020dc <irq_remove_handler+0x198>)
10002028:	601a      	str	r2, [r3, #0]
1000202a:	e7ae      	b.n	10001f8a <irq_remove_handler+0x46>
1000202c:	2006      	movs	r0, #6
1000202e:	5618      	ldrsb	r0, [r3, r0]
10002030:	2800      	cmp	r0, #0
10002032:	db22      	blt.n	1000207a <irq_remove_handler+0x136>
10002034:	0042      	lsls	r2, r0, #1
10002036:	1811      	adds	r1, r2, r0
10002038:	0089      	lsls	r1, r1, #2
1000203a:	187c      	adds	r4, r7, r1
1000203c:	4688      	mov	r8, r1
1000203e:	68a1      	ldr	r1, [r4, #8]
10002040:	6099      	str	r1, [r3, #8]
10002042:	79e1      	ldrb	r1, [r4, #7]
10002044:	71d9      	strb	r1, [r3, #7]
10002046:	2106      	movs	r1, #6
10002048:	5661      	ldrsb	r1, [r4, r1]
1000204a:	7199      	strb	r1, [r3, #6]
1000204c:	79a1      	ldrb	r1, [r4, #6]
1000204e:	297f      	cmp	r1, #127	; 0x7f
10002050:	d81f      	bhi.n	10002092 <irq_remove_handler+0x14e>
10002052:	88a4      	ldrh	r4, [r4, #4]
10002054:	1af9      	subs	r1, r7, r3
10002056:	0564      	lsls	r4, r4, #21
10002058:	1524      	asrs	r4, r4, #20
1000205a:	4444      	add	r4, r8
1000205c:	1909      	adds	r1, r1, r4
1000205e:	24e0      	movs	r4, #224	; 0xe0
10002060:	0509      	lsls	r1, r1, #20
10002062:	0d49      	lsrs	r1, r1, #21
10002064:	0224      	lsls	r4, r4, #8
10002066:	4321      	orrs	r1, r4
10002068:	8099      	strh	r1, [r3, #4]
1000206a:	1812      	adds	r2, r2, r0
1000206c:	4b1e      	ldr	r3, [pc, #120]	; (100020e8 <irq_remove_handler+0x1a4>)
1000206e:	0092      	lsls	r2, r2, #2
10002070:	18bf      	adds	r7, r7, r2
10002072:	781a      	ldrb	r2, [r3, #0]
10002074:	7018      	strb	r0, [r3, #0]
10002076:	71ba      	strb	r2, [r7, #6]
10002078:	e7cb      	b.n	10002012 <irq_remove_handler+0xce>
1000207a:	9801      	ldr	r0, [sp, #4]
1000207c:	2800      	cmp	r0, #0
1000207e:	d10b      	bne.n	10002098 <irq_remove_handler+0x154>
10002080:	30ff      	adds	r0, #255	; 0xff
10002082:	7190      	strb	r0, [r2, #6]
10002084:	4819      	ldr	r0, [pc, #100]	; (100020ec <irq_remove_handler+0x1a8>)
10002086:	8090      	strh	r0, [r2, #4]
10002088:	4a17      	ldr	r2, [pc, #92]	; (100020e8 <irq_remove_handler+0x1a4>)
1000208a:	7810      	ldrb	r0, [r2, #0]
1000208c:	7011      	strb	r1, [r2, #0]
1000208e:	7198      	strb	r0, [r3, #6]
10002090:	e7bf      	b.n	10002012 <irq_remove_handler+0xce>
10002092:	21bd      	movs	r1, #189	; 0xbd
10002094:	0209      	lsls	r1, r1, #8
10002096:	e7e7      	b.n	10002068 <irq_remove_handler+0x124>
10002098:	4a15      	ldr	r2, [pc, #84]	; (100020f0 <irq_remove_handler+0x1ac>)
1000209a:	4916      	ldr	r1, [pc, #88]	; (100020f4 <irq_remove_handler+0x1b0>)
1000209c:	1ad2      	subs	r2, r2, r3
1000209e:	3a08      	subs	r2, #8
100020a0:	0250      	lsls	r0, r2, #9
100020a2:	0d40      	lsrs	r0, r0, #21
100020a4:	4301      	orrs	r1, r0
100020a6:	8099      	strh	r1, [r3, #4]
100020a8:	4913      	ldr	r1, [pc, #76]	; (100020f8 <irq_remove_handler+0x1b4>)
100020aa:	0852      	lsrs	r2, r2, #1
100020ac:	430a      	orrs	r2, r1
100020ae:	80da      	strh	r2, [r3, #6]
100020b0:	e7af      	b.n	10002012 <irq_remove_handler+0xce>
100020b2:	2006      	movs	r0, #6
100020b4:	5610      	ldrsb	r0, [r2, r0]
100020b6:	0013      	movs	r3, r2
100020b8:	2800      	cmp	r0, #0
100020ba:	dabb      	bge.n	10002034 <irq_remove_handler+0xf0>
100020bc:	9a01      	ldr	r2, [sp, #4]
100020be:	2a00      	cmp	r2, #0
100020c0:	d1ea      	bne.n	10002098 <irq_remove_handler+0x154>
100020c2:	4645      	mov	r5, r8
100020c4:	e7e0      	b.n	10002088 <irq_remove_handler+0x144>
100020c6:	46c0      	nop			; (mov r8, r8)
100020c8:	d0000124 	.word	0xd0000124
100020cc:	e000ed00 	.word	0xe000ed00
100020d0:	100001cd 	.word	0x100001cd
100020d4:	2000038c 	.word	0x2000038c
100020d8:	e000e100 	.word	0xe000e100
100020dc:	e000e180 	.word	0xe000e180
100020e0:	0000aaaa 	.word	0x0000aaaa
100020e4:	e000e280 	.word	0xe000e280
100020e8:	20000a51 	.word	0x20000a51
100020ec:	ffffbd00 	.word	0xffffbd00
100020f0:	200003c6 	.word	0x200003c6
100020f4:	fffff000 	.word	0xfffff000
100020f8:	fffff800 	.word	0xfffff800

100020fc <irq_add_tail_to_free_list>:
100020fc:	b5f8      	push	{r3, r4, r5, r6, r7, lr}
100020fe:	2501      	movs	r5, #1
10002100:	0004      	movs	r4, r0
10002102:	4305      	orrs	r5, r0
10002104:	f7fe f8af 	bl	10000266 <__get_current_exception>
10002108:	0003      	movs	r3, r0
1000210a:	f3ef 8610 	mrs	r6, PRIMASK
1000210e:	b672      	cpsid	i
10002110:	4921      	ldr	r1, [pc, #132]	; (10002198 <irq_add_tail_to_free_list+0x9c>)
10002112:	680a      	ldr	r2, [r1, #0]
10002114:	2a00      	cmp	r2, #0
10002116:	d0fc      	beq.n	10002112 <irq_add_tail_to_free_list+0x16>
10002118:	f3bf 8f5f 	dmb	sy
1000211c:	4a1f      	ldr	r2, [pc, #124]	; (1000219c <irq_add_tail_to_free_list+0xa0>)
1000211e:	0020      	movs	r0, r4
10002120:	491f      	ldr	r1, [pc, #124]	; (100021a0 <irq_add_tail_to_free_list+0xa4>)
10002122:	1a80      	subs	r0, r0, r2
10002124:	4140      	adcs	r0, r0
10002126:	4341      	muls	r1, r0
10002128:	0d09      	lsrs	r1, r1, #20
1000212a:	481e      	ldr	r0, [pc, #120]	; (100021a4 <irq_add_tail_to_free_list+0xa8>)
1000212c:	009b      	lsls	r3, r3, #2
1000212e:	6887      	ldr	r7, [r0, #8]
10002130:	b249      	sxtb	r1, r1
10002132:	58ff      	ldr	r7, [r7, r3]
10002134:	42af      	cmp	r7, r5
10002136:	d01c      	beq.n	10002172 <irq_add_tail_to_free_list+0x76>
10002138:	2306      	movs	r3, #6
1000213a:	56d3      	ldrsb	r3, [r2, r3]
1000213c:	428b      	cmp	r3, r1
1000213e:	d01c      	beq.n	1000217a <irq_add_tail_to_free_list+0x7e>
10002140:	2312      	movs	r3, #18
10002142:	56d3      	ldrsb	r3, [r2, r3]
10002144:	428b      	cmp	r3, r1
10002146:	d022      	beq.n	1000218e <irq_add_tail_to_free_list+0x92>
10002148:	231e      	movs	r3, #30
1000214a:	56d3      	ldrsb	r3, [r2, r3]
1000214c:	428b      	cmp	r3, r1
1000214e:	d020      	beq.n	10002192 <irq_add_tail_to_free_list+0x96>
10002150:	232a      	movs	r3, #42	; 0x2a
10002152:	56d3      	ldrsb	r3, [r2, r3]
10002154:	2003      	movs	r0, #3
10002156:	428b      	cmp	r3, r1
10002158:	d010      	beq.n	1000217c <irq_add_tail_to_free_list+0x80>
1000215a:	4b13      	ldr	r3, [pc, #76]	; (100021a8 <irq_add_tail_to_free_list+0xac>)
1000215c:	781a      	ldrb	r2, [r3, #0]
1000215e:	7019      	strb	r1, [r3, #0]
10002160:	71a2      	strb	r2, [r4, #6]
10002162:	f3bf 8f5f 	dmb	sy
10002166:	2200      	movs	r2, #0
10002168:	4b0b      	ldr	r3, [pc, #44]	; (10002198 <irq_add_tail_to_free_list+0x9c>)
1000216a:	601a      	str	r2, [r3, #0]
1000216c:	f386 8810 	msr	PRIMASK, r6
10002170:	bdf8      	pop	{r3, r4, r5, r6, r7, pc}
10002172:	6882      	ldr	r2, [r0, #8]
10002174:	480d      	ldr	r0, [pc, #52]	; (100021ac <irq_add_tail_to_free_list+0xb0>)
10002176:	50d0      	str	r0, [r2, r3]
10002178:	e7ef      	b.n	1000215a <irq_add_tail_to_free_list+0x5e>
1000217a:	2000      	movs	r0, #0
1000217c:	0043      	lsls	r3, r0, #1
1000217e:	181b      	adds	r3, r3, r0
10002180:	009b      	lsls	r3, r3, #2
10002182:	18d2      	adds	r2, r2, r3
10002184:	23ff      	movs	r3, #255	; 0xff
10002186:	7193      	strb	r3, [r2, #6]
10002188:	4b09      	ldr	r3, [pc, #36]	; (100021b0 <irq_add_tail_to_free_list+0xb4>)
1000218a:	8093      	strh	r3, [r2, #4]
1000218c:	e7e5      	b.n	1000215a <irq_add_tail_to_free_list+0x5e>
1000218e:	2001      	movs	r0, #1
10002190:	e7f4      	b.n	1000217c <irq_add_tail_to_free_list+0x80>
10002192:	2002      	movs	r0, #2
10002194:	e7f2      	b.n	1000217c <irq_add_tail_to_free_list+0x80>
10002196:	46c0      	nop			; (mov r8, r8)
10002198:	d0000124 	.word	0xd0000124
1000219c:	2000038c 	.word	0x2000038c
100021a0:	0000aaaa 	.word	0x0000aaaa
100021a4:	e000ed00 	.word	0xe000ed00
100021a8:	20000a51 	.word	0x20000a51
100021ac:	100001cd 	.word	0x100001cd
100021b0:	ffffbd00 	.word	0xffffbd00

100021b4 <irq_init_priorities>:
100021b4:	4b05      	ldr	r3, [pc, #20]	; (100021cc <irq_init_priorities+0x18>)
100021b6:	4a06      	ldr	r2, [pc, #24]	; (100021d0 <irq_init_priorities+0x1c>)
100021b8:	6013      	str	r3, [r2, #0]
100021ba:	4a06      	ldr	r2, [pc, #24]	; (100021d4 <irq_init_priorities+0x20>)
100021bc:	6013      	str	r3, [r2, #0]
100021be:	6053      	str	r3, [r2, #4]
100021c0:	6093      	str	r3, [r2, #8]
100021c2:	60d3      	str	r3, [r2, #12]
100021c4:	6113      	str	r3, [r2, #16]
100021c6:	6153      	str	r3, [r2, #20]
100021c8:	6193      	str	r3, [r2, #24]
100021ca:	4770      	bx	lr
100021cc:	80808080 	.word	0x80808080
100021d0:	e000e400 	.word	0xe000e400
100021d4:	e000e404 	.word	0xe000e404

100021d8 <pll_init>:
100021d8:	b5f8      	push	{r3, r4, r5, r6, r7, lr}
100021da:	0004      	movs	r4, r0
100021dc:	200c      	movs	r0, #12
100021de:	0017      	movs	r7, r2
100021e0:	001d      	movs	r5, r3
100021e2:	000e      	movs	r6, r1
100021e4:	f001 fc96 	bl	10003b14 <__wrap___aeabi_uidiv>
100021e8:	0141      	lsls	r1, r0, #5
100021ea:	1a09      	subs	r1, r1, r0
100021ec:	018b      	lsls	r3, r1, #6
100021ee:	1a59      	subs	r1, r3, r1
100021f0:	00c9      	lsls	r1, r1, #3
100021f2:	1809      	adds	r1, r1, r0
100021f4:	0189      	lsls	r1, r1, #6
100021f6:	0038      	movs	r0, r7
100021f8:	f001 fc8c 	bl	10003b14 <__wrap___aeabi_uidiv>
100021fc:	9a06      	ldr	r2, [sp, #24]
100021fe:	042b      	lsls	r3, r5, #16
10002200:	0312      	lsls	r2, r2, #12
10002202:	4313      	orrs	r3, r2
10002204:	6822      	ldr	r2, [r4, #0]
10002206:	2a00      	cmp	r2, #0
10002208:	db21      	blt.n	1000224e <pll_init+0x76>
1000220a:	4a18      	ldr	r2, [pc, #96]	; (1000226c <pll_init+0x94>)
1000220c:	18a2      	adds	r2, r4, r2
1000220e:	4251      	negs	r1, r2
10002210:	414a      	adcs	r2, r1
10002212:	2180      	movs	r1, #128	; 0x80
10002214:	0149      	lsls	r1, r1, #5
10002216:	468c      	mov	ip, r1
10002218:	4252      	negs	r2, r2
1000221a:	400a      	ands	r2, r1
1000221c:	4914      	ldr	r1, [pc, #80]	; (10002270 <pll_init+0x98>)
1000221e:	4462      	add	r2, ip
10002220:	600a      	str	r2, [r1, #0]
10002222:	4914      	ldr	r1, [pc, #80]	; (10002274 <pll_init+0x9c>)
10002224:	600a      	str	r2, [r1, #0]
10002226:	4914      	ldr	r1, [pc, #80]	; (10002278 <pll_init+0xa0>)
10002228:	0017      	movs	r7, r2
1000222a:	688d      	ldr	r5, [r1, #8]
1000222c:	43af      	bics	r7, r5
1000222e:	d1fb      	bne.n	10002228 <pll_init+0x50>
10002230:	21c0      	movs	r1, #192	; 0xc0
10002232:	1d22      	adds	r2, r4, #4
10002234:	0189      	lsls	r1, r1, #6
10002236:	4311      	orrs	r1, r2
10002238:	2221      	movs	r2, #33	; 0x21
1000223a:	6026      	str	r6, [r4, #0]
1000223c:	60a0      	str	r0, [r4, #8]
1000223e:	600a      	str	r2, [r1, #0]
10002240:	6822      	ldr	r2, [r4, #0]
10002242:	2a00      	cmp	r2, #0
10002244:	dafc      	bge.n	10002240 <pll_init+0x68>
10002246:	60e3      	str	r3, [r4, #12]
10002248:	2308      	movs	r3, #8
1000224a:	600b      	str	r3, [r1, #0]
1000224c:	bdf8      	pop	{r3, r4, r5, r6, r7, pc}
1000224e:	223f      	movs	r2, #63	; 0x3f
10002250:	6821      	ldr	r1, [r4, #0]
10002252:	400a      	ands	r2, r1
10002254:	42b2      	cmp	r2, r6
10002256:	d1d8      	bne.n	1000220a <pll_init+0x32>
10002258:	68a2      	ldr	r2, [r4, #8]
1000225a:	0512      	lsls	r2, r2, #20
1000225c:	0d12      	lsrs	r2, r2, #20
1000225e:	4282      	cmp	r2, r0
10002260:	d1d3      	bne.n	1000220a <pll_init+0x32>
10002262:	68e2      	ldr	r2, [r4, #12]
10002264:	2b00      	cmp	r3, #0
10002266:	d1d0      	bne.n	1000220a <pll_init+0x32>
10002268:	e7f0      	b.n	1000224c <pll_init+0x74>
1000226a:	46c0      	nop			; (mov r8, r8)
1000226c:	bffd4000 	.word	0xbffd4000
10002270:	4000e000 	.word	0x4000e000
10002274:	4000f000 	.word	0x4000f000
10002278:	4000c000 	.word	0x4000c000

1000227c <watchdog_start_tick>:
1000227c:	2380      	movs	r3, #128	; 0x80
1000227e:	4a02      	ldr	r2, [pc, #8]	; (10002288 <watchdog_start_tick+0xc>)
10002280:	009b      	lsls	r3, r3, #2
10002282:	4303      	orrs	r3, r0
10002284:	62d3      	str	r3, [r2, #44]	; 0x2c
10002286:	4770      	bx	lr
10002288:	40058000 	.word	0x40058000

1000228c <watchdog_update>:
1000228c:	4b02      	ldr	r3, [pc, #8]	; (10002298 <watchdog_update+0xc>)
1000228e:	681a      	ldr	r2, [r3, #0]
10002290:	4b02      	ldr	r3, [pc, #8]	; (1000229c <watchdog_update+0x10>)
10002292:	605a      	str	r2, [r3, #4]
10002294:	4770      	bx	lr
10002296:	46c0      	nop			; (mov r8, r8)
10002298:	20000a14 	.word	0x20000a14
1000229c:	40058000 	.word	0x40058000

100022a0 <watchdog_enable>:
100022a0:	4b18      	ldr	r3, [pc, #96]	; (10002304 <watchdog_enable+0x64>)
100022a2:	0002      	movs	r2, r0
100022a4:	4818      	ldr	r0, [pc, #96]	; (10002308 <watchdog_enable+0x68>)
100022a6:	b510      	push	{r4, lr}
100022a8:	61d8      	str	r0, [r3, #28]
100022aa:	2080      	movs	r0, #128	; 0x80
100022ac:	4b17      	ldr	r3, [pc, #92]	; (1000230c <watchdog_enable+0x6c>)
100022ae:	05c0      	lsls	r0, r0, #23
100022b0:	6018      	str	r0, [r3, #0]
100022b2:	4c17      	ldr	r4, [pc, #92]	; (10002310 <watchdog_enable+0x70>)
100022b4:	4817      	ldr	r0, [pc, #92]	; (10002314 <watchdog_enable+0x74>)
100022b6:	6004      	str	r4, [r0, #0]
100022b8:	2900      	cmp	r1, #0
100022ba:	d00a      	beq.n	100022d2 <watchdog_enable+0x32>
100022bc:	21e0      	movs	r1, #224	; 0xe0
100022be:	4b16      	ldr	r3, [pc, #88]	; (10002318 <watchdog_enable+0x78>)
100022c0:	04c9      	lsls	r1, r1, #19
100022c2:	6019      	str	r1, [r3, #0]
100022c4:	2a00      	cmp	r2, #0
100022c6:	d109      	bne.n	100022dc <watchdog_enable+0x3c>
100022c8:	2280      	movs	r2, #128	; 0x80
100022ca:	4b13      	ldr	r3, [pc, #76]	; (10002318 <watchdog_enable+0x78>)
100022cc:	0612      	lsls	r2, r2, #24
100022ce:	601a      	str	r2, [r3, #0]
100022d0:	bd10      	pop	{r4, pc}
100022d2:	21e0      	movs	r1, #224	; 0xe0
100022d4:	04c9      	lsls	r1, r1, #19
100022d6:	6019      	str	r1, [r3, #0]
100022d8:	2a00      	cmp	r2, #0
100022da:	d0f5      	beq.n	100022c8 <watchdog_enable+0x28>
100022dc:	2380      	movs	r3, #128	; 0x80
100022de:	0150      	lsls	r0, r2, #5
100022e0:	1a80      	subs	r0, r0, r2
100022e2:	0080      	lsls	r0, r0, #2
100022e4:	1880      	adds	r0, r0, r2
100022e6:	0100      	lsls	r0, r0, #4
100022e8:	045b      	lsls	r3, r3, #17
100022ea:	4298      	cmp	r0, r3
100022ec:	d300      	bcc.n	100022f0 <watchdog_enable+0x50>
100022ee:	480b      	ldr	r0, [pc, #44]	; (1000231c <watchdog_enable+0x7c>)
100022f0:	2280      	movs	r2, #128	; 0x80
100022f2:	4b0b      	ldr	r3, [pc, #44]	; (10002320 <watchdog_enable+0x80>)
100022f4:	05d2      	lsls	r2, r2, #23
100022f6:	6018      	str	r0, [r3, #0]
100022f8:	4b02      	ldr	r3, [pc, #8]	; (10002304 <watchdog_enable+0x64>)
100022fa:	6058      	str	r0, [r3, #4]
100022fc:	4b06      	ldr	r3, [pc, #24]	; (10002318 <watchdog_enable+0x78>)
100022fe:	601a      	str	r2, [r3, #0]
10002300:	e7e6      	b.n	100022d0 <watchdog_enable+0x30>
10002302:	46c0      	nop			; (mov r8, r8)
10002304:	40058000 	.word	0x40058000
10002308:	6ab73121 	.word	0x6ab73121
1000230c:	4005b000 	.word	0x4005b000
10002310:	0001fffc 	.word	0x0001fffc
10002314:	40012008 	.word	0x40012008
10002318:	4005a000 	.word	0x4005a000
1000231c:	00ffffff 	.word	0x00ffffff
10002320:	20000a14 	.word	0x20000a14

10002324 <watchdog_reboot>:
10002324:	b510      	push	{r4, lr}
10002326:	0014      	movs	r4, r2
10002328:	2280      	movs	r2, #128	; 0x80
1000232a:	4b1b      	ldr	r3, [pc, #108]	; (10002398 <watchdog_reboot+0x74>)
1000232c:	05d2      	lsls	r2, r2, #23
1000232e:	601a      	str	r2, [r3, #0]
10002330:	2800      	cmp	r0, #0
10002332:	d01a      	beq.n	1000236a <watchdog_reboot+0x46>
10002334:	2301      	movs	r3, #1
10002336:	4a19      	ldr	r2, [pc, #100]	; (1000239c <watchdog_reboot+0x78>)
10002338:	4318      	orrs	r0, r3
1000233a:	4b19      	ldr	r3, [pc, #100]	; (100023a0 <watchdog_reboot+0x7c>)
1000233c:	61da      	str	r2, [r3, #28]
1000233e:	4a19      	ldr	r2, [pc, #100]	; (100023a4 <watchdog_reboot+0x80>)
10002340:	4042      	eors	r2, r0
10002342:	621a      	str	r2, [r3, #32]
10002344:	6259      	str	r1, [r3, #36]	; 0x24
10002346:	6298      	str	r0, [r3, #40]	; 0x28
10002348:	2280      	movs	r2, #128	; 0x80
1000234a:	4b13      	ldr	r3, [pc, #76]	; (10002398 <watchdog_reboot+0x74>)
1000234c:	05d2      	lsls	r2, r2, #23
1000234e:	601a      	str	r2, [r3, #0]
10002350:	4915      	ldr	r1, [pc, #84]	; (100023a8 <watchdog_reboot+0x84>)
10002352:	4a16      	ldr	r2, [pc, #88]	; (100023ac <watchdog_reboot+0x88>)
10002354:	6011      	str	r1, [r2, #0]
10002356:	22e0      	movs	r2, #224	; 0xe0
10002358:	04d2      	lsls	r2, r2, #19
1000235a:	601a      	str	r2, [r3, #0]
1000235c:	2c00      	cmp	r4, #0
1000235e:	d107      	bne.n	10002370 <watchdog_reboot+0x4c>
10002360:	2280      	movs	r2, #128	; 0x80
10002362:	4b13      	ldr	r3, [pc, #76]	; (100023b0 <watchdog_reboot+0x8c>)
10002364:	0612      	lsls	r2, r2, #24
10002366:	601a      	str	r2, [r3, #0]
10002368:	bd10      	pop	{r4, pc}
1000236a:	4b0d      	ldr	r3, [pc, #52]	; (100023a0 <watchdog_reboot+0x7c>)
1000236c:	61d8      	str	r0, [r3, #28]
1000236e:	e7eb      	b.n	10002348 <watchdog_reboot+0x24>
10002370:	2380      	movs	r3, #128	; 0x80
10002372:	0162      	lsls	r2, r4, #5
10002374:	1b12      	subs	r2, r2, r4
10002376:	0092      	lsls	r2, r2, #2
10002378:	1912      	adds	r2, r2, r4
1000237a:	0112      	lsls	r2, r2, #4
1000237c:	045b      	lsls	r3, r3, #17
1000237e:	429a      	cmp	r2, r3
10002380:	d300      	bcc.n	10002384 <watchdog_reboot+0x60>
10002382:	4a0c      	ldr	r2, [pc, #48]	; (100023b4 <watchdog_reboot+0x90>)
10002384:	4b0c      	ldr	r3, [pc, #48]	; (100023b8 <watchdog_reboot+0x94>)
10002386:	601a      	str	r2, [r3, #0]
10002388:	4b05      	ldr	r3, [pc, #20]	; (100023a0 <watchdog_reboot+0x7c>)
1000238a:	605a      	str	r2, [r3, #4]
1000238c:	2280      	movs	r2, #128	; 0x80
1000238e:	4b08      	ldr	r3, [pc, #32]	; (100023b0 <watchdog_reboot+0x8c>)
10002390:	05d2      	lsls	r2, r2, #23
10002392:	601a      	str	r2, [r3, #0]
10002394:	e7e8      	b.n	10002368 <watchdog_reboot+0x44>
10002396:	46c0      	nop			; (mov r8, r8)
10002398:	4005b000 	.word	0x4005b000
1000239c:	b007c0d3 	.word	0xb007c0d3
100023a0:	40058000 	.word	0x40058000
100023a4:	4ff83f2d 	.word	0x4ff83f2d
100023a8:	0001fffc 	.word	0x0001fffc
100023ac:	40012008 	.word	0x40012008
100023b0:	4005a000 	.word	0x4005a000
100023b4:	00ffffff 	.word	0x00ffffff
100023b8:	20000a14 	.word	0x20000a14

100023bc <xosc_init>:
100023bc:	23aa      	movs	r3, #170	; 0xaa
100023be:	4a06      	ldr	r2, [pc, #24]	; (100023d8 <xosc_init+0x1c>)
100023c0:	011b      	lsls	r3, r3, #4
100023c2:	6013      	str	r3, [r2, #0]
100023c4:	232f      	movs	r3, #47	; 0x2f
100023c6:	4905      	ldr	r1, [pc, #20]	; (100023dc <xosc_init+0x20>)
100023c8:	60d3      	str	r3, [r2, #12]
100023ca:	4b05      	ldr	r3, [pc, #20]	; (100023e0 <xosc_init+0x24>)
100023cc:	6019      	str	r1, [r3, #0]
100023ce:	6853      	ldr	r3, [r2, #4]
100023d0:	2b00      	cmp	r3, #0
100023d2:	dafc      	bge.n	100023ce <xosc_init+0x12>
100023d4:	4770      	bx	lr
100023d6:	46c0      	nop			; (mov r8, r8)
100023d8:	40024000 	.word	0x40024000
100023dc:	00fab000 	.word	0x00fab000
100023e0:	40026000 	.word	0x40026000

100023e4 <_out_null>:
100023e4:	4770      	bx	lr
100023e6:	46c0      	nop			; (mov r8, r8)

100023e8 <_out_rev>:
100023e8:	b5f8      	push	{r3, r4, r5, r6, r7, lr}
100023ea:	4657      	mov	r7, sl
100023ec:	464e      	mov	r6, r9
100023ee:	46de      	mov	lr, fp
100023f0:	4645      	mov	r5, r8
100023f2:	b5e0      	push	{r5, r6, r7, lr}
100023f4:	001f      	movs	r7, r3
100023f6:	9b0a      	ldr	r3, [sp, #40]	; 0x28
100023f8:	0005      	movs	r5, r0
100023fa:	469b      	mov	fp, r3
100023fc:	9b0d      	ldr	r3, [sp, #52]	; 0x34
100023fe:	000e      	movs	r6, r1
10002400:	4691      	mov	r9, r2
10002402:	4692      	mov	sl, r2
10002404:	079b      	lsls	r3, r3, #30
10002406:	d118      	bne.n	1000243a <_out_rev+0x52>
10002408:	9b0b      	ldr	r3, [sp, #44]	; 0x2c
1000240a:	9a0c      	ldr	r2, [sp, #48]	; 0x30
1000240c:	4293      	cmp	r3, r2
1000240e:	d214      	bcs.n	1000243a <_out_rev+0x52>
10002410:	0013      	movs	r3, r2
10002412:	9a0b      	ldr	r2, [sp, #44]	; 0x2c
10002414:	46b8      	mov	r8, r7
10002416:	1a9b      	subs	r3, r3, r2
10002418:	444b      	add	r3, r9
1000241a:	464c      	mov	r4, r9
1000241c:	000f      	movs	r7, r1
1000241e:	0006      	movs	r6, r0
10002420:	001d      	movs	r5, r3
10002422:	0022      	movs	r2, r4
10002424:	4643      	mov	r3, r8
10002426:	3401      	adds	r4, #1
10002428:	0039      	movs	r1, r7
1000242a:	2020      	movs	r0, #32
1000242c:	47b0      	blx	r6
1000242e:	42ac      	cmp	r4, r5
10002430:	d1f7      	bne.n	10002422 <_out_rev+0x3a>
10002432:	46aa      	mov	sl, r5
10002434:	0035      	movs	r5, r6
10002436:	003e      	movs	r6, r7
10002438:	4647      	mov	r7, r8
1000243a:	9b0b      	ldr	r3, [sp, #44]	; 0x2c
1000243c:	2b00      	cmp	r3, #0
1000243e:	d038      	beq.n	100024b2 <_out_rev+0xca>
10002440:	449a      	add	sl, r3
10002442:	001c      	movs	r4, r3
10002444:	46d0      	mov	r8, sl
10002446:	4653      	mov	r3, sl
10002448:	1b1a      	subs	r2, r3, r4
1000244a:	465b      	mov	r3, fp
1000244c:	3c01      	subs	r4, #1
1000244e:	5d18      	ldrb	r0, [r3, r4]
10002450:	0031      	movs	r1, r6
10002452:	003b      	movs	r3, r7
10002454:	47a8      	blx	r5
10002456:	2c00      	cmp	r4, #0
10002458:	d1f5      	bne.n	10002446 <_out_rev+0x5e>
1000245a:	9b0d      	ldr	r3, [sp, #52]	; 0x34
1000245c:	079b      	lsls	r3, r3, #30
1000245e:	d521      	bpl.n	100024a4 <_out_rev+0xbc>
10002460:	4643      	mov	r3, r8
10002462:	464a      	mov	r2, r9
10002464:	1a9c      	subs	r4, r3, r2
10002466:	9b0c      	ldr	r3, [sp, #48]	; 0x30
10002468:	42a3      	cmp	r3, r4
1000246a:	d91b      	bls.n	100024a4 <_out_rev+0xbc>
1000246c:	003a      	movs	r2, r7
1000246e:	469a      	mov	sl, r3
10002470:	464f      	mov	r7, r9
10002472:	4691      	mov	r9, r2
10002474:	19e2      	adds	r2, r4, r7
10002476:	464b      	mov	r3, r9
10002478:	0031      	movs	r1, r6
1000247a:	2020      	movs	r0, #32
1000247c:	3401      	adds	r4, #1
1000247e:	47a8      	blx	r5
10002480:	4554      	cmp	r4, sl
10002482:	d3f7      	bcc.n	10002474 <_out_rev+0x8c>
10002484:	4643      	mov	r3, r8
10002486:	990c      	ldr	r1, [sp, #48]	; 0x30
10002488:	1bdb      	subs	r3, r3, r7
1000248a:	3301      	adds	r3, #1
1000248c:	46b9      	mov	r9, r7
1000248e:	2200      	movs	r2, #0
10002490:	4299      	cmp	r1, r3
10002492:	d303      	bcc.n	1000249c <_out_rev+0xb4>
10002494:	4643      	mov	r3, r8
10002496:	1e4a      	subs	r2, r1, #1
10002498:	444a      	add	r2, r9
1000249a:	1ad2      	subs	r2, r2, r3
1000249c:	4643      	mov	r3, r8
1000249e:	4690      	mov	r8, r2
100024a0:	3301      	adds	r3, #1
100024a2:	4498      	add	r8, r3
100024a4:	4640      	mov	r0, r8
100024a6:	bc3c      	pop	{r2, r3, r4, r5}
100024a8:	4690      	mov	r8, r2
100024aa:	4699      	mov	r9, r3
100024ac:	46a2      	mov	sl, r4
100024ae:	46ab      	mov	fp, r5
100024b0:	bdf8      	pop	{r3, r4, r5, r6, r7, pc}
100024b2:	46d0      	mov	r8, sl
100024b4:	e7d1      	b.n	1000245a <_out_rev+0x72>
100024b6:	46c0      	nop			; (mov r8, r8)

100024b8 <_ntoa_format>:
100024b8:	b5f0      	push	{r4, r5, r6, r7, lr}
100024ba:	464f      	mov	r7, r9
100024bc:	4646      	mov	r6, r8
100024be:	46d6      	mov	lr, sl
100024c0:	b5c0      	push	{r6, r7, lr}
100024c2:	b084      	sub	sp, #16
100024c4:	4698      	mov	r8, r3
100024c6:	ab0e      	add	r3, sp, #56	; 0x38
100024c8:	781b      	ldrb	r3, [r3, #0]
100024ca:	9f12      	ldr	r7, [sp, #72]	; 0x48
100024cc:	4699      	mov	r9, r3
100024ce:	4694      	mov	ip, r2
100024d0:	9c0d      	ldr	r4, [sp, #52]	; 0x34
100024d2:	9b10      	ldr	r3, [sp, #64]	; 0x40
100024d4:	9e11      	ldr	r6, [sp, #68]	; 0x44
100024d6:	07ba      	lsls	r2, r7, #30
100024d8:	d425      	bmi.n	10002526 <_ntoa_format+0x6e>
100024da:	2e00      	cmp	r6, #0
100024dc:	d169      	bne.n	100025b2 <_ntoa_format+0xfa>
100024de:	429c      	cmp	r4, r3
100024e0:	d300      	bcc.n	100024e4 <_ntoa_format+0x2c>
100024e2:	e0c2      	b.n	1000266a <_ntoa_format+0x1b2>
100024e4:	2201      	movs	r2, #1
100024e6:	403a      	ands	r2, r7
100024e8:	4692      	mov	sl, r2
100024ea:	2c1f      	cmp	r4, #31
100024ec:	d900      	bls.n	100024f0 <_ntoa_format+0x38>
100024ee:	e0bb      	b.n	10002668 <_ntoa_format+0x1b0>
100024f0:	9a0c      	ldr	r2, [sp, #48]	; 0x30
100024f2:	1e55      	subs	r5, r2, #1
100024f4:	2230      	movs	r2, #48	; 0x30
100024f6:	e001      	b.n	100024fc <_ntoa_format+0x44>
100024f8:	2c20      	cmp	r4, #32
100024fa:	d003      	beq.n	10002504 <_ntoa_format+0x4c>
100024fc:	3401      	adds	r4, #1
100024fe:	552a      	strb	r2, [r5, r4]
10002500:	42a3      	cmp	r3, r4
10002502:	d8f9      	bhi.n	100024f8 <_ntoa_format+0x40>
10002504:	4652      	mov	r2, sl
10002506:	2a00      	cmp	r2, #0
10002508:	d00d      	beq.n	10002526 <_ntoa_format+0x6e>
1000250a:	42b4      	cmp	r4, r6
1000250c:	d20b      	bcs.n	10002526 <_ntoa_format+0x6e>
1000250e:	2c1f      	cmp	r4, #31
10002510:	d862      	bhi.n	100025d8 <_ntoa_format+0x120>
10002512:	9a0c      	ldr	r2, [sp, #48]	; 0x30
10002514:	1e55      	subs	r5, r2, #1
10002516:	2230      	movs	r2, #48	; 0x30
10002518:	e001      	b.n	1000251e <_ntoa_format+0x66>
1000251a:	2c20      	cmp	r4, #32
1000251c:	d05c      	beq.n	100025d8 <_ntoa_format+0x120>
1000251e:	3401      	adds	r4, #1
10002520:	552a      	strb	r2, [r5, r4]
10002522:	42b4      	cmp	r4, r6
10002524:	d1f9      	bne.n	1000251a <_ntoa_format+0x62>
10002526:	06fa      	lsls	r2, r7, #27
10002528:	d535      	bpl.n	10002596 <_ntoa_format+0xde>
1000252a:	057a      	lsls	r2, r7, #21
1000252c:	d45d      	bmi.n	100025ea <_ntoa_format+0x132>
1000252e:	2c00      	cmp	r4, #0
10002530:	d157      	bne.n	100025e2 <_ntoa_format+0x12a>
10002532:	9b0f      	ldr	r3, [sp, #60]	; 0x3c
10002534:	2b10      	cmp	r3, #16
10002536:	d100      	bne.n	1000253a <_ntoa_format+0x82>
10002538:	e07c      	b.n	10002634 <_ntoa_format+0x17c>
1000253a:	9b0f      	ldr	r3, [sp, #60]	; 0x3c
1000253c:	2b02      	cmp	r3, #2
1000253e:	d100      	bne.n	10002542 <_ntoa_format+0x8a>
10002540:	e08d      	b.n	1000265e <_ntoa_format+0x1a6>
10002542:	2330      	movs	r3, #48	; 0x30
10002544:	9a0c      	ldr	r2, [sp, #48]	; 0x30
10002546:	2401      	movs	r4, #1
10002548:	7013      	strb	r3, [r2, #0]
1000254a:	464b      	mov	r3, r9
1000254c:	2b00      	cmp	r3, #0
1000254e:	d027      	beq.n	100025a0 <_ntoa_format+0xe8>
10002550:	232d      	movs	r3, #45	; 0x2d
10002552:	9a0c      	ldr	r2, [sp, #48]	; 0x30
10002554:	5513      	strb	r3, [r2, r4]
10002556:	3401      	adds	r4, #1
10002558:	9b0c      	ldr	r3, [sp, #48]	; 0x30
1000255a:	4662      	mov	r2, ip
1000255c:	9300      	str	r3, [sp, #0]
1000255e:	9703      	str	r7, [sp, #12]
10002560:	4643      	mov	r3, r8
10002562:	9602      	str	r6, [sp, #8]
10002564:	9401      	str	r4, [sp, #4]
10002566:	f7ff ff3f 	bl	100023e8 <_out_rev>
1000256a:	b004      	add	sp, #16
1000256c:	bc1c      	pop	{r2, r3, r4}
1000256e:	4690      	mov	r8, r2
10002570:	4699      	mov	r9, r3
10002572:	46a2      	mov	sl, r4
10002574:	bdf0      	pop	{r4, r5, r6, r7, pc}
10002576:	06bb      	lsls	r3, r7, #26
10002578:	d463      	bmi.n	10002642 <_ntoa_format+0x18a>
1000257a:	2c20      	cmp	r4, #32
1000257c:	d0ec      	beq.n	10002558 <_ntoa_format+0xa0>
1000257e:	9b0c      	ldr	r3, [sp, #48]	; 0x30
10002580:	191a      	adds	r2, r3, r4
10002582:	3401      	adds	r4, #1
10002584:	2378      	movs	r3, #120	; 0x78
10002586:	7013      	strb	r3, [r2, #0]
10002588:	2c20      	cmp	r4, #32
1000258a:	d0e5      	beq.n	10002558 <_ntoa_format+0xa0>
1000258c:	2230      	movs	r2, #48	; 0x30
1000258e:	9b0c      	ldr	r3, [sp, #48]	; 0x30
10002590:	191b      	adds	r3, r3, r4
10002592:	701a      	strb	r2, [r3, #0]
10002594:	3401      	adds	r4, #1
10002596:	2c20      	cmp	r4, #32
10002598:	d0de      	beq.n	10002558 <_ntoa_format+0xa0>
1000259a:	464b      	mov	r3, r9
1000259c:	2b00      	cmp	r3, #0
1000259e:	d1d7      	bne.n	10002550 <_ntoa_format+0x98>
100025a0:	077b      	lsls	r3, r7, #29
100025a2:	d435      	bmi.n	10002610 <_ntoa_format+0x158>
100025a4:	073b      	lsls	r3, r7, #28
100025a6:	d5d7      	bpl.n	10002558 <_ntoa_format+0xa0>
100025a8:	2320      	movs	r3, #32
100025aa:	9a0c      	ldr	r2, [sp, #48]	; 0x30
100025ac:	5513      	strb	r3, [r2, r4]
100025ae:	3401      	adds	r4, #1
100025b0:	e7d2      	b.n	10002558 <_ntoa_format+0xa0>
100025b2:	2201      	movs	r2, #1
100025b4:	0015      	movs	r5, r2
100025b6:	403d      	ands	r5, r7
100025b8:	46aa      	mov	sl, r5
100025ba:	423a      	tst	r2, r7
100025bc:	d020      	beq.n	10002600 <_ntoa_format+0x148>
100025be:	464a      	mov	r2, r9
100025c0:	2a00      	cmp	r2, #0
100025c2:	d12a      	bne.n	1000261a <_ntoa_format+0x162>
100025c4:	320c      	adds	r2, #12
100025c6:	423a      	tst	r2, r7
100025c8:	d127      	bne.n	1000261a <_ntoa_format+0x162>
100025ca:	429c      	cmp	r4, r3
100025cc:	d29d      	bcs.n	1000250a <_ntoa_format+0x52>
100025ce:	2c1f      	cmp	r4, #31
100025d0:	d800      	bhi.n	100025d4 <_ntoa_format+0x11c>
100025d2:	e78d      	b.n	100024f0 <_ntoa_format+0x38>
100025d4:	2e20      	cmp	r6, #32
100025d6:	d919      	bls.n	1000260c <_ntoa_format+0x154>
100025d8:	2420      	movs	r4, #32
100025da:	06fa      	lsls	r2, r7, #27
100025dc:	d5bc      	bpl.n	10002558 <_ntoa_format+0xa0>
100025de:	057a      	lsls	r2, r7, #21
100025e0:	d403      	bmi.n	100025ea <_ntoa_format+0x132>
100025e2:	42a3      	cmp	r3, r4
100025e4:	d01b      	beq.n	1000261e <_ntoa_format+0x166>
100025e6:	42a6      	cmp	r6, r4
100025e8:	d019      	beq.n	1000261e <_ntoa_format+0x166>
100025ea:	9b0f      	ldr	r3, [sp, #60]	; 0x3c
100025ec:	2b10      	cmp	r3, #16
100025ee:	d0c2      	beq.n	10002576 <_ntoa_format+0xbe>
100025f0:	2b02      	cmp	r3, #2
100025f2:	d1c9      	bne.n	10002588 <_ntoa_format+0xd0>
100025f4:	2c20      	cmp	r4, #32
100025f6:	d0af      	beq.n	10002558 <_ntoa_format+0xa0>
100025f8:	9b0c      	ldr	r3, [sp, #48]	; 0x30
100025fa:	191b      	adds	r3, r3, r4
100025fc:	3401      	adds	r4, #1
100025fe:	e040      	b.n	10002682 <_ntoa_format+0x1ca>
10002600:	429c      	cmp	r4, r3
10002602:	d300      	bcc.n	10002606 <_ntoa_format+0x14e>
10002604:	e78f      	b.n	10002526 <_ntoa_format+0x6e>
10002606:	2c1f      	cmp	r4, #31
10002608:	d800      	bhi.n	1000260c <_ntoa_format+0x154>
1000260a:	e771      	b.n	100024f0 <_ntoa_format+0x38>
1000260c:	2420      	movs	r4, #32
1000260e:	e78a      	b.n	10002526 <_ntoa_format+0x6e>
10002610:	232b      	movs	r3, #43	; 0x2b
10002612:	9a0c      	ldr	r2, [sp, #48]	; 0x30
10002614:	5513      	strb	r3, [r2, r4]
10002616:	3401      	adds	r4, #1
10002618:	e79e      	b.n	10002558 <_ntoa_format+0xa0>
1000261a:	3e01      	subs	r6, #1
1000261c:	e7d5      	b.n	100025ca <_ntoa_format+0x112>
1000261e:	1e63      	subs	r3, r4, #1
10002620:	2c01      	cmp	r4, #1
10002622:	d100      	bne.n	10002626 <_ntoa_format+0x16e>
10002624:	e785      	b.n	10002532 <_ntoa_format+0x7a>
10002626:	9a0f      	ldr	r2, [sp, #60]	; 0x3c
10002628:	2a10      	cmp	r2, #16
1000262a:	d020      	beq.n	1000266e <_ntoa_format+0x1b6>
1000262c:	2a02      	cmp	r2, #2
1000262e:	d025      	beq.n	1000267c <_ntoa_format+0x1c4>
10002630:	001c      	movs	r4, r3
10002632:	e7ab      	b.n	1000258c <_ntoa_format+0xd4>
10002634:	06bb      	lsls	r3, r7, #26
10002636:	d40d      	bmi.n	10002654 <_ntoa_format+0x19c>
10002638:	2378      	movs	r3, #120	; 0x78
1000263a:	9a0c      	ldr	r2, [sp, #48]	; 0x30
1000263c:	2401      	movs	r4, #1
1000263e:	7013      	strb	r3, [r2, #0]
10002640:	e7a4      	b.n	1000258c <_ntoa_format+0xd4>
10002642:	2c20      	cmp	r4, #32
10002644:	d100      	bne.n	10002648 <_ntoa_format+0x190>
10002646:	e787      	b.n	10002558 <_ntoa_format+0xa0>
10002648:	2258      	movs	r2, #88	; 0x58
1000264a:	9b0c      	ldr	r3, [sp, #48]	; 0x30
1000264c:	191b      	adds	r3, r3, r4
1000264e:	701a      	strb	r2, [r3, #0]
10002650:	3401      	adds	r4, #1
10002652:	e799      	b.n	10002588 <_ntoa_format+0xd0>
10002654:	2358      	movs	r3, #88	; 0x58
10002656:	9a0c      	ldr	r2, [sp, #48]	; 0x30
10002658:	2401      	movs	r4, #1
1000265a:	7013      	strb	r3, [r2, #0]
1000265c:	e796      	b.n	1000258c <_ntoa_format+0xd4>
1000265e:	9a0c      	ldr	r2, [sp, #48]	; 0x30
10002660:	3360      	adds	r3, #96	; 0x60
10002662:	2401      	movs	r4, #1
10002664:	7013      	strb	r3, [r2, #0]
10002666:	e791      	b.n	1000258c <_ntoa_format+0xd4>
10002668:	2420      	movs	r4, #32
1000266a:	2600      	movs	r6, #0
1000266c:	e75b      	b.n	10002526 <_ntoa_format+0x6e>
1000266e:	3c02      	subs	r4, #2
10002670:	06ba      	lsls	r2, r7, #26
10002672:	d4e9      	bmi.n	10002648 <_ntoa_format+0x190>
10002674:	9a0c      	ldr	r2, [sp, #48]	; 0x30
10002676:	1912      	adds	r2, r2, r4
10002678:	001c      	movs	r4, r3
1000267a:	e783      	b.n	10002584 <_ntoa_format+0xcc>
1000267c:	9a0c      	ldr	r2, [sp, #48]	; 0x30
1000267e:	4692      	mov	sl, r2
10002680:	4453      	add	r3, sl
10002682:	2262      	movs	r2, #98	; 0x62
10002684:	701a      	strb	r2, [r3, #0]
10002686:	e77f      	b.n	10002588 <_ntoa_format+0xd0>

10002688 <_out_char>:
10002688:	b510      	push	{r4, lr}
1000268a:	2800      	cmp	r0, #0
1000268c:	d100      	bne.n	10002690 <_out_char+0x8>
1000268e:	bd10      	pop	{r4, pc}
10002690:	f002 fa48 	bl	10004b24 <__wrap_putchar>
10002694:	e7fb      	b.n	1000268e <_out_char+0x6>
10002696:	46c0      	nop			; (mov r8, r8)

10002698 <_out_fct>:
10002698:	000b      	movs	r3, r1
1000269a:	b510      	push	{r4, lr}
1000269c:	2800      	cmp	r0, #0
1000269e:	d002      	beq.n	100026a6 <_out_fct+0xe>
100026a0:	6849      	ldr	r1, [r1, #4]
100026a2:	681b      	ldr	r3, [r3, #0]
100026a4:	4798      	blx	r3
100026a6:	bd10      	pop	{r4, pc}

100026a8 <_etoa>:
100026a8:	b5f0      	push	{r4, r5, r6, r7, lr}
100026aa:	46de      	mov	lr, fp
100026ac:	4657      	mov	r7, sl
100026ae:	4645      	mov	r5, r8
100026b0:	464e      	mov	r6, r9
100026b2:	b5e0      	push	{r5, r6, r7, lr}
100026b4:	b09b      	sub	sp, #108	; 0x6c
100026b6:	469b      	mov	fp, r3
100026b8:	9b24      	ldr	r3, [sp, #144]	; 0x90
100026ba:	900a      	str	r0, [sp, #40]	; 0x28
100026bc:	4698      	mov	r8, r3
100026be:	9b25      	ldr	r3, [sp, #148]	; 0x94
100026c0:	910b      	str	r1, [sp, #44]	; 0x2c
100026c2:	920c      	str	r2, [sp, #48]	; 0x30
100026c4:	4640      	mov	r0, r8
100026c6:	4642      	mov	r2, r8
100026c8:	0019      	movs	r1, r3
100026ca:	469a      	mov	sl, r3
100026cc:	f001 fcf3 	bl	100040b6 <__wrap___aeabi_dcmpun>
100026d0:	2800      	cmp	r0, #0
100026d2:	d000      	beq.n	100026d6 <_etoa+0x2e>
100026d4:	e0e8      	b.n	100028a8 <_etoa+0x200>
100026d6:	2201      	movs	r2, #1
100026d8:	4640      	mov	r0, r8
100026da:	4651      	mov	r1, sl
100026dc:	4b7f      	ldr	r3, [pc, #508]	; (100028dc <_etoa+0x234>)
100026de:	4252      	negs	r2, r2
100026e0:	f001 fce4 	bl	100040ac <__wrap___aeabi_dcmpgt>
100026e4:	2800      	cmp	r0, #0
100026e6:	d000      	beq.n	100026ea <_etoa+0x42>
100026e8:	e0de      	b.n	100028a8 <_etoa+0x200>
100026ea:	2201      	movs	r2, #1
100026ec:	4640      	mov	r0, r8
100026ee:	4651      	mov	r1, sl
100026f0:	4b7b      	ldr	r3, [pc, #492]	; (100028e0 <_etoa+0x238>)
100026f2:	4252      	negs	r2, r2
100026f4:	f001 fcc4 	bl	10004080 <__wrap___aeabi_dcmplt>
100026f8:	2800      	cmp	r0, #0
100026fa:	d000      	beq.n	100026fe <_etoa+0x56>
100026fc:	e0d4      	b.n	100028a8 <_etoa+0x200>
100026fe:	2200      	movs	r2, #0
10002700:	2300      	movs	r3, #0
10002702:	4640      	mov	r0, r8
10002704:	4651      	mov	r1, sl
10002706:	f001 fcbb 	bl	10004080 <__wrap___aeabi_dcmplt>
1000270a:	2800      	cmp	r0, #0
1000270c:	d000      	beq.n	10002710 <_etoa+0x68>
1000270e:	e1ca      	b.n	10002aa6 <_etoa+0x3fe>
10002710:	4653      	mov	r3, sl
10002712:	46c1      	mov	r9, r8
10002714:	9309      	str	r3, [sp, #36]	; 0x24
10002716:	2380      	movs	r3, #128	; 0x80
10002718:	9a28      	ldr	r2, [sp, #160]	; 0xa0
1000271a:	00db      	lsls	r3, r3, #3
1000271c:	401a      	ands	r2, r3
1000271e:	920e      	str	r2, [sp, #56]	; 0x38
10002720:	9a28      	ldr	r2, [sp, #160]	; 0xa0
10002722:	421a      	tst	r2, r3
10002724:	d101      	bne.n	1000272a <_etoa+0x82>
10002726:	2306      	movs	r3, #6
10002728:	9326      	str	r3, [sp, #152]	; 0x98
1000272a:	464c      	mov	r4, r9
1000272c:	9b09      	ldr	r3, [sp, #36]	; 0x24
1000272e:	4323      	orrs	r3, r4
10002730:	d000      	beq.n	10002734 <_etoa+0x8c>
10002732:	e0d9      	b.n	100028e8 <_etoa+0x240>
10002734:	9b28      	ldr	r3, [sp, #160]	; 0xa0
10002736:	2600      	movs	r6, #0
10002738:	2700      	movs	r7, #0
1000273a:	051b      	lsls	r3, r3, #20
1000273c:	d400      	bmi.n	10002740 <_etoa+0x98>
1000273e:	e1ae      	b.n	10002a9e <_etoa+0x3f6>
10002740:	2300      	movs	r3, #0
10002742:	930d      	str	r3, [sp, #52]	; 0x34
10002744:	9b26      	ldr	r3, [sp, #152]	; 0x98
10002746:	0019      	movs	r1, r3
10002748:	9b0d      	ldr	r3, [sp, #52]	; 0x34
1000274a:	4299      	cmp	r1, r3
1000274c:	dc00      	bgt.n	10002750 <_etoa+0xa8>
1000274e:	e1b0      	b.n	10002ab2 <_etoa+0x40a>
10002750:	1ac8      	subs	r0, r1, r3
10002752:	1e43      	subs	r3, r0, #1
10002754:	9326      	str	r3, [sp, #152]	; 0x98
10002756:	2380      	movs	r3, #128	; 0x80
10002758:	9a28      	ldr	r2, [sp, #160]	; 0xa0
1000275a:	00db      	lsls	r3, r3, #3
1000275c:	431a      	orrs	r2, r3
1000275e:	2300      	movs	r3, #0
10002760:	2500      	movs	r5, #0
10002762:	9228      	str	r2, [sp, #160]	; 0xa0
10002764:	930d      	str	r3, [sp, #52]	; 0x34
10002766:	9b27      	ldr	r3, [sp, #156]	; 0x9c
10002768:	2400      	movs	r4, #0
1000276a:	42ab      	cmp	r3, r5
1000276c:	d900      	bls.n	10002770 <_etoa+0xc8>
1000276e:	1b5c      	subs	r4, r3, r5
10002770:	2302      	movs	r3, #2
10002772:	9a28      	ldr	r2, [sp, #160]	; 0xa0
10002774:	401a      	ands	r2, r3
10002776:	920e      	str	r2, [sp, #56]	; 0x38
10002778:	9a28      	ldr	r2, [sp, #160]	; 0xa0
1000277a:	4213      	tst	r3, r2
1000277c:	d003      	beq.n	10002786 <_etoa+0xde>
1000277e:	426b      	negs	r3, r5
10002780:	416b      	adcs	r3, r5
10002782:	425b      	negs	r3, r3
10002784:	401c      	ands	r4, r3
10002786:	9b0d      	ldr	r3, [sp, #52]	; 0x34
10002788:	2b00      	cmp	r3, #0
1000278a:	d007      	beq.n	1000279c <_etoa+0xf4>
1000278c:	4648      	mov	r0, r9
1000278e:	9909      	ldr	r1, [sp, #36]	; 0x24
10002790:	0032      	movs	r2, r6
10002792:	003b      	movs	r3, r7
10002794:	f001 fc13 	bl	10003fbe <__wrap___aeabi_ddiv>
10002798:	4681      	mov	r9, r0
1000279a:	9109      	str	r1, [sp, #36]	; 0x24
1000279c:	2200      	movs	r2, #0
1000279e:	2300      	movs	r3, #0
100027a0:	4640      	mov	r0, r8
100027a2:	4651      	mov	r1, sl
100027a4:	f001 fc6c 	bl	10004080 <__wrap___aeabi_dcmplt>
100027a8:	2800      	cmp	r0, #0
100027aa:	d005      	beq.n	100027b8 <_etoa+0x110>
100027ac:	2080      	movs	r0, #128	; 0x80
100027ae:	0600      	lsls	r0, r0, #24
100027b0:	4684      	mov	ip, r0
100027b2:	9909      	ldr	r1, [sp, #36]	; 0x24
100027b4:	4461      	add	r1, ip
100027b6:	9109      	str	r1, [sp, #36]	; 0x24
100027b8:	9a28      	ldr	r2, [sp, #160]	; 0xa0
100027ba:	4b4a      	ldr	r3, [pc, #296]	; (100028e4 <_etoa+0x23c>)
100027bc:	9e0a      	ldr	r6, [sp, #40]	; 0x28
100027be:	4013      	ands	r3, r2
100027c0:	464a      	mov	r2, r9
100027c2:	9304      	str	r3, [sp, #16]
100027c4:	9b26      	ldr	r3, [sp, #152]	; 0x98
100027c6:	990b      	ldr	r1, [sp, #44]	; 0x2c
100027c8:	9302      	str	r3, [sp, #8]
100027ca:	9b09      	ldr	r3, [sp, #36]	; 0x24
100027cc:	9403      	str	r4, [sp, #12]
100027ce:	9200      	str	r2, [sp, #0]
100027d0:	9301      	str	r3, [sp, #4]
100027d2:	0030      	movs	r0, r6
100027d4:	465b      	mov	r3, fp
100027d6:	9a0c      	ldr	r2, [sp, #48]	; 0x30
100027d8:	4688      	mov	r8, r1
100027da:	f000 f9a1 	bl	10002b20 <_ftoa>
100027de:	0004      	movs	r4, r0
100027e0:	2d00      	cmp	r5, #0
100027e2:	d072      	beq.n	100028ca <_etoa+0x222>
100027e4:	9b28      	ldr	r3, [sp, #160]	; 0xa0
100027e6:	0022      	movs	r2, r4
100027e8:	0698      	lsls	r0, r3, #26
100027ea:	231f      	movs	r3, #31
100027ec:	17c0      	asrs	r0, r0, #31
100027ee:	4398      	bics	r0, r3
100027f0:	4641      	mov	r1, r8
100027f2:	465b      	mov	r3, fp
100027f4:	3065      	adds	r0, #101	; 0x65
100027f6:	47b0      	blx	r6
100027f8:	9b0d      	ldr	r3, [sp, #52]	; 0x34
100027fa:	1c67      	adds	r7, r4, #1
100027fc:	17da      	asrs	r2, r3, #31
100027fe:	189c      	adds	r4, r3, r2
10002800:	0fdb      	lsrs	r3, r3, #31
10002802:	4698      	mov	r8, r3
10002804:	1e6b      	subs	r3, r5, #1
10002806:	4699      	mov	r9, r3
10002808:	2500      	movs	r5, #0
1000280a:	4054      	eors	r4, r2
1000280c:	e001      	b.n	10002812 <_etoa+0x16a>
1000280e:	2d20      	cmp	r5, #32
10002810:	d013      	beq.n	1000283a <_etoa+0x192>
10002812:	aa0a      	add	r2, sp, #40	; 0x28
10002814:	4694      	mov	ip, r2
10002816:	231f      	movs	r3, #31
10002818:	0020      	movs	r0, r4
1000281a:	4463      	add	r3, ip
1000281c:	210a      	movs	r1, #10
1000281e:	3501      	adds	r5, #1
10002820:	195e      	adds	r6, r3, r5
10002822:	f001 f977 	bl	10003b14 <__wrap___aeabi_uidiv>
10002826:	3130      	adds	r1, #48	; 0x30
10002828:	7031      	strb	r1, [r6, #0]
1000282a:	0020      	movs	r0, r4
1000282c:	210a      	movs	r1, #10
1000282e:	f001 f971 	bl	10003b14 <__wrap___aeabi_uidiv>
10002832:	0026      	movs	r6, r4
10002834:	0004      	movs	r4, r0
10002836:	2e09      	cmp	r6, #9
10002838:	d8e9      	bhi.n	1000280e <_etoa+0x166>
1000283a:	2305      	movs	r3, #5
1000283c:	9306      	str	r3, [sp, #24]
1000283e:	464b      	mov	r3, r9
10002840:	9305      	str	r3, [sp, #20]
10002842:	2300      	movs	r3, #0
10002844:	9304      	str	r3, [sp, #16]
10002846:	330a      	adds	r3, #10
10002848:	9303      	str	r3, [sp, #12]
1000284a:	4643      	mov	r3, r8
1000284c:	003a      	movs	r2, r7
1000284e:	9e0a      	ldr	r6, [sp, #40]	; 0x28
10002850:	9f0b      	ldr	r7, [sp, #44]	; 0x2c
10002852:	9302      	str	r3, [sp, #8]
10002854:	ab12      	add	r3, sp, #72	; 0x48
10002856:	9300      	str	r3, [sp, #0]
10002858:	0039      	movs	r1, r7
1000285a:	465b      	mov	r3, fp
1000285c:	0030      	movs	r0, r6
1000285e:	9501      	str	r5, [sp, #4]
10002860:	f7ff fe2a 	bl	100024b8 <_ntoa_format>
10002864:	9b0e      	ldr	r3, [sp, #56]	; 0x38
10002866:	0004      	movs	r4, r0
10002868:	2b00      	cmp	r3, #0
1000286a:	d02e      	beq.n	100028ca <_etoa+0x222>
1000286c:	9b0c      	ldr	r3, [sp, #48]	; 0x30
1000286e:	9a27      	ldr	r2, [sp, #156]	; 0x9c
10002870:	1ac5      	subs	r5, r0, r3
10002872:	42aa      	cmp	r2, r5
10002874:	d929      	bls.n	100028ca <_etoa+0x222>
10002876:	003c      	movs	r4, r7
10002878:	4681      	mov	r9, r0
1000287a:	4698      	mov	r8, r3
1000287c:	0017      	movs	r7, r2
1000287e:	4643      	mov	r3, r8
10002880:	0021      	movs	r1, r4
10002882:	195a      	adds	r2, r3, r5
10002884:	2020      	movs	r0, #32
10002886:	465b      	mov	r3, fp
10002888:	3501      	adds	r5, #1
1000288a:	47b0      	blx	r6
1000288c:	42af      	cmp	r7, r5
1000288e:	d8f6      	bhi.n	1000287e <_etoa+0x1d6>
10002890:	464c      	mov	r4, r9
10002892:	990c      	ldr	r1, [sp, #48]	; 0x30
10002894:	9827      	ldr	r0, [sp, #156]	; 0x9c
10002896:	1a63      	subs	r3, r4, r1
10002898:	3301      	adds	r3, #1
1000289a:	2200      	movs	r2, #0
1000289c:	4298      	cmp	r0, r3
1000289e:	d300      	bcc.n	100028a2 <_etoa+0x1fa>
100028a0:	e10a      	b.n	10002ab8 <_etoa+0x410>
100028a2:	3401      	adds	r4, #1
100028a4:	1914      	adds	r4, r2, r4
100028a6:	e010      	b.n	100028ca <_etoa+0x222>
100028a8:	9b28      	ldr	r3, [sp, #160]	; 0xa0
100028aa:	4642      	mov	r2, r8
100028ac:	9304      	str	r3, [sp, #16]
100028ae:	9b27      	ldr	r3, [sp, #156]	; 0x9c
100028b0:	990b      	ldr	r1, [sp, #44]	; 0x2c
100028b2:	9303      	str	r3, [sp, #12]
100028b4:	9b26      	ldr	r3, [sp, #152]	; 0x98
100028b6:	980a      	ldr	r0, [sp, #40]	; 0x28
100028b8:	9302      	str	r3, [sp, #8]
100028ba:	4653      	mov	r3, sl
100028bc:	9200      	str	r2, [sp, #0]
100028be:	9301      	str	r3, [sp, #4]
100028c0:	465b      	mov	r3, fp
100028c2:	9a0c      	ldr	r2, [sp, #48]	; 0x30
100028c4:	f000 f92c 	bl	10002b20 <_ftoa>
100028c8:	0004      	movs	r4, r0
100028ca:	0020      	movs	r0, r4
100028cc:	b01b      	add	sp, #108	; 0x6c
100028ce:	bc3c      	pop	{r2, r3, r4, r5}
100028d0:	4690      	mov	r8, r2
100028d2:	4699      	mov	r9, r3
100028d4:	46a2      	mov	sl, r4
100028d6:	46ab      	mov	fp, r5
100028d8:	bdf0      	pop	{r4, r5, r6, r7, pc}
100028da:	46c0      	nop			; (mov r8, r8)
100028dc:	7fefffff 	.word	0x7fefffff
100028e0:	ffefffff 	.word	0xffefffff
100028e4:	fffff7ff 	.word	0xfffff7ff
100028e8:	4b76      	ldr	r3, [pc, #472]	; (10002ac4 <_etoa+0x41c>)
100028ea:	9d09      	ldr	r5, [sp, #36]	; 0x24
100028ec:	469c      	mov	ip, r3
100028ee:	0068      	lsls	r0, r5, #1
100028f0:	0d40      	lsrs	r0, r0, #21
100028f2:	4460      	add	r0, ip
100028f4:	f001 fbf2 	bl	100040dc <__wrap___aeabi_i2d>
100028f8:	4a73      	ldr	r2, [pc, #460]	; (10002ac8 <_etoa+0x420>)
100028fa:	4b74      	ldr	r3, [pc, #464]	; (10002acc <_etoa+0x424>)
100028fc:	f001 fb7d 	bl	10003ffa <__wrap___aeabi_dmul>
10002900:	4a73      	ldr	r2, [pc, #460]	; (10002ad0 <_etoa+0x428>)
10002902:	4b74      	ldr	r3, [pc, #464]	; (10002ad4 <_etoa+0x42c>)
10002904:	f001 fb52 	bl	10003fac <__wrap___aeabi_dadd>
10002908:	032b      	lsls	r3, r5, #12
1000290a:	4a73      	ldr	r2, [pc, #460]	; (10002ad8 <_etoa+0x430>)
1000290c:	0b1b      	lsrs	r3, r3, #12
1000290e:	431a      	orrs	r2, r3
10002910:	0006      	movs	r6, r0
10002912:	000f      	movs	r7, r1
10002914:	4b71      	ldr	r3, [pc, #452]	; (10002adc <_etoa+0x434>)
10002916:	0011      	movs	r1, r2
10002918:	4648      	mov	r0, r9
1000291a:	2200      	movs	r2, #0
1000291c:	9509      	str	r5, [sp, #36]	; 0x24
1000291e:	f001 fb3c 	bl	10003f9a <__wrap___aeabi_dsub>
10002922:	4a6f      	ldr	r2, [pc, #444]	; (10002ae0 <_etoa+0x438>)
10002924:	4b6f      	ldr	r3, [pc, #444]	; (10002ae4 <_etoa+0x43c>)
10002926:	f001 fb68 	bl	10003ffa <__wrap___aeabi_dmul>
1000292a:	0002      	movs	r2, r0
1000292c:	000b      	movs	r3, r1
1000292e:	0030      	movs	r0, r6
10002930:	0039      	movs	r1, r7
10002932:	f001 fb3b 	bl	10003fac <__wrap___aeabi_dadd>
10002936:	f001 fbe9 	bl	1000410c <__wrap___aeabi_d2iz>
1000293a:	900d      	str	r0, [sp, #52]	; 0x34
1000293c:	f001 fbce 	bl	100040dc <__wrap___aeabi_i2d>
10002940:	4a69      	ldr	r2, [pc, #420]	; (10002ae8 <_etoa+0x440>)
10002942:	4b6a      	ldr	r3, [pc, #424]	; (10002aec <_etoa+0x444>)
10002944:	0004      	movs	r4, r0
10002946:	000d      	movs	r5, r1
10002948:	f001 fb57 	bl	10003ffa <__wrap___aeabi_dmul>
1000294c:	2200      	movs	r2, #0
1000294e:	4b68      	ldr	r3, [pc, #416]	; (10002af0 <_etoa+0x448>)
10002950:	f001 fb2c 	bl	10003fac <__wrap___aeabi_dadd>
10002954:	f001 fbda 	bl	1000410c <__wrap___aeabi_d2iz>
10002958:	4a66      	ldr	r2, [pc, #408]	; (10002af4 <_etoa+0x44c>)
1000295a:	0006      	movs	r6, r0
1000295c:	4b66      	ldr	r3, [pc, #408]	; (10002af8 <_etoa+0x450>)
1000295e:	0020      	movs	r0, r4
10002960:	0029      	movs	r1, r5
10002962:	f001 fb4a 	bl	10003ffa <__wrap___aeabi_dmul>
10002966:	0004      	movs	r4, r0
10002968:	0030      	movs	r0, r6
1000296a:	000d      	movs	r5, r1
1000296c:	960f      	str	r6, [sp, #60]	; 0x3c
1000296e:	f001 fbb5 	bl	100040dc <__wrap___aeabi_i2d>
10002972:	4a62      	ldr	r2, [pc, #392]	; (10002afc <_etoa+0x454>)
10002974:	4b62      	ldr	r3, [pc, #392]	; (10002b00 <_etoa+0x458>)
