:020000041000EA
:1000000000B5324B212058609868022188439860DF
:10001000D860186158612E4B002199600221596106
:100020000121F02299502B49196001219960352056
:1000300000F044F80222904214D00621196600F024
:1000400034F8196E01211966002018661A6600F04E
:100050002CF8196E196E196E052000F02FF8012189
:100060000842F9D1002199601B49196000215960AB
:100070001A491B48016001219960EB211966A021F2
:10008000196600F012F800219960164914480160C1
:100090000121996001BC002800D000471248134993
:1000A000086003C880F30888084703B5996A0420EC
:1000B0000142FBD001200142F8D103BD02B5186610
:1000C0001866FFF7F2FF186E186E02BD00000240BE
:1000D000000000180000070000035F00212200005C
:1000E000F4000018222000A00001001008ED00E03C
:1000F00000000000000000000000000074B24E7A12
:1001000000200420F7010010C3010010C5010010F9
:10011000C1010010C1010010C1010010C101001097
:10012000C1010010C1010010C1010010C701001081
:10013000C1010010C1010010C9010010CB01001065
:10014000CD010010CD010010CD010010CD01001037
:10015000CD010010CD010010CD010010CD01001027
:10016000CD010010CD010010CD010010CD01001017
:10017000CD010010CD010010CD010010CD01001007
:10018000CD010010CD010010CD010010CD010010F7
:10019000CD010010CD010010CD010010CD010010E7
:1001A000CD010010CD010010CD010010CD010010D7
:1001B000CD010010CD010010CD010010CD010010C7
:1001C00000BE00BE00BE00BE00BE00BE00F04BF888
:1001D000103800BEF2EB8871D4580010F8580010A7
:1001E0003402001090A31AE700202149086006C8D5
:1001F00081F3088810471F48006800282FD10DA4FC
:100200000ECC002902D000F012F8F9E71A491B4A77
:10021000002000E001C19142FCD1194988471949E9
:1002200088471949884700BEFDE701C901C29A42C3
:10023000FBD37047F8580010C0000020640800206D
:100240009C60001000000420000004209C6000104E
:1002500000100420001004200000000070470B482C
:1002600003F002FC0047EFF30580C0B270470000C6
:1002700008ED00E0000000D0680800208C0C002091
:10028000C51A0010190B0010B51B001057560000BE
:1002900006005250ABB36053305800100600525065
:1002A000861C030240580010060052505422A29DA2
:1002B0004C58001005005250DE65F4689C60001038
:1002C000F8B5C0460448054B10B5834203D0044B33
:1002D000002B00D0984710BD64080020640800205F
:1002E0000000000006480749091A8B10C90FC918F9
:1002F00010B5491003D0044B002B00D0984710BD17
:1003000064080020640800200000000010B5074CBD
:100310002378002B09D1FFF7D5FF054B002B02D026
:10032000044800E000BF0123237010BD68090020CD
:100330000000000008510010054B10B5002B03D041
:100340000449054800E000BFFFF7CCFF10BDC046E0
:10035000000000006C0900200851001010B500F0EA
:10036000B1FD10BD0123D02283401206002901D027
:10037000536270479362FCE7D0231B065B68C3405F
:10038000012018407047C0460123D0228340120646
:10039000002901D0536170479361FCE710B5002834
:1003A00002D0012806D010BD01220421153000F032
:1003B0005FFDF8E701220821143000F059FDF2E753
:1003C000014B986A7047C04600400540F8B5234B82
:1003D0001B68022B38DD0020042B00DDF8BD204B0C
:1003E0001C68002CFADD1F4F1F4E3B689B0098597C
:1003F00004F02AFE050000B2012CEFD07B689B00C0
:10040000985904F021FE401985B200B2022CE5D0C3
:10041000BB689B00985904F017FE281885B200B2FB
:10042000032CDBD0FB689B00985904F00DFE2818C4
:1004300085B200B2042CD1D03B699B00985904F0DE
:1004400003FE281800B2C9E7064B074A1B689B0049
:10045000985804F0F9FD00B2C0E7C046100A002029
:10046000A0010020540A0020A8010020154B1860AC
:1004700002281ED011D88021134A4902002805D035
:1004800053680B42FCD1114B1361704753680B4208
:10049000FCD1F0231B011361F7E70328F5D180217C
:1004A000094A490253680B42FCD190235B05136152
:1004B000EBE78021044A490253680B42FCD1044B0C
:1004C0001361E2E7A401002000002050000012099F
:1004D00000000E0E094B10B501000400186008481A
:1004E00004F01AFC022C02D90222064B1A600023E7
:1004F000054A1380054A138010BDC046100A00202B
:1005000008510010A00100204A0A0020480A0020DB
:10051000F8B5104B1048196804F0FEFB0F4D104859
:10052000297804F0F9FB0F4B1B68022B0DDD0E4EF2
:100530003368012B09DD01240C4F295D380004F0DC
:10054000EBFB33680134A342F7DC094804F03CFBC1
:10055000F8BDC046A401002018510010680A002010
:1005600024510010100A0020A0010020405100106A
:1005700050520010F0B5C646124E134D336800B508
:100580009B00E958114804F0C7FB114B1B68022B74
:1005900011DD104F3B68012B0DDD0F4B01249846F8
:1005A000A300F35840469B00E95804F0B5FB3B68B4
:1005B0000134A342F4DC094804F006FB04BC904675
:1005C000F0BDC046540A0020A80100204851001088
:1005D000100A0020A00100206051001050520010AD
:1005E000F8B5DE46454657464E46E0B504F012FDE6
:1005F0000024394B9B6A584304F002FD374B384DB9
:100600001B682C60022B40DD042B38DC354B1B684B
:10061000002B34DD344B00249A46344B344E99463B
:10062000344B984604F0F6FC242103F04BFA4B4679
:1006300052465B5C31601355434689005858037835
:10064000002B43D00022411C2D3B1F007B427B41ED
:1006500052000131D2184B1E1B78D2B2002BF3D1BD
:10066000934604F0F1FC2A6802305B4682401A434C
:100670001C4B01341B682A600436A342D2DC3CBC0C
:1006800090469946A246AB46F8BD04F0C3FC24212F
:1006900003F018FA164B154A1960525C124B890088
:1006A0001A705C70134BC9580B78002B11D00022C4
:1006B00001312D3B5842434152000131D2184B1EAB
:1006C0001B78D2B2002BF4D12A60D8E700239B46D6
:1006D000C7E700222A60D2E700400540100A002048
:1006E000180A0020A0010020680A00207C010020D8
:1006F000540A0020A801002003000F4882B0C2B2B3
:1007000001A9019093420BD04A7893420BD08A788A
:1007100093420BD0CA7800209A420AD002B07047A8
:1007200000200130FAE701200130F7E70220013014
:10073000F4E703300130F1E70F0703010B4A138898
:10074000013313800A4A138801331380094B1A6856
:100750000023824208D1084A138801331380074AD4
:10076000138801331380012318007047480A0020C2
:100770004C0A0020180A00204A0A00204E0A0020D5
:10078000F0B5C646124E134D336800B59B00E958CC
:10079000114804F0C1FA114B1B68022B11DD104FF8
:1007A0003B68012B0DDD0F4B01249846A300F35845
:1007B00040469B00E95804F0AFFA3B680134A3427D
:1007C000F4DC094804F000FA04BC9046F0BDC046D1
:1007D000540A0020A801002068510010100A0020CF
:1007E000A0010020945100105052001010B505488F
:1007F00004F0EAF9044A1368042B01DC01331360A6
:1008000010BDC0469C510010A001002070B5154CD1
:10081000200004F0D9F9144B1448196804F07CFA4C
:10082000134D14480023E95E04F076FA124E134883
:100830000023F15E04F070FA64200022B35E584396
:100840000023E95E03F03EF9252201000C4804F084
:1008500063FA0C4B0C48196804F05EFA200004F0AF
:10086000B3F970BDA8510010100A0020D05100103B
:10087000480A0020FC5100104A0A002028520010AB
:1008800054520010A40100208052001070B5134C87
:10089000200004F099F9124B1248196804F03CFA50
:1008A000114D12480023E95E04F036FA104E11484B
:1008B0000023F15E04F030FA64200022B35E584356
:1008C0000023E95E03F0FEF8252201000A4804F047
:1008D00023FA200004F078F970BDC046A85100103A
:1008E000100A0020AC5200104C0A0020D852001010
:1008F0004E0A0020045300103053001010B5064873
:1009000004F062F9054804F05FF9054804F05CF969
:10091000044804F059F910BD5C53001084530010D2
:10092000AC530010D453001010B5024804F04CF939
:1009300010BDC046FC53001070B5144804F044F9D3
:10094000134C200004F040F9124B1348196804F0CE
:10095000E3F9124D12480023E95E04F0DDF9114E6F
:1009600011480023F15E04F0D7F964200022B35E41
:1009700058430023E95E03F0A5F8252201000B4847
:1009800004F0CAF9200004F01FF970BD20540010D3
:10099000A8510010100A0020AC5200104C0A002090
:1009A000D85200104E0A002004530010305300109B
:1009B0008021044A490253680B42FCD1F0231B01F9
:1009C00013617047000020508021044A4902536897
:1009D0000B42FCD180235B03136170470000205061
:1009E000184B1B68022B23D00CDC002B16D0012BDC
:1009F00007D18021144A490253680B42FCD1134BA2
:100A000013617047032BFCD180210F4A49025368C0
:100A10000B42FCD190235B051361F2E780210A4A67
:100A2000490253680B42FCD1F0231B011361E8E734
:100A30008021054A490253680B42FCD1044B1361E3
:100A4000DFE7C046A401002000002050000012098A
:100A500000000E0E10B5024804F0B6F810BDC046F6
:100A60008854001070B5264986B0264804F0CAF9AB
:100A7000062105001C2000F0E3F9012300211C22BF
:100A80002048009304F030FA80235B020293EB1CB1
:100A9000EA011B0313431C4A0520134003931B4B1D
:100AA00005931B4B049301F003FA03F0ADFE1949C3
:100AB00003F08FFE061C03F0CFFE84B20023002C4F
:100AC0000ED0200003F0A0FE011C301C03F07BFEC2
:100AD0008721C90503F091FE03F0BEFEC3B21B02DD
:100AE00024041C430294074C2A0002AB002120007E
:100AF00004F03EFA012223681343236006B070BD60
:100B00008055001000002050FFFFFF9F0070002064
:100B1000000006400024F44A10B504F009F9FFF77C
:100B2000A1FF8021054A490253680B42FCD1F02302
:100B30001B01136100F004F8002010BD00002050DC
:100B400000F0CEF800F0DCF8A14804F0E5F8FFF77B
:100B50002FFF30BF30BF9F4B19789F4A8A42F8D190
:100B60009E4804F0D9F89E490868FFF7C5FD0028A3
:100B700076D09C490870FFF7ADFCFFE79A489B4987
:100B800001F08EFB9A48984A01F0CCFB994801F09D
:100B900075FB00F05EF8FFF723FFFFF721FDFFF77D
:100BA000B7FC90480178022903D0042901D0FFF74F
:100BB000E1FCFFF70BFC9049087004E0FFF74AFFE7
:100BC000FFF702FFFEE730BF30BF824B19788A483B
:100BD00002788A42F7D1F1DC81490868FFF7AEFD5F
:100BE000012811D0FFF7CCFD844900220A70844807
:100BF000017801296CD00122891A01700800FFF7E1
:100C000035FCFFF7EDFEB9E7FFF7F0FD7449002270
:100C10000A6000F01EF87949087801231B180B7050
:100C200077490878032807D0012212180A701000AB
:100C3000FFF71CFCFFF7D4FE052199429ED16948BD
:100C4000017804293DD001225218027000F00DF8FD
:100C500094E700B5002262490A605E490A7000BD4F
:100C6000FFF7F7FFFFF760FE6EE700B501F00EFB40
:100C7000FFF7CCFD00F00FF80121A94206D0594939
:100C80000878FFF727FC01F001FB00BD01BC5848C4
:100C9000564A01F047FB00B5FFF7DBFF594804F067
:100CA0003BF800F005F800F003F8FFF7D2FF00BDB5
:100CB00000B548480178012902D001F0E7FAF8E7C9
:100CC00000BDFFF71BFEFFF7E1FDFFF771FEFEE73A
:100CD000FFF732FE414804F01FF8FFF775FEF6E714
:100CE00000B51920FFF73AFB19200121FFF73AFB65
:100CF0001520FFF733FB15200021FFF733FB00BD64
:100D000000B53B48FFF74AFB3F4A116874220A448A
:100D10003E4810603E4A01203E49884010603E4AED
:100D200001203C498840106000BD00B501F0AEFADA
:100D30002F4D1920FFF720FB00281ED03749FFF761
:100D40003FFB08603649374A1368C21A8A4204DDFD
:100D5000264D354803F0E0FF02E0344803F0DCFFA5
:100D600001211F4C23688B405B192360194A1178BD
:100D70000123C9181170002112E02A49FFF720FB56
:100D80000860184B1978022909DD124A11780029E8
:100D900005D022490A68801A254B83420CDD0121C7
:100DA0001920FFF7F1FA23480121234A91400160FD
:100DB0000E48FFF7F3FA00BD204803F0ADFF022014
:100DC00007490A6882400A60E9E7C046C046C04653
:100DD00050020020150300200500000050030020F1
:100DE0001003002016030020FFFF7F000100000019
:100DF000000000000C000000140300201703002076
:100E000020030020D002002008ED00E02B0D001090
:100E100080E200E00D00000000E100E0440200205C
:100E2000E093040040020020300300204003002033
:100E300040420F00F840014016000000600300200F
:100E4000094A830094464022634410B51C68C000E0
:100E50006240C02414408022520113431C60034BA3
:100E60009C466044416010BD04C001400040014008
:100E7000D0231B061B6830B55C1EA34105000F483C
:100E80005C42844607203023284023408000EC0841
:100E9000814020000A4D3C3063448000A400415151
:100EA0001B19002A04D0802292011343196030BD1F
:100EB000C022920113431960F9E7C0460041014086
:100EC000004001400123D0228340120693629361C7
:100ED000094A83009446402263441968C0004A408E
:100EE000C02111408022520113431960034B9C46DC
:100EF000052360444360704704C001400040014046
:100F0000EFF3108072B6034A1368002BFCD0BFF3D6
:100F10005F8F70472C0100D0BFF35F8F0022024B20
:100F20001A6080F3108870472C0100D0F8B5EFF3F9
:100F3000108772B60E4E3368002BFCD0BFF35F8F64
:100F4000CB08C4180725A446C45C01230D40AB4060
:100F500018002040234208D1624623431370BFF398
:100F60005F8F306087F31088F8BD100000F024FE1A
:100F70002C0100D0024B18688007C00F7047C04694
:100F800000C006400021044B044ABFF35F8F02C338
:100F90009342FAD17047C046000100D0800100D0D2
:100FA000044A1078431CDBB2172B00D910231370AE
:100FB0007047C04662030020F8B5040006200D000B
:100FC00000F076FF002845D02B4B2C49E3185A42FD
:100FD00053418022D20394465B421340284A634423
:100FE0001360284A136018008A689043FBD1224B93
:100FF0008021E3185A425341234A5B0049000620EE
:10100000995200F055FF2900C00002F083FDC3098A
:1010100021D140270122260080256262A36200239D
:101020002C36AD0135432B60062000F041FF39001E
:10103000800002F06FFD6023E26A53406E221A4086
:1010400080235B0133431A60104B236310232B6012
:101050000D3BA364F8BD0E4A934203D900230D4F04
:101060000D4AD8E77F221040013040089F011A0046
:101070003F180300CFE7C0460080FCBF00C000401F
:1010800000E0004000F00040880A0020010300005A
:10109000FEFF0000C0FF3F00FFFF000083680B4819
:1010A00010B5844661446244090112019A18591826
:1010B00054684B6801209C4201D802D00020C0B285
:1010C00010BD12680B689A42F9D8F7E7FFFFFF0FCF
:1010D000F8B5574645464E46DE46E0B599460CAB58
:1010E00019780DAB1B78050090469A4607680029D1
:1010F00012D1BE7B002E45D074003B68A419033C7E
:101100001B195A783100BA73002A00D1FA730022F1
:101110009A705A701A7003E00E004C006418033C79
:101120002C4B00229C46AB6861449C464346090117
:1011300061440B604B464B600A9B8B600B9BCB6002
:101140003B681B199A705A701A707B7B9B46002B68
:101150002CD032005946B8687B6898473A68002816
:1011600017D05B4658465B005B441419033BA070E4
:10117000D118D35C002B00D063705B460E707B737C
:10118000B34514D030003CBC90469946A246AB46CD
:10119000F8BD5B465B005B44033BD3189E7011199E
:1011A000125D002A00D05A705B460B707E73424677
:1011B0004B46287D00F0DEF9041E06D05346002B76
:1011C00003D13100286800F03FFC0E9B002BD9D0E2
:1011D0001C70D7E7FFFFFF0FF0B5DE464E465746BF
:1011E00045460023E0B58DB00A936B4B8200D3587F
:1011F0000B90994600239B464B46079300F06AF9F3
:10120000079C06000F006268EFF3108572B6136842
:10121000002BFCD022000794BFF35F8F2468637B10
:101220009946002B67D092685C4B90464B441B015B
:10123000984443461A685B6810001900801BB94146
:1012400000295FDD0B9800F095F9002300269846F1
:1012500000279A46079C6368BFF35F8F5A461A605F
:1012600085F310885346002B08D10028C6D10DB055
:101270003CBC90469946A246AB46F0BD0A9B41460F
:1012800018024B461843D047089009916268EFF363
:10129000108572B61368002BFCD00794BFF35F8FE4
:1012A0000899099A002A48DB114303D0079B1B6960
:1012B000002B5DD1079B1B68DA7B002A07D0510009
:1012C0008A1819688C4649466244033A51704A4666
:1012D000DA734B46079A013BD168CA5C0132CA54A3
:1012E0005B46079A13615368BFF35F8F5A461A60D3
:1012F00085F3108882E700230026984600279A4647
:101300000020A7E7002901D100289BD1002120005F
:1013100000F0FCFA43461E685F689B68079A9A468D
:101320004346DB689846D3684B44013B1B780A93DD
:101330001B020343136100208CE72369002BB9D003
:1013400033003C005B1A94411A002300A74219D8CD
:101350009F421BD0594604910121039149460291B5
:1013600041460191514607980091FFF7B1FEB7E75A
:1013700000F0B0F8089A099B06000F0092197B4113
:101380009942E5D901225242D317E3E79642E1D9C7
:1013900001225242D317DDE71C0A0020FFFFFF0F96
:1013A00010B5124C6368002B04D00A21104800F0DD
:1013B00073F910BD23000F4A1021206800F0C4F912
:1013C000032000F07BF8032000F046F903200A49CF
:1013D00000F08AF8FFF7E4FD084B9C4603236044C5
:1013E0002375074B80006060DC60DEE7640300204B
:1013F000300A00209D100010D91100104000003468
:101400001C0A0020F0B5D6464F464646C0B5EFF35D
:1014100005833F22134018001038EFF3108C72B68A
:10142000204D2A68002AFCD0BFF35F8F01221100F3
:1014300081401D4C884661631C4917000E788A461E
:101440003100C1400F400A4215D019498200646A38
:1014500051588C4219D3174BD25843469E4353469A
:101460001E70BFF35F8F00232B608CF31088002A5F
:1014700006D0904704E0BFF35F8F2F608CF3108895
:101480001CBC90469946A246F0BD0B4A9B00904674
:1014900043441A681A60BFF35F8F00232B608CF3FC
:1014A0001088EDE7280100D000400540520A0020D6
:1014B000340A00208C090020D03F054010B50100FF
:1014C000024A0348FFF732FD10BDC0469055001098
:1014D000500A0020034B596A0A00986A596A8A42E6
:1014E000FAD170470040054070B504000D00EFF3DD
:1014F000108672B61A4A1368002BFCD0BFF35F8FB8
:10150000002D1BD0200000F0EBFC164981420AD0D0
:10151000200000F0EDFC0121200000F0CFFC0123B1
:10152000A340114A1360114BA400E550BFF35F8F35
:1015300000220B4B1A6086F3108870BD0B4BA20083
:10154000D5500122A2400A4920000B7893430B702A
:10155000044900F0F7FC0021200000F0AFFCE5E7B3
:10156000280100D005140010386005408C090020C7
:10157000520A0020F0B54F46D6464646C0B5070091
:10158000304C616A0D00A66A616AA942FAD18B42A9
:1015900008D805D001201CBC90469946A246F0BD53
:1015A000B242F7D9EFF3108972B6274801680029D3
:1015B000FCD0BFF35F8F01252449BD408C460978DC
:1015C000204C0E002E438846F1B28A4661465046B2
:1015D0000870391D1E48890065630A51B9000B5017
:1015E000216A0020294219D0616A0800A66A616A4E
:1015F0008142FAD18B4219D801D1B24216D8C245E4
:101600001DD0104B1F201D625D6301230740BB40AE
:10161000104A1E381360634642461A70BFF35F8F4C
:101620000022094B1A6089F31088B4E70020BFF349
:101630005F8F0022044B1A6089F31088ABE701200A
:10164000ECE7C04600400540280100D0520A0020C7
:10165000340A002080E200E010B5EFF3108472B687
:101660000A490B68002BFCD0BFF35F8F0123834036
:10167000074A0848136202789A430270BFF35F8FEB
:1016800000230B6084F3108810BDC046280100D0F1
:1016900000400540520A0020024B9C4661448900EC
:1016A000016070474000003410B50400FFF778FC7B
:1016B00001002000FFF7F0FFFF232371BFF35F8FCE
:1016C00010BDC04610B50400FFF76AFC0100200001
:1016D000FFF7E2FFFF23A380BFF35F8F10BDC0467B
:1016E00070B505000E001400002924D0002A24D073
:1016F00080686B689847296800280ED063001B1922
:101700007200033B9219CB18033A9E7088188A5CCA
:10171000002A14D1047030000EE073009B1962009F
:10172000033B1219CB18033A9C7088188A5C002A74
:1017300000D05A700670200070BD0800FCE75A7097
:1017400004703000F8E7C04630B583600023CCB2A7
:1017500043730133047342608373C4730D000068E4
:10176000012C06D9421C0133DBB2137003329C42B8
:10177000F9D1FF2129404B005918002340180338A4
:10178000437030BDF8B5CE46474606000C0080B524
:10179000002907D04D0003686D18033D5A1957788A
:1017A000002F04D120000CBC90469946F8BD79006A
:1017B000C91903398846434459788946002159702C
:1017C000517073683A002100806898473368002898
:1017D00014D042469A18947059195B5D002B00D0C2
:1017E00053700F70270049463000FFF7CBFF3900D8
:1017F00002003000FFF774FF0400D3E74246414681
:101800005D19AF709A185B5C002B00D06B70147080
:10181000E9E7C046F0B557464546DE464E46E0B5D8
:101820000D006B0001685B19DF1E0400C85D83B00A
:101830000192CA1900284CD043001B18033BCB1857
:101840005E78B446002E16D1019E002E3ED0E67B77
:10185000002E04D073009B19CB18033B5D70E57319
:1018600000282FD10023537003B03CBC904699460A
:10187000A246AB46F0BD72006244033A89184A782A
:10188000904600224A7091465A70010032002000B2
:10189000FFF726FF43468246002B07D05B002168F6
:1018A0004344033BCB185A78002A16D1424651468E
:1018B0002000FFF715FF2168019BCA19002BC6D134
:1018C0000028CFD043001B18033BCB180021997090
:1018D000C8E7019B002BBAD1C4E750008018033839
:1018E0000918487883464846487058704146200099
:1018F000FFF7F6FE594680462000FFF743FF4146BA
:1019000002002000FFF7ECFE8046CFE7F0B54E4620
:101910004546DE465746E0B5467B04007500006844
:10192000AD19033D83B00191415D421900294ED0AC
:101930004B005B18033BC3185F78BC46002F18D1DF
:10194000019D002D40D0E57B002D04D06B005B197C
:10195000C318033B5E70E673002931D100233000C9
:101960005370617303B03CBC90469946A246AB46A7
:10197000F0BD7A006244033A801842789346002210
:10198000427091465A7020003A00FFF7A9FE5B466C
:101990008046002B07D05B0021685B44033BCB18DB
:1019A0005A78002A17D15A4641462000FFF798FE80
:1019B000019B010020684219002BC4D10029CDD021
:1019C0004B005B18033BC31800209870C6E7019BCF
:1019D000002BB8D1C2E750008018033809184878A6
:1019E000824648464870587059462000FFF778FEF6
:1019F00053468346002B07D05B0021685344033BCA
:101A0000CB185A78002A06D1594652462000FFF7D3
:101A100067FE8346C7E75000801803380918484618
:101A20004F784870587051462000FFF759FE390032
:101A300081462000FFF7A6FE494602002000FFF77E
:101A40004FFE8246E0E7C04670B5040000292CD066
:101A5000437B8B422ED00568480040180338281875
:101A60008278002A21D053009B18033BEA5CEE18D1
:101A70008A4202D11BE0002A08D053009B18033B86
:101A8000EB185A788A42F6D142785A700023012224
:101A9000837043702000FFF7BDFE617B02002000D1
:101AA000FFF71EFE6073012000E0002070BD437848
:101AB0003370EBE701221900FFF7ACFE60730120E1
:101AC000F4E7C0462C4B2D4A70B51A602C4A2D4BBA
:101AD0002D491A6010008B689843FBD12B4C2C4B7E
:101AE0009C4209D2013B1D1BAD080135AD002D19EB
:101AF00008CC9847AC42FBD100F07CF8254A214B3A
:101B00001A60214A9368DB018033FBD14022224BCB
:101B1000224C234D9A675A671A67DA66AC4208D29C
:101B200023682000002B21D00834FFF7CBFDAC4206
:101B3000F6D31C4C1C4DA168C022280002F0E8FE20
:101B4000A560FFF71FFA00F035FBFFF729FC174CE3
:101B5000174B9C4209D2013B1D1BAD080135AD005E
:101B60002D1908CC9847A542FBD170BD0834FFF76A
:101B70009BFDAC42D4D3DCE700E00040BFCDFBFED0
:101B8000FE7F3C0000F0004000C0004050080020F4
:101B900060080020FFFFFF0100F00140480800201E
:101BA0005008002000ED00E0000000206008002048
:101BB0006408002000BEFDE70FB400B5084883B0FC
:101BC00003F002F8049B002B07D005A9180001912F
:101BD00001F02AFF034802F0F7FF00BEFDE7C04610
:101BE000B45500105052001010B50148FFF7E4FF43
:101BF000C455001030B50C2083B000F03FFBFFF758
:101C0000B9F900280ED0944B944A1A605A609A6031
:101C1000DA601A615A619A61DA611A62904A5A620C
:101C200003B030BD8F4CA06700F0C8FB01228E4B83
:101C30001A60636C012BFCD103228C4B1A60894A19
:101C4000936B012BFCD102240121894A8948053379
:101C5000009400F0C1FA0523874A012187480094C7
:101C600000F0BAFA864B5A68FF2A02D88022520046
:101C70005A608022784C7D4B21691201804D1A6098
:101C8000002905D0606901F045FF01300138FDD120
:101C9000E0217B4B02201A681140802252012A4326
:101CA00011601968484003210140116004219A68BD
:101CB0001142FCD08022802192012A430901116047
:101CC000802252005A606F4B23616F4B5968FF2985
:101CD00000D85A6003226C48634B01211A6002004D
:101CE00093681942FCD0E02513681D4080235B01F6
:101CF00003431D6012684A4003211140196002210C
:101D0000614A93681942FCD0802380219B010343E0
:101D10000901196080215D4B4900516063615C4B92
:101D20005A68FF2A00D8596080225A4BE169120193
:101D3000574D1A60002905D0606901F0EBFE0130B3
:101D40000138FDD1E02252490B681A4080235B0123
:101D50002B431A60802380229B012B4312011A60BF
:101D600080223E4B52004A60E3614B4B5968FF2989
:101D700000D85A608022494B216A1201464D1A60F0
:101D8000002905D0606901F0C5FE01300138FDD1A0
:101D9000E02241490B681A4080235B012B431A6003
:101DA000802380229B012B4312011A608023802212
:101DB0005B004B60294BD2022362394B5968914238
:101DC00000D25A608022374B616A1201344D1A608A
:101DD000002905D0606901F09DFE01300138FDD178
:101DE000E0222F490B681A4080235B012B431A60C5
:101DF000802380229B012B4312011A608023DB0287
:101E00004B60174B6362284B5A68FF2A02D8802226
:101E100052005A608022254BA1691201224D1A609E
:101E2000002905D0606901F075FE01300138FDD14F
:101E3000E0221D490B681A4080235B012B431A6086
:101E4000802380229B012B4312011A6080235B00B8
:101E50004B600E4BA361E3E69C090020006CDC02A2
:101E60001BB70000008000403CB0004030B0004094
:101E7000002F68590080024000389C1C00C00240BE
:101E800030800040001BB7003C8000404059730781
:101E90005480004054B000406080004060B000407A
:101EA0006C8000406CB000404880004048B000406A
:101EB000014B8000C05870479C09002001238340DB
:101EC000002904D0034A1360034A13607047034A91
:101ED0001360FBE780E200E000E100E080E100E069
:101EE000024B10309B688000C058704700ED00E046
:101EF00070B50D00EFF3108672B60F4A1368002B11
:101F0000FCD0BFF35F8F0D4B10309B6884001B59D2
:101F10000B4A934203D09D4201D0FFF765FE074B69
:101F20009B681D51BFF35F8FBFF35F8F0022024B91
:101F30001A6086F3108870BD240100D000ED00E027
:101F4000CD010010F0B5DE4657464E464546E0B599
:101F50000C0083B0EFF3108A72B65B4A1368002B53
:101F6000FCD0BFF35F8F1022914681444A46574B05
:101F700096009B689D59564B98469D4205D0A542B8
:101F800016D0544FEB1B2F2B14D9504B9B689D51EF
:101F9000BFF35F8FBFF35F8F00224B4B1A608AF352
:101FA000108803B03CBC90469946A246AB46F0BDB3
:101FB0001D00EAE7012383409B465A46464B1B68B7
:101FC0001A4000925A46454B1A60BFF35F8FFEF7E6
:101FD0004AF90190002803D0814501D0FFF704FEA3
:101FE00001232A009A4313003D49DB1B5B415943FF
:101FF000090D93689C4208D15BE043001B189B00CD
:10200000FB189868A04211D01A000620105600282C
:10201000F3DA009B002B05D05A46324B1A602E4B48
:102020001A60B2E75A462D4B1A60AEE706201856E2
:10203000002822DB4200111889007C188846A1681C
:102040009960E179D971062161569971A1797F2949
:102050001FD8A488F91A6405241544440919E024FA
:102060000905490D24022143998012181E4B920044
:10207000BF181A781870BA71CBE7019800280BD1F5
:10208000FF30907119489080174A1078117098713C
:10209000BFE7BD210902E7E7154A1649D21A083AF7
:1020A0005002400D01439980134952080A43DA80D7
:1020B000AFE70620105613000028BBDA019A002A69
:1020C000EAD14546E0E7C046240100D000ED00E03B
:1020D000CD0100108C03002000E100E080E100E071
:1020E000AAAA000080E200E0510A002000BDFFFF24
:1020F000C603002000F0FFFF00F8FFFFF8B5012540
:1021000004000543FEF7AFF80300EFF3108672B644
:1021100021490A68002AFCD0BFF35F8F1F4A2000C4
:102120001F49801A40414143090D1E489B008768A2
:1021300049B2FF58AF421CD00623D3568B421CD065
:102140001223D3568B4222D01E23D3568B4220D04B
:102150002A23D35603208B4210D0134B1A781970C0
:10216000A271BFF35F8F00220B4B1A6086F31088B9
:10217000F8BD82680D48D050EFE7002043001B18DF
:102180009B00D218FF239371094B9380E5E7012050
:10219000F4E70220F2E7C046240100D08C030020BF
:1021A000AAAA000000ED00E0510A0020CD010010B5
:1021B00000BDFFFF054B064A1360064A13605360DB
:1021C0009360D36013615361936170478080808016
:1021D00000E400E004E400E0F8B504000C2017007F
:1021E0001D000E0001F096FC4101091A8B01591ADD
:1021F000C90009188901380001F08CFC069A2B04EB
:10220000120313432268002A21DB184AA218514204
:102210004A41802149018C4652420A401449624495
:102220000A6014490A60144917008D68AF43FBD156
:10223000C021221D8901114321222660A0600A606D
:102240002268002AFCDAE36008230B60F8BD3F2215
:1022500021680A40B242D8D1A2681205120D82420A
:10226000D3D1E268002BD0D1F0E7C0460040FDBFDB
:1022700000E0004000F0004000C000408023024A1F
:102280009B000343D362704700800540024B1A68ED
:10229000024B5A607047C046140A00200080054077
:1022A000184B0200184810B5D8618020174BC005A4
:1022B0001860174C1748046000290AD0E021164B1B
:1022C000C9041960002A09D18022134B12061A6032
:1022D00010BDE021C9041960002AF5D08023500107
:1022E000801A8000801800015B04984200D30B48DC
:1022F00080220B4BD2051860024B5860064B1A60C7
:10230000E6E7C046008005402131B76A00B00540CD
:10231000FCFF01000820014000A00540FFFFFF0076
:10232000140A002010B5140080221B4BD2051A603D
:1023300000281AD00123194A1843194BDA61194AA7
:1023400042401A62596298628022134BD2051A6089
:102350001549164A1160E022D2041A60002C07D1F8
:102360008022134B12061A6010BD0D4BD861EBE7AB
:1023700080236201121B9200121912015B049A421F
:1023800000D30C4A0C4B1A60054B5A608022084B54
:10239000D2051A60E8E7C04600B00540D3C007B0D8
:1023A000008005402D3FF84FFCFF01000820014050
:1023B00000A00540FFFFFF00140A0020AA23064AE0
:1023C0001B0113602F230549D360054B1960536827
:1023D000002BFCDA7047C0460040024000B0FA0013
:1023E000006002407047C046F8B557464E46DE468C
:1023F0004546E0B51F000A9B05009B460D9B0E005D
:10240000914692469B0718D10B9B0C9A934214D28B
:1024100013000B9AB8469B1A4B444C460F0006001B
:102420001D0022004346013439002020B047AC4251
:10243000F7D1AA4635003E0047460B9B002B38D00B
:102440009A441C00D04653461A1B5B46013C185D5B
:1024500031003B00A847002CF5D10D9B9B0721D5EF
:1024600043464A469C1A0C9BA3421BD93A009A4603
:102470004F469146E2194B46310020200134A847CF
:102480005445F7D343460C99DB1B0133B946002270
:10249000994203D343464A1E4A44D21A43469046C1
:1024A0000133984440463CBC90469946A246AB4610
:1024B000F8BDD046D1E7C046F0B54F464646D646B1
:1024C000C0B584B098460EAB1B78129F99469446CF
:1024D0000D9C109B119EBA0725D4002E69D19C42F9
:1024E00000D3C2E001223A4092461F2C00D9BBE043
:1024F0000C9A551E302201E0202C03D001342A55BD
:10250000A342F9D85246002A0DD0B4420BD21F2C58
:1025100062D80C9A551E302201E0202C5CD0013488
:102520002A55B442F9D1FA0635D57A055DD4002C86
:1025300057D10F9B102B00D17CE00F9B022B00D1B9
:102540008DE030230C9A012413704B46002B27D0CA
:102550002D230C9A135501340C9B6246009303976C
:10256000434602960194FFF73FFF04B01CBC90461F
:102570009946A246F0BDBB0663D4202CECD00C9B40
:102580001A19013478231370202CE5D030220C9BCB
:102590001B191A700134202CDED04B46002BD7D1EA
:1025A0007B0735D43B07D7D520230C9A135501342C
:1025B000D2E7012215003D40AA463A4220D04A46C1
:1025C000002A2AD10C323A4227D19C429DD21F2C9C
:1025D00000D88DE7202E19D92024FA06BCD57A051B
:1025E00003D4A3421BD0A64219D00F9B102BC2D0FC
:1025F000022BC9D1202CAFD00C9B1B19013440E019
:102600009C4200D38FE71F2C00D871E720248AE773
:102610002B230C9A135501349EE7013ED5E7631E28
:10262000012C00D185E70F9A102A20D0022A25D04C
:102630001C00ABE7BB060DD478230C9A0124137061
:10264000A4E7202C00D187E758220C9B1B191A7095
:10265000013499E758230C9A0124137096E70C9AD9
:1026600060330124137091E7202400265BE7023CCD
:10267000BA06E9D40C9A12191C0083E70C9A924608
:10268000534462221A707FE710B5002800D110BDB4
:1026900002F048FAFBE7C0460B0010B5002802D054
:1026A00049681B68984710BDF0B5DE465746454659
:1026B0004E46E0B59BB09B46249B0A909846259BCE
:1026C0000B910C924046424619009A4601F0F3FCE9
:1026D000002800D0E8E00122404651467F4B52429C
:1026E00001F0E4FC002800D0DEE001224046514623
:1026F0007B4B524201F0C4FC002800D0D4E0002201
:1027000000234046514601F0BBFC002800D0CAE13E
:102710005346C14609938023289ADB001A400E9243
:10272000289A1A4201D1062326934C46099B23433B
:1027300000D0D9E0289B002600271B0500D4AEE17D
:1027400000230D93269B19000D9B994200DCB0E1FC
:10275000C81A431E26938023289ADB001A430023BD
:10276000002528920D93279B0024AB4200D95C1BC7
:102770000223289A1A400E92289A134203D06B42E1
:102780006B415B421C400D9B002B07D048460999CA
:1027900032003B0001F013FC814609910022002326
:1027A0004046514601F06CFC002805D08020000610
:1027B0008446099961440991289A4A4B0A9E13401C
:1027C0004A460493269B0B990293099B039400921B
:1027D000019330005B460C9A884600F0A1F9040092
:1027E000002D72D0289B220098061F23C017984303
:1027F00041465B466530B0470D9B671CDA179C1855
:10280000DB0F98466B1E99460025544001E0202DB1
:1028100013D00AAA94461F23200063440A210135DD
:102820005E1901F077F93031317020000A2101F092
:1028300071F926000400092EE9D8052306934B46BA
:102840000593002304930A33039343463A000A9EF8
:102850000B9F029312AB009339005B463000019549
:10286000FFF72AFE0E9B0400002B2ED00C9B279A0C
:10287000C51AAA4229D93C0081469846170043460A
:1028800021005A1920205B460135B047AF42F6D8E7
:102890004C460C992798631A01330022984200D3C2
:1028A0000AE10134141910E0289B42460493279B47
:1028B0000B990393269B0A98029353460092019327
:1028C0005B460C9A00F02CF9040020001BB03CBCC5
:1028D00090469946A246AB46F0BDC046FFFFEF7F4B
:1028E000FFFFEFFFFFF7FFFF764B099D9C46680057
:1028F000400D604401F0F2FB734A744B01F07DFB24
:10290000734A744B01F052FB2B03734A1B0B1A439F
:1029100006000F00714B110048460022099501F096
:102920003CFB6F4A6F4B01F068FB02000B0030006C
:10293000390001F03BFB01F0E9FB0D9001F0CEFB0B
:10294000694A6A4B04000D0001F057FB0022684BF6
:1029500001F02CFB01F0DAFB664A0600664B200012
:10296000290001F04AFB040030000D000F9601F031
:10297000B5FB624A624B01F040FB02000B002000F5
:10298000290001F00AFB02000B0006000F0001F015
:1029900034FB320004000D003B003000390001F030
:1029A00005FB002210901191564B2000290001F0E8
:1029B00006FB0022544B01F0F9FA02000B00200044
:1029C000290001F0FCFA0022504B01F0EFFA02005E
:1029D0000B002000290001F0F2FA0D0080213200E6
:1029E0003B000400C905002001F0D7FA02000B00EB
:1029F0002000290001F0DAFA02000B00109811996A
:102A000001F0DDFA0022344B01F0D0FA404A0F9B6E
:102A10009446634400221B0501F0EFFA06000F0004
:102A200002000B004846099901F02AFB00280AD051
:102A30000D9B3000013B39000D930022324B01F019
:102A4000BEFA06000F00C6250D99330063318D4292
:102A5000AD4128996D420435090500D483E63B4316
:102A600000D16FE6099C484621002A4A2A4B01F012
:102A700015FB002808D0002248462100274B01F012
:102A8000FFFA002800D05DE6269B002B00D16AE605
:102A90000E9B5A1E9341269AD31A269363E600236F
:102AA00004250D935FE680231B065344C14609931A
:102AB00031E6002326934EE60A008446013A62443A
:102AC000121BEEE601FCFFFFFB799F501344D33F3E
:102AD000B3C8608B288AC63F0000F03F0000F83F73
:102AE00061436F63A787D23F71A379094F930A406F
:102AF0000000E03F1655B5BBB16B0240EF39FAFE5E
:102B0000422EE63F00002C40000024400000184008
:102B1000FF0300002D431CEBE2361A3F80842E4158
:102B2000F0B54E46DE4657464546E0B597B0994665
:102B3000209E219F229B8346984607910C923B0042
:102B400032003000390001F0B6FA002800D0C1E1AF
:102B5000012230003900CA4B524201F091FA00289C
:102B600000D0E0E0012230003900C64B524201F0B3
:102B70009DFA002800D0B6E0002230003900C24B98
:102B800001F094FA002800D098E0002230003900CB
:102B9000BE4B01F075FA002800D08FE00022002320
:102BA0003000390001F06CFA002800D0B0E00023BA
:102BB0000D93249B5B0501D40623984608AB9C46E5
:102BC0001722002430234146624404E001341355A7
:102BD0000139202C01D00929F8D888463000390065
:102BE00001F094FA4346DA00A94B05009B181A68D5
:102BF0005B680892099301F071FA02000B00300043
:102C0000390001F0CAF9089A099B01F0F6F90A9017
:102C10000B9101F09FFA824601F05CFA02000B0072
:102C20000A980B9901F0B9F900229A4B0A900B917E
:102C300001F03CFA002800D1C0E001239C46E244A8
:102C4000504601F047FA02000B000898099901F07C
:102C50001DFA002802D000239A4601354346002B76
:102C600069D008AB17269C4608956644554614E083
:102C700001235B4243440A2128009A4600F04AFFA0
:102C8000013430313719397028000A2100F042FF31
:102C9000092D00D8D5E0D0460500202CE8D103232B
:102CA000249A1340012B00D100E10EAB9846249BDF
:102CB00001940393239B029343461EE0249B5846B2
:102CC0000493239B00960197039343460C9A029327
:102CD00007994B46FFF7E8FC17B03CBC9046994675
:102CE000A246AB46F0BD249B5B070ED403226A4B81
:102CF00024990192039123990291009358464B46DF
:102D00000C9A0799FFF770FBE6E70422634BEFE7A5
:102D10003B0032000020002101F03FF901230600B2
:102D20000F000D9345E7249B0393239B02930423F9
:102D300001935B4BE1E7280001F0D0F902000B00A2
:102D40003000390001F029F9524B002206000F0033
:102D500001F096F90EAB984600280AD10022300007
:102D600039004C4B01F0A2F9002802D1EB0700D545
:102D70000135202C32D008AA94461723280063443A
:102D80000A2101341E1900F09DFE303128003170F7
:102D90000A2100F097FE051EEBD10323249A13406D
:102DA000012B00D191E01F2C00D980E70D9B002B57
:102DB0003BD02D2342461355013478E700220A9870
:102DC0000B99344B01F05CF9002800D046E75346DC
:102DD000002B67D101239C46E2443FE70323249A5A
:102DE0001340012B00D062E7239B002B00D15EE74C
:102DF0000D9B002B03D1249A0C33134202D0239B4A
:102E0000013B2393239B9C42CDD208AB9C461722C7
:102E1000302362441F2C06D82399013413558C4269
:102E2000C1D0202CF8D1202441E7249B5B0721D47A
:102E3000249B1B0700D43AE7202342461355013454
:102E400035E75746089D202C37D0220030214046D8
:102E5000002F08D00132B154202A43D0D3431B198C
:102E60001B18002BF6D10EAB98462E234146541C5E
:102E70008B547EE72B2342461355013417E7C04697
:102E8000FFFFEFFFFFFFEF7F65CDCD4165CDCDC1EA
:102E9000C85700100000E03FD0550010D455001076
:102EA000E0550010DB0700D4D8E693E7239B002B06
:102EB00000D1FAE60EAB98469AE70323249A134012
:102EC000012B00D0F1E60EAB9846239B002B00D1DE
:102ED00069E78DE7249B0393239B029303230193CC
:102EE000064B0AE70323249A20241340012B00D029
:102EF000DBE6239B2024002BDCD1D6E6DC5500103A
:102F0000F0B5DE464E4657464546E0B59FB01C003C
:102F1000289B93460993CF4ACF4B894608901A6065
:102F2000002900D116E2002320789A46002800D11B
:102F300018E226001D004C460AE02A006F1C5B4682
:102F4000089D2100A8473D000136307800287AD03E
:102F50002528F2D110239A46083B9946043B98460F
:102F6000023B00219C46721C107816000300203B97
:102F7000DBB2102B03D8B94F9B00FB589F460300D0
:102F8000303B092B3CD900230A932A2800D171E059
:102F9000002398462E2847D00300683BDBB2122B53
:102FA0001FD8AF4A9B00D3589F46012301321943D3
:102FB000DAE7634601321943D6E743460132194343
:102FC000D2E7534601321943CEE74B46013219434B
:102FD000CAE770786C2800D1BFE280235B001943F8
:102FE00001360300253BDBB2532BA6D89D4A9B003C
:102FF000D3589F4680235B00707819430136F0E771
:1030000000270300B800C01901364000C01833780B
:1030100030381A00303A0700092AF3D90A9018000C
:10302000002398462E28B7D180237078DB001943FF
:103030000300303B721C092B00D895E12A2800D1EF
:10304000A6E11600A8E7A146AA462C00D34503D85E
:1030500001235B425B449A465B4652464946002048
:10306000089DA84720001FB03CBC90469946A24648
:10307000AB46F0BD099B40CB0A96002E03DB50788F
:103080000993561C84E72838014370420A9009933B
:103090005078561C7CE7782800D1D4E1582800D11C
:1030A00068E26F2800D152E3622800D1D8E11023F2
:1030B0000A009A430B92692801D000F0A2FC0A236F
:1030C0000C934B0500D4D5E101230B9A9A430B9244
:1030D000692800D1CEE1642800D1CBE10B9A80238E
:1030E00011009B0019408A461A4200D032E3802327
:1030F00011005B00194089461A4201D000F002FC21
:1031000013005B0600D510E30B9B1B0601D400F0F7
:103110006EFC099B04CB1204120C92460993534691
:10312000002B00D064E30B9A1033110099430B91EC
:10313000520500D45CE3002399460B9B06930A9B3F
:103140000593434604930C9B03930023DEE27078BF
:10315000682800D107E280230136194341E7802324
:103160009B007078194301363BE7462800D174E193
:103170000722099B0491073393430A9A190003928B
:10318000424602920CC908980092019309912A00C4
:103190005B462100FFF7C4FC01360500D5E6099B1C
:1031A0001A0008CA9146002B00D105E121221143E3
:1031B0008A460EA884461F216144099500220F27E4
:1031C000A4460D0002E0202A0CD00B003C001C405D
:1031D00020003730092C00D807380132A8541909CB
:1031E0000F2BF0D86446099DF0E08B0700D4D1E1A5
:1031F000099B2A0099466B1C98464B4601CB21003F
:103200009946089F5B46C0B2B8470A9B9C466544F6
:10321000012B00D890E2B2465E464746A846089D7C
:103220003A003300013721002020A8474745F7D155
:10323000B3464B4656463D000993013685E62A00C3
:103240006F1C5B46089D21002520A84701363D00E4
:103250007BE6C046012F00100C0A0020E855001044
:103260002C56001078560010099B04CB9946434613
:103270000992002B00D097E013789C46002B00D1D8
:10328000B3E302235B425A1C099B924618000A9F33
:103290000B92504402E0834200D169E15A78013335
:1032A000002AF8D1099A0A979B1A0B9380230A00E7
:1032B000DB001A400C92194204D00B9B434501D904
:1032C00043460B9302231A000A400D920B4200D191
:1032D00084E16046002823D00C9B002B00D124E120
:1032E000A844C246099B57465B1B9846089BB246BA
:1032F0002A0026005C469B4609E023003100551C4D
:10330000D8474346585D002800D13FE12A00974244
:10331000F3D1A3463D00340056460D9B002B69D0E7
:103320000B9B0A99A846994264D98C466544ED1ACC
:10333000089B47469A46B04626005C463A00230062
:10334000013731002020D047AF42F7D1A3463400E7
:1033500046464FE0D24B2078089300239A46002837
:1033600000D0E6E5002471E6434606000A9F980077
:10337000C018013240008019167803003000303840
:10338000303B0928F3D93000984616000A9703E627
:10339000099B023604CB9046D2434046D2171040D8
:1033A000804609933078F7E513789C46002B00D1CE
:1033B0001AE34346013B66E71022080090431132AE
:1033C000104382460022490500D4F2E65346069394
:1033D0000823059343460493102303930023029389
:1033E00016AB019200932A005B4621000898FFF774
:1033F00063F805004B4601360993A6E52023020039
:103400009A43472A04D180231B011943022398437E
:10341000452801D1202319430722099B0491073332
:1034200093430A9A19000392424602920CC90898E3
:103430000092019309912A005B462100FFF734F9BD
:103440000136050081E510230C930C230A009A43F2
:103450000B924B0500D43BE636E62023194387E662
:1034600002230C930B910B996428EED10B9B5B0507
:1034700000D529E60B9A802311009B0019408A464B
:103480001A4200D0CEE0802311005B00194089462B
:103490001A4200D0DBE113005B0600D51DE10B9B57
:1034A00009991B0600D499E208C91BB2D8171A184B
:1034B000424092B209919246DA0F1292002B09D142
:1034C000802310220B99DB000B4091430B91002BC2
:1034D00000D012E10B9A6123920600D541230EA978
:1034E0001F228C46DBB262440A3B57461395A24624
:1034F0004D460C9CB1460D9316000AE03033DBB20A
:1035000001357355A74200D21CE1202D00D119E1ED
:1035100007002100380000F0FDFACBB20929EDD9EF
:103520000D9A94466344DBB2EAE7099B5F465B1B56
:1035300098460A9BB3469A462600089C2A003B0000
:103540003100A04743460135585D0028F6D1534667
:1035500034000A935E46BB46DFE6C0239B00B0788A
:10356000194302363DE5C023B0781943023638E5E9
:103570000A979BE60C230A009A4314331A4310233C
:103580000B920C934B0500D4A8E59DE5A3463400AF
:103590005646C2E60A9A012A00D82EE26B1E9F18F0
:1035A000089BB046994626005C462A002300013558
:1035B00031002020C847BD42F7D1A346340046461B
:1035C000099B3A0001CB210098467D1C5B46089F71
:1035D000C0B2B847434601360993B6E40B9A0A983D
:1035E000531C904200D80AE243199B1A1F00089B03
:1035F000B24626005C469B462A0023000135310076
:103600002020D847BD42F7D10A9BA34601330B9334
:10361000099B34001B7856469C466046002800D023
:103620005AE6E7E60722099B0733934301329446A3
:103630009C4462465F6809921A68FB1710931193C5
:1036400010981199030053400E930B007B400F9389
:1036500094460E9A0F9B121A8B410E920F93FB0FFA
:103660006246129300233A439A463DD00B9A612357
:10367000920600D541230022DBB20EA90A3B8C46FC
:1036800091460D9343461F326244139515964D465D
:103690000E9E0F9FA14690460C9C14930FE0C046CF
:1036A000E52300103032D2B2434601355A55BA45AF
:1036B00000D17CE1202D00D17CE106000F0022002A
:1036C00000233000390000F067FAD2B2092AE9D9A4
:1036D0000D9B9C466244D2B2E6E7FF23099904C9D8
:1036E00013401A000991E6E60B9A10331100994332
:1036F0000B915205BAD5002399460B9B06930A9B62
:103700000593434604930C9B0393129B02934B46F1
:10371000019316AB2A00009321005B460898FEF740
:10372000CBFE01360500FFF710FCFF22099B02CB00
:1037300011408A460993F2E44B4645460993013607
:10374000FFF703FC4E465446A946139DD5E70823D0
:103750000C9387E60722099B073393430132944673
:103760009C44624609921A685B6810009A461300EE
:103770005246134307D10B9A1033110099430B9112
:10378000520500D5D7E40B9A6123920600D5412358
:103790000022DBB20EA90A3B8C4691460D934346AC
:1037A0001F32624457461295A2464D460400B14668
:1037B00090460C9E13930DE03032D2B24346013551
:1037C0005A550023BB4200D1FDE0202D00D1FDE081
:1037D00004000F00320000232000390000F0DCF963
:1037E000D2B2092AE8D90D9B9C466244D2B2E5E7E1
:1037F0000B9A6123920600D54123DBB20EA90A3B46
:103800001F228C460D9323006244544612951700E4
:103810004D469A46B1460C9E08E03033DBB2013586
:103820007B55B4420ED3202D0CD004003100200073
:1038300000F070F9CBB20929EFD90D9A9446634490
:10384000DBB2ECE74E465446A946129D75E4099B4F
:103850001A0008CAD91713925A184A409146DA0F2B
:103860001292002B08D1802310220B99DB000B4011
:1038700091430B91002B2BD10B9A6123920600D51B
:1038800041230EAA1F279446DBB20A3B0D956744DD
:1038900055460993A2464C46B1460C9E08E030338B
:1038A000DBB201357B55B4420ED3202D0CD0040081
:1038B0003100200000F02EF9CBB20929EFD9099A86
:1038C00094466344DBB2ECE74E465446AA460D9D4F
:1038D0000B9B2A0006930A9B210005934346049301
:1038E0000C9B08980393129B013602935346019355
:1038F00016AB00935B46FEF7DFFD139B05000993B3
:10390000FFF723FB099B04CB91461293002A08D1B1
:10391000802310220B99DB000B4091430B91002B6D
:103920002BD10B9A6123920600D541230EAA1F27A3
:103930009446DBB20A3B0D95674455460993A2466F
:103940004C46B1460C9E08E03033DBB201357B5566
:10395000B4420ED3202D0CD004003100200000F022
:10396000D9F8CBB20929EFD9099A94466344DBB25E
:10397000ECE74E465446AA460D9D0B9B2A00069343
:103980000A9B21000593434604930C9B08980393DC
:10399000002302935346019316AB00935B46FEF758
:1039A0008BFD129B050009930136FFF7CEFAB44256
:1039B00000D87FE6149B4C460E960F97A946984672
:1039C000159E139D99E6A64200D8FEE6139B4E462F
:1039D0009846A9465446129DFFF7AFFB08C9D81771
:1039E0001A184240099166E500230B935EE4099B97
:1039F00004CB92460993FFF792FB2F00E0E50B936F
:103A00000BE6063B0C932EE500B585B00391012132
:103A100002900093034813004A4202A9FFF770FA8C
:103A200005B000BD9926001010B5094A03001468BE
:103A300084B0002C08D0012200910648524203A90C
:103A4000A047012004B010BD01F0BEF80020F9E746
:103A50000C0A00208926001001480421014B184758
:103A6000E0030020893A0010142310B501001888E3
:103A700004331B88984710BD162310B50100188821
:103A800002331B88984710BDF0B5C64600B5002923
:103A900016D01423040001259846182789004618DB
:103AA0004346216818883B88984701C4431E9841C3
:103AB00040420540A642F3D1280004BC9046F0BD28
:103AC0000125F9E7124A936F9B0815D29066D166DB
:103AD000002905D0FFE7FFE7FFE7516F106F704740
:103AE00004B580210906C2175140002800D0C84300
:103AF00001F0F2FA002104BDF0B5146E556E576F57
:103B0000166FFFF7E3FF1466556657671667F0BD3B
:103B1000000000D0114A936F9B0813D210665166C3
:103B2000002905D0FFE7FFE7FFE7516F106F7047EF
:103B300004B5002801D00020C04301F0CDFA0021D7
:103B400004BDC046F0B5146E556E576F166FFFF783
:103B5000E5FF1466556657671667F0BD000000D094
:103B600094464E4A926F9208624601D230E0C046B7
:103B7000F0B54A4EB56F6D08FCD3346E756E776F35
:103B8000366F00F025F89446444A14665566576728
:103B900016676246F0BDC0469446404A926F92084E
:103BA000624601D258E0C046F0B53C4EB56F6D0894
:103BB000FCD3346E756E776F366F00F04DF8944617
:103BC000364A14665566576716676246F0BDC046AA
:103BD000002B24DB11D000293EDA00B5C943404256
:103BE00000D1013100F038F8C943404200D1013121
:103BF000DB43524200D1013300BD002AEBD1002843
:103C000001D1002905D00020C90FC90701D1C04347
:103C1000410800B501F058FA0022002300BD00B5AC
:103C200000290ADBDB43524200D1013300F014F8D3
:103C3000C943404200D1013100BDC943404200D1D7
:103C40000131DB43524200D1013300F005F8DB4380
:103C5000524200D1013300BD002923D1002B18D1DD
:103C6000002A0CD0BC460D4F38667A66002100232E
:103C7000FFE7FFE7FFE77A6F386F67467047002876
:103C800001D00748010000B501F01EFA0022002310
:103C900000BD02000B00002000217047000000D092
:103CA000FFFFFFFF002B00D0BFE0130C28D1002A3C
:103CB000E7D080B4114F39667A66FFE7FFE730B48A
:103CC000040C7B6F396F1B0423433B667A66FFE766
:103CD000FFE7FFE7C04684B27B6F3D6F1B042343C1
:103CE0003B667A66FFE7FFE7C04600232C042D0CF5
:103CF0007A6F386F00196941B0BC7047000000D07E
:103D0000F0B594460025140E01D112020835140FA7
:103D100001D112010435940F01D192000235D40F64
:103D200001D152000135D40B0134254F7C66254C5E
:103D30003C660E0C93B2FFE7FFE7FFE73C6F66437C
:103D4000360C7703BE467343DF0B5B04C01AB941E0
:103D5000130C7343DB18C91ACE086643360CB644FD
:103D600093B273431F0F1B01C01AB941130C734365
:103D70001F0B1B05C01AB941860D8F023E436643D7
:103D8000360C092D24DB520A7243801A7703460A47
:103D90006643360C16235B1BDE40DF40BF196446CA
:103DA0006643821B7046043506330100D940A840A3
:103DB000C01900D30131A24206D20023F0BD000099
:103DC000000000D0FFFFFFFF121B0130F3D3F1E72B
:103DD00009277F1BFE406446A2B27243801A00D2BC
:103DE0000139220C7243130C1204821A99410B0000
:103DF0007046043513370100F940A840801900D3FC
:103E00000131002B02D1A2420AD2F0BD013000D311
:103E10000131121BFAD2013BF8D1A24200D2F0BD0F
:103E2000013000D30131121BF7E7F0B51C0C00D0B4
:103E300080E00CB400251C0A04D11B02160E33438B
:103E4000120208351C0B04D11B01160F334312015B
:103E500004359C0B04D19B00960F3343920002352E
:103E6000DC0B02D192185B4101351C0097186441AC
:103E70000134464F7C66464C3C660E0CFFE7FFE77C
:103E8000FFE7C0463C6F6643360C7703BE4697B2E9
:103E90007743C01B00D20139C01B00D201399FB249
:103EA0007743C91BC91B170C77437E04FF0B801B8C
:103EB000B941CE086643360C0C2D33DBB644120BE9
:103EC0001F053A431B0B97B27743C01B00D2013941
:103ED0009FB27743C91B170C77433E043F0C801BEE
:103EE000B941860D8F023E43664329277F1BFE4062
:103EF0000C3D7746AF40BF1930BCA2B2ABB27243A3
:103F00007343801A9941220C7243130C1204801AD5
:103F1000994102000B000137001BA941F9D2781E1C
:103F20000021F0BD0C277F1BFE4077467F0BAF4082
:103F3000FF19E0E700245D1C07D0144F7D66396649
:103F4000FFE7FFE7FFE7FFE73C6F95B29EB26543EF
:103F50006643401BB141150C1E0C65436643360495
:103F60002F0C3E432D04401BB141994204D2020064
:103F70000B0020000021F0BD01D19042F7D3801A40
:103F8000994101349942F2D3F6E70000000000D0D5
:103F9000FFFFFFFF48404140484018B41B4B5B689F
:103FA000FC46019308BD04DF5F42001018B4174BB4
:103FB0001B68FC46019308BD00DF6942001094466F
:103FC000134A926F920809D2624618B40F4BDB680D
:103FD000FC46019308BD0CDF214500100C4AF0B5EA
:103FE000146E556E576F166F6246FFF7EEFF084A64
:103FF0001466556657671667F0BD18B4034B9B6887
:10400000FC46019308BD08DFC54300108C0A002060
:10401000000000D0FFB550404240504059404B4056
:10402000594000E0FFB5154F4C00640D03D0BC4271
:1040300004D10C0314D80020090D09055C00640D9F
:1040400003D0BC4204D11C030AD800221B0D1B055F
:1040500001264B4009D44B4003D58B4200D182420C
:10406000FFBD9942FCD19042FFBD0B43DB180343D7
:104070001343F5D0C9434918FFBD0000FF070000F6
:1040800000B5FFF7CFFF804100BDC04600B5FFF788
:10409000C9FF01D9002000BD012000BD00B5FFF718
:1040A000B9FF01D9002000BD012000BD00B5FFF718
:1040B000B1FF804100BD012040054A00121804D81C
:1040C0005A00121801D800207047012070470020C4
:1040D000704700000021002805D17047C1174840F3
:1040E000401AFAD0C90713B5064B1B6898470CBC99
:1040F000441CA2401005120B0349091B0905194372
:10410000114310BD2C0A00201F04000010B54C0004
:10411000620D8023D218DB00D21A5B057E2A10DDE7
:104120009E3A13DACC170903490819435242D14089
:10413000640001341532202A05DAD0400843604378
:1041400010BD002010BD0846604310BDC80FC01848
:10415000013810BD18B4044B5B6AFC46019308BDDE
:1041600024DFD146001000008C0A0020132370B514
:104170001D78012D15D010DD2748FFF77DFC274C59
:1041800001008022200000F0C3FB022D06D024484D
:10419000FFF76AFC234B186070BD204C224AA264D2
:1041A000F5E72E001D4C204AA3085B421E401D422D
:1041B0002FD0330022602020B1006118801B0A60DC
:1041C0004A608A60CA600A614A618A61CA610A6299
:1041D0004A628A62CA620A634A638A63CA630A6479
:1041E0004A648A64CA640A654A658A65CA650A6659
:1041F0004A668A66CA660A674A674008102803D179
:104200008A67CA67A264C2E71E339B00E250A264B9
:10421000BDE70023CFE7C046534400008C0A0020CE
:104220004C3300002C0A00202D42001007B56046D8
:1042300001880A0A0230DF2AFAD1C9B2820804D3FF
:10424000028840880004104300E00068014A505092
:10425000039007BD8C0A00200FB403BC0CBCF0B562
:104260000124E407634000E0F0B50C0DCF0F661E9B
:104270003605891B640503D3C943404200D301318D
:10428000640D03D0661CF60A07D0E41B00207F00F3
:10429000791C89078912803C24031D0DDF0F6E1ED7
:1042A00036059B1B6D0503D3DB43524200D301331C
:1042B0006D0D03D06E1CF60A07D0ED1B00227F00A7
:1042C0007B1C9B079B12803D2D032F1B661B58D424
:1042D000A446202E46DA20371400BC401D00BD4005
:1042E000F24033412A4380185941CB0F05D0C943CE
:1042F000C043002264425041514162464D0D28D1D5
:104300000D0D07D100281FD0241940414941013A21
:104310000D0DF9D0640006D3013000D30131002C1B
:1043200001D140084000013A0BD4941CE40A04D1A6
:1043300012051144DB071944F0BDD907204B19437E
:1043400000E0D9070020F0BD0029DDD1002CDBD131
:10435000F0BD0132C6074008CD0728434908002EAA
:10436000E1D0D9E73C2E29DA203E40371400BC408A
:1043700000D00124F24014431A00BB401C43D31761
:10438000ACE7AC46202F08DA20360400B4400D001C
:10439000B540F84039412843A5E73C2F0CDA203FCF
:1043A00040360400B44000D00124F8400443080023
:1043B000B1400C43C117EAE710001900002494E74C
:1043C0000000F07FF0B50C0D661E3605891BE60A6D
:1043D0006405640D02D0651CED0A04D000200121A3
:1043E0000905803C2403A4461C0D671E3F05DB1B0A
:1043F000E70A6405640D02D0651CED0A04D00022B2
:1044000001231B05803C24037740644497B484B2A5
:1044100096B27443070C7E43150C6F4380B2684319
:10442000361802D3012000043F183004350C00195F
:104430007D41844688B29AB250430C0C62431F0CF3
:104440007C438EB27E43921902D301263604A4190E
:104450001604170C3618674101BC81B29AB2514359
:10446000040C62431B0C5C4380B25843121802D305
:104470000120000424181004130C401863412D1867
:104480005E410020474106BC88B293B258430C0CF1
:104490006343120C544389B251435B1802D3012188
:1044A0000904641819041A0C091862416D18564160
:1044B0000020474118BCF902720D1143F0026A0D49
:1044C0001043ED020A0D03D16D1940414941013BF2
:1044D000124E9B1B7600B3420ED26D0007D3013003
:1044E000002671416646354301D1400840001B0556
:1044F000C918E4072144F0BD0BDA013306D10130BD
:1045000004D101314F0D01D04908F2E7E107002045
:10451000F0BD013631050020EBE70000FF0300008D
:10452000F0B51C0D671E3F05DB1BE70A6405640D33
:1045300002D0661CF60A04D0002201231B05803C31
:104540002403D0252D060026F6432E661E096E662E
:10455000CE0FF619B44649004F0D02D07E1CF60A64
:1045600003D000200021403F3F033E1BB600B4446F
:10457000013F7F05C91B49082E6F013676089C0252
:10458000950D25437543ED137543AD1301356D103E
:10459000F603761B0CB4CC02450D2C43A2B2B3B289
:1045A0005A43270C7B43350C6F43A4B26C431B1951
:1045B00002D3012424043F191C041D0CA4187D41BE
:1045C00024196D41009A91B2ACB26143170C7C433F
:1045D0002B0C5F4392B25A43A41802D30122120457
:1045E000BF182204230C52187B41019C6C431B19F9
:1045F000520ED9010A434401A01A81B2B2B251430A
:1046000003145A43360C734387B27743D617D21933
:1046100000277E4136049B191704160C7F185E4153
:104620007316ED18F301002680337541A90F06D1EA
:104630006400690AE8055B0A184309D22FE00422E6
:10464000944480337541A90AA8059B0A184326D3D0
:10465000404149412404009A019B0D005543641BCD
:104660004343E41A95B286B27543170C7E43030C9C
:104670005F4392B25A43B61802D301221204BF1804
:104680003204330C52197B4152429C41002C02D41B
:104690000022013051414008CA071043490802B0C6
:1046A0006246D7079210084BD218084B9A4203D2A1
:1046B00012058918C919F0BD0020002A01DC390053
:1046C000F0BD01331905F5E7FD030000FE0700000A
:1046D000002200B5203200F004F8080000BD000000
:1046E00000220B150AD410B5944600F031F81414CA
:1046F000013400DA0021CB17144C204700200021A0
:1047000070476244343A0CD40C2A07DA0400914012
:10471000904052422032D440214310BDD843D94367
:1047200010BD203207D40C46944052422032114131
:10473000D040204310BD0800C917203203D4524294
:104740002032104110BD1800190010BD03470010A1
:104750000A0DCC0F531E1B05C91A520503D3C943BA
:10476000404200D30131520D03D0531CDB0A07D065
:10477000121B00206400611C89078912803A120311
:10478000014BD21A70470000FF030000514343431E
:10479000C9188C46110C83B24B4310B4040C61430E
:1047A00092B280B2504362431C041B0C001910BC2F
:1047B00059411304120CC018514161447047000064
:1047C0004840414048400E4B5B6818470C4B1B6803
:1047D00018470C4A936F9B0802D2094BDB681847B5
:1047E000F0B5146E556E576F166FFFF7F6FF054A5A
:1047F0001466556657671667F0BD014B9B681847EE
:104800008C0B0020000000D0491A002808D108466F
:1048100070470000C10FC90700D54042002817D0DB
:10482000F44603B40B4B1B68984706BC81409E3886
:104830004042803107D20B0607D04900490AC00523
:104840001043084360470130F8E7490A8902F5E759
:10485000704700002C0A0020014B5B6A18470000DB
:104860008C0B0020132310B512481C78FFF704F9B5
:104870000100012C0AD003DD80220F4800F048F827
:104880000E48FFF7F1F80E4B186010BD0A4C542289
:10489000200000F03DF80B4B6365A365E3652366DC
:1048A0006366A366E36623676367A367E3672362C0
:1048B000E361E5E7534600008C0B00204C33000019
:1048C0002C0A0020C948001007B5604601880A0A72
:1048D0000230DF2AFAD1C9B2820804D302884088A4
:1048E0000004104300E00068014A5050039007BDE7
:1048F0008C0B002001480421014B1847F0030020D5
:10490000893A0010014B1B6818470000F003002093
:10491000014B5B6818470000F0030020030010B54E
:1049200008001B681100984710BDC046F8B54746FF
:10493000CE4680B5437C07000D001600002B37D013
:1049400000240020002A1EDD4B1E98461B4B994672
:10495000002C2BD043461B5D0D3B5A425341DBB22A
:104960002A5D0A2A13D00134A642F1DC864203DD17
:10497000311A3B6828189847AD19013D2B780D3B3B
:104980005A4253413B740CBC90469946F8BD002BEB
:10499000E9D1A04203DA211A3B6828189847484613
:1049A00002213B68013498472000DDE73B7CD7E7D4
:1049B0000368110028009847E5E7C0467C580010BE
:1049C000F0B5C6460C000968060000B5802906D07F
:1049D0004B1C23606418267104BC9046F0BD0F4B3D
:1049E0001D68002D16D0231D98460D4F02E0ED687E
:1049F000002D0FD02B68002BF9D03B68002B01D085
:104A0000AB42F4D1280041462268FFF78FFFED68E2
:104A1000002DEFD101230021DBE7C046040A00206E
:104A2000080A0020F0B557464E464546DE461C00B3
:104A3000D023E0B51B061F68354B83B006000D0080
:104A4000180001A991469A4600F04EFB80460028C6
:104A500008D1019B7FB29F4204D0504600F04CFB2E
:104A6000012398466B1C03D1300000F0EDFA0500DD
:104A7000002C2AD1274F284B1C68002C18D04B46FD
:104A8000002B24D1254B994602E0E468002C0FD07E
:104A90002368002BF9D04B461B68002B01D0A342A2
:104AA000F3D120002A003100B847E468002CEFD190
:104AB0004346002B28D1681E8541E8B203B03CBCB8
:104AC00090469946A246AB46F0BD154FD3E7134B2F
:104AD00099460A239B4602E0E468002CE8D023684C
:104AE000002BF9D04B461B68002B01D0A342F3D119
:104AF0002A0031002000B8475A466B4620001A7140
:104B000001A90122B847E7E7504600F0D5FAD2E7FD
:104B1000480800202D490010040A0020080A00203F
:104B20001D490010F0B54746CE4680B583B06B46B0
:104B3000DF1CD02338701B061C68204B060001A91F
:104B40001800984600F0D0FA051E22D01C4B1C68B5
:104B5000002C2AD01B4B994602E0E468002C10D0B0
:104B60002368002BF9D04B461B68002B01D0A342D1
:104B7000F3D1200001223900FFF7D8FEE468002CB1
:104B8000EED1002D11D1300003B00CBC90469946F7
:104B9000F0BD019B64B29C420BD0404600F0ACFAE1
:104BA000074B01251C68002CD4D1404600F084FA44
:104BB000E9E7034B1C68002CCCD1E4E7480800204F
:104BC000040A0020080A002070B5040000F03CFA36
:104BD00000230100050001222000FFF723FF084BFE
:104BE0001C68002C06D06368002B05D09847E46849
:104BF000002CF8D1280070BDE468002CF3D1F9E74F
:104C0000040A00200D4A1368002B13D0834202D1FE
:104C100009E0984208D01A00DB68002BF9D100297E
:104C200000D0D06070471A000029FBD1DB68D36048
:104C3000C160F7E70029F5D01060F3E7040A00200F
:104C4000F0B54746CE46D02380B51B061D682E4BD7
:104C5000A5B007000C00180003A9984600F044FA1C
:104C6000061E07D1039B6DB29D4203D0404600F063
:104C700043FA01368422002103A8FFF743FE2300F4
:104C80003A00224803A9FEF7BFFE039B0700002B52
:104C900014D11F4B1C68002C06D06368002B0BD06E
:104CA0009847E468002CF8D1002E27D1380025B0B1
:104CB0000CBC90469946F0BDE468ECE7144B1D68C7
:104CC0009946002D1ED0134C02E0ED68002D11D046
:104CD0002B68002BF9D02368002B01D0AB42F4D114
:104CE000039B28001A0004A90193FFF71FFEED683B
:104CF000002DEDD14B4603951C68CCE7404600F0F3
:104D0000DBF9D3E70395CFE748080020C14900103D
:104D1000040A0020080A00200FB400B583B004A9DB
:104D200001C90191FFF78CFF03B008BC04B018471C
:104D300010B500F043F810BDF0B50D1E15DD0E4B9B
:104D40000D271A680D4B4519D31859424B410C4990
:104D50005B005E5E20210478A64207D09369194269
:104D6000FCD101301460A842F5D1F0BD936919421D
:104D7000FCD11760F2E7C046440A00200080FCBF67
:104D8000880A002030B50500002912DD002010241B
:104D9000094B013D1A6893691C4208D1013093699F
:104DA0001C42FCD113682B548142F4D130BD002841
:104DB000FCD103204042F9E7440A0020E12110B56C
:104DC0000B4B0C481B780C4B49021B780B4B1860A3
:104DD000FCF7F2F802210020FCF732F80221012052
:104DE000FCF72EF801210648FFF70CFF10BDC04666
:104DF000F058001000400340F4580010440A00200E
:104E000000040020F0B5DE46454657464E46E0B564
:104E1000060083B00D00FCF773F8304B2F79F118C2
:104E20004B4259412E4B052498468B009B464346E6
:104E30005A469B5820229C460123BB4001902C5788
:104E4000013BD21B002C32DB944243DCA340624680
:104E50001A423FD19946002F18D06B782A781B024E
:104E60001A43AB781B041343EA7812061A4392469E
:104E7000002351465A008D5A6A0B00D12D191A1978
:104E800012329200013395519F42F2D863464A464E
:104E900059461343424601985350FCF73DF8200011
:104EA00003B03CBC90469946A246AB46F0BD002AF2
:104EB00010DB19006046914014008946014207D179
:104EC000C9E7180061469040140081460842C2D0EC
:104ED000013AF6D20348FCF76FFEC0460000D0AF9F
:104EE00084090020C0580010F0B54E464546DE4605
:104EF00057468B464900E0B50D0080465D44ED0005
:104F00004544280009AC2678DC30741EA641894649
:104F1000016874428C4615491F268A46264056442D
:104F2000052B0ED9A02149058A461F27D8355146A1
:104F300054010C430532053B04603A402E60052BBA
:104F4000F5D859464944C90041449B0652011A43C9
:104F50000B000800DC331A606246D83006601A6025
:104F60003CBC90469946A246AB46F0BD80E00000AE
:104F7000F0B501258D400468AC434D0004606C1809
:104F8000E40004192600C836002B2AD01F68DC3440
:104F900037605F6877609F68DB68B76023606B1875
:104FA000DB001D008024D035451964012C43802589
:104FB0002D0625602560114C0D1D8C408460012458
:104FC0002700AF403D0008318C401F2106680A4091
:104FD0003543056005682C430460C018D830026072
:104FE000F0BD80277F023760F8277F027760C027F7
:104FF000DC343F03B7602360D1E7C0460101010103
:105000000022034B1B68A83318605A607047C046E3
:1050100018040020094B10B51C68094AA834206800
:105020006168084BFFF7B2FB012200238018594149
:10503000206061604800400810BDC0461804002090
:105040002D7F954C2DF4515810B5830727D0037848
:10505000002B26D00300032102E01A78002A1CD07E
:1050600001330B42F9D119680F4A104C8A188A4350
:1050700022420FD1043319680B4A8A188A4322420C
:1050800008D104331968084A8A188A432242F1D0A9
:1050900000E001331A78002AFBD1181A10BD030072
:1050A000E1E70020FAE7C046FFFEFEFE8080808038
:1050B000F8B5C0460000000001B40248844601BCB7
:1050C000604700BF5101002001B40248844601BC82
:1050D000604700BF7901002001B40248844601BC4A
:1050E000604700BF7901002001B40248844601BC3A
:1050F000604700BF0901002001B40248844601BC9A
:08510000604700BFC100002060
:105108000A0A096C6576656C2025640A00000000AF
:105118000A4C697665733A2025640A000A596F7546
:1051280072206D6F72736520636F64652069733ACE
:105138000909256300000000202025630000000005
:105148002020202020202020202020202020202057
:105158002020200909257300202020202573000025
:105168000A77726F6E6720616E737765720A74686A
:105178006520636F727265637420736571756E6301
:1051880065207761730920202573000020202025E1
:10519800730000000A436F72726563742100000097
:1051A80009092A2A2A2A2A2A2A2A2A2A2A2A2A2A99
:1051B8002A2A2A2A2A2A2A2A2A2A2A2A2A2A2A2A47
:1051C8002A2A2A2A2A2A2A0009092A2020202020D5
:1051D800202020436F6D706C65746564204C657683
:1051E800656C2025642120202020202020202A0AE8
:1051F8000000000009092A202020617474656D7080
:1052080074733A202020202020202020253264207A
:1052180020202020202020202020202A0A000000F2
:1052280009092A202020636F72726563743A20206E
:10523800202020202020202025326420202020200B
:10524800202020202020202A0A00000009092A20E6
:1052580020207375636365737320726174653A20E7
:105268002020202025326425632020202020202093
:1052780020202A0A0000000009092A2020206C6941
:10528800766573206C6566743A20202020202020E3
:105298002532642020202020202020202020202AA1
:1052A8000A00000009092A2020206C6576656C2018
:1052B800202020202020202020202020253264208B
:1052C8002020202020202020202020202A0A000022
:1052D80009092A202020617474656D7074733A205E
:1052E800202020202020202025326420202020205B
:1052F80020202020202020202A0A000009092A2016
:105308002020636F72726563743A20202020202069
:10531800202020202532642020202020202020202A
:10532800202020202A0A000009092A20202073753D
:10533800636365737320726174653A2020202020AE
:105348002532642563202020202020202020202AA8
:105358000A0000000A0A092A2A2A2A2A2A2A2A20AE
:1053680020436F6E67726174756C6174696F6E73D8
:1053780020202A2A2A2A2A2A2A2A000009092A2039
:105388002020202020596F7520636F6D706C657424
:105398006564206C6576656C2034202020202020F0
:1053A8002A00000009092A20202020205468616E64
:1053B8006B20796F7520666F7220706C6179696EE9
:1053C80067202020202020202A00000009092A2AFE
:1053D8002A2A2A2A2A2A2A2A2A2A2A2A2A2A2A2A25
:1053E8002A2A2A2A2A2A2A2A2A2A2A2A2A2A2A2A15
:1053F8002A0A00006572726F723A2062616420693D
:105408006E7075740A706C656173652074727920AA
:10541800616761696E0A00000A09092A2A2A2A2A8C
:105428002A2A2A204E6F204C69766573204C6566BF
:1054380074202A2A2A2A2A2A2A2A0A09092A2020FA
:10544800202020202020202047414D45204F564530
:1054580052202020202020202020202A0A09092A42
:105468002A2A2A2A2A2A2A2A2A2A2A2A2A2A2A2A94
:105478002A2A2A2A2A2A2A2A2A2A2A2A2A2A0A00CE
:105488000A4572726F722072656164696E6720697D
:105498006E707574000000002D2D2D2D2D0000005C
:1054A8002E2D2D2D2D0000002E2E2D2D2D0000002F
:1054B8002E2E2E2D2D0000002E2E2E2E2D0000001B
:1054C8002E2E2E2E2E0000002D2E2E2E2E00000009
:1054D8002D2D2E2E2E0000002D2D2D2E2E000000FD
:1054E8002D2D2D2D2E0000002E2D00002D2E2E2EC0
:1054F800000000002D2E2D2E000000002D2E2E0065
:105508002E2E2D2E000000002D2D2E002E2E2E2E9C
:10551800000000002E2E00002E2D2D2D0000000072
:105528002D2E2D002E2D2E2E000000002D2D0000DA
:105538002D2E00002D2D2D002E2D2D2E00000000CB
:105548002D2D2E2D000000002E2D2E002E2E2E008B
:105558002E2E2D002E2E2E2D000000002E2D2D007B
:105568002D2E2E2D000000002D2E2D2D00000000C8
:105578002D2D2E2E000000008855001004FF00007D
:1055880021622311001442A4486172647761726534
:1055980020616C61726D20256420616C72656164A4
:1055A8007920636C61696D65640000000A2A2A2A03
:1055B8002050414E4943202A2A2A0A004861726431
:1055C8002061737365727400666E6900666E692B7C
:1055D800000000006E616E00666E692D000000001C
:1055E800CA2F00107E2F00107E2F0010C22F00102F
:1055F8007E2F00107E2F00107E2F00107E2F0010AF
:105608007E2F00107E2F00107E2F0010BA2F001062
:105618007E2F0010B22F00107E2F00107E2F00105A
:10562800AA2F00104E310010E22F00105E3100103A
:10563800E22F0010D22F0010E22F0010E22F0010EE
:10564800E22F0010E22F0010E22F0010E22F0010CE
:10565800E22F0010F42F0010E22F0010E22F0010AC
:10566800E22F0010E22F0010E22F0010F42F00109C
:105678003E3200103A2F00103A2F00103A2F001037
:105688003A2F00103A2F00103A2F00103A2F00102E
:105698003A2F00103A2F00103A2F00103A2F00101E
:1056A8003A2F00103A2F00103A2F00103A2F00100E
:1056B8003A2F00103A2F00103A2F00103A2F0010FE
:1056C8003A2F00103A2F00103A2F00103A2F0010EE
:1056D8003A2F00103A2F00103A2F00103A2F0010DE
:1056E8003A2F00103A2F00103A2F00103A2F0010CE
:1056F800FC3300106A310010FC3300103A2F001000
:105708003A2F00103A2F00103A2F00103A2F0010AD
:105718003A2F00103A2F00103A2F00103A2F00109D
:105728003A2F00103A2F00103A2F00103A2F00108D
:105738003A2F00103A2F00103A2F00109630001020
:105748003A2F00103A2F00103A2F00103A2F00106D
:105758003A2F00103A2F00103A2F00103A2F00105D
:105768003A2F001096300010EA31001096300010E1
:10577800FC3300106A310010FC3300103A2F00107F
:10578800963000103A2F00103A2F00103A2F0010D0
:105798003A2F00103A2F0010963000109E3100105A
:1057A8003A2F00103A2F0010683200103A2F0010DC
:1057B800963000103A2F00103A2F00109630001043
:1057C800000000000000F03F00000000000024403E
:1057D80000000000000059400000000000408F4019
:1057E800000000000088C34000000000006AF84084
:1057F8000000000080842E4100000000D0126341A8
:105808000000000084D797410000000065CDCD411D
:1058180052656C6561736500626F6F74325F7732D1
:105828003571303830000000312E332E3000000042
:105838007069636F0000000061737369676E3032CE
:1058480000000000417072203135203230323200C1
:1058580006005250BBFF3CB63858001006005250A4
:10586800E182887F2058001006005250D3F075421C
:10587800185800100D0A00005541525420737464E2
:10588800696E000055415254207374646F7574003A
:105898005541525420737464696E202F20737464C8
:1058A8006F7574000600525053B4F4A19858001054
:1058B80008005250920000004E6F2070726F67729D
:0C58C800616D20737061636500000000DA
:1058D400B4020010A80200109C02001058580010D6
:1058E400900200106458001070580010AC5800105A
:0458F400B858001090
:1058F800D02330B500251B0600245D5706E0036859
:10590800BFF35F8F1C6081F3108820BF0268EFF33C
:10591800108172B61368002BFCD0BFF35F8F037938
:105928007F2BECD905710368BFF35F8F00221A60E3
:1059380081F3108830BDC046030010B50068EFF34E
:10594800108472B60268002AFCD0BFF35F8F04226D
:105958009A56002A0BDB00290FD000200A601B682A
:10596800BFF35F8F00221A6084F3108810BDD02225
:105978001206126801201A71F1E70020EFE7C0460D
:105988000268EFF3108172B61368002BFCD0BFF3E6
:105998005F8FFF2303710368BFF35F8F00221A60D4
:1059A80081F3108840BF70477047C04630313233AA
:1059B8003435363738394142434445464748494AE1
:1059C8004B4C4D4E4F505152535455565758595AA7
:1059D8000200000003000000A0540010A8540010AA
:1059E800B0540010B8540010C0540010C85400102F
:1059F800D0540010D8540010E0540010E85400109F
:105A0800F0540010F4540010FC5400100455001019
:105A1800EC540010085500101055001014550010D3
:105A28001C55001020550010285500102C5500104A
:105A380034550010385500103C55001040550010E2
:105A4800485500105055001054550010A45400102B
:105A5800585500105C55001064550010685500102A
:105A6800705500107855001000000000000000007C
:105A7800000000000000000000000000000000001E
:105A88000A090957656C636F6D6520746F20546847
:105A980065204D6F72736520436F646520436861AC
:105AA8006C6C656E67650A0A43686F6F7365204C96
:105AB8006576656C3A0A4C6576656C203109094C47
:105AC8006576656C203209094C6576656C2033096A
:105AD800094C6576656C20340A2E2D2D2D2D09096B
:105AE8002E2E2D2D2D09092E2E2E2D2D09092E2E67
:105AF8002E2E2D0A0A000000000000000000000001
:105B08000A4C6576656C20636F6D706C65746564AE
:105B1800210A436F6E74696E756520282E292074DA
:105B28006F206E657874206C6576656C206F7220C6
:105B38005175697420282D293F0A000000000000D3
:105B48000000000005000000000000000000000048
:105B5800030000000000000000000000000000003A
:105B68002D00000000000000000000000000000000
:105B78002E000000000000000000000000000000EF
:105B88000A0A0000000000000000000000000000F9
:105B9800200010007C03002000000000680800209E
:105BA800C40900200000000000000000D409002003
:105BB80000000000000000001000000000000000CD
:105BC80000000100000000000000000000000200CA
:105BD80000000000000000000000030000000000BA
:105BE800000000000000FF000000000000B5486849
:105BF80001318E460047704609380149884700BD83
:105C0800FD2000100000000000000000000000005F
:105C1800503300004C33000054330000523300006E
:105C28004D5300004D43000053340000433400003E
:105C3800394D001000000000854D001000000000E4
:105C48000001000000000000200400200000000007
:105C5800000000000C07002074070020DC0700206B
:105C6800000000000000000000000000000000002C
:105C7800000000000000000000000000000000001C
:105C8800000000000000000000000000000000000C
:105C980000000000000000000000000000000000FC
:105CA80000000000000000000000000000000000EC
:105CB80000000000000000000000000000000000DC
:105CC80000000000000000000000000000000000CC
:105CD80000000000000000000000000000000000BC
:105CE80000000000000000000000000000000000AC
:105CF800000000000000000001000000000000009B
:105D08000E33CDAB34126DE6ECDE05000B0000005F
:105D1800000000000000000000000000000000007B
:105D2800000000000000000000000000000000006B
:105D3800000000000000000000000000000000005B
:105D4800000000000000000000000000000000004B
:10608800F5480010593A00106D410010654800109D
:0460980039030010B8
:04000005100001E9FD
:00000001FF
